:020000040800F2
:1000000020130020D50000088D3900083129000890
:1000100000000000000000000000000000000000E0
:10002000000000000000000000000000175C000855
:100030000000000000000000894400082575000849
:10004000E7000008E7000008CF4A0008E7000008C2
:10005000E70000083B0E00084B0E00085B0E00088E
:1000600000000000E7000008E7000008310E00086B
:10007000E7000008E700000800000000E7000008B3
:1000800000000000E7000008000000000000000081
:10009000E700000800000000E7000008E700000893
:1000A000E7000008E7000008E7000008E700000894
:1000B000F5770008E70000080000000000000000DD
:1000C0000348854600F078FC004800475D8800083A
:1000D000201300200448804704480047FEE7FEE75D
:1000E000FEE7FEE7FEE7FEE7B9750008C10000087D
:1000F00030B50B46014600202022012409E00D46C0
:10010000D5409D4205D31D469540491B2546954047
:1001100040191546521E002DF1DC30BD70B500248B
:100120002546002801DA01244042002901DA012590
:100130004942FFF7DDFFAC4200D04042002C00D026
:10014000494270BDF0B51FB40646002082B0054696
:100150004024019100901BE0019922460F46304651
:1001600000F0F4FA049A059B801A994110D31046C6
:100170001946224600F0DAFA361A8F4101972246D4
:1001800001200021009F00F0D1FA38184D41009065
:100190002046641E0028DFDC019B00982946324679
:1001A00007B0F0BD03460B439B0703D009E008C925
:1001B000121F08C0042AFAD203E00B780370401C17
:1001C000491C521EF9D27047D2B201E00270401CA5
:1001D000491EFBD270470022F6E710B513460A46C7
:1001E00004461946FFF7F0FF204610BD0321001D0D
:1001F000401E037812021A43491EF9D51046704773
:10020000F8B502464A40D40F42004B0052085B0842
:100210009A4202D20246084611464A0023D0C30D34
:100220004A00DDB2120EAD1A202D35DA4902012640
:10023000490AF6058A19002C00D0524220214F1B92
:100240001146B9402A411018C20D9A4221D0002C03
:1002500017D0012D08DCDA05801AD20F8019D207D9
:10026000DBB200F09FFAF8BDDA05801A01234000E6
:100270001B06C01880185A428018CA0F1043490044
:1002800007E04908C2071143DA05801A80194008BF
:10029000801800F07FFAF8BD61000122511A001B9E
:1002A000F7E70122D2075140AAE70122D2075040C6
:1002B000A6E70000F0B507460846584087B0C00FD3
:1002C000049048000E46590040084908BC1A88416D
:1002D00005D2384631461E4617460B4602465800A0
:1002E000400810434CD0300D039040055900400D9C
:1002F000490D0590401A0290402872DA1803012136
:10030000000B09050843019004980092002805D0CD
:1003100001995242002088410092019002984021A8
:100320000A1A0199009800F001FA05460C466B463E
:1003300007CB00F01CFAC0197141039A0E0D00237F
:10034000D71756401A467A40164344D0049A002ADA
:100350002DD0029A012A039A15DC1205C01A914188
:1003600001263605001C7141D20F059ED20700936D
:10037000019202962A46234600F05AFA07B0F0BDD1
:1003800038463146FAE71605224A0F46B218C01A17
:10039000B74101210905001C4F4100187F4111465A
:1003A00018187941E20F10436D19644113E0E20718
:1003B0006D0815436408C2071443039A0126120509
:1003C000C01A91413605001C7141CE0740083043E8
:1003D0004908C01851412A46234600F01CFACDE7CF
:1003E000FFE7049801224000C117121A00238B4135
:1003F00004983146C417381AA141EEE730B40124FD
:10040000E407634030BC55E730B40124E4076140A1
:1004100030BC4FE70000E0FFF0B51FB488B00B9987
:100420000998002448400999C00F490049080991DA
:10043000C0070B990090490049080B910999089849
:10044000A64608431CD00B990A98084318D009986F
:1004500001244000420D4800410D09982405000385
:10046000000B204309900B980003000B20430B90D6
:1004700050181C494018002201901446104605E00F
:10048000002001460DB0F0BD032801DA034600E06C
:1004900003239C46C11A0AAE0AE05F0008ADED5B7B
:1004A0004F00F75B7D430027AA187C41491C5B1E67
:1004B0006145F2DD410004AB5A522104120C0A439B
:1004C000240C401C0828DFDB01980290009970463C
:1004D00001910090059B049A0799069800F0A8F9ED
:1004E000D0E700000DFCFFFFF0B50C465C4085B086
:1004F000E40FE40703944C00002664085900944676
:10050000490802460296224321D062460A431ED081
:100510006200570D4A000E032303550D01240246C5
:100520002C492405781B1B0B360B4018234326430C
:10053000614600901C46501AB44103D30098401CF9
:10054000009002E0921800985B41002803DA002036
:10055000014605B0F0BD0020012109050746864689
:1005600011E064461D46141BB54106D36546521B77
:10057000B341744607430C43A646CD0740084908DB
:10058000284392185B4105460D43EAD110461843B3
:1005900013D06046194650407140084306D060466B
:1005A000101AB34106D20122002306E000220123E3
:1005B000DB0702E00122D243531000987446010584
:1005C000381C6141029C039D0019694100F023F928
:1005D000BFE70000FD03000070B54B005B0803435C
:1005E0000BD04B005C0D002633466542B341D41757
:1005F000AD1AA34102DB0020014670BD1205301880
:10060000514170BD10B500229623114600F0CAF882
:1006100010BD00000EB5C217C10F5040CA074018E8
:100620000021054B0293019200910A460B4600F00F
:10063000FFF803B000BD0000330400000EB505490B
:100640000291002100910A460B46019100F0F0F85A
:1006500003B000BD3304000070B5CD0F4A0009039C
:100660000123090B1B0519430B4BED070024520D09
:100670009A4201DA002070BD074B34339A4203DC02
:100680009A1A00F063F802E00449511888402C439C
:10069000F1D0404270BD0000FF030000CDFBFFFF22
:1006A0004A0009030123090B1B051943094B10B527
:1006B000520D9A4201DA002010BD064B34339A42A3
:1006C00003DC9A1A00F042F810BD03495118884023
:1006D00010BD0000FF030000CDFBFFFFC20FD207DB
:1006E000400040080BD0C10D0723DB01C9184002B0
:1006F0000905400A1143C208400711437047002012
:100700000146704710B5002904DB0124E40740428C
:100710008C412146002B04DB1C460123DB0752429F
:10072000A341994200D1904210BD000010B5202A8B
:1007300004DB0146203A9140002010BD9140202367
:100740009C1A0346E3401943904010BD10B5202A7F
:1007500004DB0846203AD040002110BD0B46D340B0
:10076000D0402024A21A91400843194610BD10B56C
:10077000202A06DBCB170846203A1041C1170B434D
:1007800006E00B461341D0402024A21A91400843B2
:10079000194610BD002904DA401C490001D1400867
:1007A0004000704770B40024050C05D110240004EB
:1007B00002D1002921D01124050E01D100020834F4
:1007C000050F01D10001241D850F01D18000A41C5B
:1007D000002801DB4000641C002908D020252E1BC6
:1007E0000D46F540A14000D00121294308430106F0
:1007F0001B1B000ADB1D02D5002070BC7047DB0507
:10080000181880180029F8DA401C4900F5D170BC8E
:1008100040084000704710B5002B08DA0024401C47
:10082000614192185B411A4301D14008400010BD5C
:10083000F0B51FB482B005460C0003D0084607F09F
:100840005DF802E007F05AF8203002460090214699
:100850002846FFF76BFF049B059A04460F46184392
:100860001143084314D0184610431BD00098402170
:100870000A1A18460599FFF769FF05460E46009AC1
:1008800005990498FFF752FF084305D0012004E0C2
:100890002046394607B0F0BD0020C11705430E437E
:1008A0002C43374300990E986305401A7905E40AF2
:1008B00000220C43FD0A0A3002D500200146E9E778
:1008C0000105101969410C9C0D9D00196941FFF744
:1008D000A2FFDFE7F8B50546480040080C4628436C
:1008E00004D06000184A400D904201DD2846F8BD52
:1008F00015493539884210DC88420BDB290D20036D
:1009000008432903014305D0E00F1049C0074118EF
:100910000020F8BD00200146F8BD161A4020821BB9
:1009200028462146FFF702FF074600912846214648
:100930003246FFF70BFF3A46009BFFF76CFF32464B
:10094000FFF7F4FEF8BD0000330400000000F03FA4
:100950004A0009030123090B1B0519430A4B10B573
:10096000520D9A4202DA0020014610BD064B343384
:100970009A4203DC9A1AFFF7E9FE10BD034BD21826
:10098000FFF7D4FE10BD0000FF030000CDFBFFFF0A
:1009900010B5002904DB0124E40740428C412146C4
:1009A000002B04DB1C460123DB075242A3418B4290
:1009B00000D1824210BD0000064C0125064E05E024
:1009C000E36807CC2B430C3C98471034B442F7D370
:1009D000FFF77AFB209300084093000870B58C184D
:1009E0000578401C6B075B0F01D10378401C2A116E
:1009F00006D10278401C03E006780E70401C491CAA
:100A00005B1EF9D12B0705D40023521E0DD40B70A9
:100A1000491CFAE70378401CCB1A921C03E01D78AE
:100A20000D70491C5B1C521EF9D5A142D8D3002081
:100A300070BDF0B589B00C4607461022002168460B
:100A400007F050FF69462246084607F0FEFB68465D
:100A5000007887260106684600290FDA002143182E
:100A6000425C5B785200DB091A434254491C0F294F
:100A7000F5DBC17B0246490071400DE000214318BF
:100A8000425C5B785200DB091A434254491C0F292F
:100A9000F5DBC17B02464900D173E21DF932516991
:100AA000102912D0017809061BD500214518435C96
:100AB0006D785B00ED092B434354491C0F29F5DB8E
:100AC000C17B03464900714019E000216218FF32E2
:100AD00001325378455C491C6B4053701029F5DB9B
:100AE00026E000214518435C6D785B00ED092B433F
:100AF0004354491C0F29F5DBC17B03464900D973D8
:100B0000E11D55698023FA316B54002500E05D54E6
:100B100053695B1C5361102BF9D300216218FF321B
:100B200001325378455C491C6B4053701029F5DB4A
:100B3000002162181046FF32E0300132437C5278C7
:100B4000491C534043741029F3DB21461022F13134
:100B500004A807F0AFFE2246394604A807F075FB4B
:100B600010220021684607F0BDFE09B0F0BD10B5A7
:100B7000044610220021F13007F0B4FEFF200021CE
:100B800015300151F022204607F0ACFE10BD0B4697
:100B900010B502461021184607F082FB10BDF0B5D3
:100BA0000446FF308BB00F4601300890E11D4069CC
:100BB000FA310091103915460791002843D01021D1
:100BC0000E1AAE4200D316460099B2B2401839460A
:100BD00007F070FE0898089940698019486110284C
:100BE0003AD3B54238D0002162181046FF32E030C7
:100BF0000132437C5278491C534043741029F3DB83
:100C000007992246084607F020FBBF19AD1B1AE0E2
:100C100000202118E0314A7C3B5C401C5A404A7459
:100C20001028F6DB102202A8079907F043FE02A95C
:100C30002246084607F009FB102202A9079807F090
:100C400039FE103D1037102DE2D8AAB2394600986F
:100C500007F030FE089845610BB0F0BDF7B52349A9
:100C60008022497A214B511ACDB2197A5B7A8026BB
:100C7000F31A0A46DEB2871E491C0124C9B2761E49
:100C80003B0006F06AFE09060C060C120C06062B49
:100C90003000164BAA4224D2154CA05403E0134B4B
:100CA000B24215DB1DE019720DE0104EAD1EAA42D6
:100CB00017DA0F4B985401985854491CC8B202993E
:100CC0001954401C3072002408480121C17108E009
:100CD000074CA05401986054491CE4E7034BAA4216
:100CE000F6D32046FEBD0220FEBD0000C400002059
:100CF000820900203EB50D4C6946E2780A70227DDB
:100D00008A70C870606B06F087FC0190E06B0290FF
:100D1000E07D69464870207C03F009FF218CE06B80
:100D20004143081AA16D4018A0653EBDC4000020D3
:100D3000FFB5002085B000900546064601900024CE
:100D4000770007980121C05BA14008422FD02819E5
:100D50000C2203905043089A1258002A27D0059A73
:100D6000002A01D1490722D0089941180820029190
:100D70000856021100070117069840B204F0E7F880
:100D8000002814D00298407A01010E980818C06813
:100D9000002804D00198401CC0B2019007E0009ADE
:100DA0000F99039888540098401CC0B20090641CAE
:100DB000E4B2102CC5D31035761CEDB2F6B2102D6E
:100DC000BDD3109901980870009809B0F0BD0000DB
:100DD00030B587B014216846FFF7FDF90320019074
:100DE0000020029003204003104C0090E06A012193
:100DF0000843E062E06A0840059005206946000764
:100E000000F0B6F8E06A40084000E062606B01253F
:100E1000AD052843606300F083F800F091F800F01E
:100E200087F8606BA843606307B030BD00100240D4
:100E3000704710B501F000FB10BD10B5012000F0A7
:100E40008BF8022000F088F810BD10B5042000F0E7
:100E500083F8082000F080F810BD10B5102000F0D5
:100E60007BF8202000F078F8402000F075F8802012
:100E700000F072F8FF20013000F06EF8012040020F
:100E800000F06AF80120800200F066F80120C0023C
:100E900000F062F80120000300F05EF8012040033A
:100EA00000F05AF80120800300F056F80120C0033A
:100EB00000F052F810BD000001A007F03DFFFEE772
:100EC0004572726F725F48616E646C65720A0D00E4
:100ED0000649800009580648091803D0C14203D0CA
:100EE000002070470120704702207047748F00086F
:100EF000702FFCFF10B5094A0021CB00D458844262
:100F000007D89B189B68834203D9C80080180079D2
:100F100010BD491CC9B21529EFD3FEE7688E000841
:100F20000248416849084900416070470058014043
:100F300002484168042291434160704700580140D3
:100F400002484168022291434160704700580140C5
:100F500010B501F0FDF910BD10B504494A6902420F
:100F600002D04861FFF7F4FF10BD0000000401400B
:100F7000F8B500230124A2E027469F403A4070D0F4
:100F80004D68022D01D0122D14D1DD08AD002D18B1
:100F900000952D6A5E07AC46F50E0F26AE46AE40B4
:100FA0006546B543AC460E697546AE4065462E4370
:100FB000009D2E624D68012D05D0022D03D0112D0C
:100FC00001D0122D16D185680326AC465D00AE46D1
:100FD000AE406546B543AC46CE687546AE40654604
:100FE0002E43866046680D79BE43ED06ED0F9D40A9
:100FF0003543456006685F000325BD40AE46AE43FD
:101000000D79B446AE07B60FBE4065462E43066066
:10101000C6687546AE438D68BD403543C5604D68B2
:10102000ED004BD5294D6E6B26436E639E08284D0F
:10103000B6007519AC46AD689E07360F0F27B7404E
:10104000BD4305273F07B84201D1002715E0214FD6
:10105000B84201D1012710E01F4FB84202D1022748
:101060000BE02BE01D4FB84201D1032705E01C4FD8
:10107000B84201D1052700E00627B7402F43654657
:10108000AF60184D2E684F689643FF0300D5164396
:101090002E606E684F689643BF0300D516436E609E
:1010A000AE684F689643FF0200D51643AE60EE6807
:1010B0004F689643BF0200D51643EE605B1C0A687A
:1010C0001546DD4000D057E7F8BD00000010024093
:1010D000000001400004005000080050000C0050C7
:1010E000001C005000040140002A01D081617047BB
:1010F00081627047014800687047000024000020AA
:1011000002480168491C016070470000240000206B
:1011100010B506480168022211430160032000F067
:1011200007F800F007F8002010BD00000020024082
:101130000020704710B50848816B02041143816399
:1011400000F036F800F02CF804480168082211433A
:10115000016000F01DF810BD0010024000200240A8
:10116000C106C90E0120884001490860704700008F
:1011700000E100E0C106C90E012088400149086075
:101180007047000000E200E010B502F001FC10BD65
:101190000248016802151143016070470070004069
:1011A0000248016842151143016070470070004019
:1011B00002480168102291430160704700700040AE
:1011C000094B1A689208920002431A6007480269A4
:1011D00004239A430261012903D040BF20BF20BFEE
:1011E000704730BF704700000070004000ED00E025
:1011F0000A4B1A689208920002431A600848036971
:10120000042213430361012906D040BF20BF20BF41
:10121000016991430161704730BFF9E700700040F8
:1012200000ED00E0F8B504460078544D800672D514
:10123000524E0027403EB06BC00004D4B06BA905ED
:101240000843B06301274E480168C90511D40168FD
:10125000821511430160FFF74DFF009005E0FFF795
:1012600049FF0099401A642837D845480068C005EE
:10127000F5D532680321090560680A4001409142B2
:1012800008D08103890F032904D13168890301D56E
:101290000120F8BD2A69032109040A4022D0084030
:1012A00090421FD0207880061CD528692A6988437F
:1012B0000121C9040A432A612A698A432A612861F3
:1012C000C0050FD5FFF716FF009008E0FFF712FFEB
:1012D0000099411A2B48814201D90320F8BD2869A1
:1012E0008005F3D561688803800F032805D1326833
:1012F0000005824301400A43326028690322616885
:101300001204114008432861002F04D0B16B012062
:1013100000078143B1632078C00705D0E868A16861
:10132000800880000843E8602078800705D5E868D9
:101330000C218843E1680843E8602078400706D51F
:10134000E86803218902884321690843E86020781E
:10135000000706D5E868032109038843616908434B
:10136000E8602078000606D5E868032189048843F0
:10137000A1690843E8600020F8BD00004010024069
:101380000070004088130000F8B5054653480E462B
:101390000068C007C00FB0420AD25048016849082F
:1013A0004900314301600068C007C00FB0426FD1EF
:1013B00028784B4C800705D5E068F0218843A96860
:1013C0000843E0602878C00752D06868022817D028
:1013D000032818D02168012818D08905002957DA78
:1013E000E168890889000143E160FFF783FE6968CD
:1013F0000746022912D003291CD0012926D033E048
:1014000021688903EAE721688901E7E74907E5E7F9
:10141000FFF770FEC11B3348814223D8E068000704
:10142000800F0228F4D123E0FFF764FEC11B2D4892
:10143000814217D8E0680007800F0328F4D117E035
:10144000FFF758FEC11B274881420BD8E068000710
:10145000800F0128F4D10BE0FFF74CFEC11B21489F
:10146000814201D90320F8BDE0680007800FF3D165
:101470001A480168C907C90FB1420BD90168490868
:101480004900314301600068C007C00FB04201D07D
:101490000120F8BD2878400706D5E0680721090239
:1014A0008843E9680843E0602878000707D5E068CA
:1014B0000721C90288432969C9000843E06000F098
:1014C00017F8E168084A0906090F515CC840074946
:1014D00008600320FFF72CFE0020F8BD002002402A
:1014E0000010024088130000188F00082000002020
:1014F00010B5184AD1680C20084004280BD00828E1
:1015000010D00C2810D050680004410F0120C003F7
:10151000491C884010BD1068C00601D50E4810BD9A
:101520000E4810BD0E4810BD88020E4B000F185C0F
:101530000902D368890F491CDB0301D5084A05E07D
:101540001268D20601D5044A00E0044A5043FEF76F
:10155000CFFD10BD0010024000093D000024F40042
:1015600000127A00288F0008F8B504460078F34D81
:10157000C0074CD0E8680007800F022807D0E86851
:101580000007800F032809D1E868C00306D5286842
:1015900080033CD56068002875D038E0012062687F
:1015A0000004824203D129680143296011E0052328
:1015B00001211B0489049A422A6802D10A432A6045
:1015C000F1E782432A602A68024000922868884333
:1015D0002860606800280DD0FFF78CFD0646D84FC4
:1015E00004E0FFF787FD801BB8427DD828688003A0
:1015F000F7D50CE0FFF77EFD0646D14F04E0FFF77C
:1016000079FD801BB842F0D828688003F7D4207891
:10161000800741D5E8681F270007800F3F02012897
:1016200007D0E8680007800F032809D1E868C003E5
:1016300006D42868400717D5E068012823D113E0B5
:10164000E068002817D029680922914301432960E6
:10165000FFF750FD064604E0FFF74CFD801B022813
:10166000C3D828684007F7D568682169B8430902DC
:101670000843686010E02868400840002860FFF7D1
:1016800039FD064605E090E0FFF734FD801B022897
:10169000ABD828684007F7D42078C00676D5E8682C
:1016A000A84E0007800F0BD0A06900285DD02868E5
:1016B000FF21013108432860FFF71CFD074644E085
:1016C0002868800502D5A06900286ED0206A696864
:1016D0003140884212D903F093F90028AED16868EE
:1016E000216AB043084300E0BDE068606868217F7C
:1016F0000002000A0906084368600FE06968B14308
:10170000014369606868217F0002000A09060843F6
:101710006860206A03F074F900288FD1206A410BB9
:101720000120C003491C8840E968874A0906090F5F
:10173000515CC840854908600320FFF7F9FC25E0AB
:10174000FFF7D8FCC01B02288AD828688005F7D587
:101750006868216AB043084368606868217F0002B6
:10176000000A09060843686010E02968FF2001307C
:1017700081432960FFF7BEFC064604E0FFF7BAFC90
:10178000801B02286FD828688005F7D42078704E17
:10179000000723D560690028306910D00121084373
:1017A0003061FFF7A7FC074605E0C5E0FFF7A2FCA4
:1017B000C01B022857D830698007F7D50EE04008D3
:1017C00040003061FFF796FC074604E0FFF792FC0B
:1017D000C01B022847D830698007F7D4207840071B
:1017E00062D5A86B0027C00005D4A86B01210907AA
:1017F0000843A863012757480168C90511D4016847
:10180000821511430160FFF775FC009005E0FFF7BA
:1018100071FC0099401A642825D84E480068C0051C
:10182000F5D5FF20A2680130824203D1316901431E
:10183000316111E001218902002A07D005231B0232
:101840009A4203D132690A433261EFE73269824337
:101850003261306988433061A06800280FD0FFF7FB
:1018600049FC009007E060E0FFF744FC0099411A52
:101870003348814259D830698005F5D50DE0FFF72E
:1018800039FC009006E0FFF735FC0099411A2C481E
:1018900081424AD830698005F5D4002F04D0A96B65
:1018A000012000078143A963606A002842D0E968EB
:1018B0000907890F03293FD0012636060228286828
:1018C00005D0B0432860FFF715FC04462FE0B04375
:1018D0002860FFF70FFC074604E0FFF70BFCC01B76
:1018E000022822D828688001F7D4E16AA06AEA6851
:1018F0000843216BFD231B049A4311430843E8600E
:10190000286830432860FFF7F5FB044604E0FFF742
:10191000F1FB001B022808D828688001F7D509E0F0
:10192000FFF7E8FB001B022801D90320F8BD286857
:101930008001F5D40020F8BD0120F8BD0010024060
:101940008813000000E00000188F0008200000202D
:10195000401002400070004030B5014620310A7846
:10196000012A15D001220A7002234B700468CA2391
:10197000636204685323636203689C6820252C43D8
:101980009C600068FF2343624A700020087030BDED
:10199000022030BD10B505F061FE10BDF8B505465A
:1019A00004462035287801281DD001202870022007
:1019B00068702268CA205062226853205062FF205B
:1019C00001300026FF2781421CD121688A688243AA
:1019D0008A60206881680122120391438160FFF7C9
:1019E00089FB009009E00220F8BDFFF783FB009916
:1019F000411A7D20C00081421BD82068C068C00702
:101A0000F3D020E020688168012252029143816076
:101A100020688168120191438160FFF76BFB0090A1
:101A20000DE0FFF767FB0099411A7D20C00081425D
:101A300005D920684762032068702E70F8BD2068C1
:101A4000C0688007EDD520684762012068702E705D
:101A50000020F8BD10B500680B464068C021C9439E
:101A600001400002000ECC04D870E40E5C708C06BD
:101A7000A40E0904490F9C701970002A0AD102F0C3
:101A8000F7FFD870587802F0F3FF5870987802F09A
:101A9000EFFF9870002010BD30B50B460168896AD1
:101AA0005960016809694904490C99600068046833
:101AB0000F482146014088024D04800E18706D0EBB
:101AC00049065D70490E99706102490E402421401B
:101AD000D970002A0AD102F0CBFF1870587802F0B2
:101AE000C7FF5870987802F0C3FF9870002030BD8F
:101AF0007F7F7F0070B5040005D0254620356878CB
:101B0000002802D006E0012070BD00202870204689
:101B100000F042F8022068702168CA2048622168FB
:101B200053204862204602F0B6FFFF2100282068BB
:101B300003D0416204206870E5E78268154B1A40C3
:101B40008260226890686368A669184323693343FA
:101B5000184390602268E068106120680269238958
:101B60001B041A4302612068C26880239A43C26042
:101B70002068C26C92089200C264E2696069024304
:101B80002068C36C1A43C2642068416201206870F7
:101B9000002070BDBFFF8FFF00B595B004200090FE
:101BA00000200990FF20013002906846FFF7DCFC1E
:101BB000002801D0FFF780F920200D90C0020E9080
:101BC0000DA8FFF72FFB002801D0FFF775F9084893
:101BD0000169012292041143016100221146022091
:101BE000FFF7D2FA0220FFF7BBFA15B000BD0000E4
:101BF00040100240FEB506460446203630780B46BB
:101C0000012842D0012030700220707020681D46EB
:101C1000002720358068002A39D0400655D518782D
:101C200002F026FF287802F023FF1978987809043B
:101C300008435978DA7809021204114308432978D5
:101C400009060843D9690843596908430546996953
:101C50005868084300902168CA20486221685320D0
:101C60004862FF205A6A0130802182424AD12268AC
:101C70009368834393602268D0680840FF388238B5
:101C8000D060FFF737FA019029E00220FEBD400640
:101C900000D4DF70187802F0F3FE0204587802F0E6
:101CA000EFFE00020243987802F0EAFE0243D87881
:101CB00000040243287802F0E3FE00060243D869DC
:101CC0000243586902431546C1E7DF70AAE7FFF7F0
:101CD00011FA0199411A7D20C00081422AD820685A
:101CE000C068C007F3D02068C561216800984864C7
:101CF00020688168FF220132114381602068816879
:101D0000120130E02068826801235B029A438260FE
:101D10002068C2680A401D495118C160FFF7EAF9FE
:101D200001900EE0FFF7E6F90199411A7D20C0000D
:101D3000814206D92168FF20486203207070377005
:101D4000FEBD2068C0688007ECD520680562216868
:101D500000988864206881680122520211438160E2
:101D600020688168120111438160094802680121DD
:101D700049040A43026082680A4382602168FF20A6
:101D800048620120707037700020FEBD7FFDFFFFAC
:101D900000040140F8B505460446203528780B4676
:101DA000012815D001202870022068705878002A78
:101DB00010D002F05DFE987802F05AFED8789E7836
:101DC000000406435878197800024903084316E0D6
:101DD0000220F8BDC10603D5EF2108400A30587033
:101DE000D87802F04DFE0604587802F049FE000251
:101DF0000643987802F044FE0643187840030643F1
:101E00002168CA204862216853204862204602F0B7
:101E100042FE0027002811D1104806402068466085
:101E20002068C16880229143C16020688068800674
:101E30000CD4204600F08CF8002807D02168FF2041
:101E40004862042068702F700120F8BD2168FF20CF
:101E50004862012068702F700020F8BD3FFFFF002E
:101E6000F8B506460446203630780D4601280ED0D7
:101E70000120307002207070206800278068002ADE
:101E800007D040061AD5287802F0F2FD17E00220AC
:101E9000F8BD400600D4EF70287802F0F1FD02048E
:101EA000687802F0EDFD00020243A87802F0E8FD38
:101EB0000243E8780004024300920BE0EF702978B7
:101EC000A878090408436978EA78090212041143E2
:101ED000084300902168CA20486221685320486264
:101EE000204602F0D8FD00281FD11849009808406C
:101EF0002168086020688168012292049143816012
:101F00002969E868084321688A6810438860206866
:101F1000C16880229143C1602068806880060CD42B
:101F2000204600F015F8002807D02168FF204862FD
:101F30000420707037700120F8BD2168FF204862CE
:101F40000120707037700020F8BD00007F7F7F0097
:101F500070B504460068C168A0229143C160FFF7D4
:101F6000C9F87D260546F60006E0FFF7C3F8401BDA
:101F7000B04201D9032070BD2068C0688006F4D546
:101F8000002070BD70B5040006D025464035687C41
:101F90000026002802D005E0012070BD2E742046E6
:101FA00000F032F8022068742068016840229143F2
:101FB0000160A168606822690843E1681143084331
:101FC000616901220843A169520211400843E16995
:101FD0000843216A0843A16A084321680860A06990
:101FE0000421000C0840616A0843216848602168A8
:101FF000E06A08612068C16992009143C161666529
:1020000001206874002070BD7047F8B504460027B1
:102010006846078026464036707C012802D0707CD6
:1020200022287ED100290CD0002A0AD0002B08D00B
:10203000307C012875D001203074707C012802D0DA
:1020400003E00120F8BD322070746765A263A387A6
:10205000E3872163A386E386A764E7640125A06A7A
:102060006D03A84207D120680168A9430160206878
:1020700001682943016020680168490603D40168AA
:102080004022114301600121FF20E268C9020530AE
:102090008A42616866D1002904D081420CD1E08E69
:1020A000012809D1206B21680088C860206B801C42
:1020B0002063E08E401EE086E08E002843D1A06AB7
:1020C000A84246D120680168012212031143016031
:1020D0003FE02068C068A16B0880A06B801CA063F3
:1020E000B0E0002202212046069B03F03BFD0028C1
:1020F0007DD1206B21680088C860206B801C206324
:10210000E08E401EE086E08E002808D1A06AA8423A
:1021100005D12068016801221203114301600022E9
:1021200000E0CCE001212046069B03F01BFD0028C7
:102130007FD12068C068A16B0880A06B801CA06361
:10214000E08F401EE087E08E0028CAD1606800283A
:102150007BD1002201212046069B03F003FD0028CD
:1021600067D1B6E7002904D081420BD1E08E012867
:1021700008D1206B411C216321680078C860E08E83
:10218000401EE086E08E002845D1A06AA84205D115
:10219000206801680122120311430160002201211D
:1021A0002046069B03F0DEFC002842D12068C06870
:1021B000A16B087046E0002202212046069B03F036
:1021C000D1FC002835D1206B411C216321680078A7
:1021D000C860E08E401EE086E08E00280AD1A06A2A
:1021E000A84207D1206802680121090300E020E02D
:1021F0000A430260002201212046069B03F0B2FC44
:10220000002816D12068C268A06B411CA16302702F
:10221000E08F401EE087E08E0028CCD16068002867
:1022200013D1002201212046069B03F09BFC0028CD
:1022300002D00320F8BD08E02068C168A06B421CF2
:10224000A2630170E08F401EE087A06AA8420FD110
:10225000002201212046069B03F084FC002802D0C6
:10226000606D02210EE02068C06869460880088819
:10227000012280212046069B03F074FC002804D034
:10228000606D202108436065D3E701207074A06A67
:10229000A84211D120688168C943C9060CD4616D78
:1022A0000222114361650168A94301602068016849
:1022B000294301603774C4E637740020BAE702206E
:1022C000B8E70000014600200A0A00D00820084AAA
:1022D000114201D004221043064A114201D00222C9
:1022E0001043054A114201D0012108437047000004
:1022F000F0F00000CCCC0000AAAA000038B50B23F7
:102300001B07C518114B0FD01C152D1B18D02D1BEA
:1023100019D0A542DD6A05D108242543DD62DB6AB8
:10232000234007E08024F8E7DC6A01252C43DC62C7
:10233000DB6A2B40009311601146FEF719FE38BD91
:10234000DD6A0224E9E7DD6A0424E6E700100240C2
:1023500010B5FFF7B7FF810002484058002800D0B1
:10236000804710BDB804002070B51C4615460E46C7
:102370000846FFF7A7FF0A49002C0DD080000C503B
:10238000304601F09EFA044600222946FEF7FCFE84
:102390002046FEF7E5FE70BD002280000A5070BDA9
:1023A000B804002010B5D2B2FEF79EFE10BD00208A
:1023B0007047000003494A690869496A504048402B
:1023C000704700004000F81F704700000F494B6A3B
:1023D0000A69D218120EC2714B6A0A69D218120C1D
:1023E00082710A8A8B8CD218120A42710A7C8B8CF9
:1023F000D21802714A69120EC2704A69120C8270B8
:102400008A8A120A4270097D017070474000F81FE5
:1024100010B5074C6078002808D10648006880474E
:1024200000F0D8F900F08CF80120607010BD0000B9
:10243000C0000020B892000870B5410EC0017D2296
:102440000023FDF77FFE054600F072F8044600E029
:1024500000BF00F06DF8001BA842F9D370BD00006A
:1024600070B505460C4600222048FFF715FB0022F8
:1024700029461E486668FFF7EDFA002221461B48F0
:10248000FFF70AFB6068B042F1D1E878184A0146CC
:102490005043C01C8308880726D0164968783D221F
:1024A0000646504302463C3A7000801EC1408807F1
:1024B000D10F8918800F4910081AC018A978401E3A
:1024C00008180D493C2248436178E12351432278A2
:1024D0001B015A438918A27810180818074A616826
:1024E0008002511A401870BD0549D7E7F804002052
:1024F000B5050000A0AA990080510100FF0300006B
:1025000050554400032070470148006870470000A0
:102510004405002000B587B0694605A8FFF7A0FF75
:102520000249096807B0401A00BD000044050020B8
:1025300000B587B0694605A8FFF792FF07B000BD58
:1025400010B5084C207800280AD100F04BF8FF2184
:1025500001310548FFF722FA00F074F801202070DD
:1025600010BD000038000020F804002010B50C4C0D
:102570000021042000F0F2FB21688868C0040ED519
:10258000C868C0050BD5C86880221040FF38823863
:10259000C8600449900248612046FFF7FBF910BD6E
:1025A000F80400200004014070B50446FFF7B2FFB4
:1025B000211A0B4D0220285EC01C814201D9002146
:1025C00000E00121042000F0C9FB00F09FFB01287E
:1025D00002D10220285E241A204600F03FF870BD88
:1025E0003800002010B51449144886B0002412C0E9
:1025F0001F21016084600461114944614160083811
:10260000FFF778FA6946CC7501204875887508751A
:10261000002205A90948FFF7BDFB0094019404942A
:102620000022694605480394FFF71AFC0348FFF7A8
:1026300093F906B010BD000000280040F804002007
:10264000FF03000010B5044C2046211D1830FFF791
:1026500007FF206010BD000044050020F0B587B0E2
:10266000044614223F4901A8FDF79CFD3D4850381F
:10267000406E009000F07EF83B4802993B4A401AB9
:10268000A105890D081887B2A10A684680785342CF
:1026900002E08918401C80B29942FAD26A46157944
:1026A000E122120102E0891A6D1CADB29142FAD208
:1026B0006A46547902E0641CA4B23C393C29FAD23F
:1026C000927951188EB20121890203E07A1A761CA0
:1026D00097B2B6B28F42F9D203E03C3E641CB6B268
:1026E000A4B23C2EF9D203E03C3C6D1CA4B2ADB2C6
:1026F0003C2CF9D203E0183D401CADB280B2182D3D
:10270000F9D26946C978890769464A7827D01849B5
:10271000491E515C814202D2FDF7EAFC084612498B
:10272000CA1B10492C394A60052252068A618E70F4
:102730004C700A460D70203210706846C079C8701F
:102740000020C861FF2248610132C8604A62086106
:10275000024608462438FFF74DFA07B0F0BD044999
:102760000C31D5E748050020FF03000080AEFEFFD6
:10277000318F000810B506480168C86880221040F3
:10278000FF388238C86051000148FFF707F910BDD3
:10279000F804002010B57D2105F0C7F84906C009EE
:1027A000084310BD10B5410EC0017D220023FDF786
:1027B000C9FC10BD01B582B00020C04300900123C8
:1027C00001AA02A90248FFF720FC684680880EBDD6
:1027D0006005002010B51C481A4901601C4A1B4BBB
:1027E0000021126803E05208491C072901D29A42CD
:1027F000F9D84A078B07D20FDB0F52011B011A438E
:10280000C90700D008210A43C2610021816001612B
:102810004161FF22C1600532816242600122016292
:102820005202826141620B48416B82141143416341
:102830000548FFF7A7FB002801D0FEF73DFB00F09D
:1028400047F810BD003001406005002080969800D8
:10285000200000200010024070B586B014216846A8
:10286000FDF7B9FC05260125022436076A468021BA
:10287000304601950294FFF741FD00228021304649
:10288000FFF790FD6A46402130460294FFF736FD7F
:10289000002240213046FFF785FD6A462021304660
:1028A0000294FFF72BFD002220213046FFF77AFD2E
:1028B000064C6A46402120460295FFF71FFD012283
:1028C00040212046FFF76EFD06B070BD00040050A9
:1028D00010B586B014216846FDF77DFC02200190FA
:1028E00002900320039000200524240704906A46E8
:1028F00020212046FFF702FD6A4640212046FFF7CF
:10290000FDFC6A4680212046FFF7F8FC0120074CB9
:10291000019002906A4640212046FFF7EFFC012219
:1029200040212046FFF73EFD06B010BD00040050D8
:1029300000BFFDE710B503A1095C03A006F0FCF998
:1029400010BD0000414243007377697463682074CE
:102950006F20636C61737320256320646F6E650A5A
:102960000D00000010B502A006F0E6F910BD000051
:102970004A4F494E45440A0D00000000F8B5594E33
:102980007160F060344610348168A01C884756A0FE
:1029900006F0D2F9A17859A006F0CEF90125601908
:1029A00081785AA006F0C8F96D1C082DF7DB59A0F4
:1029B00006F0C2F9A17A58A006F0BEF90125601907
:1029C000817A52A006F0B8F96D1C082DF7DB51A0F2
:1029D00006F0B2F9A17C54A006F0AEF90125601909
:1029E000817C55A006F0A8F96D1C102DF7DB54A0D2
:1029F00006F0A2F9F068C068804706F03FF9514937
:102A0000002006F09BF830604FA006F095F9A17801
:102A10003AA006F091F90125601981783BA006F0F3
:102A20008BF96D1C082DF7DB3AA006F085F94BA059
:102A3000316806F081F92B4F4CA03037B97806F099
:102A40007BF901256019203081783BA006F074F9EC
:102A50006D1C102DF6DB2FA006F06EF9B97C47A097
:102A600006F06AF9012560192030817C32A006F059
:102A700063F96D1C102DF6DB26A006F05DF94448C5
:102A8000424901604349416043498160F06815490A
:102A900000680831086005223D4800F0B1F93C4D5E
:102AA00002200C352870706800782871284600F0E4
:102AB0005BFC07202870706880782871284600F039
:102AC00053FC00272F702F71284600F04DFC012089
:102AD00000F0E0FE67707068417802485030017382
:102AE000F8BD00003C0000204966204F54414120C1
:102AF000656E61626C65640A0D0000004465764590
:102B000075693D2025303258000000002D253032F7
:102B1000580000000A0D00004170704575693D20A5
:102B200025303258000000004170704B65793D201F
:102B300025303258000000002025303258000000B7
:102B40000A0A0D00FFFFFF0149662041425020653F
:102B50006E61626C65640A0D000000004465764198
:102B600064643D2020253038580A0D004E776B53A1
:102B70004B65793D2025303258000000417070537C
:102B80004B65793D2025303258000000F3380008AD
:102B9000C8050020F53800084D39000830B5234835
:102BA000224D01780020103D85B0012928D0204C0D
:102BB000032121706060204600F0D6FB04202070C5
:102BC00028686060204600F0CFFB05202070284672
:102BD00032306060204600F0C7FB06202070284697
:102BE00042306060204600F0BFFB01202070207161
:102BF000204600F0B9FBE8684069804705B030BD69
:102C0000694608700948801C01900830029008301D
:102C100003906868C078087401A91EC904481C386C
:102C20001EC0684600F0D6FCE8E700004C0000201B
:102C3000D405002010B50B480168002904D000F02D
:102C400014F800F036F810BD4068002804D000F0F9
:102C500013F800F02FF810BD00F006F800F028F887
:102C600010BD0000B0010020704710B50121002008
:102C7000FEF7A6FA10BD000010B5EFF3108472B68F
:102C8000FFF7EAFD08484068804705F0FDFF074868
:102C9000016804221143016084F310880121084671
:102CA000FEF7A6FA10BD0000B892000800700040C0
:102CB0007047704710B5EFF3108472B61148016881
:102CC00001221143016001684907FCD50168012216
:102CD00012061143016001688901FCD5C168032215
:102CE0001143C160C1680907890F0329FAD1FFF7B1
:102CF000EFFD05480068804705F0F0FF84F3108879
:102D000010BD000000100240B8920008EFF31081DF
:102D100072B607480268002A01D0002005E040682A
:102D2000002801D0012000E0022081F310887047C4
:102D3000B001002010B5EFF3108272B6064B0029E7
:102D40005C6803D0012903D1044300E084435C6044
:102D500082F3108810BD0000B001002010B5EFF321
:102D6000108272B6064B00291C6803D0012903D1DA
:102D7000044300E084431C6082F3108810BD00000F
:102D8000B0010020F8B5174605460A461948069CCA
:102D9000089E0799447183711C0AC4711C0C04724B
:102DA0001B0E437281720B0AC3720B0C0373090E64
:102DB0004173D4B2C4731048FDF7D9FE39460E48AA
:102DC000FDF7E5FE10220B490B48FDF7E8FE224611
:102DD00029460948FDF7E3FE0749C81FFD38FDF7FE
:102DE00028FE064C601CFDF701FA2178000208431A
:102DF0003060F8BD30010020E80C0020E40B00201A
:102E0000F8B50E46050017467ED028680028FBD08E
:102E100068680028F8D0A8680028F5D0104602F0AD
:102E200099FD002871D0764C00212666E565224682
:102E300027741A3211706174A163217601266676B7
:102E4000E1746165A1650B216A46117038466946D7
:102E500002F06FFD002800D001202075082168468F
:102E600001706946207C02F064FD664D05212870E2
:102E7000684601706946207C02F05BFD68700C2199
:102E8000684601706946207C02F053FDE8600D2120
:102E9000684601706946207C02F04BFD28610E21D6
:102EA000684601706946207C02F043FD68610F218D
:102EB000684601706946207C02F03BFDA861102144
:102EC000684601706946207C02F033FDE8611321F9
:102ED000684601706946207C02F02BFD2F462037A2
:102EE00078701421684601706946207C02F021FD4B
:102EF00068621521684601706946207C02F019FD60
:102F000038721A21684601E076E077E00170694680
:102F1000207C02F00EFD38731B2168460170694663
:102F2000207C02F006FD78731C216846017069461A
:102F3000207C02F0FEFC28631D2168460170694672
:102F4000207C02F0F6FC68630021207C02F0FBFC90
:102F50003E700A2206216A6028462972383842608B
:102F60000172E968C1602969016169694161A96902
:102F70008161E969C1612030067002F05DFD28467B
:102F80002149383004F054FB7D212846C9003830EF
:102F900004F0B6FB28461D49683004F049FB28467A
:102FA0001B497C3004F044FB28461A49903004F059
:102FB0003FFB28461849CC3004F03AFB04F026FBCE
:102FC0006063284615494C300160154981601549F8
:102FD0000161154941601549154DC160A9688847CF
:102FE000E869804705F04AFEA674296E3046884796
:102FF000686B80470020F8BD0320F8BD0A20F8BDAB
:10300000C4000020BC0A0020153A0008C54300088F
:103010000943000869430008D5390008E141000868
:10302000453C000819410008CD42000879410008DC
:10303000B8920008F8B504461D4617460E460D48DE
:10304000FDF795FD39460B48FDF7A1FDF2B221468B
:103050000848FDF7A4FD0749C81FFD38FDF7E9FC46
:10306000054C601CFDF7C2F8217800020843286077
:10307000F8BD0000E80C0020E40B0020FFB585B08F
:103080000F46044607ADF02200211D480E9E05F0B4
:1030900029FC1B4A1021204605F002F910220021CC
:1030A000684605F01FFC012168460170062239467A
:1030B0006C46401C05F0FEFB02222946E01D05F08F
:1030C000F9FB0F4A6846089905F0BFF81022002165
:1030D000684605F007FC0221684601700622394661
:1030E000601C05F0E7FB02222946E01D05F0E2FB2B
:1030F000034A3146684605F0A8F809B0F0BD000063
:10310000F40B0020F8B517460E4605461C46F02283
:1031100000210B4805F0E6FB094A1021384605F06E
:10312000BFF8074A2146284605F08FF8102E06D32F
:1031300021462846024A1031103005F086F8F8BDC5
:10314000F40B0020F0B5044687B002200490002064
:1031500006460190002C78D04248816BCA0701D105
:10316000C80602D5012007B0F0BD002069460872EC
:10317000014614223C4805F0B5FB3B480121417053
:10318000384841732278002A04D0012A0AD0032A41
:1031900026D118E001736B461A7A0126D206D20EA8
:1031A000403207E0E27B02736B461A7A0126D206B0
:1031B000D20E80321A7222790192A26800920E25F4
:1031C000A78965570CE001736B461A7AE0231A430E
:1031D0006B461A726268012600920A252789655794
:1031E00001216A46117521490691097B91751D4897
:1031F00005A9007C02F09DFBA84200D3054668B2F9
:10320000002E1FD0174D2979002910D16946087367
:1032100006980422007B887303A9287C02F001FC35
:10322000002812D011496846007B203948703B467F
:1032300002A8009A019904F095F80490002806D09D
:103240000020687104988EE7FFE703208BE70648AB
:1032500021780170034801221A300178114301706E
:10326000F0E70000C4000020B40B0020A40A0020F6
:10327000F8B500250446002818D039492778374882
:103280000E463836027C3B0004F067FB1E12141712
:10329000191B1E2023252729303B394246484A4C1A
:1032A0004E50525654585A5C5E6062640320F8BD1A
:1032B000407C00E0C07820714DE00079FBE7C06CF5
:1032C00000E0006D606046E02648FBE725481030CE
:1032D000F8E7807CEFE7C07CEDE7192012E0204999
:1032E0002039486C896CA160606034E01C49203949
:1032F00008467C30C96F40686160A0602BE01720F1
:1033000000E0162069460870104602F012FBD9E76B
:10331000134820300078CEE7C868D3E70869D1E7C2
:103320004869CFE78869CDE7C869CBE77078C2E71D
:103330004878C0E73078BEE70878BCE7806AC1E724
:10334000C06ABFE7406ABDE74868BBE7087AB2E7F2
:10335000486BB7E702252846F8BD0000C4000020EE
:10336000840A002064070020F0B5002489B00746D5
:10337000002806D0934D288FC00704D0012009B043
:10338000F0BD0320FBE7914E3A78304620300290A2
:10339000407B03908B488C49007C130004F0DDFADD
:1033A0001E102124272A2D333C41F744819894A4F0
:1033B000ABAEB1B4B7BAC9E5D6FAFDF7F4F3F2F79C
:1033C00038796874002804D0012804D0022802D17A
:1033D00002E0486B8047F3E00020687100F0C4FF12
:1033E000EEE03879E870EBE038792871E8E0786849
:1033F000E864E5E078682865E2E07968002972D041
:103400001022734805E079680029F8D0704810222E
:10341000103005F04FFAD3E03879A874096E884768
:10342000CEE03879E874CBE0397A6A4611710399B5
:103430005171062201A902F0F4FA002853D0634822
:10344000BA682038796882644164687C022827D190
:10345000E878002824D05D4F0298F03700970821C3
:103460004156327A7368287C01F079FD687D3870A6
:10347000706A786002983A46407B3874E87C7874C9
:103480000120F874B8742C323946287C02F091FA85
:1034900000287DD0B87CF16802F058FBF87CE87316
:1034A0008EE0397A6A46117103995171062201A999
:1034B00002F0B7FA00286BD04448BB6820387A681D
:1034C0008021C2670B507BE079680691012102E000
:1034D0007968069100216A46117706A901F02EFB52
:1034E000002855D06CE053E03879411E0E294FD8A2
:1034F0000299087064E07868F06061E07868306193
:103500005EE0786870615BE07868B06158E0786888
:10351000F06155E03A7969460A71052201A902F085
:1035200080FA002834D06846017928483830417044
:1035300046E039796A461171042201A902F071FA54
:10354000002825D068460079707039E03A796946DC
:103550000A71082201A902F064FA002818D068460E
:1035600001791A48383001702AE039796A461171B8
:10357000072201A902F055FA002809D0684600790F
:1035800030701DE018E011E00AE006E002E016E00D
:10359000032415E07868A86212E07868E8620FE01A
:1035A0000A48796838304160716009E00748397924
:1035B00038300172317203E07868706300E00224F1
:1035C0002046DCE6C4000020B8920008840A0020EF
:1035D00064070020F0B50446022085B00090002C5E
:1035E00036D04748008FC00718D10C22002145482B
:1035F00005F078F9434E01207070414D207808277E
:103600001A35002806D001285DD0022866D003288C
:1036100050D16BE03A48018FC90602D5012005B0B0
:10362000F0BD6168002913D0A168002910D0E168BD
:1036300000290DD0217C00290AD06A461173304838
:103640001E2203A9007C02F0ECF9002802D00AE057
:103650000320E4E71F2168460174294804A9007C7F
:1036600002F067F92074287869463843287020787A
:103670003070234E60683064A0687064E068B064A5
:10368000207C707600203076087102F0D5F9307E0B
:103690006946401C088102A9307C01F02BFA1A49C6
:1036A000002348701A46194601A803F05BFE0090FB
:1036B000002806D01249002048712878F7210840D8
:1036C00028700098ABE728780022384328702078CB
:1036D000307011460220FDF7C1FAE8E73070287813
:1036E00038432870A08803F0D5FEE0E730702878D2
:1036F00038432870227BA088A16803F0F5FED6E746
:10370000C4000020C80B0020840A0020FEB508AFCA
:1037100070CF6F4670C700F001F8FEBDFFB50D46D3
:10372000002681B01F460124F0223146294805F0C9
:10373000D9F8284A1021039804F0B2FD26480A99C6
:1037400041718771390AC171390C0172390E4172A8
:103750000B9981720B991F4F090AC1720B99090CC1
:1037600001730B99090E4173203F18E01A48194A5A
:10377000C473641C1146A4B2203904F066FD002015
:103780003118019A3B5C525C401C5A400C9B80B241
:103790005A541028F4D3103D1036ADB2F6B2102DA5
:1037A000E4D2002D13D00B4A0B481146C4732039C4
:1037B00004F04BFD002008E0019A3118525C3B5C9C
:1037C0005A400C9B401C5A5480B2A842F4D305B016
:1037D000F0BD0000F40B002040010020F3B52B48A1
:1037E00087B00E46427869460A710078284C087600
:1037F000207A617A4018C5B2002E32D00021684686
:10380000017221794172206B2049039038394A783E
:10381000684602741D4F09784174183F397B8174E2
:1038200020463030009006AB01AA02A9207C01F0AE
:1038300052F9397B68468175017941750921017515
:10384000E07C002802D00A206946087505A9207C82
:1038500002F06FF8C0B27070A84205D3401B307000
:1038600006E0032009B0F0BD3070002525726572B6
:103870006846042141562A46079803F0BDFF0028F8
:1038800001D00020EEE70820ECE70000BC0A002091
:10389000C400002038B504466846054D04700B226C
:1038A0006946287C02F0BDF8002800D02C7538BD90
:1038B000C400002010B502790168407905F098F93C
:1038C00010BDFF220132811A90420CD009DC082879
:1038D0000DD008DC012808D0022806D0042802D127
:1038E00005E00F22120207207047052070470620CE
:1038F000704770471CB50446407800281BD104F07F
:10390000C3FD002801D004F0ADFD607B012812D179
:10391000E078E02810D069464871207B0871A068E3
:1039200000900848E1894180217C01715038C068CD
:103930000169684688471CBD0349204604F0AAFD7A
:103940001CBD00008C000020B805002010B5044606
:10395000007800280CD0012809D16078002806D111
:1039600004F092FD002802D0204604F083FD10BD33
:103970006078002802D0FFF711F910BD0248C06836
:103980004069804710BD00003C00002070470000E7
:103990008307FF22DB0E9A408907090E9940002811
:1039A0000BDA0007000F0838830808489B00181836
:1039B000C36993430B43C3617047830804489B006A
:1039C0001B181868904308431860704700ED00E02A
:1039D00000E400E010B50B4803F0DCFE0A48417932
:1039E000002905D001218173816B042291438163F9
:1039F000407C022805D1044810221A300178114376
:103A0000017010BD880B0020C400002010B504F028
:103A10000BFE10BDF8B50027874803F0BBFE874DAD
:103A2000874C2878C10673D5A16B4A0604D540227D
:103A3000914349084900A1637F490207D431002618
:103A4000002A01DBC20711D07B4AC0325378022B17
:103A500002D04B78022B09D1A36B5B085B00A363F8
:103A60002672637B537116710127966062793A431F
:103A7000714F503F002A31D1020702D4C10703D150
:103A80002CE00A78002A06D03978A27A91420ED921
:103A9000810712D41DE0227E8A724978002903D062
:103AA000617E8A4210D214E0A662A6720CE0800702
:103AB00003D42672206B401C2063A6726078002815
:103AC00002D1A06A401CA062A06B40084000A06325
:103AD00004E0EF210840287000F074FC287880078B
:103AE00017D55548C0300179012903D0617B227B6D
:103AF00091420ED9A67366716178002902D1A16A3C
:103B0000491CA162617B4171A06B40084000A06329
:103B10004FE0A07B00284CD0208FC00649D4A6736C
:103B2000607B217B884231D208282FD8401C6073EB
:103B3000C0070DD0202168460170397B3E4F81704F
:103B4000703F797841706946207C01F0F2FE787010
:103B500003F082FB002814D037480921C03041709F
:103B60002672A16B49084900A16366710671617BE9
:103B7000417131497039497881706078002815D0D9
:103B800017E02878EF210840287012E00121207CFE
:103B900001F0D9FEA06B40084000A06326482672C1
:103BA0006671C0300671617B4171E6E7A06A401C16
:103BB000A062A06B810702D502218843A063002880
:103BC0000ED07D21C9001C4803F09AFD1A4803F06D
:103BD000A9FD287880072ED5607C02281DD01EE024
:103BE0002878C00708D0E06D01681348C0308847C6
:103BF00028784008400028702878000708D5E06D34
:103C000081680D48D43088472878F721084028700B
:103C10002878EF2108402870DBE700F0A5FB287822
:103C2000400704D4E06D41680348A83088472878ED
:103C3000F92108402870F8BDF40A0020DE000020B9
:103C4000C4000020FFB50646002097B00C46119036
:103C50000146099005460C90FE48079010300E90E2
:103C6000002013901290FC4801711838C2811A9AF2
:103C70000274FA4AD27B4274C170817041718160D2
:103C800001734173817441610170F548406B804755
:103C9000F148683803F07EFD3078694608704109C4
:103CA000601E0290201FEF4F1491109001291CD02C
:103CB00003297DD005297BD007297AD039460120F8
:103CC000F831487000F022FDE44810221A300178E3
:103CD00011430170E3480121503003F011FDE14828
:103CE000503003F01FFD1BB0F0BDDC48C178002947
:103CF00003D0D949012018394EE1D8480299DA4D4C
:103D0000826C89B26B1C701CFFF7FCF96846007866
:103D10002870109809AB81B2D048826C2846FFF712
:103D200089F928192038417F027F09021143827FD7
:103D3000C07F12040A43000609991043884249D102
:103D4000C448C64E10300090C24BF28B691CB06C58
:103D5000FFF794F96879297900020843A9790904E1
:103D60000143F164287AE97900020843697A090479
:103D70000143A87A000608433065E87A4106490FF6
:103D800000077970000F3872287BB84D0007000FCC
:103D9000286101D1012028617D21C90048432861A3
:103DA00040186861B0480D3004906846113C01E04D
:103DB00015E096E1047504A9307C00F0A4FEA64944
:103DC0000020143148700120F070A6481830407867
:103DD000687079E7A04807211430417074E7797B57
:103DE000684681739C489D4F183801796846417335
:103DF00009210173F87C002802D00A206946087363
:103E000003A9387C01F095FD21460D3909B200293E
:103E100000DA0021814200D96BE7B178707809029D
:103E20000143F0788D4A00040843317909060143C3
:103E30000691126D05209142884917D04D6A0CE019
:103E40002A6806998A4207D101211391291D0791F9
:103E500010310E916F6A0AE0AD6A002DF0D10B218E
:103E60007D481838417000F051FC3CE7CF6A315C66
:103E70006A461170401C0B91335C401C305C02029E
:103E80000807000F08300A9030191A432038017FC4
:103E90000C9B1943437F1B020B43817FC07F0904A6
:103EA0001943000608430C90D01B81B20122D203B3
:103EB00009A80D91914212D27F1801970290012119
:103EC0001098009181B23046069B079AFEF75AFF80
:103ED00009990C9888421AD10120129017E009B272
:103EE00001227918120489181591019102901098F5
:103EF0000122009281B23046069B079AFEF742FFEC
:103F000009990C98884202D10120159F1290112026
:103F100069460873514803A9007C01F00AFD0D9918
:103F2000884205D84C480A211838417047619AE701
:103F30001298002877D04848002118384170139A09
:103F400082700B9A444BD206D20F4271816001738A
:103F500047614248597001634172139800280CD0A0
:103F60001846022118380170696AB94203D1002944
:103F700001D0082176E76F621FE0149805280DD064
:103F8000364835490022827118390A70C06AB84231
:103F900011D100280FD00820487064E72F482E4A1E
:103FA00001218171183A1170C06AB84203D100280A
:103FB00001D0012011902948C762274800780128C4
:103FC00002D10B98800602D52449002008720A9875
:103FD000201A001F002852DD0A9D0A986D1C611BE3
:103FE000091F305CC9B20F911B491839C8700028ED
:103FF0000B9819D0000707D01A980821C3B2681E81
:10400000C2B2304600F0A0FB01200090164C019790
:1040100002947019069B0E9A0F99FFF777FB11987F
:10402000002825D04FE05AE0000702D0012011906F
:1040300049E00D4801210290019700917019069BFB
:10404000079A0F99FFF762FB1A980021C3B206483E
:104050000F9A1CE064070020B40B0020C40000206D
:10406000B8920008A40A002083080020840A0020D7
:10407000264884600F990173012141730CE00B986D
:10408000000706D01A980821C3B230460A9A00F0F9
:104090005BFB1198002816D10B98800606D51B49AA
:1040A0000120183108711839887408E01749002078
:1040B000183108711648417B007B814203D91348AF
:1040C000143803F067FB124902221A3108781043B2
:1040D000FB221040119A920010430870F4E50C2165
:1040E000BEE6711C22460B4804F0E4FB074803219E
:1040F00001700021417007498160029901730448F1
:1041000002211A3002780A430270DDE59C0B002080
:10411000C40000208308002070B5144C607C022885
:1041200003D01348406B804701E000F01DF91148AF
:104130000E4DE27B01461A35102614316379002AB0
:1041400005D00622002B00D042704A700AE00522FA
:10415000002B00D042704A70606D03F05DFAA16ED2
:10416000884202D328783043287070BDC4000020F4
:10417000B8920008B40B002070B5164C607C022881
:1041800003D01548406B804701E000F0EDF813487C
:10419000104DE27B01461A35102614316379002A4E
:1041A00008D00422002B00D042704A70607C0228A4
:1041B0000BD170BD0322002B00D042704A70606D9D
:1041C00003F02AFAA16E8842F3D32878304328708E
:1041D00070BD0000C4000020B8920008B40B00209D
:1041E000FEB503F013FA364C0646607C022803D075
:1041F0003448406B804701E000F0B6F8304DA078BD
:104200001A35002700282AD02F48616E03F078FA6B
:104210002D4803F087FA607C02280ED02A48A16E50
:10422000143003F06DFA2848143003F07BFA607CF8
:10423000022802D06079002820D012206946087236
:1042400002A9207C01F075FBA16E41181E48503078
:1042500003F056FA1C48503003F064FA0EE01A4896
:1042600004217C304770143041702878002801D137
:1042700001202870C0B21021084328702878000758
:1042800004D5114890300078002815D0E775607D7E
:10429000A07569460870E07848700196207C01F0AE
:1042A0009CFB66656079002805D107487C30477023
:1042B000A07A401CA072FEBD0120E075E7E7000077
:1042C000C4000020B8920008380B002010B50B483D
:1042D000407C022803D00A48406B804701E000F090
:1042E00043F80849022048701431487003481022EE
:1042F0001A3001781143017010BD0000C400002085
:10430000B8920008B40B002070B5144803F042FACC
:10431000134C0021114DE173607D2835287028462B
:10432000BC384278EA70407B2874E07C6874A974D9
:10433000E974607C022802D10A48806B8047074AF2
:10434000207C68321146403901F033FB0348B43811
:10435000C168A87C01F0FAFB70BD0000380B00209A
:10436000C4000020B892000870B5144803F012FA97
:10437000124D134C2835607D2E462870F03E706A31
:1043800068602846D038407B2874E07C687401203F
:10439000E874617C022900D00020084AA8745432D5
:1043A00011462C39207C01F004FB002805D0A87CA4
:1043B000F16801F0CBFBE87CE07370BD4C0B002092
:1043C000C40000201FB5194803F0E4F9184C10216F
:1043D000A06B8843A06320461A300078000721D5DF
:1043E0001248A430007800281CD101F025FB207E63
:1043F0006946401C888103A9207C00F07BFB0B49A7
:10440000A039487000206946087121790246C90127
:104410000A4369460A7203460246009002A901A8AF
:1044200000F034F802F018FF1FBD0000240B00203C
:10443000C4000020F0B5064600242046002E01D01E
:10444000002A1ED10020F0BD355DAF1E3B0003F0F9
:1044500084FA091614160612140E16061600641CA9
:104460001554E4B2401CC0B2335D135400E015543F
:10447000401CC0B203E0A41C00E0641CE4B2641C55
:10448000E4B28C42E0D3F0BD70470000F0B50C46BA
:1044900087B08446002198480C9D069181831E1E9A
:1044A0001746417100D10025EAB202706146934D72
:1044B000097829700121009161460978490908D0DD
:1044C00002293FD004293BD007297DD0022007B024
:1044D000F0BD009904468183681C0822616C04F0D9
:1044E000F4F9A08B0822083080B2A0832818216C30
:1044F00004F0EBF9A08B0830A0838148C0698047A5
:104500000146E083A08B06AB2954401C80B2090A07
:104510002954401CA083C1B27848A26CFEF78AFDE2
:10452000A08B06992954401C80B20A0A2A54401CC8
:1045300080B20A0C2A54401C80B2090E2954D7E0DC
:1045400001214171C178002969D0012269460A73AD
:1045500021786948CA0969464A736A4A006B04901F
:10456000507808751078487510462030007B8875A3
:104570006148134630300090303803A9007C521C4B
:1045800000F0A9FA81012078BF22104008435A495F
:1045900020708979002905D0574A00219171202186
:1045A000084320705448016D54480A0A41708270D3
:1045B0000A0CC270090E0171217841714E49098DB2
:1045C0008171090AC17100E088E04B49FF30097A26
:1045D000FF304018484908254A7A4A49823904F090
:1045E00069F94548017A407A0818C1B24248002E5C
:1045F00001721FD00278002A1CD0C279002A22D072
:104600000F291DD820783D4A030940181B010007D7
:10461000000F03432370537100203B4C07E0072039
:1046200055E7235C53556D1C401CEDB280B28842A7
:10463000F7D308E03048002905D0C279002A02D01B
:10464000314E017000272C4C00202F4AE07180323F
:104650002D48FFF7EFFE6072002801D00120E071C5
:10466000002E14D02178002911D0244847556D1C04
:10467000EDB2002F27D0A36A0022401900920193C7
:1046800002901E4A236D103A3046FFF747F8207813
:1046900006AB2918A18300206E46A26A0DC6174AF0
:1046A0001648203A236DFEF76DFB144AA18B06983D
:1046B0005054030A52185370030C000E9370D070BC
:1046C000091DA18316E000222272A36A40190092FC
:1046D0000A4A01930290203A236DD5E7002B09D0B6
:1046E0000446002A06D0681C314604F0E3F820781E
:1046F000401CA0830020EAE6C400002084070020BC
:10470000B8920008840A00208209002010B50C48E5
:104710004022816B114381634079002801D0FFF76B
:1047200059F9074912221A310878104308700121FB
:10473000044802F0E5FF034802F0F4FF10BD00005A
:10474000C4000020F40A0020FFB505468BB0A8483D
:1047500016460C46099024E1285D641C801EE4B2D4
:10476000030003F0FAF80906115E6AA1AED6EFED78
:10477000EC00A04900204870285D0872641CE0B27B
:104780002A5C4A72401C4AE000206946087708A962
:1047900008706946087208732819401E0490301B7F
:1047A000401C08759448924F02798A750999203FF8
:1047B0000A7B69464A757A78CA753A780A76099901
:1047C00008AB0A7869464A7603AA02A901920091C9
:1047D00007AA04A9007C01F0C3F80090C043400779
:1047E00009D16846007F787008A80078387068465C
:1047F000017A09980170002706E000220320009941
:10480000FCF72CFA7F1CFFB268460521007BFBF702
:104810006FFCB842F1D86846007B2018401EC4B235
:10482000BFE0285D7449641C0122C87282400A847A
:104830000022E4B211460420B1E0285D4006410F99
:1048400068464170285D641C0107090F68460170C5
:10485000E0B2295C401CC0B201912A5C401C1202EB
:104860001143C0B201912A5C401C12041143C4B22E
:1048700008466421484301905F486946007C01F086
:10488000A3F80146C84340070BD16846027809984F
:1048900002725748019A2038426268464278099865
:1048A0004270002205207AE05348FF21006E002864
:1048B00004D00068002801D08047014606200E9AE7
:1048C0006DE0285D69460874641CE0B20391295CC0
:1048D000401CC0B200912A5C401C12021143C0B2BD
:1048E00000912A5C401C1204114364225143009140
:1048F00000210191C0B22A5C401C6946C4B20A7210
:104900003D4803A9007C01F03CF800220146072045
:1049100045E0285D641C0007000FE4B2002800D1C8
:1049200001207D21C900484331497D222039D20030
:104930000861801800224861114608202FE033E00A
:1049400034E0FFE7285D00216A46641C1170517055
:10495000E4B2810601D501215170C10601D50121C2
:1049600011700007000F907023481146007C01F081
:104970004FF8401C15D068460178099801736846C5
:10498000417809984173684680781C49085CFBF7B8
:1049900039FE174900222039086311460920FCF727
:1049A0005DF9B44200D2D7E60FB0F0BD285D69468C
:1049B0000870641CE0B2295C401CC0B201912A5C02
:1049C000401C12021143C0B201912A5C401C120427
:1049D0001143C4B208466421484301900648694621
:1049E000007C00F0C9FA002201460A20D7E7000047
:1049F000A40A0020C80B0020C4000020498F000832
:104A000070B517490023CA681206120F18D18A6BB5
:104A1000154CD500134A02D51268224009E08E6B6E
:104A200001252D072E438E6312688E6B2240AE4304
:104A30008E63A24204D103218903884200D101235D
:104A40000A48016849084900194301600068C00725
:104A5000C00F984201D0012070BD002070BD000041
:104A600000100240007000400018000000200240CA
:104A700001090A2200075143000F4018C0B27047D5
:104A8000002102E00A38C0B2491C0A28FAD20907FC
:104A9000090E0843704770B504460068C1684906AE
:104AA00013D40021C943C160FCF724FB7D260546D1
:104AB000F60006E0FCF71EFB401BB04201D90320C4
:104AC00070BD2068C0684006F4D5002070BD10B5E8
:104AD000FDF74CFD10BD70B51C46049B15460E46F7
:104AE000052801D0002070BD22462946304600F03E
:104AF0004DFA70BD10B5052801D0002010BD084644
:104B000000F080FA10BD10B5052802D1084600F06B
:104B100099FA10BD70B514460D46052801D0D0B2E3
:104B200070BD1A462146284600F0C6FA70BD10B581
:104B3000052802D1084600F0C7FA10BD10B50528B7
:104B400001D0002010BD084600F0DAFA10BD30B5E3
:104B500002460168C07A0C2358430930095C50684A
:104B60000B01C45A00250C33C550507A002809D0D7
:104B7000907A012805D1106901466143081A5168ED
:104B8000C85030BDD06800F003F9844200D92046F7
:104B9000917A002902D1117A002903D01169484382
:104BA000401AECE75068C55030BD10B50B09140928
:104BB0009C4201D3914201D3002010BD5A000C0742
:104BC000835A240F0121A1408B438352012010BD41
:104BD00030B500280AD0002908D0002304E05C008A
:104BE0000D5B5B1C0553DBB29342F8D330BDFFB5C0
:104BF0000E461946099A029800F0A9F9002824D017
:104C0000002425461DE000236F00F15B0120984041
:104C100001420ED0E0180C2148430A994018007A4E
:104C200001060A0F0107090F029800F090F9012808
:104C30000BD05B1CDBB2102BE7D310346D1CE4B23D
:104C4000EDB200988442DED3002004B0F0BDFEB582
:104C5000054614460E465800FBF7F0FC0090600035
:104C60000F460838FBF7D6FC2A463346FBF7D4FB41
:104C70003B46009AFBF71EFB2A463346FBF734FC03
:104C800003F08CFBFBF70CFDA04200D90446099809
:104C900004600898FBF7D2FC009001912046FBF7D6
:104CA000CDFC2A463346FBF7B7FB0022D243FBF785
:104CB00093FC0C460746022228463146FBF78CFC43
:104CC0003A462346FBF79AFB019B009AFBF796FBBB
:104CD00003F064FBFBF7C0FC0A990860FEBD00000E
:104CE00010B5FBF7ABFC02460B4600200149FBF771
:104CF000FBFB10BD0000204070B506460846FBF7E0
:104D00009DFC054601200C46B040FBF783FC2A467B
:104D10002346FBF7E9FB0022014BFBF77DFB70BD4F
:104D200000408F4070B514460D464000FBF76AFC0A
:104D30002946FBF7BAFA2146FBF7B3FAFBF7CEFC9C
:104D400003F028FDFBF788FC40B270BDF0B5844647
:104D5000964600206246002A01D0012215E000207C
:104D6000F0BD4C0063461F5B102600242346154609
:104D70009D40BD4301D1641CE4B25B1CDBB2B34275
:104D8000F5D32018491CC0B2C9B27145E9D3F0BDB2
:104D90000649884201D2642070470549884202D200
:104DA0007D20C000704703487047000080EE360049
:104DB000803F5C0210270000FFB504460678022001
:104DC00083B0205602900325042761786557E75782
:104DD00000290BD10F2801D10F2D02D00026072763
:104DE000E75705202056062502906557002E25D04E
:104DF000112020566169019100901023E356207A1A
:104E0000E168029AFFF7F3FE002801D1FD20064079
:104E100018221921A2566156284600F098F8002859
:104E200007D119202056A84201DD054601E0FB20EC
:104E30000640072E02D1002F00D1A75704990298EF
:104E400008700598057006980770304607B0F0BDE9
:104E500003780022032B14D1427813071B0F12068C
:104E60008B70120F4A7082788A80C3781B021A43B3
:104E70008A8000794206520F0007CA70000F08703E
:104E800005221046704700288A6000D14A607047AA
:104E9000FFB50024E44381B01F46002552E001988D
:104EA00000280FD00298002844D0039829010E183A
:104EB000B06802F0B1FB0146F06881422BD30020BC
:104EC000F0603DE00398290108180090406802F066
:104ED000A3FB06460298002803D00098806802F0E1
:104EE0009BFB864202D90098406804E002980028A3
:104EF00003D00098806802F08FFB0099C968814256
:104F000002D8002000991AE0002919D0081AA042FE
:104F100016D2044614E0002812D0B06802F07CFBE0
:104F2000F168081AA0420BD2B06802F075FBF16874
:104F30000C1A05E0002403992A0120465118C86084
:104F40006D1CEDB2BD42AAD3204605B0F0BD88422B
:104F500003DB904201DC012070470020704770B5F0
:104F60001C46049B15460E46052804D122462946B8
:104F7000304600F061F970BD10B5052801D0002061
:104F800010BD084600F08AF910BD0000FFB50446C8
:104F90000F460820092681B02056A657616819607F
:104FA00061780025012925D100280BD061684029AE
:104FB00001D30125002660291CD3C906C90E012989
:104FC00003D017E00021196014E0202269460A701E
:104FD0004870A07A8870684600F07EF940B20028D8
:104FE00008D121780025012904D1054907230A8821
:104FF0001A430A80387003980670284605B0F0BD41
:105000005001002070B50588002430212846FBF7A8
:105010006FF800290CD0E8060CD018212846FBF7C1
:1050200067F8002908D0280708D0680708D00524A9
:10503000204670BD0124FBE70224F9E70324F7E7CB
:105040000424F5E7F0B587B007465020694608729A
:10505000387910282ED100240325264601E0082D9A
:1050600019D23868611C005D00903A68515C0902F1
:10507000084300903A68A11C515C0196090408435A
:105080006421484300900AD068460390057403A841
:1050900000F04CF808E068460096067201966846F3
:1050A000057505A800F0B0F8E41C6D1CEDB2E4B283
:1050B000102DD4D307B0F0BD881A40B2002800DA12
:1050C0000020C0B27047000000B585B00A490091C9
:1050D0000A490191427869460A7202784A728278D6
:1050E0008A72C278CA7241680391806804906846E7
:1050F000FFF72DFD05B000BD000E0020540100207B
:1051000010B50179002903D0012905D0002010BD78
:1051100001680122044803E0016803480122801C61
:10512000FFF756FD012010BD50010020F8B50546DF
:105130000020694608702E7904460746102E01D3D8
:105140000320F8BD28680722007A00210007001715
:10515000FFF7FDFE002800D10124286808214156F0
:10516000072208110021FFF7F2FE002800D10124D8
:10517000296808200856010709170211914200DD2D
:105180000124032E12D2002900DD01240011072280
:105190000521FFF7DCFE002800D10124286818490A
:1051A00002680C207043085882420AD12868694678
:1051B000006802F045FB002803D03C4203D00620E3
:1051C000F8BD0127F9E7002C01D00520F8BD002F1C
:1051D00001D00420F8BD0C203146414308482B681B
:1051E00008180ECB0EC0694609780C384172054884
:1051F00001220188B240114301800020F8BD000067
:10520000000E00205001002010B50178032901D2C2
:10521000002010BD0C22064B4A430020D21810601B
:105220005060906010220348FFF7BFFC10BD0000E3
:10523000000E002050010020FFB583B01C4616462A
:10524000072800DB07206070FBF742FEA0700120FA
:105250002056104A072819D0810013461833595890
:10526000105CFFF749FD05460B480F46406E80472E
:1052700021460C31083402910090334601942846AF
:105280003946049AFFF7E3FC07B0F0BD105CFFF766
:1052900027FDE8E75C8F0008B892000838B505469E
:1052A0000020694608700324686802F0C9FA0028E3
:1052B00000D1022429780C20414306484258002A94
:1052C00001D1FD221440032C02D108186A68426003
:1052D000204638BD000E002070B5024615787D21AD
:1052E000C90000204C002B0002F037FB211A1A1ACB
:1052F0001A1A1A1A1A1A1B1F2527292B2D2F313477
:105300001A391A3B3D40421A1A44474949121A00B9
:10531000012010560021002801D0401EC1B248B221
:1053200070BD01201056174903E0012015491056A1
:105330000831085C70BD012070BD134870BD08467F
:1053400070BD204670BD114870BD114870BD012070
:10535000800370BD0F4803F0F1FB001970BD0E48CB
:1053600070BD0E4870BD0D48801C70BD102070BD12
:105370000B4870BD8320C00570BD0A4870BD302049
:1053800070BD0000648F0008B80B00008813000097
:105390007017000018FCFFFF08E6D333500100200F
:1053A000000E00209A99094070B5104A002807D0D5
:1053B000012804D1901E018812881143018070BD1C
:1053C0000B480C490346383338CB38C103464433C5
:1053D00038CB38C1503019C819C107201080034993
:1053E0000122881EFFF7F4FB70BD0000520100206F
:1053F0005C8F0008000E0020FFB507258FB0044623
:1054000000266846374606803AE0206802A98019DF
:10541000FFF71EFD002836D03018C6B269468889CD
:105420000880CA7A0725104304D0501E042801D9E9
:10543000072A01D3062523E00020062A0CD06B465C
:1054400001211B888140194216D00C212E4B41436B
:10545000595800290ED00FE00C212B4B41435958CD
:10546000002909D06B4601211B88814019436B46F6
:10547000198001E06D086D00401CC0B21028DCD31B
:105480002079B042C1D801206946087160798871DD
:1054900001A8FFF721FF69460D74A2794A744A7A80
:1054A0008A748A7ACA740A7A0A75E2794A75227A03
:1054B0008A75627ACA7510220A76079108A908705F
:1054C000072048701049099108A908724F7202AB71
:1054D0009A1C173904A8FFF76FFC072803D10B4962
:1054E0006A4612880A8069464A7A10990A706946A3
:1054F0008A7A11990A7069460A7A12990A7018997B
:105500000E7013B0F0BD0000000E0020500100200E
:105510003EB5016803240A68002A0DD00091007985
:10552000694608716846FFF701FE002812D004287A
:105530000BD005280DD10AE000796946087202A84F
:10554000FFF762FE002804D004E0022402E00124F8
:1055500000E0002420463EBDFFB589B0044600258A
:105560006846057316461F46049505950695012263
:10557000294625480795FFF7E9FB002804D1224872
:105580000722018811430180606802F045F8216814
:10559000884220D33D601C4AA17A607A0523121DFF
:1055A000FFF776FC0746184803AA04A9001D6B46BE
:1055B00007C3217A607A154B134AFBF7B9FB002821
:1055C00012D0411E002003F0B9FA04A9095C0A9820
:1055D000017035600DE06946087B401C0873606807
:1055E00002F01AF821680F1A6846007B002803D0E1
:1055F000376001200DB0F0BD034807220188114338
:10560000018000203560F5E750010020000E0020E9
:10561000F3B50125354F044645574668F8688DB007
:105620008047002802D000200FB0F0BDE07C0028A9
:1056300009D121780C2041432D484658081840686C
:10564000002800D006462B4840570B902748416958
:105650003046884700200121072D2AD001220A92D6
:10566000A27C07AB069007C32189059089B20291FD
:10567000082103900490019100901C480123076ABF
:10568000A17818460B9AB847607C01282BD019489E
:105690000830405D0D30C1B21448C26D0A98904781
:1056A0002A46314614A003F047FB0E9805700120EE
:1056B000BAE700220A92A27C06900790099208900D
:1056C0002289059192B202920521124A019100921B
:1056D0007D210B9AC9004A430449039004900F6A44
:1056E00000230D49CFE703481030D2E7B8920008F5
:1056F000000E00205C8F00085258206F6E206672EA
:10570000657120256420487A206174204452202548
:10571000640A0D008545010050C3000070B50F49B3
:105720000546896A072440688847002800D1062476
:105730000020285607220021FFF709FC002801D18C
:10574000FD2004400120285605220021FFF7FFFB21
:10575000002801D1FB200440204670BDB89200080B
:1057600010B501780C235943054B4268C918497A92
:10577000044B0901C9184078FFF785FB10BD0000F4
:10578000000E00205401002070B50222044682560B
:1057900001780C200B4B4143C818407A0A4D000198
:1057A000451902202856824200DD10465D58A26845
:1057B0006168FFF7B7FA01460448A289436C28469E
:1057C000984770BD000E002054010020B8920008D8
:1057D000F7B5044622780C23354E5A43012092191E
:1057E00020563249527A334B0F5612010221D218F9
:1057F0000225615655578CB0A94200DD0D46FBF7D6
:1058000067FB0B902846A2686168FFF78BFA0A9045
:1058100020780C2148432649274E0858716988474B
:1058200061780020254B012207292BD00121099105
:1058300001460590069007901046089308220190B3
:105840000097029203910490776A0B9B00220A99B9
:10585000B84720780C214843154901220958A2561F
:1058600017A003F069FAF26D217B09989047F26A5C
:10587000217B099890470E9908600D9805700120CA
:105880000FB0F0BD002109910790052102917D2103
:1058900006900893C9000590019004924F4303902D
:1058A0000097776A0D4A0B9BD1E700005C8F0008D8
:1058B000000E002054010020B8920008B80B000030
:1058C0005458206F6E206672657120256420487AD6
:1058D0002061742044522025640A0D00A861000054
:1058E0000020C043704710B507290ED006DC0429FC
:1058F0000BD005290DD0062919D106E0082904D0BE
:105900000B290FD01E2912D10EE00023C356072207
:1059100002E00023C356052200211846FFF717FBBB
:10592000002800D0012010BD00783028FAD20020D5
:1059300010BD10B50022052801D0104610BD084644
:10594000FFF7CAFC10BD10B5052802D10846FFF7C5
:105950002BFD10BD052801D00020704701207047A5
:10596000F8B51C460E46069B07991546052801D03A
:105970000020F8BD0091224629463046FFF73CFD45
:10598000F8BD10B5052801D0002010BD0846FFF76E
:10599000BFFD10BD70B51C46049B15460E4605287C
:1059A00001D0002070BD224629463046FFF7D4FDC5
:1059B00070BD10B50B46052801D0002010BD114662
:1059C0001846FFF725FE10BD10B5052801D00020B0
:1059D00010BD0846FFF7A2FE10BD10B5052802D184
:1059E0000846FFF7BDFE10BD10B5052802D10846D8
:1059F000FFF7CAFE10BD70B514460D46052801D04C
:105A0000002070BD1A4621462846FFF7E1FE70BD12
:105A100010B5052801D0002010BD0846FFF760FF33
:105A200010BD10B50B46052801D0002010BD114651
:105A30001846FFF758FF10BDF0B51D480021C17092
:105A40008162C162016381720122027342738173B8
:105A5000C1720284017241728270164A1346147830
:105A6000383B1C7054785C701446203465782033C1
:105A70005D701546583D2E4637467C37F66F7F6879
:105A8000AF646E64257B1D73647B5C73203B146B79
:105A90001C63536B383A536341718171C171426A1F
:105AA00001E05162926A002AFBD141758175F0BD17
:105AB000C4000020BC0A002070B5092000F063FD7E
:105AC0000546062000F05FFD0404072000F05BFDA2
:105AD00000020443082000F056FD0443200A01029E
