:020000040800F2
:10000000B8160020D5000008393900080129000879
:1000100000000000000000000000000000000000E0
:100020000000000000000000000000006B59000804
:10003000000000000000000035440008797200084C
:10004000E7000008E70000087B4A0008E700000816
:10005000E70000082F0E00083F0E00084F0E0008B2
:1000600000000000E7000008E7000008250E000877
:10007000E7000008E700000800000000E7000008B3
:1000800000000000E7000008000000000000000081
:10009000E700000800000000E7000008E700000893
:1000A000E7000008E7000008E7000008E700000894
:1000B00049750008E700000800000000000000008B
:1000C0000348854600F078FC004800470D8500088D
:1000D000B81600200448804704480047FEE7FEE7C2
:1000E000FEE7FEE7FEE7FEE70D730008C10000082B
:1000F00030B50B46014600202022012409E00D46C0
:10010000D5409D4205D31D469540491B2546954047
:1001100040191546521E002DF1DC30BD70B500248B
:100120002546002801DA01244042002901DA012590
:100130004942FFF7DDFFAC4200D04042002C00D026
:10014000494270BDF0B51FB40646002082B0054696
:100150004024019100901BE0019922460F46304651
:1001600000F0F4FA049A059B801A994110D31046C6
:100170001946224600F0DAFA361A8F4101972246D4
:1001800001200021009F00F0D1FA38184D41009065
:100190002046641E0028DFDC019B00982946324679
:1001A00007B0F0BD03460B439B0703D009E008C925
:1001B000121F08C0042AFAD203E00B780370401C17
:1001C000491C521EF9D27047D2B201E00270401CA5
:1001D000491EFBD270470022F6E710B513460A46C7
:1001E00004461946FFF7F0FF204610BD0321001D0D
:1001F000401E037812021A43491EF9D51046704773
:10020000F8B502464A40D40F42004B0052085B0842
:100210009A4202D20246084611464A0023D0C30D34
:100220004A00DDB2120EAD1A202D35DA4902012640
:10023000490AF6058A19002C00D0524220214F1B92
:100240001146B9402A411018C20D9A4221D0002C03
:1002500017D0012D08DCDA05801AD20F8019D207D9
:10026000DBB200F09FFAF8BDDA05801A01234000E6
:100270001B06C01880185A428018CA0F1043490044
:1002800007E04908C2071143DA05801A80194008BF
:10029000801800F07FFAF8BD61000122511A001B9E
:1002A000F7E70122D2075140AAE70122D2075040C6
:1002B000A6E70000F0B507460846584087B0C00FD3
:1002C000049048000E46590040084908BC1A88416D
:1002D00005D2384631461E4617460B4602465800A0
:1002E000400810434CD0300D039040055900400D9C
:1002F000490D0590401A0290402872DA1803012136
:10030000000B09050843019004980092002805D0CD
:1003100001995242002088410092019002984021A8
:100320000A1A0199009800F001FA05460C466B463E
:1003300007CB00F01CFAC0197141039A0E0D00237F
:10034000D71756401A467A40164344D0049A002ADA
:100350002DD0029A012A039A15DC1205C01A914188
:1003600001263605001C7141D20F059ED20700936D
:10037000019202962A46234600F05AFA07B0F0BDD1
:1003800038463146FAE71605224A0F46B218C01A17
:10039000B74101210905001C4F4100187F4111465A
:1003A00018187941E20F10436D19644113E0E20718
:1003B0006D0815436408C2071443039A0126120509
:1003C000C01A91413605001C7141CE0740083043E8
:1003D0004908C01851412A46234600F01CFACDE7CF
:1003E000FFE7049801224000C117121A00238B4135
:1003F00004983146C417381AA141EEE730B40124FD
:10040000E407634030BC55E730B40124E4076140A1
:1004100030BC4FE70000E0FFF0B51FB488B00B9987
:100420000998002448400999C00F490049080991DA
:10043000C0070B990090490049080B910999089849
:10044000A64608431CD00B990A98084318D009986F
:1004500001244000420D4800410D09982405000385
:10046000000B204309900B980003000B20430B90D6
:1004700050181C494018002201901446104605E00F
:10048000002001460DB0F0BD032801DA034600E06C
:1004900003239C46C11A0AAE0AE05F0008ADED5B7B
:1004A0004F00F75B7D430027AA187C41491C5B1E67
:1004B0006145F2DD410004AB5A522104120C0A439B
:1004C000240C401C0828DFDB01980290009970463C
:1004D00001910090059B049A0799069800F0A8F9ED
:1004E000D0E700000DFCFFFFF0B50C465C4085B086
:1004F000E40FE40703944C00002664085900944676
:10050000490802460296224321D062460A431ED081
:100510006200570D4A000E032303550D01240246C5
:100520002C492405781B1B0B360B4018234326430C
:10053000614600901C46501AB44103D30098401CF9
:10054000009002E0921800985B41002803DA002036
:10055000014605B0F0BD0020012109050746864689
:1005600011E064461D46141BB54106D36546521B77
:10057000B341744607430C43A646CD0740084908DB
:10058000284392185B4105460D43EAD110461843B3
:1005900013D06046194650407140084306D060466B
:1005A000101AB34106D20122002306E000220123E3
:1005B000DB0702E00122D243531000987446010584
:1005C000381C6141029C039D0019694100F023F928
:1005D000BFE70000FD03000070B54B005B0803435C
:1005E0000BD04B005C0D002633466542B341D41757
:1005F000AD1AA34102DB0020014670BD1205301880
:10060000514170BD10B500229623114600F0CAF882
:1006100010BD00000EB5C217C10F5040CA074018E8
:100620000021054B0293019200910A460B4600F00F
:10063000FFF803B000BD0000330400000EB505490B
:100640000291002100910A460B46019100F0F0F85A
:1006500003B000BD3304000070B5CD0F4A0009039C
:100660000123090B1B0519430B4BED070024520D09
:100670009A4201DA002070BD074B34339A4203DC02
:100680009A1A00F063F802E00449511888402C439C
:10069000F1D0404270BD0000FF030000CDFBFFFF22
:1006A0004A0009030123090B1B051943094B10B527
:1006B000520D9A4201DA002010BD064B34339A42A3
:1006C00003DC9A1A00F042F810BD03495118884023
:1006D00010BD0000FF030000CDFBFFFFC20FD207DB
:1006E000400040080BD0C10D0723DB01C9184002B0
:1006F0000905400A1143C208400711437047002012
:100700000146704710B5002904DB0124E40740428C
:100710008C412146002B04DB1C460123DB0752429F
:10072000A341994200D1904210BD000010B5202A8B
:1007300004DB0146203A9140002010BD9140202367
:100740009C1A0346E3401943904010BD10B5202A7F
:1007500004DB0846203AD040002110BD0B46D340B0
:10076000D0402024A21A91400843194610BD10B56C
:10077000202A06DBCB170846203A1041C1170B434D
:1007800006E00B461341D0402024A21A91400843B2
:10079000194610BD002904DA401C490001D1400867
:1007A0004000704770B40024050C05D110240004EB
:1007B00002D1002921D01124050E01D100020834F4
:1007C000050F01D10001241D850F01D18000A41C5B
:1007D000002801DB4000641C002908D020252E1BC6
:1007E0000D46F540A14000D00121294308430106F0
:1007F0001B1B000ADB1D02D5002070BC7047DB0507
:10080000181880180029F8DA401C4900F5D170BC8E
:1008100040084000704710B5002B08DA0024401C47
:10082000614192185B411A4301D14008400010BD5C
:10083000F0B51FB482B005460C0003D0084606F0A0
:10084000BBFE02E006F0B8FE2030024600902146D2
:100850002846FFF76BFF049B059A04460F46184392
:100860001143084314D0184610431BD00098402170
:100870000A1A18460599FFF769FF05460E46009AC1
:1008800005990498FFF752FF084305D0012004E0C2
:100890002046394607B0F0BD0020C11705430E437E
:1008A0002C43374300990E986305401A7905E40AF2
:1008B00000220C43FD0A0A3002D500200146E9E778
:1008C0000105101969410C9C0D9D00196941FFF744
:1008D000A2FFDFE7F8B50546480040080C4628436C
:1008E00004D06000184A400D904201DD2846F8BD52
:1008F00015493539884210DC88420BDB290D20036D
:1009000008432903014305D0E00F1049C0074118EF
:100910000020F8BD00200146F8BD161A4020821BB9
:1009200028462146FFF702FF074600912846214648
:100930003246FFF70BFF3A46009BFFF76CFF32464B
:10094000FFF7F4FEF8BD0000330400000000F03FA4
:100950004A0009030123090B1B0519430A4B10B573
:10096000520D9A4202DA0020014610BD064B343384
:100970009A4203DC9A1AFFF7E9FE10BD034BD21826
:10098000FFF7D4FE10BD0000FF030000CDFBFFFF0A
:1009900010B5002904DB0124E40740428C412146C4
:1009A000002B04DB1C460123DB075242A3418B4290
:1009B00000D1824210BD0000064C0125064E05E024
:1009C000E36807CC2B430C3C98471034B442F7D370
:1009D000FFF77AFBA08F0008C08F000870B58C1855
:1009E0000578401C6B075B0F01D10378401C2A116E
:1009F00006D10278401C03E006780E70401C491CAA
:100A00005B1EF9D12B0705D40023521E0DD40B70A9
:100A1000491CFAE70378401CCB1A921C03E01D78AE
:100A20000D70491C5B1C521EF9D5A142D8D3002081
:100A300070BDF0B589B00C4607461022002168460B
:100A400007F0A8FD69462246084607F05CFA6846AA
:100A5000007887260106684600290FDA002143182E
:100A6000425C5B785200DB091A434254491C0F294F
:100A7000F5DBC17B0246490071400DE000214318BF
:100A8000425C5B785200DB091A434254491C0F292F
:100A9000F5DBC17B02464900D173E21DF932516991
:100AA000102912D0017809061BD500214518435C96
:100AB0006D785B00ED092B434354491C0F29F5DB8E
:100AC000C17B03464900714019E000216218FF32E2
:100AD00001325378455C491C6B4053701029F5DB9B
:100AE00026E000214518435C6D785B00ED092B433F
:100AF0004354491C0F29F5DBC17B03464900D973D8
:100B0000E11D55698023FA316B54002500E05D54E6
:100B100053695B1C5361102BF9D300216218FF321B
:100B200001325378455C491C6B4053701029F5DB4A
:100B3000002162181046FF32E0300132437C5278C7
:100B4000491C534043741029F3DB21461022F13134
:100B500004A807F007FD2246394604A807F0D3F998
:100B600010220021684607F015FD09B0F0BD10B550
:100B7000044610220021F13007F00CFDFF20002177
:100B800015300151F022204607F004FD10BD0B4640
:100B900010B502461021184607F0E0F910BDF0B577
:100BA0000446FF308BB00F4601300890E11D4069CC
:100BB000FA310091103915460791002843D01021D1
:100BC0000E1AAE4200D316460099B2B2401839460A
:100BD00007F0C8FC089808994069801948611028F6
:100BE0003AD3B54238D0002162181046FF32E030C7
:100BF0000132437C5278491C534043741029F3DB83
:100C000007992246084607F07EF9BF19AD1B1AE086
:100C100000202118E0314A7C3B5C401C5A404A7459
:100C20001028F6DB102202A8079907F09BFC02A906
:100C30002246084607F067F9102202A9079807F034
:100C400091FC103D1037102DE2D8AAB23946009819
:100C500007F088FC089845610BB0F0BDF7B5234953
:100C60008022497A214B511ACDB2197A5B7A8026BB
:100C7000F31A0A46DEB2871E491C0124C9B2761E49
:100C80003B0006F0C8FC09060C060C120C06062BED
:100C90003000164BAA4224D2154CA05403E0134B4B
:100CA000B24215DB1DE019720DE0104EAD1EAA42D6
:100CB00017DA0F4B985401985854491CC8B202993E
:100CC0001954401C3072002408480121C17108E009
:100CD000074CA05401986054491CE4E7034BAA4216
:100CE000F6D32046FEBD0220FEBD0000C400002059
:100CF0003E0900203EB50D4C6946E2780A70227D1F
:100D00008A70C870606B06F031FB0190E06B029056
:100D1000E07D69464870207C04F0A7FA218CE06BE6
:100D20004143081AA16D4018A0653EBDC4000020D3
:100D3000FFB5002085B000900546064601900024CE
:100D400077000698C15B0120A04001422AD02819F3
:100D50000C210390484307990958002922D007998C
:100D60004118082002910856021100070117059842
:100D700040B204F06AFC002814D00298407A0101C5
:100D800008980818C068002804D00198401CC0B218
:100D9000019007E0009A0E99039888540098401C2F
:100DA000C0B20090641CE4B2102CCAD31035761C7B
:100DB000EDB2F6B2602DC2D30F9901980870009879
:100DC00009B0F0BD30B587B014216846FFF703FACB
:100DD000032001900020029003204003104C00905B
:100DE000E06A01210843E062E06A084005900520BE
:100DF0006946000700F0A4F8E06A40084000E0629D
:100E0000606B0125AD052843606300F071F800F0C8
:100E10007FF800F075F8606BA843606307B030BDE1
:100E200000100240704710B501F0EEFA10BD10B589
:100E3000012000F079F8022000F076F810BD10B51E
:100E4000042000F071F8082000F06EF810BD10B515
:100E5000102000F069F8202000F066F8402000F033
:100E600063F8802000F060F8FF20013000F05CF8AB
:100E70000120400200F058F80120800200F054F8F0
:100E80000120C00200F050F80120000300F04CF8EF
:100E90000120400300F048F80120800300F044F8EE
:100EA0000120C00300F040F810BD000001A007F0D1
:100EB0009BFDFEE74572726F725F48616E646C6500
:100EC000720A0D0010B5094A0021CB00D4588442A3
:100ED00007D89B189B68834203D9C8008018007903
:100EE00010BD491CC9B21529EFD3FEE7188B0008C5
:100EF0000248416849084900416070470058014074
:100F00000248416804229143416070470058014003
:100F100002484168022291434160704700580140F5
:100F200010B501F0FDF910BD10B504494A6902423F
:100F300002D04861FFF7F4FF10BD0000000401403B
:100F4000F8B500230124A2E027469F403A4070D024
:100F50004D68022D01D0122D14D1DD08AD002D18E1
:100F600000952D6A5E07AC46F50E0F26AE46AE40E4
:100F70006546B543AC460E697546AE4065462E43A0
:100F8000009D2E624D68012D05D0022D03D0112D3C
:100F900001D0122D16D185680326AC465D00AE4601
:100FA000AE406546B543AC46CE687546AE40654634
:100FB0002E43866046680D79BE43ED06ED0F9D40D9
:100FC0003543456006685F000325BD40AE46AE432D
:100FD0000D79B446AE07B60FBE4065462E43066097
:100FE000C6687546AE438D68BD403543C5604D68E3
:100FF000ED004BD5294D6E6B26436E639E08284D40
:10100000B6007519AC46AD689E07360F0F27B7407E
:10101000BD4305273F07B84201D1002715E0214F06
:10102000B84201D1012710E01F4FB84202D1022778
:101030000BE02BE01D4FB84201D1032705E01C4F08
:10104000B84201D1052700E00627B7402F43654687
:10105000AF60184D2E684F689643FF0300D51643C6
:101060002E606E684F689643BF0300D516436E60CE
:10107000AE684F689643FF0200D51643AE60EE6837
:101080004F689643BF0200D51643EE605B1C0A68AA
:101090001546DD4000D057E7F8BD000000100240C3
:1010A000000001400004005000080050000C0050F7
:1010B000001C005000040140002A01D081617047EB
:1010C00081627047014800687047000024000020DA
:1010D00002480168491C016070470000240000209C
:1010E00010B506480168022211430160032000F098
:1010F00007F800F007F8002010BD000000200240B3
:101100000020704710B50848816B020411438163C9
:1011100000F036F800F02CF804480168082211436A
:10112000016000F01DF810BD0010024000200240D8
:10113000C106C90E012088400149086070470000BF
:1011400000E100E0C106C90E0120884001490860A5
:101150007047000000E200E010B502F0EFFB10BDA8
:101160000248016802151143016070470070004099
:101170000248016842151143016070470070004049
:1011800002480168102291430160704700700040DE
:10119000094B1A689208920002431A6007480269D4
:1011A00004239A430261012903D040BF20BF20BF1E
:1011B000704730BF704700000070004000ED00E055
:1011C0000A4B1A689208920002431A6008480369A1
:1011D000042213430361012906D040BF20BF20BF72
:1011E000016991430161704730BFF9E70070004029
:1011F00000ED00E0F8B504460078544D800672D545
:10120000524E0027403EB06BC00004D4B06BA9051D
:101210000843B06301274E480168C90511D401682D
:10122000821511430160FFF74DFF009005E0FFF7C5
:1012300049FF0099401A642837D845480068C0051E
:10124000F5D532680321090560680A4001409142E2
:1012500008D08103890F032904D13168890301D59E
:101260000120F8BD2A69032109040A4022D0084060
:1012700090421FD0207880061CD528692A698843AF
:101280000121C9040A432A612A698A432A61286123
:10129000C0050FD5FFF716FF009008E0FFF712FF1B
:1012A0000099411A2B48814201D90320F8BD2869D1
:1012B0008005F3D561688803800F032805D1326863
:1012C0000005824301400A433260286903226168B5
:1012D0001204114008432861002F04D0B16B012093
:1012E00000078143B1632078C00705D0E868A16892
:1012F000800880000843E8602078800705D5E8680A
:101300000C218843E1680843E8602078400706D54F
:10131000E86803218902884321690843E86020784E
:10132000000706D5E868032109038843616908437B
:10133000E8602078000606D5E86803218904884320
:10134000A1690843E8600020F8BD00004010024099
:101350000070004088130000F8B5054653480E465B
:101360000068C007C00FB0420AD25048016849085F
:101370004900314301600068C007C00FB0426FD11F
:1013800028784B4C800705D5E068F0218843A96890
:101390000843E0602878C00752D06868022817D058
:1013A000032818D02168012818D08905002957DAA8
:1013B000E168890889000143E160FFF783FE6968FD
:1013C0000746022912D003291CD0012926D033E078
:1013D00021688903EAE721688901E7E74907E5E72A
:1013E000FFF770FEC11B3348814223D8E068000735
:1013F000800F0228F4D123E0FFF764FEC11B2D48C3
:10140000814217D8E0680007800F0328F4D117E065
:10141000FFF758FEC11B274881420BD8E068000740
:10142000800F0128F4D10BE0FFF74CFEC11B2148CF
:10143000814201D90320F8BDE0680007800FF3D195
:101440001A480168C907C90FB1420BD90168490898
:101450004900314301600068C007C00FB04201D0AD
:101460000120F8BD2878400706D5E0680721090269
:101470008843E9680843E0602878000707D5E068FA
:101480000721C90288432969C9000843E06000F0C8
:1014900017F8E168084A0906090F515CC840074976
:1014A00008600320FFF72CFE0020F8BD002002405A
:1014B0000010024088130000C88B000820000020A4
:1014C00010B5184AD1680C20084004280BD0082811
:1014D00010D00C2810D050680004410F0120C00328
:1014E000491C884010BD1068C00601D50E4810BDCB
:1014F0000E4810BD0E4810BD88020E4B000F185C40
:101500000902D368890F491CDB0301D5084A05E0AD
:101510001268D20601D5044A00E0044A5043FEF79F
:10152000E7FD10BD0010024000093D000024F4005A
:1015300000127A00D88B0008F8B504460078F34D05
:10154000C0074CD0E8680007800F022807D0E86881
:101550000007800F032809D1E868C00306D5286872
:1015600080033CD56068002875D038E001206268AF
:101570000004824203D129680143296011E0052358
:1015800001211B0489049A422A6802D10A432A6075
:10159000F1E782432A602A68024000922868884363
:1015A0002860606800280DD0FFF78CFD0646D84FF4
:1015B00004E0FFF787FD801BB8427DD828688003D0
:1015C000F7D50CE0FFF77EFD0646D14F04E0FFF7AC
:1015D00079FD801BB842F0D828688003F7D42078C2
:1015E000800741D5E8681F270007800F3F020128C8
:1015F00007D0E8680007800F032809D1E868C00316
:1016000006D42868400717D5E068012823D113E0E5
:10161000E068002817D02968092291430143296016
:10162000FFF750FD064604E0FFF74CFD801B022843
:10163000C3D828684007F7D568682169B84309020C
:101640000843686010E02868400840002860FFF701
:1016500039FD064605E090E0FFF734FD801B0228C7
:10166000ABD828684007F7D42078C00676D5E8685C
:10167000A84E0007800F0BD0A06900285DD0286815
:10168000FF21013108432860FFF71CFD074644E0B5
:101690002868800502D5A06900286ED0206A696894
:1016A0003140884212D903F081F90028AED1686830
:1016B000216AB043084300E0BDE068606868217FAC
:1016C0000002000A0906084368600FE06968B14338
:1016D000014369606868217F0002000A0906084327
:1016E0006860206A03F062F900288FD1206A410BFC
:1016F0000120C003491C8840E968874A0906090F90
:10170000515CC840854908600320FFF7F9FC25E0DB
:10171000FFF7D8FCC01B02288AD828688005F7D5B7
:101720006868216AB043084368606868217F0002E6
:10173000000A09060843686010E02968FF200130AC
:1017400081432960FFF7BEFC064604E0FFF7BAFCC0
:10175000801B02286FD828688005F7D42078704E47
:10176000000723D560690028306910D001210843A3
:101770003061FFF7A7FC074605E0C5E0FFF7A2FCD4
:10178000C01B022857D830698007F7D50EE0400803
:1017900040003061FFF796FC074604E0FFF792FC3B
:1017A000C01B022847D830698007F7D4207840074B
:1017B00062D5A86B0027C00005D4A86B01210907DA
:1017C0000843A863012757480168C90511D4016877
:1017D000821511430160FFF775FC009005E0FFF7EB
:1017E00071FC0099401A642825D84E480068C0054D
:1017F000F5D5FF20A2680130824203D1316901434F
:10180000316111E001218902002A07D005231B0262
:101810009A4203D132690A433261EFE73269824367
:101820003261306988433061A06800280FD0FFF72B
:1018300049FC009007E060E0FFF744FC0099411A82
:101840003348814259D830698005F5D50DE0FFF75E
:1018500039FC009006E0FFF735FC0099411A2C484E
:1018600081424AD830698005F5D4002F04D0A96B95
:10187000012000078143A963606A002842D0E9681B
:101880000907890F03293FD0012636060228286858
:1018900005D0B0432860FFF715FC04462FE0B043A5
:1018A0002860FFF70FFC074604E0FFF70BFCC01BA6
:1018B000022822D828688001F7D4E16AA06AEA6881
:1018C0000843216BFD231B049A4311430843E8603E
:1018D000286830432860FFF7F5FB044604E0FFF773
:1018E000F1FB001B022808D828688001F7D509E021
:1018F000FFF7E8FB001B022801D90320F8BD286888
:101900008001F5D40020F8BD0120F8BD0010024090
:101910008813000000E00000C88B000820000020B1
:10192000401002400070004030B5014620310A7876
:10193000012A15D001220A7002234B700468CA23C1
:10194000636204685323636203689C6820252C4308
:101950009C600068FF2343624A700020087030BD1D
:10196000022030BD10B505F023FD10BDF8B50546C9
:1019700004462035287801281DD001202870022037
:1019800068702268CA205062226853205062FF208B
:1019900001300026FF2781421CD121688A688243DA
:1019A0008A60206881680122120391438160FFF7F9
:1019B00089FB009009E00220F8BDFFF783FB009946
:1019C000411A7D20C00081421BD82068C068C00732
:1019D000F3D020E0206881680122520291438160A7
:1019E00020688168120191438160FFF76BFB0090D2
:1019F0000DE0FFF767FB0099411A7D20C00081428E
:101A000005D920684762032068702E70F8BD2068F1
:101A1000C0688007EDD520684762012068702E708D
:101A20000020F8BD10B500680B464068C021C943CE
:101A300001400002000ECC04D870E40E5C708C06ED
:101A4000A40E0904490F9C701970002A0AD102F0F3
:101A5000E5FFD870587802F0E1FF5870987802F0EE
:101A6000DDFF9870002010BD30B50B460168896A13
:101A70005960016809694904490C99600068046863
:101A80000F482146014088024D04800E18706D0EEB
:101A900049065D70490E99706102490E402421404B
:101AA000D970002A0AD102F0B9FF1870587802F0F4
:101AB000B5FF5870987802F0B1FF9870002030BDE3
:101AC0007F7F7F0070B5040005D0254620356878FB
:101AD000002802D006E0012070BD002028702046BA
:101AE00000F042F8022068702168CA20486221682C
:101AF00053204862204602F0A4FFFF2100282068FE
:101B000003D0416204206870E5E78268154B1A40F3
:101B10008260226890686368A6691843236933432A
:101B2000184390602268E068106120680269238988
:101B30001B041A4302612068C26880239A43C26072
:101B40002068C26C92089200C264E2696069024334
:101B50002068C36C1A43C264206841620120687027
:101B6000002070BDBFFF8FFF00B595B0042000902E
:101B700000200990FF20013002906846FFF7DCFC4E
:101B8000002801D0FFF792F920200D90C0020E909E
:101B90000DA8FFF72FFB002801D0FFF787F90848B1
:101BA00001690122920411430161002211460220C1
:101BB000FFF7D2FA0220FFF7BBFA15B000BD000014
:101BC00040100240FEB506460446203630780B46EB
:101BD000012842D0012030700220707020681D461C
:101BE000002720358068002A39D0400655D518785E
:101BF00002F014FF287802F011FF19789878090490
:101C000008435978DA780902120411430843297805
:101C100009060843D9690843596908430546996983
:101C20005868084300902168CA2048622168532000
:101C30004862FF205A6A0130802182424AD12268DC
:101C40009368834393602268D0680840FF388238E5
:101C5000D060FFF737FA019029E00220FEBD400670
:101C600000D4DF70187802F0E1FE0204587802F028
:101C7000DDFE00020243987802F0D8FE0243D878D5
:101C800000040243287802F0D1FE00060243D8691E
:101C90000243586902431546C1E7DF70AAE7FFF720
:101CA00011FA0199411A7D20C00081422AD820688A
:101CB000C068C007F3D02068C561216800984864F7
:101CC00020688168FF2201321143816020688168A9
:101CD000120130E02068826801235B029A4382602F
:101CE0002068C2680A401D495118C160FFF7EAF92F
:101CF00001900EE0FFF7E6F90199411A7D20C0003E
:101D0000814206D92168FF20486203207070377035
:101D1000FEBD2068C0688007ECD520680562216898
:101D20000098886420688168012252021143816012
:101D3000206881681201114381600948026801210D
:101D400049040A43026082680A4382602168FF20D6
:101D500048620120707037700020FEBD7FFDFFFFDC
:101D600000040140F8B505460446203528780B46A6
:101D7000012815D001202870022068705878002AA8
:101D800010D002F04BFE987802F048FED8789E788A
:101D9000000406435878197800024903084316E006
:101DA0000220F8BDC10603D5EF2108400A30587063
:101DB000D87802F03BFE0604587802F037FE0002A5
:101DC0000643987802F032FE064318784003064333
:101DD0002168CA204862216853204862204602F0E8
:101DE00030FE0027002811D11048064020684660C8
:101DF0002068C16880229143C160206880688006A5
:101E00000CD4204600F08CF8002807D02168FF2071
:101E10004862042068702F700120F8BD2168FF20FF
:101E20004862012068702F700020F8BD3FFFFF005E
:101E3000F8B506460446203630780D4601280ED007
:101E40000120307002207070206800278068002A0E
:101E500007D040061AD5287802F0E0FD17E00220EE
:101E6000F8BD400600D4EF70287802F0DFFD0204D0
:101E7000687802F0DBFD00020243A87802F0D6FD8C
:101E80000243E8780004024300920BE0EF702978E7
:101E9000A878090408436978EA7809021204114312
:101EA000084300902168CA20486221685320486294
:101EB000204602F0C6FD00281FD1184900980840AE
:101EC0002168086020688168012292049143816042
:101ED0002969E868084321688A6810438860206897
:101EE000C16880229143C1602068806880060CD45C
:101EF000204600F015F8002807D02168FF2048622E
:101F00000420707037700120F8BD2168FF204862FE
:101F10000120707037700020F8BD00007F7F7F00C7
:101F200070B504460068C168A0229143C160FFF704
:101F3000C9F87D260546F60006E0FFF7C3F8401B0A
:101F4000B04201D9032070BD2068C0688006F4D576
:101F5000002070BD70B5040006D025464035687C71
:101F60000026002802D005E0012070BD2E74204616
:101F700000F032F802206874206801684022914322
:101F80000160A168606822690843E1681143084361
:101F9000616901220843A169520211400843E169C5
:101FA0000843216A0843A16A084321680860A069C0
:101FB0000421000C0840616A0843216848602168D8
:101FC000E06A08612068C16992009143C161666559
:101FD00001206874002070BD7047F8B504460027E2
:101FE0006846078026464036707C012802D0707C07
:101FF00022287ED100290CD0002A0AD0002B08D03C
:10200000307C012875D001203074707C012802D00A
:1020100003E00120F8BD322070746765A263A387D6
:10202000E3872163A386E386A764E7640125A06AAA
:102030006D03A84207D120680168A94301602068A8
:1020400001682943016020680168490603D40168DA
:102050004022114301600121FF20E268C9020530DE
:102060008A42616866D1002904D081420CD1E08E99
:10207000012809D1206B21680088C860206B801C72
:102080002063E08E401EE086E08E002843D1A06AE7
:10209000A84246D120680168012212031143016061
:1020A0003FE02068C068A16B0880A06B801CA06323
:1020B000B0E0002202212046069B03F0FDFB002831
:1020C0007DD1206B21680088C860206B801C206354
:1020D000E08E401EE086E08E002808D1A06AA8426B
:1020E00005D120680168012212031143016000221A
:1020F00000E0CCE001212046069B03F0DDFB002838
:102100007FD12068C068A16B0880A06B801CA06391
:10211000E08F401EE087E08E0028CAD1606800286A
:102120007BD1002201212046069B03F0C5FB00283D
:1021300067D1B6E7002904D081420BD1E08E012897
:1021400008D1206B411C216321680078C860E08EB3
:10215000401EE086E08E002845D1A06AA84205D145
:10216000206801680122120311430160002201214D
:102170002046069B03F0A0FB002842D12068C068DF
:10218000A16B087046E0002202212046069B03F066
:1021900093FB002835D1206B411C21632168007816
:1021A000C860E08E401EE086E08E00280AD1A06A5A
:1021B000A84207D1206802680121090300E020E05D
:1021C0000A430260002201212046069B03F074FBB3
:1021D000002816D12068C268A06B411CA163027060
:1021E000E08F401EE087E08E0028CCD16068002898
:1021F00013D1002201212046069B03F05DFB00283D
:1022000002D00320F8BD08E02068C168A06B421C22
:10221000A2630170E08F401EE087A06AA8420FD140
:10222000002201212046069B03F046FB002802D035
:10223000606D02210EE02068C06869460880088849
:10224000012280212046069B03F036FB002804D0A3
:10225000606D202108436065D3E701207074A06A97
:10226000A84211D120688168C943C9060CD4616DA8
:102270000222114361650168A94301602068016879
:10228000294301603774C4E637740020BAE702209E
:10229000B8E70000014600200A0A00D00820084ADA
:1022A000114201D004221043064A114201D00222F9
:1022B0001043054A114201D0012108437047000034
:1022C000F0F00000CCCC0000AAAA000038B50B2327
:1022D0001B07C518114B0FD01C152D1B18D02D1B1B
:1022E00019D0A542DD6A05D108242543DD62DB6AE9
:1022F000234007E08024F8E7DC6A01252C43DC62F8
:10230000DB6A2B40009311601146FEF719FE38BDC1
:10231000DD6A0224E9E7DD6A0424E6E700100240F2
:1023200010B5FFF7B7FF810002484058002800D0E1
:10233000804710BD7404002070B51C4615460E463B
:102340000846FFF7A7FF0A49002C0DD080000C506B
:10235000304601F08CFA044600222946FEF7FCFEC6
:102360002046FEF7E5FE70BD002280000A5070BDD9
:102370007404002010B5D2B2FEF79EFE10BD0020FE
:102380007047000003494A690869496A504048405B
:10239000704700004000F81F704700000F494B6A6B
:1023A0000A69D218120EC2714B6A0A69D218120C4D
:1023B00082710A8A8B8CD218120A42710A7C8B8C29
:1023C000D21802714A69120EC2704A69120C8270E8
:1023D0008A8A120A4270097D017070474000F81F16
:1023E00010B5074C6078002808D10648006880477F
:1023F00000F0D8F900F08CF80120607010BD0000EA
:10240000C0000020388F000870B5410EC0017D2249
:102410000023FDF797FE054600F072F8044600E041
:1024200000BF00F06DF8001BA842F9D370BD00009A
:1024300070B505460C4600222048FFF715FB002228
:1024400029461E486668FFF7EDFA002221461B4820
:10245000FFF70AFB6068B042F1D1E878184A0146FC
:102460005043C01C8308880726D0164968783D224F
:102470000646504302463C3A7000801EC140880721
:10248000D10F8918800F4910081AC018A978401E6A
:1024900008180D493C2248436178E12351432278D2
:1024A0001B015A438918A27810180818074A616856
:1024B0008002511A401870BD0549D7E7B4040020C6
:1024C000B5050000A0AA990080510100FF0300009B
:1024D00050554400032070470148006870470000D1
:1024E0000005002000B587B0694605A8FFF7A0FFEA
:1024F0000249096807B0401A00BD0000000500202D
:1025000000B587B0694605A8FFF792FF07B000BD88
:1025100010B5084C207800280AD100F04BF8FF21B4
:1025200001310548FFF722FA00F074F8012020700D
:1025300010BD000038000020B404002010B50C4C81
:102540000021042000F0F0FB21688868C0040ED54B
:10255000C868C0050BD5C86880221040FF38823893
:10256000C8600449900248612046FFF7FBF910BD9E
:10257000B40400200004014070B50446FFF7B2FF28
:10258000211A0B4D0220285EC01C814201D9002176
:1025900000E00121042000F0C7FB00F09DFB0128B2
:1025A00002D10220285E241A204600F03FF870BDB8
:1025B0003800002010B51449144886B0002412C019
:1025C0001F21016084600461114944614160083841
:1025D000FFF778FA6946CC7501204875887508754B
:1025E000002205A90948FFF7BDFB0094019404945B
:1025F0000022694605480394FFF71AFC0348FFF7D9
:1026000093F906B010BD000000280040B40400207B
:10261000FF03000010B5044C2046211D1830FFF7C1
:1026200007FF206010BD000000050020F0B587B056
:10263000044614223F4901A8FDF7B4FD3D48503837
:10264000406E009000F07EF83B4802993B4A401AE9
:10265000A105890D081887B2A10A684680785342FF
:1026600002E08918401C80B29942FAD26A46157974
:10267000E122120102E0891A6D1CADB29142FAD238
:102680006A46547902E0641CA4B23C393C29FAD26F
:10269000927951188EB20121890203E07A1A761CD0
:1026A00097B2B6B28F42F9D203E03C3E641CB6B298
:1026B000A4B23C2EF9D203E03C3C6D1CA4B2ADB2F6
:1026C0003C2CF9D203E0183D401CADB280B2182D6D
:1026D000F9D26946C978890769464A7827D01849E6
:1026E000491E515C814202D2FDF702FD08461249A3
:1026F000CA1B10492C394A60052252068A618E7025
:102700004C700A460D70203210706846C079C8704F
:102710000020C861FF2248610132C8604A62086136
:10272000024608462438FFF74DFA07B0F0BD0449C9
:102730000C31D5E704050020FF03000080AEFEFF4A
:10274000E18B000810B506480168C8688022104077
:10275000FF388238C86051000148FFF707F910BD03
:10276000B404002010B57D2104F03DFF4906C009E6
:10277000084310BD10B5410EC0017D220023FDF7B6
:10278000E1FC10BD01B582B00020C04300900123E0
:1027900001AA02A90248FFF720FC684680880EBD06
:1027A0001C05002010B51C481A4901601C4A1B4B2F
:1027B0000021126803E05208491C072901D29A42FD
:1027C000F9D84A078B07D20FDB0F52011B011A43BE
:1027D000C90700D008210A43C2610021816001615C
:1027E0004161FF22C16005328162426001220162C3
:1027F0005202826141620B48416B82141143416372
:102800000548FFF7A7FB002801D0FEF74FFB00F0BB
:1028100047F810BD003001401C050020809698004C
:10282000200000200010024070B586B014216846D8
:10283000FDF7D1FC05260125022436076A468021D2
:10284000304601950294FFF741FD00228021304679
:10285000FFF790FD6A46402130460294FFF736FDAF
:10286000002240213046FFF785FD6A462021304690
:102870000294FFF72BFD002220213046FFF77AFD5E
:10288000064C6A46402120460295FFF71FFD0122B3
:1028900040212046FFF76EFD06B070BD00040050D9
:1028A00010B586B014216846FDF795FC0220019012
:1028B00002900320039000200524240704906A4618
:1028C00020212046FFF702FD6A4640212046FFF7FF
:1028D000FDFC6A4680212046FFF7F8FC0120074CEA
:1028E000019002906A4640212046FFF7EFFC01224A
:1028F00040212046FFF73EFD06B010BD0004005009
:1029000000BFFDE710B503A1095C03A006F06CF859
:1029100010BD0000414243007377697463682074FE
:102920006F20636C61737320256320646F6E650A8A
:102930000D00000010B502A006F056F810BD000012
:102940004A4F494E45440A0D00000000F8B5584D65
:102950006960E8602C4610348168A01C884755A047
:1029600006F042F8A17858A006F03EF80126A0191A
:10297000817859A006F038F8761C082EF7DB58A0AD
:1029800006F032F8A17A57A006F02EF80126A01919
:10299000817A51A006F028F8761C082EF7DB50A0AB
:1029A00006F022F8A17C53A006F01EF80126A0191B
:1029B000817C54A006F018F8761C102EF7DB53A08B
:1029C00006F012F8E868C068804705F0AFFF50498C
:1029D000002005F00BFF28604EA006F005F8A17856
:1029E00039A006F001F80126A01981783AA005F077
:1029F000FBFF761C082EF7DB39A005F0F5FF4AA097
:102A0000296805F0F1FF2A4F4BA03037B97805F05F
:102A1000EBFF0126A019203081783AA005F0E4FFF1
:102A2000761C102EF6DB2EA005F0DEFFB97C46A04A
:102A300005F0DAFF0126A0192030817C31A005F0D5
:102A4000D3FF761C102EF6DB25A005F0CDFF434802
:102A5000414901604249416042498160E868144946
:102A600000680831086002223C4800F0AFF93B4E94
:102A700002200C363070686800783071304600F003
:102A800059FC07203070686880783071304600F05B
:102A900051FC002030703071304600F04BFC0120BA
:102AA000607068684178024850300173F8BD0000DA
:102AB0003C0000204966204F54414120656E616210
:102AC0006C65640A0D0000004465764575693D201B
:102AD00025303258000000002D253032580000000B
:102AE0000A0D00004170704575693D20253032584F
:102AF000000000004170704B65793D202530325850
:102B00000000000020253032580000000A0A0D00A5
:102B1000FFFFFF0149662041425020656E61626CF3
:102B200065640A0D000000004465764164643D2040
:102B300020253038580A0D004E776B534B65793D90
:102B40002025303258000000417070534B65793DAC
:102B500020253032580000009F38000884050020EE
:102B6000A1380008F938000830B52348224D017813
:102B70000020103D85B0012928D0204C0321217070
:102B80006060204600F0D6FB04202070286860605A
:102B9000204600F0CFFB05202070284632306060D0
:102BA000204600F0C7FB06202070284642306060B7
:102BB000204600F0BFFB012020702071204600F06D
:102BC000B9FBE8684069804705B030BD69460870C8
:102BD0000948801C01900830029008300390686812
:102BE000C078087401A91EC904481C381EC0684674
:102BF00000F0D6FCE8E700004C0000209005002023
:102C000010B50B480168002904D000F014F800F05A
:102C100036F810BD4068002804D000F013F800F02A
:102C20002FF810BD00F006F800F028F810BD0000E5
:102C30006C010020704710B501210020FEF7A8FAB2
:102C400010BD000010B5EFF3108472B6FFF7ECFD75
:102C500008484068804705F06FFE07480168042275
:102C60001143016084F3108801210846FEF7A8FA99
:102C700010BD0000388F000800700040704770479A
:102C800010B5EFF3108472B61148016801221143A8
:102C9000016001684907FCD5016801221206114351
:102CA000016001688901FCD5C16803221143C1603C
:102CB000C1680907890F0329FAD1FFF7F1FD05481B
:102CC0000068804705F062FE84F3108810BD0000A4
:102CD00000100240388F0008EFF3108172B60748E9
:102CE0000268002A01D0002005E04068002801D0D9
:102CF000012000E0022081F3108870476C01002061
:102D000010B5EFF3108272B6064B00295C6803D051
:102D1000012903D1044300E084435C6082F31088FE
:102D200010BD00006C01002010B5EFF3108272B6E8
:102D3000064B00291C6803D0012903D1044300E09D
:102D400084431C6082F3108810BD00006C010020D9
:102D5000F8B5174605460A461948069C089E079985
:102D6000447183711C0AC4711C0C04721B0E4372E3
:102D700081720B0AC3720B0C0373090E4173D4B238
:102D8000C4731048FDF7F3FE39460E48FDF7FFFE09
:102D900010220B490B48FDF702FF2246294609483D
:102DA000FDF7FDFE0749C81FFD38FDF742FE064C42
:102DB000601CFDF71BFA2178000208433060F8BD63
:102DC00030010020A40C0020A00B0020F8B50E4616
:102DD000050017467ED028680028FBD068680028C8
:102DE000F8D0A8680028F5D0104602F05DFC002855
:102DF00071D0764C00212666E565224627741A328A
:102E000011706174A163217601266676E1746165B3
:102E1000A1650B216A4611703846694602F033FC01
:102E2000002800D0012020750821684601706946FD
:102E3000207C02F028FC664D052128706846017050
:102E40006946207C02F01FFC68700C216846017006
:102E50006946207C02F017FCE8600D21684601708D
:102E60006946207C02F00FFC28610E216846017043
:102E70006946207C02F007FC68610F2168460170FA
:102E80006946207C02F0FFFBA861102168460170B2
:102E90006946207C02F0F7FBE86113216846017067
:102EA0006946207C02F0EFFB2F4620377870142112
:102EB000684601706946207C02F0E5FB68621521D6
:102EC000684601706946207C02F0DDFB38721A21E9
:102ED000684601E076E077E001706946207C02F008
:102EE000D2FB38731B21684601706946207C02F0D2
:102EF000CAFB78731C21684601706946207C02F089
:102F0000C2FB28631D21684601706946207C02F0DF
:102F1000BAFB68630021207C02F0BFFB3E700A22EE
:102F200006216A6028462972383842600172E968D1
:102F3000C1602969016169694161A9698161E969C2
:102F4000C1612030067002F021FC2846214938304A
:102F500004F018FA7D212846C900383004F07AFAC6
:102F600028461D49683004F00DFA28461B497C307C
:102F700004F008FA28461A49903004F003FA28466B
:102F80001849CC3004F0FEF904F0EAF960632846F1
:102F900015494C3001601549816015490161154999
:102FA00041601549154DC160A9688847E8698047A7
:102FB00005F0BCFCA674296E30468847686B8047D4
:102FC0000020F8BD0320F8BD0A20F8BDC400002091
:102FD000780A0020C139000871430008B542000892
:102FE00015430008813900088D410008F13B0008B5
:102FF000C54000087942000825410008388F0008C4
:10300000F8B504461D4617460E460D48FDF7AFFDC0
:1030100039460B48FDF7BBFDF2B221460848FDF7E3
:10302000BEFD0749C81FFD38FDF703FD054C601CB8
:10303000FDF7DCF82178000208432860F8BD0000A5
:10304000A40C0020A00B0020FFB585B00F4604465D
:1030500007ADF02200211D480E9E05F09BFA1B4A89
:103060001021204604F07AFF10220021684605F066
:1030700091FA012168460170062239466C46401CCF
:1030800005F070FA02222946E01D05F06BFA0F4A9E
:103090006846089904F037FF10220021684605F0C1
:1030A00079FA02216846017006223946601C05F053
:1030B00059FA02222946E01D05F054FA034A314626
:1030C000684604F020FF09B0F0BD0000B00B0020FE
:1030D000F8B517460E4605461C46F02200210B485F
:1030E00005F058FA094A1021384604F037FF074A1C
:1030F0002146284604F007FF102E06D32146284615
:10310000024A1031103004F0FEFEF8BDB00B002072
:10311000F0B5044687B002200490002006460190D6
:10312000002C78D04248816BCA0701D1C80602D56D
:10313000012007B0F0BD0020694608720146142244
:103140003C4805F027FA3B4801214170384841735B
:103150002278002A04D0012A0AD0032A26D118E0B6
:1031600001736B461A7A0126D206D20E403207E06E
:10317000E27B02736B461A7A0126D206D20E8032A7
:103180001A7222790192A26800920E25A7896557CA
:103190000CE001736B461A7AE0231A436B461A72ED
:1031A0006268012600920A252789655701216A462F
:1031B000117521490691097B91751D4805A9007C6F
:1031C00002F061FAA84200D3054668B2002E1FD073
:1031D000174D2979002910D16946087306980422F1
:1031E000007B887303A9287C02F0C5FA002812D05E
:1031F00011496846007B203948703B4602A8009A76
:10320000019903F059FF0490002806D0002068714E
:1032100004988EE7FFE703208BE7064821780170CA
:10322000034801221A30017811430170F0E70000D1
:10323000C4000020700B0020600A0020F8B50025B3
:103240000446002818D03949277837480E463836C2
:10325000027C3B0004F0DFF91E121417191B1E201C
:1032600023252729303B394246484A4C4E50525676
:1032700054585A5C5E6062640320F8BD407C00E0F4
:10328000C07820714DE00079FBE7C06C00E0006D74
:10329000606046E02648FBE725481030F8E7807C70
:1032A000EFE7C07CEDE7192012E020492039486C97
:1032B000896CA160606034E01C49203908467C308C
:1032C000C96F40686160A0602BE0172000E0162005
:1032D00069460870104602F0D6F9D9E71348203045
:1032E0000078CEE7C868D3E70869D1E74869CFE737
:1032F0008869CDE7C869CBE77078C2E74878C0E74E
:103300003078BEE70878BCE7806AC1E7C06ABFE7EB
:10331000406ABDE74868BBE7087AB2E7486BB7E7A1
:1033200002252846F8BD0000C4000020400A002005
:1033300020070020F0B5002489B00746002806D0F9
:10334000934D288FC00704D0012009B0F0BD0320A1
:10335000FBE7914E3A78304620300290407B039054
:103360008B488C49007C130004F055F91E10212471
:10337000272A2D333C41F744819894A4ABAEB1B4D5
:10338000B7BAC9E5D6FAFDF7F4F3F2F738796874FD
:10339000002804D0012804D0022802D102E0486BA2
:1033A0008047F3E00020687100F0B4FFEEE0387968
:1033B000E870EBE038792871E8E07868E864E5E0E7
:1033C00078682865E2E07968002972D01022734895
:1033D00005E079680029F8D070481022103005F017
:1033E000C1F8D3E03879A874096E8847CEE03879FF
:1033F000E874CBE0397A6A4611710399517106225B
:1034000001A902F0B8F9002853D06348BA682038FF
:10341000796882644164687C022827D1E8780028B2
:1034200024D05D4F0298F037009708214156327A38
:103430007368287C02F011F9687D3870706A7860D2
:1034400002983A46407B3874E87C78740120F8741E
:10345000B8742C323946287C02F055F900287DD00A
:10346000B87CF16802F01CFAF87CE8738EE0397AD7
:103470006A46117103995171062201A902F07BF984
:1034800000286BD04448BB6820387A688021C26726
:103490000B507BE079680691012102E07968069182
:1034A00000216A46117706A901F0E6FE002855D0F2
:1034B0006CE053E03879411E0E294FD8029908700C
:1034C00064E07868F06061E0786830615EE07868B8
:1034D00070615BE07868B06158E07868F06155E051
:1034E0003A7969460A71052201A902F044F90028D7
:1034F00034D06846017928483830417046E039793F
:103500006A461171042201A902F035F9002825D07C
:1035100068460079707039E03A7969460A71082284
:1035200001A902F028F9002818D0684601791A4844
:10353000383001702AE039796A461171072201A9F1
:1035400002F019F9002809D06846007930701DE0B2
:1035500018E011E00AE006E002E016E0032415E0BE
:103560007868A86212E07868E8620FE00A48796833
:1035700038304160716009E00748397938300172AC
:10358000317203E07868706300E002242046DCE6D4
:10359000C4000020388F0008400A002020070020C7
:1035A000F0B50446022085B00090002C36D0474884
:1035B000008FC00718D10C220021454804F0EAFF13
:1035C000434E01207070414D207808271A3500289D
:1035D00006D001285DD0022866D0032850D16BE0C8
:1035E0003A48018FC90602D5012005B0F0BD6168D7
:1035F000002913D0A168002910D0E16800290DD05E
:10360000217C00290AD06A46117330481E2203A982
:10361000007C02F0B0F8002802D00AE00320E4E7C2
:103620001F2168460174294804A9007C02F02BF888
:103630002074287869463843287020783070234EEB
:1036400060683064A0687064E068B064207C707664
:1036500000203076087102F099F8307E6946401CEF
:10366000088102A9307C01F01BFA1A490023487036
:103670001A46194601A803F01FFD0090002806D045
:103680001249002048712878F721084028700098D6
:10369000ABE7287800223843287020783070114634
:1036A0000220FDF7DBFAE8E730702878384328700D
:1036B000A08803F099FDE0E730702878384328703F
:1036C000227BA088A16803F0B9FDD6E7C4000020E2
:1036D000840B0020400A0020FEB508AF70CF6F4673
:1036E00070C700F001F8FEBDFFB50D46002681B0A1
:1036F0001F460124F0223146294804F04BFF284A96
:103700001021039804F02AFC26480A994171877118
:10371000390AC171390C0172390E41720B998172EB
:103720000B991F4F090AC1720B99090C01730B9970
:10373000090E4173203F18E01A48194AC473641CEB
:103740001146A4B2203904F0DEFB00203118019AA2
:103750003B5C525C401C5A400C9B80B25A5410286F
:10376000F4D3103D1036ADB2F6B2102DE4D2002DD8
:1037700013D00B4A0B481146C473203904F0C3FB25
:10378000002008E0019A3118525C3B5C5A400C9BC7
:10379000401C5A5480B2A842F4D305B0F0BD0000DA
:1037A000B00B002040010020F3B52B4887B00E4637
:1037B000427869460A710078284C0876207A617A46
:1037C0004018C5B2002E32D000216846017221791E
:1037D0004172206B2049039038394A786846027458
:1037E0001D4F09784174183F397B81742046303071
:1037F000009006AB01AA02A9207C01F042F9397BB6
:10380000684681750179417509210175E07C0028C0
:1038100002D00A206946087505A9207C01F033FF13
:10382000C0B27070A84205D3401B307006E0032080
:1038300009B0F0BD3070002525726572684604211C
:1038400041562A46079803F081FE002801D0002047
:10385000EEE70820ECE70000780A0020C400002012
:1038600010B502790168407905F01AF810BDFF2201
:103870000132811A90420CD009DC08280DD008DCF6
:10388000012808D0022806D0042802D105E00F2222
:1038900012020720704705207047062070477047C6
:1038A0001CB50446407800281BD104F04BFC0028CE
:1038B00001D004F035FC607B012812D1E078E028CB
:1038C00010D069464871207B0871A06800900848B4
:1038D000E1894180217C01715038C06801696846E6
:1038E00088471CBD0349204604F032FC1CBD000083
:1038F0008C0000207405002010B5044600780028D4
:103900000CD0012809D16078002806D104F01AFCF7
:10391000002802D0204604F00BFC10BD607800287F
:1039200002D0FFF721F910BD0248C0684069804706
:1039300010BD00003C000020704700008307FF22FC
:10394000DB0E9A408907090E994000280BDA000720
:10395000000F0838830808489B001818C369934370
:103960000B43C3617047830804489B001B18186809
:10397000904308431860704700ED00E000E400E069
:1039800010B50B4803F0B0FD0A484179002905D075
:1039900001218173816B042291438163407C022861
:1039A00005D1044810221A3001781143017010BD6E
:1039B000440B0020C400002010B504F08DFC10BDA5
:1039C000F8B50027874803F08FFD874D874C28788E
:1039D000C10673D5A16B4A0604D54022914349081C
:1039E0004900A1637F490207D4310026002A01DB88
:1039F000C20711D07B4AC0325378022B02D04B78D9
:103A0000022B09D1A36B5B085B00A3632672637B67
:103A1000537116710127966062793A43714F503F96
:103A2000002A31D1020702D4C10703D12CE00A7861
:103A3000002A06D03978A27A91420ED9810712D491
:103A40001DE0227E8A724978002903D0617E8A4275
:103A500010D214E0A662A6720CE0800703D426728E
:103A6000206B401C2063A6726078002802D1A06AF7
:103A7000401CA062A06B40084000A06304E0EF215E
:103A80000840287000F074FC2878800717D5554846
:103A9000C0300179012903D0617B227B91420ED98C
:103AA000A67366716178002902D1A16A491CA162DE
:103AB000617B4171A06B40084000A0634FE0A07B98
:103AC00000284CD0208FC00649D4A673607B217B90
:103AD000884231D208282FD8401C6073C0070DD00F
:103AE000202168460170397B3E4F8170703F7978A4
:103AF00041706946207C01F0C6FD787003F056FAEB
:103B0000002814D037480921C03041702672A16BBB
:103B100049084900A16366710671617B41713149B1
:103B20007039497881706078002815D017E02878BE
:103B3000EF210840287012E00121207C01F0ADFD4A
:103B4000A06B40084000A063264826726671C03012
:103B50000671617B4171E6E7A06A401CA062A06B20
:103B6000810702D502218843A06300280ED07D2161
:103B7000C9001C4803F06EFC1A4803F07DFC28784D
:103B800080072ED5607C02281DD01EE02878C00753
:103B900008D0E06D01681348C03088472878400895
:103BA000400028702878000708D5E06D81680D482E
:103BB000D43088472878F721084028702878EF21EA
:103BC00008402870DBE700F0A5FB2878400704D404
:103BD000E06D41680348A83088472878F9210840FB
:103BE0002870F8BDB00A0020DE000020C4000020CC
:103BF000FFB50646002097B00C461190014609908B
:103C000005460C90FE48079010300E90002013904F
:103C10001290FC4801711838C2811A9A0274FA4A4B
:103C2000D27B4274C17081704171816001734173B4
:103C3000817441610170F548406B8047F1486838F4
:103C400003F052FC3078694608704109601E02900A
:103C5000201FEF4F1491109001291CD003297DD013
:103C600005297BD007297AD039460120F8314870E0
:103C700000F022FDE44810221A300178114301704F
:103C8000E3480121503003F0E5FBE148503003F0F8
:103C9000F3FB1BB0F0BDDC48C178002903D0D94943
:103CA000012018394EE1D8480299DA4D826C89B268
:103CB0006B1C701CFFF70CFA68460078287010988F
:103CC00009AB81B2D048826C2846FFF799F92819D0
:103CD0002038417F027F09021143827FC07F120496
:103CE0000A43000609991043884249D1C448C64E88
:103CF00010300090C24BF28B691CB06CFFF7A4F936
:103D00006879297900020843A97909040143F1641B
:103D1000287AE97900020843697A09040143A87AFC
:103D2000000608433065E87A4106490F00077970BC
:103D3000000F3872287BB84D0007000F286101D1B1
:103D4000012028617D21C90048432861401868612D
:103D5000B0480D3004906846113C01E015E096E152
:103D6000047504A9307C00F0A4FEA649002014319B
:103D700048700120F070A64818304078687079E7E4
:103D8000A04807211430417074E7797B684681733D
:103D90009C489D4F18380179684641730921017389
:103DA000F87C002802D00A206946087303A9387CF1
:103DB00001F069FC21460D3909B2002900DA002121
:103DC000814200D96BE7B178707809020143F0783D
:103DD0008D4A000408433179090601430691126DAA
:103DE00005209142884917D04D6A0CE02A6806994F
:103DF0008A4207D101211391291D079110310E919B
:103E00006F6A0AE0AD6A002DF0D10B217D481838A9
:103E1000417000F051FC3CE7CF6A315C6A4611709A
:103E2000401C0B91335C401C305C02020807000F01
:103E300008300A9030191A432038017F0C9B19432F
:103E4000437F1B020B43817FC07F09041943000697
:103E500008430C90D01B81B20122D20309A80D9116
:103E6000914212D27F18019702900121109800917F
:103E700081B23046069B079AFEF76AFF09990C98B3
:103E800088421AD10120129017E009B20122791854
:103E90001204891815910191029010980122009244
:103EA00081B23046069B079AFEF752FF09990C989B
:103EB000884202D10120159F129011206946087393
:103EC000514803A9007C01F0DEFB0D99884205D81A
:103ED0004C480A211838417047619AE71298002827
:103EE00077D04848002118384170139A82700B9A95
:103EF000444BD206D20F4271816001734761424840
:103F0000597001634172139800280CD018460221A1
:103F100018380170696AB94203D1002901D008211B
:103F200076E76F621FE0149805280DD036483549B2
:103F30000022827118390A70C06AB84211D1002873
:103F40000FD00820487064E72F482E4A0121817164
:103F5000183A1170C06AB84203D1002801D001207C
:103F600011902948C76227480078012802D10B9890
:103F7000800602D52449002008720A98201A001FE2
:103F8000002852DD0A9D0A986D1C611B091F305CD8
:103F9000C9B20F911B491839C87000280B9819D065
:103FA000000707D01A980821C3B2681EC2B2304673
:103FB00000F0A0FB01200090164C019702947019AC
:103FC000069B0E9A0F99FFF787FB1198002825D0C2
:103FD0004FE05AE0000702D00120119049E00D485F
:103FE00001210290019700917019069B079A0F9981
:103FF000FFF772FB1A980021C3B206480F9A1CE023
:1040000020070020700B0020C4000020388F00081B
:10401000600A00203F080020400A002026488460F3
:104020000F990173012141730CE00B98000706D032
:104030001A980821C3B230460A9A00F05BFB119827
:10404000002816D10B98800606D51B49012018318F
:1040500008711839887408E0174900201831087170
:104060001648417B007B814203D91348143803F082
:104070003BFA124902221A3108781043FB22104001
:10408000119A920010430870F4E50C21BEE6711CF1
:1040900022460B4804F066FA07480321017000210C
:1040A00041700749816002990173044802211A3066
:1040B00002780A430270DDE5580B0020C40000209E
:1040C0003F08002070B5144C607C022803D01348D0
:1040D000406B804701E000F01DF911480E4DE27B76
:1040E00001461A35102614316379002A05D00622BC
:1040F000002B00D042704A700AE00522002B00D04D
:1041000042704A70606D03F031F9A16E884202D3AB
:1041100028783043287070BDC4000020388F000814
:10412000700B002070B5164C607C022803D0154837
:10413000406B804701E000F0EDF81348104DE27B42
:1041400001461A35102614316379002A08D004225A
:10415000002B00D042704A70607C02280BD170BDE9
:104160000322002B00D042704A70606D03F0FEF80D
:10417000A16E8842F3D328783043287070BD0000C8
:10418000C4000020388F0008700B0020FEB503F03B
:10419000E7F8364C0646607C022803D03448406B72
:1041A000804701E000F0B6F8304DA0781A350027BE
:1041B00000282AD02F48616E03F04CF92D4803F0F7
:1041C0005BF9607C02280ED02A48A16E143003F0FF
:1041D00041F92848143003F04FF9607C022802D0DE
:1041E0006079002820D012206946087202A9207C3C
:1041F00001F049FAA16E41181E48503003F02AF927
:104200001C48503003F038F90EE01A4804217C3085
:104210004770143041702878002801D1012028709F
:10422000C0B21021084328702878000704D511482F
:1042300090300078002815D0E775607DA07569463C
:104240000870E07848700196207C01F070FA66658D
:104250006079002805D107487C304770A07A401C5F
:10426000A072FEBD0120E075E7E70000C400002059
:10427000388F0008F40A002010B50B48407C022853
:1042800003D00A48406B804701E000F043F808493A
:104290000220487014314870034810221A30017807
:1042A0001143017010BD0000C4000020388F0008C9
:1042B000700B002070B5144803F016F9134C002160
:1042C000114DE173607D283528702846BC3842784E
:1042D000EA70407B2874E07C6874A974E974607C9F
:1042E000022802D10A48806B8047074A207C683246
:1042F0001146403901F007FA0348B438C168A87C78
:1043000001F0CEFA70BD0000F40A0020C4000020C5
:10431000388F000870B5144803F0E6F8124D134CBE
:104320002835607D2E462870F03E706A6860284609
:10433000D038407B2874E07C68740120E874617C8C
:10434000022900D00020084AA874543211462C39A2
:10435000207C01F0D8F9002805D0A87CF16801F094
:104360009FFAE87CE07370BD080B0020C4000020B9
:104370001FB5194803F0B8F8184C1021A06B8843FA
:10438000A06320461A300078000721D51248A430D7
:10439000007800281CD101F0F9F9207E6946401C04
:1043A000888103A9207C00F07BFB0B49A039487071
:1043B00000206946087121790246C9010A4369460D
:1043C0000A7203460246009002A901A800F034F8E0
:1043D00002F0ECFD1FBD0000E00A0020C400002038
:1043E000F0B5064600242046002E01D0002A1ED13A
:1043F0000020F0BD355DAF1E3B0003F00CF909163F
:1044000014160612140E16061600641C1554E4B297
:10441000401CC0B2335D135400E01554401CC0B2C0
:1044200003E0A41C00E0641CE4B2641CE4B28C420F
:10443000E0D3F0BD70470000F0B50C4687B084466D
:10444000002198480C9D069181831E1E17464171DC
:1044500000D10025EAB202706146934D09782970B7
:104460000121009161460978490908D002293FD00D
:1044700004293BD007297DD0022007B0F0BD009968
:1044800004468183681C0822616C04F076F8A08BD6
:104490000822083080B2A0832818216C04F06DF83F
:1044A000A08B0830A0838148C06980470146E08323
:1044B000A08B06AB2954401C80B2090A2954401C29
:1044C000A083C1B27848A26CFEF79AFDA08B069932
:1044D0002954401C80B20A0A2A54401C80B20A0C9B
:1044E0002A54401C80B2090E2954D7E001214171A1
:1044F000C178002969D0012269460A732178694888
:10450000CA0969464A736A4A006B04905078087574
:104510001078487510462030007B88756148134636
:1045200030300090303803A9007C521C00F0A9FA0A
:1045300081012078BF22104008435A4920708979B0
:10454000002905D0574A002191712021084320708D
:104550005448016D54480A0A417082700A0CC270B6
:10456000090E0171217841714E49098D8171090A45
:10457000C17100E088E04B49FF30097AFF304018F4
:10458000484908254A7A4A49823903F0EBFF4548F1
:10459000017A407A0818C1B24248002E01721FD039
:1045A0000278002A1CD0C279002A22D00F291DD8F7
:1045B00020783D4A030940181B010007000F034300
:1045C0002370537100203B4C07E0072055E7235C24
:1045D00053556D1C401CEDB280B28842F7D308E001
:1045E0003048002905D0C279002A02D0314E01702E
:1045F00000272C4C00202F4AE07180322D48FFF715
:10460000EFFE6072002801D00120E071002E14D06E
:104610002178002911D0244847556D1CEDB2002F98
:1046200027D0A36A002240190092019302901E4AEB
:10463000236D103A3046FFF757F8207806AB29185B
:10464000A18300206E46A26A0DC6174A1648203A7A
:10465000236DFEF77DFB144AA18B06985054030A84
:1046600052185370030C000E9370D070091DA18373
:1046700016E000222272A36A401900920A4A0193AE
:104680000290203A236DD5E7002B09D00446002A7A
:1046900006D0681C314603F065FF2078401CA083DB
:1046A0000020EAE6C400002040070020388F000800
:1046B000400A00203E09002010B50C484022816BC2
:1046C000114381634079002801D0FFF759F9074968
:1046D00012221A310878104308700121044802F0B0
:1046E000B9FE034802F0C8FE10BD0000C40000205F
:1046F000B00A0020FFB505468BB0A84816460C4608
:10470000099024E1285D641C801EE4B2030002F0DD
:1047100082FF0906115E6AA1AED6EFEDEC00A0495A
:1047200000204870285D0872641CE0B22A5C4A725E
:10473000401C4AE000206946087708A908706946CD
:10474000087208732819401E0490301B401C08751D
:104750009448924F02798A750999203F0A7B6946ED
:104760004A757A78CA753A780A76099908AB0A7850
:1047700069464A7603AA02A90192009107AA04A9F0
:10478000007C00F097FF0090C043400709D16846C5
:10479000007F787008A8007838706846017A099818
:1047A0000170002706E0002203200099FCF756FA6A
:1047B0007F1CFFB268460521007BFBF799FCB842DD
:1047C000F1D86846007B2018401EC4B2BFE0285DC7
:1047D0007449641C0122C87282400A840022E4B237
:1047E00011460420B1E0285D4006410F6846417043
:1047F000285D641C0107090F68460170E0B2295C5E
:10480000401CC0B201912A5C401C12021143C0B28C
:1048100001912A5C401C12041143C4B20846642171
:10482000484301905F486946007C00F077FF0146ED
:10483000C84340070BD1684602780998027257486E
:10484000019A2038426268464278099842700022F4
:1048500005207AE05348FF21006E002804D000684C
:10486000002801D08047014606200E9A6DE0285DA1
:1048700069460874641CE0B20391295C401CC0B214
:1048800000912A5C401C12021143C0B200912A5CC4
:10489000401C1204114364225143009100210191F4
:1048A000C0B22A5C401C6946C4B20A723D4803A9E2
:1048B000007C00F010FF00220146072045E0285D43
:1048C000641C0007000FE4B2002800D101207D2104
:1048D000C900484331497D222039D200086180183F
:1048E00000224861114608202FE033E034E0FFE762
:1048F000285D00216A46641C11705170E4B2810683
:1049000001D501215170C10601D5012111700007A7
:10491000000F907023481146007C00F023FF401CDC
:1049200015D068460178099801736846417809985E
:104930004173684680781C49085CFBF763FE1749A1
:1049400000222039086311460920FCF787F9B44298
:1049500000D2D7E60FB0F0BD285D69460870641C30
:10496000E0B2295C401CC0B201912A5C401C1202DA
:104970001143C0B201912A5C401C12041143C4B21D
:10498000084664214843019006486946007C00F0CF
:1049900071FE002201460A20D7E70000600A0020CD
:1049A000840B0020C4000020F98B000870B5174963
:1049B0000023CA681206120F18D18A6B154CD50055
:1049C000134A02D51268224009E08E6B01252D079B
:1049D0002E438E6312688E6B2240AE438E63A242DA
:1049E00004D103218903884200D101230A480168C8
:1049F00049084900194301600068C007C00F984288
:104A000001D0012070BD002070BD000000100240E8
:104A100000700040001800000020024001090A2236
:104A200000075143000F4018C0B27047002102E058
:104A30000A38C0B2491C0A28FAD20907090E0843ED
:104A4000704770B504460068C168490613D4002158
:104A5000C943C160FCF736FB7D260546F60006E03B
:104A6000FCF730FB401BB04201D9032070BD206829
:104A7000C0684006F4D5002070BD10B5FDF75EFD9E
:104A800010BD70B51C46049B15460E46022801D089
:104A9000002070BD22462946304600F01FF870BD48
:104AA00010B5022801D0002010BD084600F058F8CB
:104AB00010BD10B5022802D1084600F071F810BDF3
:104AC00070B514460D46022801D0D0B270BD1A460A
:104AD0002146284600F065F870BD0000FFB5044689
:104AE0000F460820092681B02056A6576168196034
:104AF00061780025012928D100280BD06168402960
:104B000001D30125002660291FD3C906C90E01293A
:104B100003D01AE00021196017E0202269460A70CC
:104B20004870A07A8870684600F0ACF840B200285F
:104B30000BD121780025012907D1084A06491180A7
:104B400051809180D1801181518138700398067015
:104B5000284605B0F0BD0000FFFF00003C12002019
:104B600070B50588002430212846FBF7C1FA0029DA
:104B70000CD0E8060CD018212846FBF7B9FA00291A
:104B800008D0280708D0680708D00524204670BD43
:104B90000124FBE70224F9E70324F7E70424F5E7FF
:104BA0007047881A40B2002800DA0020C0B270476F
:104BB00000B585B00A4900910A49019142786946D9
:104BC0000A7202784A7282788A72C278CA7241681E
:104BD000039180680490684600F057FB05B000BD63
:104BE000BC0D00205001002010B50179002903D030
:104BF000012905D0002010BD01680622044803E009
:104C00000168034806220C3000F06DFB012010BD46
:104C10003C120020FFB583B01C461546052800DB7A
:104C20000520144960708300CE58134AB61803D08B
:104C3000D64203D0002202E0012200E00222A2704C
:104C40000C4AC958143A105C00F0D4FB06460B48D5
:104C50000F46406E804721460C3108340291009087
:104C60002B46019430463946049A00F07BFB07B08E
:104C7000F0BD0000208C0008702FFCFF388F00086A
:104C80000020704770B5024615787D21C9000020CC
:104C90004C002B0002F0BFFC211A1A1A1A1A1A1A19
:104CA0001A1A1B1F1A2527292B2D2F321A371A39AA
:104CB0003B3E401A1A42444646121A000120105642
:104CC0000021002801D0401EC1B248B270BD0120B1
:104CD0001056154903E0012013491056891D085C40
:104CE00070BD124870BD084670BD204670BD1048AA
:104CF00070BD104870BD0120800370BD0E4803F0E8
:104D000075FD001970BD0D4870BD0D4870BD0C4893
:104D10000C3070BD602070BD0A4870BD0A4870BD7F
:104D20000A4870BD302070BD128C0008B80B00001E
:104D3000881300007017000018FCFFFF20441E1E9F
:104D40003C120020BC0D0020333399419A99094050
:104D500070B5002802D0012820D119E00020104CA5
:104D6000104A03465025104941430E190C21414376
:104D700056508918401C0D72C0B24B726028F2D395
:104D80000B490A48088048808880C880088148818B
:104D90000749062208460C3800F0A5FA70BD00004D
:104DA0006035081CBC0D0020400D0300FFFF000013
:104DB00048120020FFB58DB00025044607262F4677
:104DC0000A950B95062243490AA80C9500F08BFA28
:104DD00038E0206807A9401900F0B8FB002834D05B
:104DE0002818C5B26846C07F07268646062814D014
:104DF00007281BD0002069467246098C1201944690
:104E000001228240114215D0624612180C235A43E7
:104E1000314B9A58002A0BD00CE03048694608857F
:104E200048858885C885088648860BE0062609E0FF
:104E300076087600401CC0B21028E1D370464200CC
:104E40000AA881522079A842C3D8012108A801717B
:104E50006179817109A8FFF715FF01466846067060
:104E6000A2794270427F8270827FC270027F02719B
:104E7000E2794271227A8271627AC2716022027290
:104E80000AA80390684601740521417412480590F0
:104E900007216846017607AB9A1C4776511E00F041
:104EA00009FB0446072804D106220AA9094800F094
:104EB0001AFA6846417F0E9801706846817F0F9804
:104EC00001706846017F10980170169805702046A1
:104ED00011B0F0BD3C120020BC0D0020FFFF00000F
:104EE00000207047FFB59BB0044600256846057258
:104EF0001F461646602103A8FBF76DF90622002124
:104F0000224800F0A1FA002807D120492048088053
:104F100048808880C88008814881606802F026FA4D
:104F2000216888421DD33D60A17A607A0123194A25
:104F300000F02CFB074602A903A801910090207AFB
:104F4000144B154A1149FBF7F3FE002812D0411EFD
:104F5000002003F04BFC03A9095C1C98017035602C
:104F60000DE06946087A401C0872606802F0FEF99C
:104F700021680F1A6846007A002803D037600120A4
:104F80001FB0F0BD00203560FAE700003C120020A1
:104F9000FFFF000050010020BC0D0020F3B50125EB
:104FA000254F044645574668F8688BB0804700286F
:104FB00002D000200DB0F0BDE07C002807D12078A1
:104FC0003021FBF795F81D4841431D480E181D4838
:104FD000194F40570A90796930468847A17C0020D4
:104FE000012206900892099107902189059089B2C3
:104FF0000291082100900390049001913F6A0123DF
:10500000A17818460A9AB847607C012811D00D484B
:10501000801D405D0D30C1B20748C26D0120904730
:105020002A46314608A003F0DFFC0C9805700120E9
:10503000C0E704480C30ECE7388F0008400D03004F
:10504000E0F8D11D0C8C00085258206F6E2066725B
:10505000657120256420487A2061742044522025FF
:10506000640A0D0070B50646456816480724816A33
:105070002846884700280DD0134885420AD3134894
:10508000854207D81048124940422818FBF730F8EB
:10509000002900D00624002030560522002100F00F
:1050A000D4FA002801D1FD2004400120305603220B
:1050B000002100F0CAFA002801D1FB20044020465C
:1050C00070BD0000388F0008E0F8D11DA067611E98
:1050D000400D030010B501780C235943054B42687D
:1050E000C918497A044B0901C918407800F049FAF7
:1050F00010BD0000BC0D00205001002070B5022240
:105100000446825601780C200B4B4143C818407A64
:105110000A4D0001451902202856824200DD104642
:105120005D58A268616800F07BF901460448A289D5
:10513000436C2846984770BDBC0D002050010020EC
:10514000388F0008F7B504460120205626490C2266
:105150000E562178254F5143C919497A244A09012D
:1051600002208918022520564D578AB0A84200DD3A
:1051700005462846A268616800F052F90990207837
:105180000C21484319491B4F08587969884700206A
:105190001949089101210690079008220590029272
:1051A0000191009604910390034602467E6A012015
:1051B0000999B04720780C2148430C49012209582D
:1051C000A2560EA003F010FCFA6D217B012090473F
:1051D000FA6A217B012090470C9908600B980570B2
:1051E00001200DB0F0BD00000C8C0008BC0D0020AB
:1051F00050010020388F0008B80B00005458206F71
:105200006E206672657120256420487A20617420C2
:1052100044522025640A0D000020C043704710B599
:10522000072912D006DC04290BD0052909D006294C
:1052300019D106E0082908D00B2914D01E2912D153
:105240000EE00023C356052202E00023C3560722C6
:105250000021184600F0F9F9002800D0012010BD07
:1052600000783028FAD2002010BD10B5022802D1F3
:105270000846FFF79DFC10BD10B5022801D00020A4
:1052800010BD0846FFF7B0FC10BD30B502460168FE
:10529000C07A0C2358430930095C50680B01C45A8A
:1052A00000250C33C550507A002809D0907A012887
:1052B00005D1106901466143081A5168C85030BDD4
:1052C000D06800F0E3F8844200D92046917A0029A2
:1052D00002D1117A002903D011694843401AECE742
:1052E0005068C55030BD30B500280AD0002908D01C
:1052F000002304E05C000D5B5B1C0553DBB29342B2
:10530000F8D330BDFFB50E461946099A029800F051
:105310009CF9002824D0002425461DE000236F00BE
:10532000F15B0120984001420ED0E0180C21484367
:105330000A994018007A01060A0F0107090F02981E
:1053400000F083F901280BD05B1CDBB2102BE7D3F4
:1053500010346D1CE4B2EDB200988442DED300201C
:1053600004B0F0BDFEB5054614460E465800FBF7E6
:1053700065F9009060000F460838FBF74BF92A46A4
:105380003346FBF749F83B46009AFAF793FF2A4663
:105390003346FBF7A9F802F05FFEFBF781F9A04264
:1053A00000D90446099804600898FBF747F9009073
:1053B00001912046FBF742F92A463346FBF72CF8C9
:1053C0000022D243FBF708F90C4607460222284682
:1053D0003146FBF701F93A462346FBF70FF8019BEC
:1053E000009AFBF70BF802F037FEFBF735F90A9944
:1053F0000860FEBD70B506460846FBF71FF9054676
:1054000001200C46B040FBF705F92A462346FBF77E
:105410006BF80022014BFAF7FFFF70BD00408F4090
:1054200070B514460D464000FBF7ECF82946FAF734
:105430003CFF2146FAF735FFFBF750F903F002F87D
:10544000FBF70AF940B270BDF0B5844696460020DD
:105450006246002A01D0012215E00020F0BD4C0078
:1054600063461F5B10260024234615469D40BD431E
:1054700001D1641CE4B25B1CDBB2B342F5D320184B
:10548000491CC0B2C9B27145E9D3F0BD0649884292
:1054900001D2642070470549884202D27D20C000B5
:1054A000704703487047000080EE3600803F5C0282
:1054B00010270000FFB504460678022083B020566E
:1054C00002900325042761786557E75700290BD11F
:1054D0000F2801D10F2D02D000260727E7570520FE
:1054E0002056062502906557002E25D01120205603
:1054F0006169019100901023E356207AE168029AD5
:10550000FFF700FF002801D1FD20064018221921D5
:10551000A2566156284600F098F8002807D11920B5
:105520002056A84201DD054601E0FB200640072E7B
:1055300002D1002F00D1A75704990298087005984E
:10554000057006980770304607B0F0BD037800225A
:10555000032B14D1427813071B0F12068B70120F06
:105560004A7082788A80C3781B021A438A80007945
:105570004206520F0007CA70000F0870052210463D
:10558000704700288A6000D14A607047FFB5002448
:10559000E44381B01F46002552E0019800280FD057
:1055A0000298002844D0039829010E18B06801F031
:1055B000DDFE0146F06881422BD30020F0603DE023
:1055C0000398290108180090406801F0CFFE0646B4
:1055D0000298002803D00098806801F0C7FE864238
:1055E00002D90098406804E00298002803D000988F
:1055F000806801F0BBFE0099C968814202D8002092
:1056000000991AE0002919D0081AA04216D20446BF
:1056100014E0002812D0B06801F0A8FEF168081A62
:10562000A0420BD2B06801F0A1FEF1680C1A05E0AF
:10563000002403992A0120465118C8606D1CEDB260
:10564000BD42AAD3204605B0F0BD884203DB90429C
:1056500001DC012070470020704770B51C46049B98
:1056600015460E46022804D1224629463046FFF749
:10567000D1FA70BD10B5022801D0002010BD084637
:10568000FFF7FEFA10BD10B50022022801D0104627
:1056900010BD0846FFF7F6FA10BD10B5022802D17A
:1056A0000846FFF755FB10BD022801D000207047C7
:1056B00001207047F8B51C460E46069B0799154613
:1056C000022801D00020F8BD00912246294630462C
:1056D000FFF770FBF8BD10B5022801D0002010BD07
:1056E0000846FFF7FDFB10BD70B51C46049B154630
:1056F0000E46022801D0002070BD224629463046C1
:10570000FFF7F0FB70BD10B50B46022801D000205A
:1057100010BD11461846FFF741FC10BD10B5022818
:1057200001D0002010BD0846FFF79CFC10BD10B54D
:10573000022802D10846FFF7CDFC10BD10B50228A3
:1057400002D10846FFF7DAFC10BD70B514460D46CD
:10575000022801D0002070BD1A4621462846FFF7D6
:10576000F1FC70BD10B5022801D0002010BD084624
:10577000FFF752FD10BD10B50B46022801D00020E6
:1057800010BD11461846FFF74AFD10BDF0B51D4883
:105790000021C1708162C1620163817201220273C2
:1057A00042738173C1720284017241728270164A1F
:1057B00013461478383B1C7054785C7014462034BF
:1057C000657820335D701546583D2E4637467C3748
:1057D000F66F7F68AF646E64257B1D73647B5C73BA
:1057E000203B146B1C63536B383A536341718171D6
:1057F000C171426A01E05162926A002AFBD141758F
:105800008175F0BDC4000020780A002070B5092021
:1058100000F063FD0546062000F05FFD040407204C
:1058200000F05BFD00020443082000F056FD044335
:10583000200A0102184A611A514380315043090A73
:1058400046180021092001F083FB3B2000F045FDB4
:105850004024204301463B2001F07AFB3B2000F02E
:105860003CFD8006FAD40D4800F058FE3B2000F0C5
:1058700034FD204301463B2001F06AFB3B2000F051
:105880002CFD8006FAD42946092001F061FB304640
:1058900000F044FE70BD0000093D000000A1BC33D3
:1058A0000200044802D0C16B00200847C26B0846C2
:1058B00010470000388F0008F8B51D4616460F4601
:1058C0000446FBF7FFFB3146264640360090002990
:1058D0001ED043E0681C1BD0002D05D0FBF7F2FB67
:1058E0000099401AA84213D920684168E0229143E8
:1058F00041602068026840218A43026023E02168F9
:105900000A6882430A6021680A6802430A601FE04D
:105910002068816838468843DCD124E0681C1DD0AB
:10592000002D06D0FBF7CEFB01460098081AA842CE
:1059300014D920684268E0218A43426020680168E7
:105940004022914301600120A16A40038142D6D0E8
:1059500001207074002030740320F8BD2068816835
:1059600038468843DAD00020F8BD704701494860C6
:105970007047000000000020012070470349884262
:1059800001D20020704780207047000040DD4A1F90
:1059900010B50348406840688047801C10BD000077
:1059A00000000020014800797047000090020020AC
:1059B000F3B5024600206D498BB0002A0BD0012AB6
:1059C0007ED10024486C2546072854D0082855D09D
:1059D000092858D155E06548C069FAF72FFE0746F7
:1059E00000910C98FAF72AFE06900E46302000F03F
:1059F00074FC4007800F02D000245D4D01E00024BC
:105A00002546272000F069FC58494007400F098CC3
:105A1000401C4018FAF712FE544A2032099292783C
:105A2000012A21D00022524BFAF744FC22462B4691
:105A3000FAF740FC3346069AFAF73CFC099A1279C9
:105A4000012A14D000221346FAF734FC0322FAF795
:105A5000C3FD3A46009BFAF747FD0022454BFAF793
:105A6000DBFC02F0CFFE7DE000221346DCE70022E3
:105A700001239B07E8E700243F4D04E000243F4D4D
:105A800001E03F4D00248F6C0120B840FAF7C2FDC1
:105A900002460B4620462946FAF726FD02460B46EB
:105AA00000203349FAF720FD304E044640360D46BB
:105AB000F089FAF7C3FD0022324BFAF7FBFB00E056
:105AC00052E022462B46FAF7A7FC07910890707B1C
:105AD000001DFAF7B3FD05910690307B002800D039
