:020000040800F2
:10000000301D0020D50000088D4300081D32000877
:1000100000000000000000000000000000000000E0
:1000200000000000000000000000000097640008CD
:100030000000000000000000414F0008117D000892
:10004000E7000008E700000887550008E7000008FF
:10005000E70000080F0F00081F0F00082F0F00080F
:1000600000000000E7000008E7000008050F000896
:10007000E7000008E700000800000000E7000008B3
:1000800000000000E7000008000000000000000081
:10009000E700000800000000E7000008E700000893
:1000A000E7000008E7000008E7000008E700000894
:1000B000DD890008E70000080000000000000000E3
:1000C0000348854600F0AAFC00480047ADA300089D
:1000D000301D00200448804704480047FEE7FEE743
:1000E000FEE7FEE7FEE7FEE7A57D0008C100000889
:1000F00030B50B46014600202022012409E00D46C0
:10010000D5409D4205D31D469540491B2546954047
:1001100040191546521E002DF1DC30BD70B500248B
:100120002546002801DA01244042002901DA012590
:100130004942FFF7DDFFAC4200D04042002C00D026
:10014000494270BDF0B51FB40646002082B0054696
:100150004024019100901BE0019922460F46304651
:1001600000F046FB049A059B801A994110D3104673
:100170001946224600F02CFB361A8F410197224681
:1001800001200021009F00F023FB38184D41009012
:100190002046641E0028DFDC019B00982946324679
:1001A00007B0F0BDF0B51FB486B0002000900190FC
:1001B00002900698069980B204900798090C0204F0
:1001C0000014114307900027089D099806913E46A8
:1001D0003C4603900398A9B20204000C03900498D3
:1001E0002D0C154348430021224600F0F1FAC719AF
:1001F000714110340E46402CECDB3846029A00F078
:10020000E7FA009A019B80180090594102980191E9
:10021000103002904028CCDB00980BB0F0BD0346B4
:100220000B439B0703D009E008C9121F08C0042A2A
:10023000FAD203E00B780370401C491C521EF9D21D
:100240007047D2B201E00270401C491EFBD27047D9
:100250000022F6E710B513460A4604461946FFF792
:10026000F0FF204610BD421C0178401C0029FBD144
:10027000801A704730B505460020034600E05B1C3D
:10028000934205D2EC5CC85C201A01D1002CF6D157
:1002900030BD0321001D401E037812021A43491E7F
:1002A000F9D510467047F8B502464A40D40F4200CF
:1002B0004B0052085B089A4202D202460846114699
:1002C0004A0023D0C30D4A00DDB2120EAD1A202D14
:1002D00035DA49020126490AF6058A19002C00D0B0
:1002E000524220214F1B1146B9402A411018C20D1D
:1002F0009A4221D0002C17D0012D08DCDA05801A93
:10030000D20F8019D207DBB200F09EFAF8BDDA05F1
:10031000801A012340001B06C01880185A4280181A
:10032000CA0F1043490007E04908C2071143DA0524
:10033000801A80194008801800F07EFAF8BD61002C
:100340000122511A001BF7E70122D2075140AAE708
:100350000122D2075040A6E7F0B5074608465840AC
:1003600087B0C00F049048000E4659004008490865
:10037000BC1A884105D2384631461E4617460B4600
:1003800002465800400810434CD0300D0390400501
:100390005900400D490D0590401A0290402872DA2C
:1003A00018030121000B09050843019004980092ED
:1003B000002805D001995242002088410092019006
:1003C000029840210A1A0199009800F001FA0546A6
:1003D0000C466B4607CB00F01CFAC0197141039A1A
:1003E0000E0D0023D71756401A467A40164344D0C4
:1003F000049A002A2DD0029A012A039A15DC1205CC
:10040000C01A914101263605001C7141D20F059E8C
:10041000D2070093019202962A46234600F05AFA28
:1004200007B0F0BD38463146FAE71605224A0F46B6
:10043000B218C01AB74101210905001C4F4100182C
:100440007F41114618187941E20F10436D1964413C
:1004500013E0E2076D0815436408C2071443039ACA
:1004600001261205C01A91413605001C7141CE07C4
:10047000400830434908C01851412A46234600F03D
:100480001CFACDE7FFE7049801224000C117121AB9
:1004900000238B4104983146C417381AA141EEE776
:1004A00030B40124E407634030BC55E730B4012484
:1004B000E407614030BC4FE70000E0FFF0B51FB437
:1004C00088B00B990998002448400999C00F490049
:1004D00049080991C0070B990090490049080B9100
:1004E00009990898A64608431CD00B990A98084316
:1004F00018D0099801244000420D4800410D099888
:1005000024050003000B204309900B980003000B07
:1005100020430B9050181C494018002201901446AB
:10052000104605E0002001460DB0F0BD032801DAB9
:10053000034600E003239C46C11A0AAE0AE05F00AE
:1005400008ADED5B4F00F75B7D430027AA187C41A7
:10055000491C5B1E6145F2DD410004AB5A52210487
:10056000120C0A43240C401C0828DFDB019802907F
:100570000099704601910090059B049A079906988E
:1005800000F0A8F9D0E700000DFCFFFFF0B50C4625
:100590005C4085B0E40FE40703944C000026640837
:1005A00059009446490802460296224321D06246E9
:1005B0000A431ED06200570D4A000E032303550D57
:1005C000012402462C492405781B1B0B360B4018CE
:1005D00023432643614600901C46501AB44103D37E
:1005E0000098401C009002E0921800985B4100289F
:1005F00003DA0020014605B0F0BD00200121090505
:100600000746864611E064461D46141BB54106D3D5
:100610006546521BB341744607430C43A646CD07BB
:1006200040084908284392185B4105460D43EAD12A
:100630001046184313D06046194650407140084395
:1006400006D06046101AB34106D20122002306E00C
:1006500000220123DB0702E00122D243531000985D
:1006600074460105381C6141029C039D00196941D3
:1006700000F023F9BFE70000FD03000070B54B0058
:100680005B0803430BD04B005C0D002633466542EC
:10069000B341D417AD1AA34102DB0020014670BD5F
:1006A00012053018514170BD10B500229623114635
:1006B00000F0CAF810BD00000EB5C217C10F5040BF
:1006C000CA0740180021054B0293019200910A4687
:1006D0000B4600F0FFF803B000BD0000330400003B
:1006E0000EB505490291002100910A460B46019181
:1006F00000F0F0F803B000BD3304000070B5CD0F7A
:100700004A0009030123090B1B0519430B4BED0795
:100710000024520D9A4201DA002070BD074B343399
:100720009A4203DC9A1A00F063F802E00449511877
:1007300088402C43F1D0404270BD0000FF03000010
:10074000CDFBFFFF4A0009030123090B1B051943D9
:10075000094B10B5520D9A4201DA002010BD064B2C
:1007600034339A4203DC9A1A00F042F810BD034970
:100770005118884010BD0000FF030000CDFBFFFFB3
:10078000C20FD207400040080BD0C10D0723DB0188
:10079000C91840020905400A1143C2084007114325
:1007A000704700200146704710B5002904DB012482
:1007B000E40740428C412146002B04DB1C46012308
:1007C000DB075242A341994200D1904210BD000084
:1007D00010B5202A04DB0146203A9140002010BDCC
:1007E000914020239C1A0346E3401943904010BDDA
:1007F00010B5202A04DB0846203AD040002110BD65
:100800000B46D340D0402024A21A914008431946F9
:1008100010BD10B5202A06DBCB170846203A104140
:10082000C1170B4306E00B461341D0402024A21A07
:1008300091400843194610BD002904DA401C4900C4
:1008400001D140084000704770B40024050C05D168
:100850001024000402D1002921D01124050E01D159
:1008600000020834050F01D10001241D850F01D1BC
:100870008000A41C002801DB4000641C002908D073
:1008800020252E1B0D46F540A14000D00121294313
:10089000084301061B1B000ADB1D02D5002070BCAB
:1008A0007047DB05181880180029F8DA401C490049
:1008B000F5D170BC40084000704710B5002B08DA35
:1008C0000024401C614192185B411A4301D1400849
:1008D000400010BDF0B51FB482B005460C0003D037
:1008E000084608F0B7F802E008F0B4F820300246F5
:1008F000009021462846FFF76BFF049B059A0446AB
:100900000F4618431143084314D0184610431BD018
:10091000009840210A1A18460599FFF769FF054615
:100920000E46009A05990498FFF752FF084305D038
:10093000012004E02046394607B0F0BD0020C11771
:1009400005430E432C43374300990E986305401A24
:100950007905E40A00220C43FD0A0A3002D5002082
:100960000146E9E70105101969410C9C0D9D00192C
:100970006941FFF7A2FFDFE7F8B5054648004008E8
:100980000C46284304D06000184A400D904201DD17
:100990002846F8BD15493539884210DC88420BDB02
:1009A000290D200308432903014305D0E00F104916
:1009B000C00741180020F8BD00200146F8BD161AF6
:1009C0004020821B28462146FFF702FF0746009180
:1009D000284621463246FFF70BFF3A46009BFFF7B9
:1009E0006CFF3246FFF7F4FEF8BD00003304000050
:1009F0000000F03F10B5002904DB0124E407404269
:100A00008C412146002B04DB1C460123DB075242AC
:100A1000A3418B4200D1824210BD0000064C01254B
:100A2000064E05E0E36807CC2B430C3C9847103496
:100A3000B442F7D3FFF748FB74CA000894CA000811
:100A400070B58C180578401C6B075B0F01D10378DB
:100A5000401C2A1106D10278401C03E006780E7073
:100A6000401C491C5B1EF9D12B0705D40023521EE4
:100A70000DD40B70491CFAE70378401CCB1A921C6A
:100A800003E01D780D70491C5B1C521EF9D5A14274
:100A9000D8D3002070BDF0B589B00C4607461022AF
:100AA0000021684609F034FD69462246084608F0F0
:100AB00030F86846007887260106684600290FDA74
:100AC00000214318425C5B785200DB091A43425410
:100AD000491C0F29F5DBC17B0246490071400DE03E
:100AE00000214318425C5B785200DB091A434254F0
:100AF000491C0F29F5DBC17B02464900D173E21D79
:100B0000F9325169102912D0017809061BD500214C
:100B10004518435C6D785B00ED092B434354491C39
:100B20000F29F5DBC17B03464900714019E0002124
:100B30006218FF3201325378455C491C6B40537098
:100B40001029F5DB26E000214518435C6D785B0039
:100B5000ED092B434354491C0F29F5DBC17B0346A8
:100B60004900D973E11D55698023FA316B54002582
:100B700000E05D5453695B1C5361102BF9D30021D5
:100B80006218FF3201325378455C491C6B40537048
:100B90001029F5DB002162181046FF32E0300132E7
:100BA000437C5278491C534043741029F3DB21469F
:100BB0001022F13104A809F093FC2246394604A81A
:100BC00007F0A7FF10220021684609F0A1FC09B038
:100BD000F0BD10B5044610220021F13009F098FC58
:100BE000FF20002115300151F022204609F090FC31
:100BF00010BD0B4610B502461021184607F0B4FF91
:100C000010BDF0B50446FF308BB00F4601300890A0
:100C1000E11D4069FA31009110391546079100280D
:100C200043D010210E1AAE4200D316460099B2B23C
:100C30004018394609F054FC089808994069801911
:100C4000486110283AD3B54238D0002162181046C6
:100C5000FF32E0300132437C5278491C53404374E8
:100C60001029F3DB07992246084607F052FFBF1907
:100C7000AD1B1AE000202118E0314A7C3B5C401C8F
:100C80005A404A741028F6DB102202A8079909F08E
:100C900027FC02A92246084607F03BFF102202A9C2
:100CA000079809F01DFC103D1037102DE2D8AAB2AC
:100CB0003946009809F014FC089845610BB0F0BD66
:100CC000F7B523498022497A214B511ACDB2197ABE
:100CD0005B7A8026F31A0A46DEB2871E491C01247D
:100CE000C9B2761E3B0007F0E4FE09060C060C12A2
:100CF0000C06062B3000164BAA4224D2154CA054E9
:100D000003E0134BB24215DB1DE019720DE0104EEB
:100D1000AD1EAA4217DA0F4B985401985854491C3B
:100D2000C8B202991954401C3072002408480121AD
:100D3000C17108E0074CA05401986054491CE4E7D5
:100D4000034BAA42F6D32046FEBD0220FEBD0000A2
:100D50004C010020DA0F002010B50AF033F909F039
:100D60000BFF10BD70B5194E0025194C16E000F0B0
:100D7000B9F9C1B2606831542278002A06D001293D
:100D800011D00D2914D00A2912D003E0412905D130
:100D9000012121707F2814D0401C606002F040FACD
:100DA0000128E4D070BD0620656008F0A7FF70BD83
:100DB0000028F3D03554054809F0C0FC6560257063
:100DC000ECE70420656008F099FFE7E713050020D1
:100DD000380000203EB50D4C6946E2780A70227D4D
:100DE0008A70C870606B07F0ABFA0190E06B0290FC
:100DF000E07D69464870207C04F0CDFF218CE06BDB
:100E00004143081AA16D4018A0653EBD4C01002069
:100E1000FFB5002085B000900546064601900024ED
:100E200077000698C15B0120A04001422AD0281912
:100E30000C210390484307990958002922D00799AB
:100E40004118082002910856021100070117059861
:100E500040B205F090F9002814D00298407A0101C0
:100E600008980818C068002804D00198401CC0B237
:100E7000019007E0009A0E99039888540098401C4E
:100E8000C0B20090641CE4B2082CCAD30835761CAA
:100E9000EDB2F6B2082DC2D30F99019808700098F0
:100EA00009B0F0BD30B587B014216846FFF7D0F91E
:100EB000032001900020029003204003104C00907A
:100EC000E06A01210843E062E06A084005900520DD
:100ED0006946000700F036FAE06A40084000E06228
:100EE000606B0125AD052843606300F009F900F04F
:100EF00017F900F00DF9606BA843606307B030BDCF
:100F000000100240704710B501F012FF10BD10B57F
:100F1000012000F00BFA022000F008FA10BD10B515
:100F2000042000F003FA082000F000FA10BD10B50C
:100F3000102000F0FBF9202000F0F8F9402000F02C
:100F4000F5F9802000F0F2F9FF20013000F0EEF911
:100F50000120400200F0EAF90120800200F0E6F9E9
:100F60000120C00200F0E2F90120000300F0DEF9E8
:100F70000120400300F0DAF90120800300F0D6F9E7
:100F80000120C00300F0D2F910BDFEE710B50849FA
:100F900000224A6107494B684C1523434B604B685C
:100FA000082423434B60C009C001026010BD00004B
:100FB000BC0300200020024010B5214A00219069A6
:100FC000C305204804D541690223194341619115A5
:100FD00093699B0505D5436901242343436163025B
:100FE000194393695B0505D543690824234343618D
:100FF000E301194393691B0505D543690424234381
:1010000043616302194393699B0405D54369102426
:10101000234343616302194393699B0304D54469E5
:1010200020231C43446119439369DB0305D54369BD
:10103000402423434361A0020143916110BD00009D
:1010400000200240BC03002070B5054600F03CFAC9
:101050000646184C0AE0681C08D0002D04D000F0A9
:1010600033FA801BA84201D9032070BDA069C007D4
:10107000F1D1A069800701D50220A061A069C00557
:1010800011D4A06980050ED4A06940050BD4A069D5
:10109000000508D4A069800405D4A069800302D4A7
:1010A000A069C00303D5FFF787FF012070BD0020B2
:1010B00070BD00000020024010B5094A0021CB009D
:1010C000D458844207D89B189B68834203D9C80030
:1010D0008018007910BD491CC9B21529EFD3FEE76D
:1010E0001CB2000808B56946044807F0BBFD00289B
:1010F00001D0002008BD6846007808BD2C090020FA
:101100000248416849084900416070470058014061
:1011100002484168042291434160704700580140F1
:1011200002484168022291434160704700580140E3
:10113000F8B504460068016849084900016000F0FC
:10114000C3F900272546064620350EE000F0BCF91D
:10115000811B7D20C000814207D9E06B202108431C
:10116000E0632F7103206871F8BD20680068C00734
:10117000ECD12F71012068710020F8BD70B50024FA
:10118000024620325179022903D00421C16301248F
:101190003CE001680B680E25AB430B6001680B68EF
:1011A0005B085B000B601A4B0168994201D1012179
:1011B00021E0174B1433994201D110211BE0144B4D
:1011C0002833994201D1891515E0114B3C339942DE
:1011D00001D189140FE00E4B5033994202D1012105
:1011E000090408E00A4B6433994202D10121090540
:1011F00001E001210906064B083B596001215171AC
:1012000000211171816B002900D08847204670BDF4
:101210000800024001B50098FFF775FE08BD000008
:10122000F8B51A4E0546307C0F46012807D001203C
:1012300030741748FFF708FF010002D021E00220B8
:10124000F8BD0020C04338606C6814E02046FFF70A
:101250009DFE0F48FFF7F8FE01460E48426808233E
:101260009A434260426843159A434260002901D084
:101270003C6006E08034A8686A68C0018018A0421B
:10128000E4D8002030740846F8BD0000BC030020FC
:1012900050C300000020024003484168022211436D
:1012A000416000207047000000200240F8B50C4C5F
:1012B0001646207C0F46012808D0012020740948DA
:1012C000FFF7C2FE0025002802D006E00220F8BD8C
:1012D00065613E600348FFF7B7FE2574F8BD000066
:1012E000BC03002050C300000948416889070CD5A1
:1012F0004168C90703D00749C1600749C160074970
:10130000016107490161002070470120704700001A
:1013100000200240EFCDAB8905040302BFAE9D8CD7
:101320001615141310B501F08FFC10BD10B504494B
:101330004A69024202D04861FFF7F4FF10BD000085
:1013400000040140F8B500230124A2E027469F4095
:101350003A4070D04D68022D01D0122D14D1DD0815
:10136000AD002D1800952D6A5E07AC46F50E0F26D0
:10137000AE46AE406546B543AC460E697546AE40D6
:1013800065462E43009D2E624D68012D05D0022D2D
:1013900003D0112D01D0122D16D185680326AC463D
:1013A0005D00AE46AE406546B543AC46CE68754678
:1013B000AE4065462E43866046680D79BE43ED0615
:1013C000ED0F9D403543456006685F000325BD4035
:1013D000AE46AE430D79B446AE07B60FBE40654685
:1013E0002E430660C6687546AE438D68BD403543E2
:1013F000C5604D68ED004BD5294D6E6B26436E637D
:101400009E08284DB6007519AC46AD689E07360F8C
:101410000F27B740BD4305273F07B84201D100273A
:1014200015E0214FB84201D1012710E01F4FB8420B
:1014300002D102270BE02BE01D4FB84201D1032758
:1014400005E01C4FB84201D1052700E00627B74050
:101450002F436546AF60184D2E684F689643FF03D3
:1014600000D516432E606E684F689643BF0300D5C3
:1014700016436E60AE684F689643FF0200D5164370
:10148000AE60EE684F689643BF0200D51643EE602B
:101490005B1C0A681546DD4000D057E7F8BD000028
:1014A00000100240000001400004005000080050FD
:1014B000000C0050001C005000040140002A01D024
:1014C0008161704781627047014800687047000081
:1014D0002400002002480168491C01607047000098
:1014E0002400002010B50648016802221143016063
:1014F000032000F007F800F007F8002010BD0000FE
:10150000002002400020704710B50848816B02049B
:101510001143816300F036F800F02CF804480168AC
:1015200008221143016000F01DF810BD00100240B8
:1015300000200240C106C90E012088400149086010
:101540007047000080E100E0C106C90E012088401C
:10155000014908607047000000E100E010B502F0AA
:1015600017FF10BD02480168021511430160704762
:101570000070004002480168421511430160704745
:1015800000700040024801681022914301607047DA
:1015900000700040094B1A689208920002431A60DA
:1015A0000748026904239A430261012903D040BF1E
:1015B00020BF20BF704730BF704700000070004060
:1015C00000ED00E00A4B1A689208920002431A608C
:1015D00008480369042213430361012906D040BF70
:1015E00020BF20BF016991430161704730BFF9E717
:1015F0000070004000ED00E0F8B5474903460124C3
:101600000020E403434D444A4031082B70D00EDCE7
:10161000012B3DD0022B55D0042B19D1CB680326CA
:10162000B602334059D0CF14BB4243D058E0102B00
:101630006BD0202B0CD10B690969032501272D04E0
:101640003F0429407E00B94203D199052CE0204691
:10165000F8BDB14203D19907FAD53048F8BDA94287
:10166000FCD111688903F9D51168032000050140F8
:1016700001200005091A09D0091A05D0814201D1BB
:101680002748F8BD2748F8BD2748F8BD2748F8BDCA
:10169000CB689B079B0F0AD0022B0BD0012B0ED0DF
:1016A000032BF4D1096989050029D0DBF8BD00F0CE
:1016B000B5F9F8BD11684907FBD52846F8BD00F01B
:1016C000BDF9F8BDCB680C26334006D0082BF1D00D
:1016D000042BF4D00C2BE5D0F8BD00F08FF9F8BD49
:1016E000012292029342EAD0B342DBD0F8BDFFE779
:1016F000C96803231B031940EFD00124640363105E
:10170000A142D7D09942DAD0F0E7916B4902E4D4F4
:10171000ECE700000024F400001002408890000074
:1017200020A1070000093D0040420F0080841E00F8
:10173000F8B504460078544D800672D5524E002705
:10174000403EB06BC00004D4B06BA9050843B06341
:1017500001274E480168C90511D40168821511435B
:101760000160FFF7B1FE009005E0FFF7ADFE0099C4
:10177000401A642837D845480068C005F5D5326856
:101780000321090560680A400140914208D08103A5
:10179000890F032904D13168890301D50120F8BDDF
:1017A0002A69032109040A4022D0084090421FD030
:1017B000207880061CD528692A6988430121C9043C
:1017C0000A432A612A698A432A612861C0050FD524
:1017D000FFF77AFE009008E0FFF776FE0099411AC5
:1017E0002B48814201D90320F8BD28698005F3D533
:1017F00061688803800F032805D1326800058243A1
:1018000001400A43326028690322616812041140D2
:1018100008432861002F04D0B16B012000078143E9
:10182000B1632078C00705D0E868A168800880000F
:101830000843E8602078800705D5E8680C218843D4
:10184000E1680843E8602078400706D5E86803218E
:101850008902884321690843E8602078000706D59B
:10186000E86803210903884361690843E860207838
:10187000000606D5E868032189048843A169084366
:10188000E8600020F8BD00004010024000700040F9
:1018900088130000F8B5054653480E460068C00797
:1018A000C00FB0420AD2504801684908490031438C
:1018B00001600068C007C00FB0426FD128784B4C60
:1018C000800705D5E068F0218843A9680843E060F7
:1018D0002878C00752D06868022817D0032818D08B
:1018E0002168012818D08905002957DAE16889089C
:1018F00089000143E160FFF7E7FD696807460229B7
:1019000012D003291CD0012926D033E02168890395
:10191000EAE721688901E7E74907E5E7FFF7D4FD32
:10192000C11B3348814223D8E0680007800F02289A
:10193000F4D123E0FFF7C8FDC11B2D48814217D821
:10194000E0680007800F0328F4D117E0FFF7BCFD23
:10195000C11B274881420BD8E0680007800F01288F
:10196000F4D10BE0FFF7B0FDC11B2148814201D942
:101970000320F8BDE0680007800FF3D11A48016822
:10198000C907C90FB1420BD9016849084900314361
:1019900001600068C007C00FB04201D00120F8BD4F
:1019A0002878400706D5E068072109028843E968DE
:1019B0000843E0602878000707D5E0680721C902DE
:1019C00088432969C9000843E06000F037F8E168FE
:1019D000084A0906090F515CC840074908600320FE
:1019E000FFF790FD0020F8BD0020024000100240EB
:1019F00088130000CCB200082000002004480549EC
:101A00000068C968044A4905490F515CC8407047DD
:101A10002000002000100240E5B2000804480549FB
:101A20000068C968044A8904490F515CC84070477E
:101A30002000002000100240E5B2000810B5184A4E
:101A4000D1680C20084004280BD0082810D00C289E
:101A500010D050680004410F0120C003491C884089
:101A600010BD1068C00601D50E4810BD0E4810BD4F
:101A70000E4810BD88020E4B000F185C0902D36897
:101A8000890F491CDB0301D5084A05E01268D2061C
:101A900001D5044A00E0044A5043FEF729FB10BD7B
:101AA0000010024000093D000024F40000127A00FA
:101AB000DCB20008F8B504460078F34DC0074CD0FE
:101AC000E8680007800F022807D0E8680007800F49
:101AD000032809D1E868C00306D5286880033CD5EF
:101AE0006068002875D038E00120626800048242F6
:101AF00003D129680143296011E0052301211B045A
:101B000089049A422A6802D10A432A60F1E7824393
:101B10002A602A680240009228688843286060682A
:101B200000280DD0FFF7D0FC0646D84F04E0FFF7A1
:101B3000CBFC801BB8427DD828688003F7D50CE029
:101B4000FFF7C2FC0646D14F04E0FFF7BDFC801B47
:101B5000B842F0D828688003F7D42078800741D5B0
:101B6000E8681F270007800F3F02012807D0E868B8
:101B70000007800F032809D1E868C00306D428684D
:101B8000400717D5E068012823D113E0E06800285A
:101B900017D029680922914301432960FFF794FC7B
:101BA000064604E0FFF790FC801B0228C3D8286893
:101BB0004007F7D568682169B8430902084368609F
:101BC00010E02868400840002860FFF77DFC0646CA
:101BD00005E090E0FFF778FC801B0228ABD828686E
:101BE0004007F7D42078C00676D5E868A84E0007ED
:101BF000800F0BD0A06900285DD02868FF2101313B
:101C000008432860FFF760FC074644E02868800529
:101C100002D5A06900286ED0206A696831408842E8
:101C200012D903F049FC0028AED16868216AB0439C
:101C3000084300E0BDE068606868217F0002000A98
:101C40000906084368600FE06968B14301436960B1
:101C50006868217F0002000A090608436860206A5C
:101C600003F02AFC00288FD1206A410B0120C00319
:101C7000491C8840E968874A0906090F515CC84039
:101C8000854908600320FFF73DFC25E0FFF71CFCB9
:101C9000C01B02288AD828688005F7D56868216AA1
:101CA000B043084368606868217F0002000A0906A3
:101CB0000843686010E02968FF20013081432960F3
:101CC000FFF702FC064604E0FFF7FEFB801B02283C
:101CD0006FD828688005F7D42078704E000723D588
:101CE00060690028306910D0012108433061FFF796
:101CF000EBFB074605E0C5E0FFF7E6FBC01B02284B
:101D000057D830698007F7D50EE0400840003061B1
:101D1000FFF7DAFB074604E0FFF7D6FBC01B0228FB
:101D200047D830698007F7D42078400762D5A86B80
:101D30000027C00005D4A86B012109070843A86348
:101D4000012757480168C90511D40168821511435C
:101D50000160FFF7B9FB009005E0FFF7B5FB0099C4
:101D6000401A642825D84E480068C005F5D5FF20E4
:101D7000A2680130824203D131690143316111E02F
:101D800001218902002A07D005231B029A4203D1B0
:101D900032690A433261EFE7326982433261306966
:101DA00088433061A06800280FD0FFF78DFB0090BA
:101DB00007E060E0FFF788FB0099411A3348814251
:101DC00059D830698005F5D50DE0FFF77DFB00900F
:101DD00006E0FFF779FB0099411A2C4881424AD866
:101DE00030698005F5D4002F04D0A96B01200007CD
:101DF0008143A963606A002842D0E9680907890F16
:101E000003293FD0012636060228286805D0B043B2
:101E10002860FFF759FB04462FE0B0432860FFF726
:101E200053FB074604E0FFF74FFBC01B022822D8F4
:101E300028688001F7D4E16AA06AEA680843216B48
:101E4000FD231B049A4311430843E860286830438C
:101E50002860FFF739FB044604E0FFF735FB001B61
:101E6000022808D828688001F7D509E0FFF72CFB85
:101E7000001B022801D90320F8BD28688001F5D491
:101E80000020F8BD0120F8BD0010024088130000BA
:101E900000E00000CCB2000820000020401002400A
:101EA0000070004030B5014620310A78012A15D073
:101EB00001220A7002234B700468CA23636204681B
:101EC0005323636203689C6820252C439C60006850
:101ED000FF2343624A700020087030BD022030BDED
:101EE00010B506F04FFA10BDF8B50546044620358A
:101EF000287801281DD001202870022068702268EF
:101F0000CA205062226853205062FF200130002610
:101F1000FF2781421CD121688A6882438A60206839
:101F200081680122120391438160FFF7CDFA00908E
:101F300009E00220F8BDFFF7C7FA0099411A7D2099
:101F4000C00081421BD82068C068C007F3D020E0E1
:101F50002068816801225202914381602068816873
:101F6000120191438160FFF7AFFA00900DE0FFF797
:101F7000ABFA0099411A7D20C000814205D9206842
:101F80004762032068702E70F8BD2068C068800723
:101F9000EDD520684762012068702E700020F8BDE2
:101FA00010B500680B464068C021C94301400002DB
:101FB000000ECC04D870E40E5C708C06A40E0904EC
:101FC000490F9C701970002A0AD103F0ADFAD8703D
:101FD000587803F0A9FA5870987803F0A5FA987029
:101FE000002010BD30B50B460168896A5960016850
:101FF00009694904490C9960006804680F48214642
:10200000014088024D04800E18706D0E49065D7007
:10201000490E99706102490E40242140D970002A6E
:102020000AD103F081FA1870587803F07DFA5870DD
:10203000987803F079FA9870002030BD7F7F7F0098
:1020400070B5040005D0254620356878002802D0F8
:1020500006E0012070BD00202870204600F042F804
:10206000022068702168CA204862216853204862B3
:10207000204603F06CFAFF210028206803D041625B
:1020800004206870E5E78268154B1A408260226878
:1020900090686368A66918432369334318439060C6
:1020A0002268E06810612068026923891B041A43D2
:1020B00002612068C26880239A43C2602068C26CB3
:1020C00092089200C264E269606902432068C36CAE
:1020D0001A43C2642068416201206870002070BD0C
:1020E000BFFF8FFF00B595B004200090002009903D
:1020F000FF20013002906846FFF7DCFC002801D089
:10210000FEF743FF20200D90C0020E900DA8FFF7B0
:102110000FFB002801D0FEF738FF084801690122B3
:10212000920411430161002211460220FFF716FAC2
:102130000220FFF709FA15B000BD00004010024070
:10214000FEB506460446203630780B46012842D0BC
:10215000012030700220707020681D460027203555
:102160008068002A39D0400655D5187803F0DCF98C
:10217000287803F0D9F91978987809040843597830
:10218000DA78090212041143084329780906084342
:10219000D96908435969084305469969586808434D
:1021A00000902168CA204862216853204862FF20BD
:1021B0005A6A0130802182424AD12268936883435F
:1021C00093602268D0680840FF388238D060FFF7FB
:1021D0007BF9019029E00220FEBD400600D4DF70AB
:1021E000187803F0A9F90204587803F0A5F9000261
:1021F0000243987803F0A0F90243D8780004024320
:10220000287803F099F900060243D8690243586917
:1022100002431546C1E7DF70AAE7FFF755F90199B8
:10222000411A7D20C00081422AD82068C068C007BA
:10223000F3D02068C56121680098486420688168EF
:10224000FF2201321143816020688168120130E071
:102250002068826801235B029A4382602068C2681A
:102260000A401D495118C160FFF72EF901900EE098
:10227000FFF72AF90199411A7D20C000814206D951
:102280002168FF204862032070703770FEBD20680F
:10229000C0688007ECD520680562216800988864D2
:1022A00020688168012252021143816020688168A0
:1022B00012011143816009480268012149040A435F
:1022C000026082680A4382602168FF204862012020
:1022D000707037700020FEBD7FFDFFFF00040140DD
:1022E000F8B505460446203528780B46012815D058
:1022F00001202870022068705878002A10D003F05E
:1023000013F9987803F010F9D8789E780004064302
:102310005878197800024903084316E00220F8BDF6
:10232000C10603D5EF2108400A305870D87803F071
:1023300003F90604587803F0FFF800020643987882
:1023400003F0FAF806431878400306432168CA20D0
:102350004862216853204862204603F0F8F80027BD
:10236000002811D110480640206846602068C168E6
:1023700080229143C1602068806880060CD420468A
:1023800000F08CF8002807D02168FF204862042064
:1023900068702F700120F8BD2168FF20486201207D
:1023A00068702F700020F8BD3FFFFF00F8B50646AB
:1023B0000446203630780D4601280ED001203070BA
:1023C00002207070206800278068002A07D040062D
:1023D0001AD5287803F0A8F817E00220F8BD4006C7
:1023E00000D4EF70287803F0A7F80204687803F0AF
:1023F000A3F800020243A87803F09EF80243E878AD
:102400000004024300920BE0EF702978A8780904D9
:1024100008436978EA7809021204114308430090DE
:102420002168CA204862216853204862204603F090
:102430008EF800281FD118490098084021680860CC
:102440002068816801229204914381602969E868CB
:10245000084321688A68104388602068C168802228
:102460009143C1602068806880060CD4204600F04B
:1024700015F8002807D02168FF20486204207070FA
:1024800037700120F8BD2168FF204862012070707C
:1024900037700020F8BD00007F7F7F0070B50446D4
:1024A0000068C168A0229143C160FFF70DF87D2646
:1024B0000546F60006E0FFF707F8401BB04201D9D9
:1024C000032070BD2068C0688006F4D5002070BD70
:1024D00070B5040006D025464035687C00260028EB
:1024E00002D005E0012070BD2E74204600F032F8C5
:1024F0000220687420680168402291430160A1684D
:10250000606822690843E168114308436169012258
:102510000843A169520211400843E1690843216A56
:102520000843A16A084321680860A0690421000CDF
:102530000840616A0843216848602168E06A0861D0
:102540002068C16992009143C16166650120687489
:10255000002070BD7047F8B5044600276846078024
:1025600026464036707C012802D0707C22287ED11D
:1025700000290CD0002A0AD0002B08D0307C01287A
:1025800075D001203074707C012802D003E0012056
:10259000F8BD322070746765A263A387E387216367
:1025A000A386E386A764E7640125A06A6D03A842B9
:1025B00007D120680168A9430160206801682943A8
:1025C000016020680168490603D401684022114374
:1025D00001600121FF20E268C90205308A4261687A
:1025E00066D1002904D081420CD1E08E012809D1A6
:1025F000206B21680088C860206B801C2063E08EFF
:10260000401EE086E08E002843D1A06AA84246D151
:102610002068016801221203114301603FE0206835
:10262000C068A16B0880A06B801CA063B0E0002292
:1026300002212046069B03F0D5FE00287DD1206BA9
:1026400021680088C860206B801C2063E08E401EDB
:10265000E086E08E002808D1A06AA84205D1206853
:1026600001680122120311430160002200E0CCE066
:1026700001212046069B03F0B5FE00287FD120688B
:10268000C068A16B0880A06B801CA063E08F401E17
:10269000E087E08E0028CAD1606800287BD1002244
:1026A00001212046069B03F09DFE002867D1B6E776
:1026B000002904D081420BD1E08E012808D1206B83
:1026C000411C216321680078C860E08E401EE086CE
:1026D000E08E002845D1A06AA84205D12068016893
:1026E0000122120311430160002201212046069BB2
:1026F00003F078FE002842D12068C068A16B087002
:1027000046E0002202212046069B03F06BFE0028D3
:1027100035D1206B411C216321680078C860E08EB0
:10272000401EE086E08E00280AD1A06AA84207D1A8
:10273000206802680121090300E020E00A430260EA
:10274000002201212046069B03F04CFE002816D1F2
:102750002068C268A06B411CA1630270E08F401E1C
:10276000E087E08E0028CCD16068002813D10022D9
:1027700001212046069B03F035FE002802D00320ED
:10278000F8BD08E02068C168A06B421CA26301701C
:10279000E08F401EE087A06AA8420FD100220121ED
:1027A0002046069B03F01EFE002802D0606D022129
:1027B0000EE02068C06869460880088801228021F0
:1027C0002046069B03F00EFE002804D0606D2021F9
:1027D00008436065D3E701207074A06AA84211D154
:1027E00020688168C943C9060CD4616D0222114377
:1027F00061650168A943016020680168294301609F
:102800003774C4E637740020BAE70220B8E770478F
:1028100070B5044600680168FF22213291430160CF
:102820002068816849084900816020688168002526
:10283000490600290ADA8168402291438160606E6E
:10284000002803D08563606EFEF772FC5A200553A2
:1028500021680F20086220206034A072002070BD23
:1028600070470000F8B502680446D0691168060791
:10287000360F07D1830605D58B0603D5204605F014
:10288000FCFEF8BD95682023002E65D0EE07F60FFC
:10289000FF2721370F4037435ED0C70706D0CF054B
:1028A00004D501271762E26E3A43E266820708D533
:1028B000EA0706D0276802223A62E26E04273A430A
:1028C000E266420708D5EA0706D0256804222A6294
:1028D000E26E02252A43E266020709D50A461A403B
:1028E000324305D0236808221A62E36E1343E3667D
:1028F000E26E002AC5D0800604D5880602D520469F
:1029000005F0BBFEE06E000703D420688068400637
:102910001CD5204605F0A2FE20688168490611D525
:10292000826840218A438260606E00280AD01D4977
:102930008163606EFEF722FC0028A2D0606E816B7E
:102940008847F8BD2046FFF78BFFF8BD2046FFF70C
:1029500087FF0020E066F8BD2646C7026036002FDC
:102960000ADA6D0208D50120000510627372B37295
:102970002046FFF74CFFF8BD050605D50D0603D52B
:10298000204605F0C7FFF8BD4006FCD54806FAD53D
:102990002046146840218C431460737200F0FCF8E8
:1029A000F8BD00004986000870B5040005D0254632
:1029B0006035687A002802D006E0012070BD002052
:1029C0002872204600F026F82420687220680168EA
:1029D000490849000160606A002802D0204605F0DD
:1029E0009DFD204605F088FE0128E7D0206841685B
:1029F0000922D20291434160206881682A229143D2
:102A0000816020680168012211430160204605F0C1
:102A1000EBFD70BD10B50448816B012252041143D7
:102A2000816308F02DFB10BD00100240F0B5034695
:102A300060339C7A202C44D100290BD0002A09D085
:102A4000012584682D03AC4206D10669002E03D10E
:102A5000CE0701D00120F0BD1E7A012E31D0012613
:102A60001E724165014640310A834A83FF27AC420A
:102A700004D10269002A12D1134A0EE07F22002CF1
:102A800008D001252D07AC420AD10469002C04D0DE
:102A90003F2202E00469002C01D08A8300E08F838A
:102AA0000021C16622229A72197201688A68324333
:102AB0008A6000680168FF22213211430160002012
:102AC000F0BD0220F0BD0000FF01000038B5044653
:102AD0001648844228D120464030018B408B081A8A
:102AE000009013D012480078FF280FD0114805F04D
:102AF000E5FC104805F0AAFC6A460D490E4806F0B0
:102B0000E8F800210D4A084606F028F92046FFF7AC
:102B10007FFEFF22013206492046FFF787FF20682B
:102B2000016810221143016038BD00004C0D0020E7
:102B30004C0C0020180800202C0900208DAF000844
:102B400030B5034660335C7A202C23D100290BD0AA
:102B5000002A09D0012584682D03AC4206D10469FE
:102B6000002C03D1CC0701D0012030BD1C7A012CF0
:102B700010D0C164014640310A824A820021C166F8
:102B800021225A7219720068016880221143016083
:102B9000002030BD022030BD10B50649002008706D
:102BA0000146202000F0CEFD0021034A084606F031
:102BB000D5F810BD14010020A54E000801460020E4
:102BC0000A0A00D00820084A114201D0042210430A
:102BD000064A114201D002221043054A114201D097
:102BE0000121084370470000F0F00000CCCC000049
:102BF000AAAA000038B50B231B07C518114B0FD02C
:102C00001C152D1B18D02D1B19D0A542DD6A05D12E
:102C100008242543DD62DB6A234007E08024F8E7CF
:102C2000DC6A01252C43DC62DB6A2B4000931160D7
:102C30001146FEF787FB38BDDD6A0224E9E7DD6A4D
:102C40000424E6E70010024010B5FFF7B7FF81004B
:102C500002484058002800D0804710BD940500204D
:102C600070B51C4615460E460846FFF7A7FF0A49F1
:102C7000002C0DD080000C50304601F021FB0446A2
:102C800000222946FEF76AFC2046FEF75DFC70BD77
:102C9000002280000A5070BD9405002010B5D2B209
:102CA000FEF70CFC10BD00207047000003494A6984
:102CB0000869496A50404840704700004000F81FCA
:102CC000704700000F494B6A0A69D218120EC27190
:102CD0004B6A0A69D218120C82710A8A8B8CD2183C
:102CE000120A42710A7C8B8CD21802714A69120E48
:102CF000C2704A69120C82708A8A120A4270097D77
:102D0000017070474000F81F10B5074C607800282C
:102D100008D106480068804700F0D8F900F08CF828
:102D20000120607010BD00003801002090BB000839
:102D300070B5410EC0017D220023FDF703FA054660
:102D400000F072F8044600E000BF00F06DF8001BD0
:102D5000A842F9D370BD000070B505460C460022AC
:102D60002048FFF73FF9002229461E486668FFF712
:102D700017F9002221461B48FFF734F96068B0427A
:102D8000F1D1E878184A01465043C01C83088807EF
:102D900026D0164968783D220646504302463C3A02
:102DA0007000801EC1408807D10F8918800F49101C
:102DB000081AC018A978401E08180D493C2248433B
:102DC0006178E123514322781B015A438918A27884
:102DD00010180818074A61688002511A401870BD1F
:102DE0000549D7E7D4050020B5050000A0AA990041
:102DF00080510100FF03000050554400032070473C
:102E000001480068704700002006002000B587B028
:102E1000694605A8FFF7A0FF0249096807B0401AF4
:102E200000BD00002006002000B587B0694605A857
:102E3000FFF792FF07B000BD10B5084C20780028BE
:102E40000AD100F04BF8FF2101310548FFF74CF89B
:102E500000F074F80120207010BD00004000002038
:102E6000D405002010B50C4C0021042000F06AFCB1
:102E700021688868C0040ED5C868C0050BD5C8682D
:102E800080221040FF388238C860044990024861AF
:102E90002046FFF725F810BDD405002000040140AE
:102EA00070B50446FFF7B2FF211A0B4D0220285ED1
:102EB000C01C814201D9002100E00121042000F062
:102EC00041FC00F017FC012802D10220285E241AE0
:102ED000204600F03FF870BD4000002010B51449B6
:102EE000144886B0002412C01F2101608460046170
:102EF0001149446141600838FFF7A2F86946CC7572
:102F00000120487588750875002205A90948FFF752
:102F1000E7F900940194049400226946054803945B
:102F2000FFF744FA0348FEF7BDFF06B010BD0000EE
:102F300000280040D4050020FF03000010B5044C19
:102F40002046211D1830FFF707FF206010BD00004C
:102F500020060020F0B587B0044614223F4901A89E
:102F6000FDF75DF93D485038406E009000F07EF866
:102F70003B4802993B4A401AA105890D081887B2BF
:102F8000A10A68468078534202E08918401C80B24A
:102F90009942FAD26A461579E122120102E0891AB1
:102FA0006D1CADB29142FAD26A46547902E0641CBB
:102FB000A4B23C393C29FAD2927951188EB201213F
:102FC000890203E07A1A761C97B2B6B28F42F9D220
:102FD00003E03C3E641CB6B2A4B23C2EF9D203E03E
:102FE0003C3C6D1CA4B2ADB23C2CF9D203E0183DC0
:102FF000401CADB280B2182DF9D26946C978890754
:1030000069464A7827D01849491E515C814202D24C
:10301000FDF76EF808461249CA1B10492C394A6060
:10302000052252068A618E704C700A460D7020325D
:1030300010706846C079C8700020C861FF224861DE
:103040000132C8604A620861024608462438FFF728
:1030500077F807B0F0BD04490C31D5E7240600200D
:10306000FF03000080AEFEFF08B8000810B5064858
:103070000168C86880221040FF388238C86051005B
:103080000148FEF731FF10BDD405002010B57D21A9
:1030900005F0F7FC4906C009084310BD10B5410E04
:1030A000C0017D220023FDF74DF810BD01B582B0AF
:1030B0000020C0430090012301AA02A90248FFF7A3
:1030C0004AFA684680880EBD3C06002010B51C48B0
:1030D0001A4901601C4A1B4B0021126803E0520888
:1030E000491C072901D29A42F9D84A078B07D20F07
:1030F000DB0F52011B011A43C90700D008210A4304
:10310000C2610021816001614161FF22C16005321D
:1031100081624260012201625202826141620B4877
:10312000416B8214114341630548FFF7D1F9002830
:1031300001D0FDF72AFF00F044F810BD0030014037
:103140003C060020809698002000002000100240DD
:1031500070B586B014216846FDF77AF8052601257A
:10316000022436076A468021304601950294FFF713
:1031700041FD002280213046FFF790FD6A46402144
:1031800030460294FFF736FD002240213046FFF71B
:1031900085FD6A46202130460294FFF72BFD002270
:1031A00020213046FFF77AFD6A461021304602950D
:1031B000FFF720FD012210213046FFF76FFD06B01A
:1031C00070BD10B586B014216846FDF741F80220A5
:1031D000019002900320039000200524240704900E
:1031E0006A4620212046FFF705FD6A464021204619
:1031F000FFF700FD6A4680212046FFF7FBFC012116
:10320000019102916A4610212046FFF7F3FC01224A
:1032100010212046FFF742FD06B010BD00BFFDE7BC
:1032200010B5034806F066FE002800D0012010BD4E
:103230002C0900207047000010B502A007F064FFC1
:1032400010BD00004A4F494E45440A0D00000000E1
:10325000FEB5794E7160F060344610348168A01C70
:10326000884706F055FFF068C068804707F042FCC9
:103270007249002007F04CFB3060A16F002901D09B
:10328000084600E0A067019004206946087068467F
:1032900000F05EFD6AA007F037FFA1786DA007F08F
:1032A00033FF0125601981786EA007F02DFF6D1C9A
:1032B000082DF7DB6DA007F027FFA17A6CA007F0BF
:1032C00023FF01256019817A66A007F01DFF6D1CA0
:1032D000082DF7DB65A007F017FFA17C68A007F0B9
:1032E00013FF01256019817C69A007F00DFF6D1C9B
:1032F000102DF7DB68A007F007FF68A007F004FFB8
:10330000A17854A007F000FF01272546E81981782D
:1033100054A007F0F9FE7F1C082FF7DB53A007F03D
:10332000F3FE63A0A96F07F0EFFE434F64A03037B0
:10333000B97807F0E9FE012428192030817854A0DB
:1033400007F0E2FE641C102CF6DB48A007F0DCFE60
:10335000B97C5FA007F0D8FE012428192030817CB9
:103360004BA007F0D1FE641C102CF6DB3FA007F049
:10337000CBFE5C485A4901605B4941605B49816012
:10338000F0682D490068083108600222554800F0B5
:103390002BFA544C284E02200C3420707036307FAB
:1033A0002071204600F0D4FC07202070707F20712F
:1033B000204600F0CDFC00202070B07F2071204618
:1033C00000F0C6FC6878012800D0002000F056FF0D
:1033D00016202070F07F207142480C3000F0B8FCBD
:1033E000154D122020709035286860603D480C30E3
:1033F00000F0AEFC132020706868606039480C3023
:1034000000F0A6FC0A202070287C207235480C3081
:1034100000F09EFC10202070A868606031480C30DD
:1034200000F096FC11202070E86860602D480C3098
:1034300000F08EFCFEBD000044000020FFFFFF01F5
:103440004966204F54414120656E61626C65640A93
:103450000D0000004465764575693D2025303258E1
:10346000000000002D253032580000000A0D000039
:103470004170704575693D202530325800000000CC
:103480004170704B65793D202530325800000000B6
:1034900020253032580000000A0A0D0049662041FC
:1034A000425020656E61626C65640A0D0000000088
:1034B0004465764164643D2020253038580A0D006B
:1034C0004E776B534B65793D202530325800000014
:1034D000417070534B65793D202530325800000013
:1034E000F1420008A4060020F54200084D43000800
:1034F000F0B528480023044601460778821C103C9A
:103500000A31254E1230656885B0012F33D06F46E1
:103510003B70019202910390E878387401AF27CF95
:1035200027C6354603200C35287028466B6000F00E
:103530000FFC0420287020686860284600F008FC12
:1035400005202870204632306860284600F000FCD4
:1035500006202870204642306860284600F0F8FBBC
:10356000012028702871284600F0F2FBE0684069CD
:10357000804705B0F0BD6C46237001920291039024
:10358000E878207401AF0FCF0FC6684600F016FD33
:10359000EFE70000540000209406002070B586B0CC
:1035A0000E46044606F08EFA0025ED43002822D18F
:1035B000207904A900F006FE024600211548002AE1
:1035C00004D06A461170029191811FE0002E15D03F
:1035D000012269460A7062790A7122798A8121681A
:1035E000029108226946CA73007B8873684600F01E
:1035F0009DFA002800D0284606B070BD6A461170BA
:10360000617911712179918121680291007B907318
:10361000ECE700009400002010B50B480168002979
:1036200004D000F014F800F036F810BD406800280F
:1036300004D000F013F800F02FF810BD00F006F8E9
:1036400000F028F810BD0000F4010020704710B50C
:1036500001210020FDF79EFF10BD000010B5EFF323
:10366000108472B6FFF774FD08484068804707F081
:10367000CBFC0748016804221143016084F31088E1
:1036800001210846FDF79EFF10BD000090BB000819
:10369000007000407047704710B5EFF3108472B6A9
:1036A0001248016801221143016001684907FCD5F5
:1036B0000168012212061143016001688901FCD5ED
:1036C000C16803221143C160C1680907890F03293A
:1036D000FAD1FFF776FD06480068804707F072FCD4
:1036E00007F0CEFC84F3108810BD000000100240EB
:1036F00090BB0008EFF3108172B607480268002AF9
:1037000001D0002005E04068002801D0012000E041
:10371000022081F310887047F401002010B5EFF308
:10372000108272B6064B00295C6803D0012903D1D0
:10373000044300E084435C6082F3108810BD000005
:10374000F401002010B5EFF3108272B6064B002989
:103750001C6803D0012903D1044300E084431C60AA
:1037600082F3108810BD0000F4010020F8B5174660
:1037700005460A461948069C089E079944718371BC
:103780001C0AC4711C0C04721B0E437281720B0A5A
:10379000C3720B0C0373090E4173D4B2C473104887
:1037A000FDF717FA39460E48FDF723FA10220B49A8
:1037B0000B48FDF726FA224629460948FDF721FA6B
:1037C0000749C81FFD38FDF766F9064C601CFCF779
:1037D00060FD2178000208433060F8BDB801002088
:1037E000401300203C120020F8B50E460500174695
:1037F0007ED028680028FBD068680028F8D0A86828
:103800000028F5D0104602F0E5FC002871D0764C77
:1038100000212666E565224627741A32117061740C
:10382000A163217601266676E1746165A1650B21AD
:103830006A4611703846694602F0BBFC002800D089
:10384000012020750821684601706946207C02F03D
:10385000B0FC664D05212870684601706946207CE1
:1038600002F0A7FC68700C21684601706946207C54
:1038700002F09FFCE8600D21684601706946207CDB
:1038800002F097FC28610E21684601706946207C91
:1038900002F08FFC68610F21684601706946207C48
:1038A00002F087FCA8611021684601706946207CFF
:1038B00002F07FFCE8611321684601706946207CB4
:1038C00002F077FC2F46203778701421684601708B
:1038D0006946207C02F06DFC686215216846017023
:1038E0006946207C02F065FC38721A21684601E0C6
:1038F00076E077E001706946207C02F05AFC38736C
:103900001B21684601706946207C02F052FC7873E6
:103910001C21684601706946207C02F04AFC28633D
:103920001D21684601706946207C02F042FC6863F4
:103930000021207C02F047FC3E700A2206216A60CA
:1039400028462972383842600172E968C1602969E5
:10395000016169694161A9698161E969C1612030D9
:10396000067002F0A9FC28462149383004F0F4FC26
:103970007D212846C900383004F056FD28461D49EF
:10398000683004F0E9FC28461B497C3004F0E4FC74
:1039900028461A49903004F0DFFC28461849CC30FC
:1039A00004F0DAFC04F0C6FC6063284615494C308C
:1039B000016015498160154901611549416015494A
:1039C000154DC160A9688847E869804707F092F8FB
:1039D000A674296E30468847686B80470020F8BD82
:1039E0000320F8BD0A20F8BD4C010020141100206E
:1039F00039440008354E00083D4D00089D4D000833
:103A0000D5430008054C0008694600083D4B0008F6
:103A1000F14C00089D4B000890BB0008F8B5044627
:103A20001D4617460E460D48FDF7D3F839460B489C
:103A3000FDF7DFF8F2B221460848FDF7E2F8074942
:103A4000C81FFD38FDF727F8054C601CFCF721FC6A
:103A50002178000208432860F8BD000040130020D0
:103A60003C120020FFB585B00F46044607ADF0229A
:103A700000211D480E9E06F04BFD1B4A10212046DA
:103A800005F072F810220021684606F041FD012180
:103A900068460170062239466C46401C06F020FD3F
:103AA00002222946E01D06F01BFD0F4A68460899D0
:103AB00005F02FF810220021684606F029FD0221AA
:103AC0006846017006223946601C06F009FD022294
:103AD0002946E01D06F004FD034A3146684605F01C
:103AE00018F809B0F0BD00004C120020F8B51746D8
:103AF0000E4605461C46F02200210B4806F008FD44
:103B0000094A1021384605F02FF8074A2146284671
:103B100004F0FFFF102E06D321462846024A10313A
:103B2000103004F0F6FFF8BD4C120020F0B504464A
:103B300087B002200490002006460190002C78D027
:103B40004248816BCA0701D1C80602D5012007B0DF
:103B5000F0BD002069460872014614223C4806F078
:103B6000D7FC3B4801214170384841732278002A34
:103B700004D0012A0AD0032A26D118E001736B462B
:103B80001A7A0126D206D20E403207E0E27B027397
:103B90006B461A7A0126D206D20E80321A72227928
:103BA0000192A26800920E25A78965570CE0017367
:103BB0006B461A7AE0231A436B461A726268012632
:103BC00000920A252789655701216A461175214906
:103BD0000691097B91751D4805A9007C02F0E9FA60
:103BE000A84200D3054668B2002E1FD0174D297990
:103BF000002910D16946087306980422007B887357
:103C000003A9287C02F04DFB002812D01149684618
:103C1000007B203948703B4602A8009A019903F0C6
:103C2000C3FF0490002806D00020687104988EE736
:103C3000FFE703208BE70648217801700348012243
:103C40001A30017811430170F0E700004C010020A8
:103C50000C120020FC100020F8B5002504460028B6
:103C600018D03949277837480E463836027C3B0051
:103C700004F01FFF1E121417191B1E2023252729CD
:103C8000303B394246484A4C4E50525654585A5C82
:103C90005E6062640320F8BD407C00E0C078207163
:103CA0004DE00079FBE7C06C00E0006D606046E02D
:103CB0002648FBE725481030F8E7807CEFE7C07C1A
:103CC000EDE7192012E020492039486C896CA16089
:103CD000606034E01C49203908467C30C96F406878
:103CE0006160A0602BE0172000E016206946087094
:103CF000104602F05EFAD9E7134820300078CEE78C
:103D0000C868D3E70869D1E74869CFE78869CDE794
:103D1000C869CBE77078C2E74878C0E73078BEE77B
:103D20000878BCE7806AC1E7C06ABFE7406ABDE7C0
:103D30004868BBE7087AB2E7486BB7E70225284630
:103D4000F8BD00004C010020DC100020BC0D00205C
:103D5000F0B5002489B00746002806D0934D288F7F
:103D6000C00704D0012009B0F0BD0320FBE7914E4D
:103D70003A78304620300290407B03908B488C4943
:103D8000007C130004F095FE1E102124272A2D33F9
:103D90003C41F744819894A4ABAEB1B4B7BAC9E53D
:103DA000D6FAFDF7F4F3F2F738796874002804D0F6
:103DB000012804D0022802D102E0486B8047F3E0DA
:103DC0000020687100F0EAFFEEE03879E870EBE07F
:103DD00038792871E8E07868E864E5E07868286573
:103DE000E2E07968002972D01022734805E0796812
:103DF0000029F8D070481022103006F071FBD3E093
:103E00003879A874096E8847CEE03879E874CBE039
:103E1000397A6A46117103995171062201A902F09B
:103E200040FA002853D06348BA6820387968826421
:103E30004164687C022827D1E878002824D05D4FAF
:103E40000298F037009708214156327A7368287C2F
:103E500002F099F9687D3870706A786002983A4685
:103E6000407B3874E87C78740120F874B8742C3284
:103E70003946287C02F0DDF900287DD0B87CF16855
:103E800002F0A4FAF87CE8738EE0397A6A46117180
:103E900003995171062201A902F003FA00286BD0A0
:103EA0004448BB6820387A688021C2670B507BE0A9
:103EB00079680691012102E07968069100216A463D
:103EC000117706A901F06EFF002855D06CE053E091
:103ED0003879411E0E294FD80299087064E078683D
:103EE000F06061E0786830615EE0786870615BE0A6
:103EF0007868B06158E07868F06155E03A796946D1
:103F00000A71052201A902F0CCF9002834D06846D4
:103F1000017928483830417046E039796A46117194
:103F2000042201A902F0BDF9002825D068460079D5
:103F3000707039E03A7969460A71082201A902F0E5
:103F4000B0F9002818D0684601791A483830017055
:103F50002AE039796A461171072201A902F0A1F914
:103F6000002809D06846007930701DE018E011E0A3
:103F70000AE006E002E016E0032415E07868A86293
:103F800012E07868E8620FE00A48796838304160EA
:103F9000716009E00748397938300172317203E005
:103FA0007868706300E002242046DCE64C010020C3
:103FB00090BB0008DC100020BC0D0020F0B50446CA
:103FC000022085B00090002C36D04748008FC007F3
:103FD00018D10C220021454806F09AFA434E0120E0
:103FE0007070414D207808271A35002806D0012826
:103FF0005DD0022866D0032850D16BE03A48018F8B
:10400000C90602D5012005B0F0BD6168002913D0B2
:10401000A168002910D0E16800290DD0217C002979
:104020000AD06A46117330481E2203A9007C02F0B0
:1040300038F9002802D00AE00320E4E71F2168468F
:104040000174294804A9007C02F0B3F82074287890
:1040500069463843287020783070234E6068306499
:10406000A0687064E068B064207C707600203076D0
:10407000087102F021F9307E6946401C088102A9CE
:10408000307C01F093FA1A49002348701A46194609
:1040900001A803F089FD0090002806D012490020F5
:1040A00048712878F721084028700098ABE72878F5
:1040B0000022384328702078307011460220FCF727
:1040C000FFFDE8E73070287838432870A08803F0B7
:1040D000D7FDE0E73070287838432870227BA0882D
:1040E000A16803F0F7FDD6E74C0100202012002064
:1040F000DC100020FEB508AF70CF6F4670C700F02F
:1041000001F8FEBDFFB50D46002681B01F46012413
:10411000F0223146294806F0FBF9284A102103987D
:1041200004F022FD26480A9941718771390AC1714C
:10413000390C0172390E41720B9981720B991F4F24
:10414000090AC1720B99090C01730B99090E41738D
:10415000203F18E01A48194AC473641C1146A4B2DF
:10416000203904F0D6FC00203118019A3B5C525CE7
:10417000401C5A400C9B80B25A541028F4D3103D76
:104180001036ADB2F6B2102DE4D2002D13D00B4A8A
:104190000B481146C473203904F0BBFC002008E032
:1041A000019A3118525C3B5C5A400C9B401C5A549B
:1041B00080B2A842F4D305B0F0BD00004C1200203C
:1041C000C8010020F3B52B4887B00E4642786946F7
:1041D0000A710078284C0876207A617A4018C5B2B6
:1041E000002E32D000216846017221794172206B85
:1041F0002049039038394A78684602741D4F09787F
:104200004174183F397B817420463030009006ABF2
:1042100001AA02A9207C01F0BAF9397B68468175B0
:104220000179417509210175E07C002802D00A203E
:104230006946087505A9207C01F0BBFFC0B270700B
:10424000A84205D3401B307006E0032009B0F0BD42
:1042500030700025257265726846042141562A4651
:10426000079804F0BFFB002801D00020EEE70820EB
:10427000ECE70000141100204C01002038B5044682
:104280006846054D04700B226946287C02F009F847
:10429000002800D02C7538BD4C01002010B50279E3
:1042A0000168407906F0E0FB10BD10B50168CA69ED
:1042B000D243D20603D410220A62FEF707FC10BDD7
:1042C000FF220132811A90420CD009DC08280DD05F
:1042D00008DC012808D0022806D0042802D105E015
:1042E0000F221202072070470520704706207047F2
:1042F000704700001CB50446407800281BD105F02B
:10430000E1FB002801D005F0CBFB607B012812D136
:10431000E078E02810D069464871207B0871A068D9
:1043200000900848E1894180217C01715038C068C3
:104330000169684688471CBD0349204605F0C8FB53
:104340001CBD0000940000209406002010B5044617
:10435000007800280CD0012809D16078002806D107
:1043600005F0B0FB002802D0204605F0A1FB10BDEF
:104370006078002802D0FFF7BBF810BD0248C06883
:104380004069804710BD00004400002070470000D5
:104390008307FF22DB0E9A408907090E9940002807
:1043A0000BDA0007000F0838830808489B0018182C
:1043B000C36993430B43C3617047830804489B0060
:1043C0001B181868904308431860704700ED00E020
:1043D00000E400E010B50B4804F070F80A48417999
:1043E000002905D001218173816B042291438163EF
:1043F000407C022805D1044810221A30017811436C
:10440000017010BDE01100204C0100200EB507A086
:104410000068029002A80090012168460171E02125
:1044200041710021FFF7BAF80EBD00000100000045
:1044300010B505F011FC10BDF8B50027874804F051
:104440003DF8874D874C2878C10673D5A16B4A0685
:1044500004D54022914349084900A1637F490207DE
:10446000D4310026002A01DBC20711D07B4AC032BA
:104470005378022B02D04B78022B09D1A36B5B0837
:104480005B00A3632672637B5371167101279660EC
:1044900062793A43714F503F002A31D1020702D46A
:1044A000C10703D12CE00A78002A06D03978A27A15
:1044B00091420ED9810712D41DE0227E8A7249787A
:1044C000002903D0617E8A4210D214E0A662A6724F
:1044D0000CE0800703D42672206B401C2063A67278
:1044E0006078002802D1A06A401CA062A06B40083E
:1044F0004000A06304E0EF210840287000F09AFC1F
:104500002878800717D55548C0300179012903D094
:10451000617B227B91420ED9A67366716178002976
:1045200002D1A16A491CA162617B4171A06B400864
:104530004000A0634FE0A07B00284CD0208FC00635
:1045400049D4A673607B217B884231D208282FD8BA
:10455000401C6073C0070DD0202168460170397B74
:104560003E4F8170703F797841706946207C01F040
:1045700020FE787003F092FA002814D03748092101
:10458000C03041702672A16B49084900A163667171
:104590000671617B41713149703949788170607869
:1045A000002815D017E02878EF210840287012E085
:1045B0000121207C01F007FEA06B40084000A063B1
:1045C000264826726671C0300671617B4171E6E74C
:1045D000A06A401CA062A06B810702D5022188431B
:1045E000A06300280ED07D21C9001C4803F01CFFE9
:1045F0001A4803F02BFF287880072ED5607C02280C
:104600001DD01EE02878C00708D0E06D016813486F
:10461000C030884728784008400028702878000774
:1046200008D5E06D81680D48D43088472878F72197
:10463000084028702878EF2108402870DBE700F058
:10464000ADFB2878400704D4E06D41680348A830EA
:1046500088472878F92108402870F8BD4C110020BF
:10466000660100204C010020FFB50646002097B0EF
:104670000C4611900146099005460C90FE480790A3
:1046800010300E90002013901290FC4801711838E1
:10469000C2811A9A0274FA4AD27B4274C170817044
:1046A0004171816001734173817441610170F5480A
:1046B000406B8047F148683803F000FF3078694666
:1046C00008704109601E0290201FEF4F1491109056
:1046D00001291CD003297DD005297BD007297AD058
:1046E00039460120F831487000F06CFDE448102292
:1046F0001A30017811430170E3480121503003F072
:1047000093FEE148503003F0A1FE1BB0F0BDDC4841
:10471000C178002903D0D949012018394EE1D84881
:104720000299DA4D826C89B26B1C701CFFF7DEF9BE
:10473000684600782870109809AB81B2D048826C26
:104740002846FFF76BF928192038417F027F0902BC
:104750001143827FC07F12040A4300060999104367
:10476000884249D1C448C64E10300090C24BF28BEB
:10477000691CB06CFFF776F9687929790002084363
:10478000A97909040143F164287AE9790002084310
:10479000697A09040143A87A000608433065E87A7B
:1047A0004106490F00077970000F3872287BB84D19
:1047B0000007000F286101D1012028617D21C90077
:1047C0004843286140186861B0480D30049068463D
:1047D000113C01E015E096E1047504A9307C00F07D
:1047E000EEFEA6490020143148700120F070A64862
:1047F00018304078687079E7A0480721143041707C
:1048000074E7797B684681739C489D4F183801791D
:104810006846417309210173F87C002802D00A2000
:104820006946087303A9387C01F0C3FC21460D39A1
:1048300009B2002900DA0021814200D96BE7B17882
:10484000707809020143F0788D4A000408433179F9
:10485000090601430691126D05209142884917D03F
:104860004D6A0CE02A6806998A4207D1012113910A
:10487000291D079110310E916F6A0AE0AD6A002D73
:10488000F0D10B217D481838417000F09BFC3CE7CB
:10489000CF6A315C6A461170401C0B91335C401C3E
:1048A000305C02020807000F08300A9030191A43E2
:1048B0002038017F0C9B1943437F1B020B43817FF0
:1048C000C07F09041943000608430C90D01B81B235
:1048D0000122D20309A80D91914212D27F180197AB
:1048E000029001211098009181B23046069B079AF0
:1048F000FEF73CFF09990C9888421AD101201290CA
:1049000017E009B201227918120489181591019152
:10491000029010980122009281B23046069B079ABD
:10492000FEF724FF09990C98884202D10120159FB7
:104930001290112069460873514803A9007C01F0C8
:1049400038FC0D99884205D84C480A211838417026
:1049500047619AE71298002877D048480021183814
:104960004170139A82700B9A444BD206D20F427157
:104970008160017347614248597001634172139825
:1049800000280CD01846022118380170696AB94213
:1049900003D1002901D0082176E76F621FE0149847
:1049A00005280DD0364835490022827118390A7021
:1049B000C06AB84211D100280FD00820487064E7BF
:1049C0002F482E4A01218171183A1170C06AB842ED
:1049D00003D1002801D0012011902948C76227483F
:1049E0000078012802D10B98800602D524490020C6
:1049F00008720A98201A001F002852DD0A9D0A98A2
:104A00006D1C611B091F305CC9B20F911B4918391D
:104A1000C87000280B9819D0000707D01A980821F1
:104A2000C3B2681EC2B2304600F0EAFB012000901B
:104A3000164C019702947019069B0E9A0F99FFF776
:104A400059FB1198002825D04FE05AE0000702D00A
:104A50000120119049E00D48012102900197009139
:104A60007019069B079A0F99FFF744FB1A980021CB
:104A7000C3B206480F9A1CE0BC0D00200C120020A7
:104A80004C01002090BB0008FC100020DB0E002031
:104A9000DC100020264884600F99017301214173C6
:104AA0000CE00B98000706D01A980821C3B23046D4
:104AB0000A9A00F0A5FB1198002816D10B988006E1
:104AC00006D51B490120183108711839887408E08F
:104AD00017490020183108711648417B007B81423C
:104AE00003D91348143803F0E9FC124902221A31A1
:104AF00008781043FB221040119A9200104308706E
:104B0000F4E50C21BEE6711C22460B4805F0E8FCDA
:104B10000748032101700021417007498160029913
:104B20000173044802211A3002780A430270DDE55D
:104B3000F41100204C010020DB0E002070B5144C55
:104B4000607C022803D01348406B804701E000F0EE
:104B500025F911480E4DE27B01461A351026143115
:104B60006379002A05D00622002B00D042704A70DB
:104B70000AE00522002B00D042704A70606D03F0FD
:104B8000DFFBA16E884202D328783043287070BDC5
:104B90004C01002090BB00080C12002070B5164C90
:104BA000607C022803D01548406B804701E000F08C
:104BB000F5F81348104DE27B01461A3510261431E2
:104BC0006379002A08D00422002B00D042704A707A
:104BD000607C02280BD170BD0322002B00D04270F4
:104BE0004A70606D03F0ACFBA16E8842F3D3287865
:104BF0003043287070BD00004C01002090BB0008BD
:104C00000C120020FEB503F095FB364C0646607C86
:104C1000022803D03448406B804701E000F0BEF822
:104C2000304DA0781A35002700282AD02F48616E11
:104C300003F0FAFB2D4803F009FC607C02280ED03B
:104C40002A48A16E143003F0EFFB2848143003F01B
:104C5000FDFB607C022802D06079002820D0122061
:104C60006946087202A9207C01F0A3FAA16E4118DE
:104C70001E48503003F0D8FB1C48503003F0E6FBD0
:104C80000EE01A4804217C304770143041702878B7
:104C9000002801D101202870C0B2102108432870DB
:104CA0002878000704D5114890300078002815D0E6
:104CB000E775607DA07569460870E07848700196D8
:104CC000207C01F0CAFA66656079002805D10748A2
:104CD0007C304770A07A401CA072FEBD0120E075B8
:104CE000E7E700004C01002090BB00089011002075
:104CF00010B50B48407C022803D00A48406B80471F
:104D000001E000F04BF80849022048701431487067
:104D1000034810221A3001781143017010BD0000C1
:104D20004C01002090BB00080C12002010B506F0CA
:104D300011FA00211020FEF705FD10BD70B51448D2
:104D400003F0BCFB134C0021114DE173607D28354D
:104D500028702846BC384278EA70407B2874E07C92
:104D60006874A974E974607C022802D10A48806BD7
:104D70008047074A207C68321146403901F059FAD1
:104D80000348B438C168A87C01F020FB70BD000066
:104D9000901100204C01002090BB000870B5144811
:104DA00003F08CFB124D134C2835607D2E46287085
:104DB000F03E706A68602846D038407B2874E07CFA
:104DC00068740120E874617C022900D00020084A40
:104DD000A874543211462C39207C01F02AFA00289C
:104DE00005D0A87CF16801F0F1FAE87CE07370BDB1
:104DF000A41100204C01002000B591B0402168466C
:104E0000FBF726FA05A1684603F010FE684606F097
:104E10007BF9074803F01AFB11B000BD41542B5336
:104E2000454E443D323A313233340D0A0000000021
:104E3000040800201FB5194803F040FB184C10214E
:104E4000A06B8843A06320461A300078000721D564
:104E50001248A430007800281CD101F02DFA207EE1
:104E60006946401C888103A9207C00F09FFB0B4908
:104E7000A039487000206946087121790246C901AD
:104E80000A4369460A7203460246009002A901A835
:104E900000F058F802F002FE1FBD00007C11002057
:104EA0004C01002038B50E4C2078002817D1FF2087
:104EB00001300C49009008466A46103803F0E9FEBC
:104EC000009800280BD001212020FEF73BFC012098
:104ED00020700098034982B20348FDF731FE38BDC7
:104EE000140100204C0B00204C0D0020F0B50646AC
:104EF00000242046002E01D0002A1ED10020F0BD43
:104F0000355DAF1E3B0003F0D4FD091614160612E2
:104F1000140E16061600641C1554E4B2401CC0B2F0
:104F2000335D135400E01554401CC0B203E0A41CD0
:104F300000E0641CE4B2641CE4B28C42E0D3F0BD37
:104F400070470000F0B50C4687B0844600219848B1
:104F50000C9D069181831E1E1746417100D10025CC
:104F6000EAB202706146934D0978297001210091DF
:104F700061460978490908D002293FD004293BD06D
:104F800007297DD0022007B0F0BD00990446818337
:104F9000681C0822616C05F0AEFAA08B082208306C
:104FA00080B2A0832818216C05F0A5FAA08B0830E8
:104FB000A0838148C06980470146E083A08B06AB8F
:104FC0002954401C80B2090A2954401CA083C1B254
:104FD0007848A26CFEF722FDA08B06992954401C4C
:104FE00080B20A0A2A54401C80B20A0C2A54401C7F
:104FF00080B2090E2954D7E001214171C1780029FE
:1050000069D0012269460A7321786948CA0969464C
:105010004A736A4A006B0490507808751078487596
:1050200010462030007B8875614813463030009070
:10503000303803A9007C521C00F0A9FA81012078C5
:10504000BF22104008435A4920708979002905D0B1
:10505000574A002191712021084320705448016D66
:1050600054480A0A417082700A0CC270090E01711C
:10507000217841714E49098D8171090AC17100E0A1
:1050800088E04B49FF30097AFF304018484908252D
:105090004A7A4A49823905F023FA4548017A407A2A
:1050A0000818C1B24248002E01721FD00278002AAF
:1050B0001CD0C279002A22D00F291DD820783D4A61
:1050C000030940181B010007000F034323705371AD
:1050D00000203B4C07E0072055E7235C53556D1C2F
:1050E000401CEDB280B28842F7D308E03048002976
:1050F00005D0C279002A02D0314E017000272C4C15
:1051000000202F4AE07180322D48FFF7EFFE6072D9
:10511000002801D00120E071002E14D02178002950
:1051200011D0244847556D1CEDB2002F27D0A36A3B
:10513000002240190092019302901E4A236D103AFA
:105140003046FEF7DFFF207806AB2918A183002048
:105150006E46A26A0DC6174A1648203A236DFEF71E
:1051600005FB144AA18B06985054030A5218537039
:10517000030C000E9370D070091DA18316E000226D
:105180002272A36A401900920A4A01930290203ABF
:10519000236DD5E7002B09D00446002A06D0681CF1
:1051A000314605F09DF92078401CA0830020EAE6F6
:1051B0004C010020DC0D002090BB0008DC1000201A
:1051C000DA0F002010B50C484022816B1143816337
:1051D0004079002801D0FFF7FDF8074912221A3163
:1051E0000878104308700121044803F01DF90348B2
:1051F00003F02CF910BD00004C0100204C110020E0
:10520000FFB505468BB0A84816460C46099024E128
:10521000285D641C801EE4B2030003F04AFC09060A
:10522000115E6AA1AED6EFEDEC00A04900204870F7
:10523000285D0872641CE0B22A5C4A72401C4AE095
:1052400000206946087708A9087069460872087343
:105250002819401E0490301B401C08759448924F3A
:1052600002798A750999203F0A7B69464A757A78DE
:10527000CA753A780A76099908AB0A7869464A7677
:1052800003AA02A90192009107AA04A9007C00F0D8
:10529000A7FF0090C043400709D16846007F78709F
:1052A00008A8007838706846017A099801700027CC
:1052B00006E0002203200099FBF702FD7F1CFFB2ED
:1052C00068460521007BFAF713FFB842F1D868461B
:1052D000007B2018401EC4B2BFE0285D7449641CE6
:1052E0000122C87282400A840022E4B211460420DE
:1052F000B1E0285D4006410F68464170285D641C9E
:105300000107090F68460170E0B2295C401CC0B279
:1053100001912A5C401C12021143C0B201912A5C27
:10532000401C12041143C4B2084664214843019052
:105330005F486946007C00F087FF0146C84340078C
:105340000BD168460278099802725748019A2038B2
:1053500042626846427809984270002205207AE04D
:105360005348FF21006E002804D00068002801D0B7
:105370008047014606200E9A6DE0285D6946087454
:10538000641CE0B20391295C401CC0B200912A5C0D
:10539000401C12021143C0B200912A5C401C12044E
:1053A000114364225143009100210191C0B22A5C53
:1053B000401C6946C4B20A723D4803A9007C00F053
:1053C00020FF00220146072045E0285D641C0007FD
:1053D000000FE4B2002800D101207D21C90048431C
:1053E00031497D222039D2000861801800224861AD
:1053F000114608202FE033E034E0FFE7285D00216C
:105400006A46641C11705170E4B2810601D5012115
:105410005170C10601D5012111700007000F907075
:1054200023481146007C00F033FF401C15D068462D
:105430000178099801736846417809984173684674
:1054400080781C49085CFBF72FF9174900222039A6
:10545000086311460920FBF733FCB44200D2D7E6BB
:105460000FB0F0BD285D69460870641CE0B2295C8D
:10547000401CC0B201912A5C401C12021143C0B210
:1054800001912A5C401C12041143C4B208466421F5
:105490004843019006486946007C00F081FE0022E6
:1054A00001460A20D7E70000FC100020201200204F
:1054B0004C01002054B8000870B517490023CA6891
:1054C0001206120F18D18A6B154CD500134A02D55B
:1054D0001268224009E08E6B01252D072E438E6352
:1054E00012688E6B2240AE438E63A24204D1032128
:1054F0008903884200D101230A480168490849000C
:10550000194301600068C007C00F984201D0012014
:1055100070BD002070BD000000100240007000400F
:10552000001800000020024001090A220007514330
:10553000000F4018C0B27047002102E00A38C0B224
:10554000491C0A28FAD20907090E0843704770B5AA
:1055500004460068C168490613D40021C943C160EC
:10556000FBF7B2FF7D260546F60006E0FBF7ACFF31
:10557000401BB04201D9032070BD2068C0684006BE
:10558000F4D5002070BD10B5FDF76CFC10BD70B5F2
:105590001C46049B15460E46022801D0002070BD13
:1055A00022462946304600F01FF870BD10B502288B
:1055B00001D0002010BD084600F058F810BD10B50D
:1055C000022802D1084600F071F810BD70B51446EB
:1055D0000D46022801D0D0B270BD1A462146284699
:1055E00000F065F870BD0000FFB504460F460820C6
:1055F000092681B02056A657616819606178002598
:10560000012928D100280BD06168402901D3012548
:10561000002660291FD3C906C90E012903D01AE04C
:105620000021196017E0202269460A704870A07AAC
:105630008870684600F0ACF840B200280BD12178A1
:105640000025012907D1084A06491180518091801F
:10565000D18011815181387003980670284605B0B9
:10566000F0BD0000FFFF0000B814002070B50588F1
:10567000002430212846FAF73BFD00290CD0E8062B
:105680000CD018212846FAF733FD002908D0280746
:1056900008D0680708D00524204670BD0124FBE728
:1056A0000224F9E70324F7E70424F5E77047881A92
:1056B00040B2002800DA0020C0B2704700B585B0C3
:1056C0000A4900910A490191427869460A720278B2
:1056D0004A7282788A72C278CA724168039180687D
:1056E0000490684600F067FB05B000BD5814002028
:1056F000D801002010B50179002903D0012905D077
:10570000002010BD01680622044803E00168034838
:1057100006220C3000F07DFB012010BDB8140020E3
:10572000FFB583B01C461546052800DB052014494B
:1057300060708300CE58134AB61803D0D64203D007
:10574000002202E0012200E00222A2700C4AC958A5
:10575000143A105C00F0E4FB06460B480F46406E1E
:10576000804721460C310834029100902B46019469
:1057700030463946049A00F08BFB07B0F0BD0000BC
:1057800078B80008702FFCFF90BB0008002070471D
:1057900070B5024615787D21C90000204C002B0011
:1057A00003F087F9211A1A1A1A1A1A1A1A1A1B1F41
:1057B0001A2527292B2D2F321A371A393B3E401A2A
:1057C0001A43454747121A000120105600210028AD
:1057D00001D0401EC1B248B270BD0120105616491A
:1057E00003E0012014491056891D085C70BD134860
:1057F00070BD084670BD204670BD114870BD11488F
:1058000070BD0120800370BD0F4805F081F80019BC
:1058100070BD0E4870BD0E4870BD0D480C3070BD97
:10582000082070BD0A48603870BD0A4870BD0A483B
:1058300070BD302070BD00006AB80008B80B0000D1
:10584000881300007017000018FCFFFF20441E1E84
:10585000B8140020333399419A990940F8B50028CB
:1058600002D001284CD144E000252E46254C50277B
:1058700007E02B0003F01DF90805090D1115191D8E
:10588000212504F0EBFC206020E004F0F7FCE06050
:105890001CE004F003FDA06118E004F00FFD60625D
:1058A00014E004F01BFD206310E004F027FDE0632A
:1058B0000CE004F033FDA06408E004F03FFD6065F7
:1058C00004E004F0CBFC0C216943605028460C2115
:1058D000484300196D1C0772EDB24672082DC8D3FB
:1058E000084909486C31088048808880C880088150
:1058F0004881044906226C3108460C3800F089FAC8
:10590000F8BD000058140020FFFF0000FFB58DB067
:105910000025044607262F460A950B950622444982
:105920000AA80C9500F075FA39E0206807A940191B
:1059300000F0A2FB002835D02818C5B26846C07F09
:1059400007268646062815D007281CD00020694661
:105950007246098CD200944601228240114216D030
:10596000624612180C235A43314B603B9A58002A66
:105970000BD00CE02F486946088548858885C88586
:10598000088648860BE0062609E076087600401C6B
:10599000C0B20828E0D3704642000AA8815220799C
:1059A000A842C2D8012108A801716179817109A8B2
:1059B000FFF7EEFE014668460670A2794270427F0C
:1059C0008270827FC270027F0271E2794271227A14
:1059D0008271627AC271082202720AA80390684634
:1059E000017405214174124807216038059068460A
:1059F000017607AB9A1C4776511E00F0F1FA044677
:105A0000072804D106220AA9094800F002FA6846CC
:105A1000417F0E9801706846817F0F98017068463B
:105A2000017F1098017016980570204611B0F0BDE6
:105A3000B8140020FFFF000000207047FFB585B0BC
:105A4000044600256846057216461F460395062241
:105A500029462348049500F08DFA002807D12049F3
:105A60002048088048808880C88008814881606814
:105A700002F066FC216888421ED33D60A17A607AFC
:105A80000123194A00F018FB074602A903A8019157
:105A9000134A0090207A144B603A1149FBF7B8F989
:105AA000002812D0411E002004F032FF03A9095C37
:105AB0000698017035600DE06946087A401C08724E
:105AC000606802F03DFC21680F1A6846007A0028E1
:105AD00003D03760012009B0F0BD00203560FAE73F
