:020000040800F2
:20000000601E00204D01000899350008AB3100080000000000000000000000000000000032
:20002000000000000000000000000000133A000800000000000000000B010008234F0008DD
:200040005F0100085F010008BD3800085F0100085F0100085F0100085F010008BF08000864
:20006000000000005F0100085F010008890800085F010008AD310008000000002D50000844
:20008000000000005F01000800000000000000005F010008000000005F0100085F010008C0
:2000A0005F0100085F0100085F0100085F010008195700085F0100080000000000000000C0
:2000C0000348854600F0BCFB00480047C1630008601E0020084B19680868203080F3098872
:2000E000022080F31488BFF36F8F3FBCAE4608BC04BC62B618470000B0000020EFF31080F3
:2001000072B6704780F310887047EFF309800E4B1A6820381060F0C044464D4656465F4622
:20012000F0C008B572B606F0DBFF62B60CBC116808681030F0C8A046A946B246BB4680F358
:2001400009882038F0C81847B00000200448804704480047FEE7FEE7FEE7FEE7FEE7FEE7CB
:20016000D94F0008C100000830B50B46014600202022012409E00D46D5409D4205D31D4617
:200180009540491B2546954040191546521E002DF1DC30BDF0B51FB40646002082B005467A
:2001A0004024019100901BE0019922460F46304600F050FA049A059B801A994110D31046CC
:2001C0001946224600F036FA361A8F410197224601200021009F00F02DFA38184D410090B2
:2001E0002046641E0028DFDC019B00982946324607B0F0BD03460B439B0703D009E008C9EF
:20020000121F08C0042AFAD203E00B780370401C491C521EF9D27047D2B201E00270401C2C
:20022000491EFBD270470022F6E710B513460A4604461946FFF7F0FF204610BDF0B50746B3
:200240000846584087B0C00F049048000E46590040084908BC1A884105D2384631461E46C1
:2002600017460B4602465800400810434CD0300D039040055900400D490D0590401A0290E7
:20028000402872DA18030121000B09050843019004980092002805D0019952420020884136
:2002A00000920190029840210A1A0199009800F0C1F905460C466B4607CB00F0DCF9C01962
:2002C0007141039A0E0D0023D71756401A467A40164344D0049A002A2DD0029A012A039A5D
:2002E00015DC1205C01A914101263605001C7141D20F059ED2070093019202962A46234626
:2003000000F0D9F907B0F0BD38463146FAE71605224A0F46B218C01AB74101210905001C1D
:200320004F4100187F41114618187941E20F10436D19644113E0E2076D0815436408C207C7
:200340001443039A01261205C01A91413605001C7141CE07400830434908C01851412A46FB
:20036000234600F09BF9CDE7FFE7049801224000C117121A00238B4104983146C417381AC4
:20038000A141EEE730B40124E407634030BC55E730B40124E407614030BC4FE70000E0FF51
:2003A000F0B51FB488B00B990998002448400999C00F490049080991C0070B9900904900B3
:2003C00049080B9109990898A64608431CD00B990A98084318D0099801244000420D4800B5
:2003E000410D099824050003000B204309900B980003000B20430B9050181C4940180022E5
:2004000001901446104605E0002001460DB0F0BD032801DA034600E003239C46C11A0AAE1B
:200420000AE05F0008ADED5B4F00F75B7D430027AA187C41491C5B1E6145F2DD410004AB2C
:200440005A522104120C0A43240C401C0828DFDB019802900099704601910090059B049A10
:200460000799069800F027F9D0E700000DFCFFFFF0B50C465C4085B0E40FE40703944C00E7
:200480000026640859009446490802460296224321D062460A431ED06200570D4A000E030C
:2004A0002303550D012402462C492405781B1B0B360B401823432643614600901C46501A85
:2004C000B44103D30098401C009002E0921800985B41002803DA0020014605B0F0BD00201F
:2004E000012109050746864611E064461D46141BB54106D36546521BB341744607430C4358
:20050000A646CD0740084908284392185B4105460D43EAD11046184313D060461946504052
:200520007140084306D06046101AB34106D20122002306E000220123DB0702E00122D243DF
:200540005310009874460105381C6141029C039D0019694100F0A2F8BFE70000FD030000B9
:2005600070B54B005B0803430BD04B005C0D002633466542B341D417AD1AA34102DB002006
:20058000014670BD12053018514170BD0EB5C217C10F5040CA0740180021054B029301920B
:2005A00000910A460B4600F086F803B000BD0000330400000EB505490291002100910A464E
:2005C0000B46019100F077F803B000BD330400004A0009030123090B1B051943094B10B50F
:2005E000520D9A4201DA002010BD064B34339A4203DC9A1A00F02EF810BD03495118884071
:2006000010BD0000FF030000CDFBFFFF10B5002904DB0124E40740428C412146002B04DBA8
:200620001C460123DB075242A341994200D1904210BD000010B5202A04DB0146203A91402F
:20064000002010BD914020239C1A0346E3401943904010BD10B5202A04DB0846203AD040D8
:20066000002110BD0B46D340D0402024A21A91400843194610BD10B5202A06DBCB170846B0
:20068000203A1041C1170B4306E00B461341D0402024A21A91400843194610BD10B5002BB6
:2006A00008DA0024401C614192185B411A4301D14008400010BDF0B51FB482B005460C006B
:2006C00003D0084605F046F802E005F043F820300246009021462846FFF7ACFF049B059AD8
:2006E00004460F4618431143084314D0184610431BD0009840210A1A18460599FFF7AAFF29
:2007000005460E46009A05990498FFF793FF084305D0012004E02046394607B0F0BD002050
:20072000C11705430E432C43374300990E986305401A7905E40A00220C43FD0A0A3002D569
:2007400000200146E9E70105101969410C9C0D9D00196941FFF7A2FFDFE70000F8B505461F
:20076000480040080C46284304D06000184A400D904201DD2846F8BD15493539884210DCF4
:2007800088420BDB290D200308432903014305D0E00F1049C00741180020F8BD002001461C
:2007A000F8BD161A4020821B28462146FFF742FF07460091284621463246FFF74BFF3A4660
:2007C000009BFFF76BFF3246FFF734FFF8BD0000330400000000F03F4A0009030123090BD4
:2007E0001B0519430A4B10B5520D9A4202DA0020014610BD064B34339A4203DC9A1AFFF7FB
:2008000029FF10BD034BD218FFF714FF10BD0000FF030000CDFBFFFF10B5002904DB01241B
:20082000E40740428C412146002B04DB1C460123DB075242A3418B4200D1824210BD0000FE
:20084000064C0125064E05E0E36807CC2B430C3C98471034B442F7D3FFF736FCBC7A0008CA
:20086000DC7A000838B50446064805490068FFF77BFC604300E0401E00900028FBD138BD18
:2008800040420F008000002010B5034800F0E6F9024800F0E3F910BDDC0400201C05002024
:2008A00010B5046863608368102B036803D099600068C26010BD9A600068C16010BD10B57B
:2008C000102000F0E3FB202000F0E0FB0120C00300F0DCFB10BD000010B5094A0021CB0093
:2008E000D458844207D89B189B68834203D9C8008018007910BD491CC9B21529EFD3FEE765
:2009000060790008F8B506460D464036317D01290DD00121317501688A68520709D5816D37
:20092000202211438165002030750120F8BD0220F8BD174B6A68D80547109A42154C8A6A30
:200940002B6812D05B035B0B1A438A622968490305D5A1680143A1600A20FFF783FF2868DE
:20096000800312D5A06838430EE05B035B0B9A438A622968490302D5A1688143A1602868FD
:20098000800302D5A068B843A06000203075F8BD011000000027014070B5040006D0A06DFB
:2009A000264600254036002802D006E0012070BDE5653575204600F0D1F8A06DC00603D445
:2009C00021688868400705D5A06D10210843A0653575EBE7A06DFF220132904302221043C8
:2009E000A06588688207920F5A48012A02D10A68D2072BD1032362689B079A4205D05B4211
:200A00009A4202D05B009A4209D10A69920092080A6121680A6963681A430A610CE00A691F
:200A2000920092080A6181680F2292049143816081686268114381602168CA6818239A43FF
:200A4000CA602168CA68A3681A43CA60816801225206914381608168228F520611438160DF
:200A600020688168C90004D4816801221207114381602068C168384A1140C1602169E06893
:200A8000022923D000210843216A226B4903520011430843616B0843A16989030843E16935
:200AA000C90308432168CA681043C860A06A0146FF39C23905D0E16A08432168CA681043EC
:200AC000C860606A0121012802D00BE00421DAE7206A002823D0A06D20221043A065E06D9D
:200AE0000843E065206C012820681FD00169C90703D0016949084900016120684169C908C4
:200B0000C900416120684169E26B11434161E565A06D80088000401CA065002070BD206860
:200B2000C26801231B041A43C260DBE70269FF239B009A43026120680269636CE66C1A432E
:200B4000A36C33431A430261206802690A430261D3E70000002701401902FEFF00680449BE
:200B6000884204D10348416B42151143416370470024014000100240F8B50446006801685A
:200B800049084900016000F04FFB00272546064620350EE000F048FB811B7D20C000814210
:200BA00007D9E06B20210843E0632F7103206871F8BD20680068C007ECD12F7101206871DC
:200BC0000020F8BD70B50024024620325179022903D00421C16301243CE001680B680E25FC
:200BE000AB430B6001680B685B085B000B601A4B0168994201D1012121E0174B1433994275
:200C000001D110211BE0144B2833994201D1891515E0114B3C33994201D189140FE00E4B7F
:200C20005033994202D10121090408E00A4B6433994202D10121090501E001210906064B3F
:200C4000083B59600121517100211171816B002900D08847204670BD08000240F8B5044689
:200C60009D4801689C4A9C4E9B4F0832206813041C363037904201D108221EE0B04201D14A
:200C800080221AE0B84202D10122D20215E0924A4432904202D10122D2030EE08E4A5832C0
:200CA000904201D11A4608E08B4A6C32904202D10122D20501E00122D20625461140203549
:200CC00000293BD00168090738D50168082291430160814920680831884201D108201EE045
:200CE000B04201D180201AE0B84202D10120C00215E079494431884202D10120C0030EE04B
:200D000075495831884201D1184608E072496C31884202D10120C00501E00120C0066E4950
:200D20004860E06B01210843E0630420687100202871616B002901D0204688476648016848
:200D4000654A206808321315904201D104221EE0B04201D140221AE0B84201D11A4616E0F0
:200D60005D4A4432904202D1012292030FE05A4A5832904202D10122920408E0564A6C3258
:200D8000904202D10122920501E001229206114238D00168490735D50168890603D4026801
:200DA00004218A4302604C4920680831884201D104201EE0B04201D140201AE0B84201D1E1
:200DC000184616E044494431884202D1012080030FE041495831884202D10120800408E050
:200DE0003D496C31884202D10120800501E0012080063949486005206871216B002901D057
:200E00002046884734480168334A206808325315904201D102221EE0B04201D120221AE04B
:200E2000B84201D11A4616E02B4A4432904202D1012252030FE0284A5832904202D10122D5
:200E4000520408E0244A6C32904202D10122520501E00122520611423CD00168890739D567
:200E60000168890603D401680222914301601A4920680831884201D102201EE0B04201D13D
:200E800020201AE0B84201D1184616E012494431884202D1012040030FE00F49583188428D
:200EA00002D10120400408E00B496C31884202D10120400501E00120400607494860E06B93
:200EC000E0630120687100202871E16A002901D020468847F8BD00000000024070B500285E
:200EE00005D0034620335979002902D003E0012070BD002119710221597104682268374975
:200F0000C5680A4081684669294305693543294385692943C5692943056A29431143216060
:200F20002F492F4C02687831A24206D18A6A120912018A628A6A406849E0294C1434A2427C
:200F400007D18A6AF024A2438A628A6A406800013DE0234C2834A24208D18A6A0F24240251
:200F6000A2438A628A6A4068000230E01C4C3C34A24208D18A6A0F242403A2438A628A6A4A
:200F80004068000323E0164C5034A24208D18A6A0F242404A2438A628A6A8088000416E0EA
:200FA0000F4C6434A24208D18A6A0F242405A2438A628A6A8088000509E08A4209D18A6ADC
:200FC0000F242406A2438A628A6A0079000602438A6201205871002070BD00000FC0FFFF3B
:200FE00008000240F8B5044620300579012D1ED0012505710226467120680768AF430760FB
:201000002046FFF74DFC20680168314301602068016804221143016020680168082211432A
:20102000016020680168294301600020F8BD0220F8BD31B500F0F8F8044600F0F5F800995F
:20104000001B8842F9D338BD10B510280FD020280BD001210903401A05D007210903884290
:201060000AD1064A04E0064A02E0064A00E0064A0021084605F060F810BD0000E135000808
:20108000E9350008F1350008F935000810B504494A69024202D04861FFF7D6FF10BD0000AA
:2010A00000040140F8B500230124A2E027469F403A4070D04D68022D01D0122D14D1DD08B0
:2010C000AD002D1800952D6A5E07AC46F50E0F26AE46AE406546B543AC460E697546AE40CC
:2010E00065462E43009D2E624D68012D05D0022D03D0112D01D0122D16D185680326AC46B0
:201100005D00AE46AE406546B543AC46CE687546AE4065462E43866046680D79BE43ED06F2
:20112000ED0F9D403543456006685F000325BD40AE46AE430D79B446AE07B60FBE4065463F
:201140002E430660C6687546AE438D68BD403543C5604D68ED004BD5294D6E6B26436E6304
:201160009E08284DB6007519AC46AD689E07360F0F27B740BD4305273F07B84201D100278D
:2011800015E0214FB84201D1012710E01F4FB84202D102270BE02BE01D4FB84201D103274A
:2011A00005E01C4FB84201D1052700E00627B7402F436546AF60184D2E684F689643FF032A
:2011C00000D516432E606E684F689643BF0300D516436E60AE684F689643FF0200D516435A
:2011E000AE60EE684F689643BF0200D51643EE605B1C0A681546DD4000D057E7F8BD00009A
:2012000000100240000001400004005000080050000C0050001C005000040140002A01D087
:20122000816170478162704701480068704700000000002070B5024640325378202B1CD111
:201240001378012B19D00123137024245470046825689D432560046825681E03B543256046
:20126000046825680D4325600068016819430160202050700020107070BD022070BD70B5D1
:20128000024640325378202B1BD11378012B18D0012414702423537003681D68A5431D60EB
:2012A00005682B680F263602B34309021943296000680168214301602020507000201070A5
:2012C00070BD022070BD000070B5040006D02546403568780026002802D005E0012070BD80
:2012E0002E70204600F04AF824206870206801684908490001600F21606809068843216855
:20130000086121688A680120C00382438A60E1680129A16808D0212292021143226891605C
:20132000E168022902D005E00143F7E701212268C902516021684A680F4B1A434A60216813
:20134000CA688243CA60616920690843A169090208432168C860216AE069084321680860AD
:20136000206801680122114301606664202068702663AE70002070BD0080000200B500682F
:201380000C4985B0884212D1C0200090122001210190032002910491039069460648FFF7F0
:2013A00081FE0648816B012252051143816305B000BD000000540040000400500010024016
:2013C00002480168491C0160704700000000002010B506480168402211430160002000F01A
:2013E00007F800F03DF9002010BD00000020024000B5014687B000220F2000F057F90F2086
:2014000000F04AF91248816B01221143816305A9684600F059FB00F07DFB0E49FEF7A4FE02
:2014200001220D4992070A600C4A401ECA604860002008618860084601F0A2FB002802D063
:20144000012007B000BD044801F0B5FBF9E700000010024040420F0054070020E7030000E2
:201460007047704710B5024800F0D4F810BD000074010020704770477047000010B504469D
:2014800000680168C943C90708D18168C943C90704D1012141602046FFF7E4FF2068016839
:2014A000C943890708D48168C943890704D4022141602046FFF7D4FF20680168C943490717
:2014C00008D48168C943490704D404214160204600F0C4F820680168C943090708D4816869
:2014E000C943090704D4082141602046FFF7C2FF20680168C943C90608D48168C943C906A5
:2015000004D4102141602046FFF7ABFF20680168C943890608D48168C943890604D4202116
:2015200041602046FFF7A8FF20680168C943490608D48168C943490604D44021416020465B
:20154000FFF799FF012002494007486110BD000000040140F8B5040005D025462035A87B26
:20156000002802D006E00120F8BD00206873204600F038F80220A8732068C26884466368B0
:20158000012B01D11E20824313486169814201D0124802401248A668024018463043676AA9
:2015A000266A3E433043A66A30431043012B03D12369E2681A431043074A914205D0A26947
:2015C0001143E2690243084610436146C8600120A8730020F8BD0000FFFF00003F1FFFFF4C
:2015E000FEF119FF10B50068084988420CD10848816BC20411438163002203210D2000F022
:2016000055F80D2000F048F810BD0000007C0040001002400223014610B520310A468B7375
:201620000D498C68CB049C438C600C689C430C6001680B695B085B000B610168CB6801243F
:20164000E404A343CB600068816849084900816001209073002010BD0004014070470000B8
:2016600010B50C48416B012211434163816B02041143816300221146501F00F017F8032155
:201680000022481F00F012F803210022081F00F00DF810BD00100240C106C90E01208840BF
:2016A000014908607047000000E100E010B501F075FF10BD02480168821511430160704753
:2016C00000700040F8B54749034601240020E403434D444A4031082B70D00EDC012B3DD083
:2016E000022B55D0042B19D1CB680326B602334059D0CF14BB4243D058E0102B6BD0202BE3
:201700000CD10B690969032501272D043F0429407E00B94203D199052CE02046F8BDB142D4
:2017200003D19907FAD53048F8BDA942FCD111688903F9D5116803200005014001200005A6
:20174000091A09D0091A05D0814201D12748F8BD2748F8BD2748F8BD2748F8BDCB689B079B
:201760009B0F0AD0022B0BD0012B0ED0032BF4D1096989050029D0DBF8BD00F0DBF9F8BDDE
:2017800011684907FBD52846F8BD00F0E3F9F8BDCB680C26334006D0082BF1D0042BF4D077
:2017A0000C2BE5D0F8BD00F0B5F9F8BD012292029342EAD0B342DBD0F8BDFFE7C96803235D
:2017C0001B031940EFD0012464036310A142D7D09942DAD0F0E7916B4902E4D4ECE700001C
:2017E0000024F400001002408890000020A1070000093D0040420F0080841E00F8B50446AF
:201800000078544D800672D5524E0027403EB06BC00004D4B06BA9050843B06301274E4805
:201820000168C90511D40168821511430160FFF7FBFC009005E0FFF7F7FC0099401A64280D
:2018400037D845480068C005F5D532680321090560680A400140914208D08103890F0329E3
:2018600004D13168890301D50120F8BD2A69032109040A4022D0084090421FD0207880069B
:201880001CD528692A6988430121C9040A432A612A698A432A612861C0050FD5FFF7C4FCCE
:2018A000009008E0FFF7C0FC0099411A2B48814201D90320F8BD28698005F3D561688803F0
:2018C000800F032805D132680005824301400A43326028690322616812041140084328613A
:2018E000002F04D0B16B012000078143B1632078C00705D0E868A168800880000843E860A1
:201900002078800705D5E8680C218843E1680843E8602078400706D5E86803218902884326
:2019200021690843E8602078000706D5E86803210903884361690843E8602078000606D5EF
:20194000E868032189048843A1690843E8600020F8BD00004010024000700040881300006C
:20196000F8B5054653480E460068C007C00FB0420AD25048016849084900314301600068DC
:20198000C007C00FB0426FD128784B4C800705D5E068F0218843A9680843E0602878C007C0
:2019A00052D06868022817D0032818D02168012818D08905002957DAE168890889000143E8
:2019C000E160FFF731FC69680746022912D003291CD0012926D033E021688903EAE72168BE
:2019E0008901E7E74907E5E7FFF71EFCC11B3348814223D8E0680007800F0228F4D123E07E
:201A0000FFF712FCC11B2D48814217D8E0680007800F0328F4D117E0FFF706FCC11B2748B7
:201A200081420BD8E0680007800F0128F4D10BE0FFF7FAFBC11B2148814201D90320F8BDA4
:201A4000E0680007800FF3D11A480168C907C90FB1420BD90168490849003143016000685A
:201A6000C007C00FB04201D00120F8BD2878400706D5E068072109028843E9680843E06053
:201A80002878000707D5E0680721C90288432969C9000843E06000F05DF8E168084A0906E8
:201AA000090F515CC840074908600020FFF7A0FC0020F8BD002002400010024088130000CB
:201AC0008C7A00088000002010B50F2202600C4AD3689B079B0F4360D368F02423408360EB
:201AE000D46807231B021C40C460D268D2081A40026104480068C007C00F086010BD000093
:201B00000010024000200240014800687047000080000020044805490068C968044A49053A
:201B2000490F515CC84070478000002000100240A57A0008044805490068C968044A8904BA
:201B4000490F515CC84070478000002000100240A57A000810B5184AD1680C2008400428A8
:201B60000BD0082810D00C2810D050680004410F0120C003491C884010BD1068C00601D568
:201B80000E4810BD0E4810BD0E4810BD88020E4B000F185C0902D368890F491CDB0301D57F
:201BA000084A05E01268D20601D5044A00E0044A5043FEF7D9FA10BD0010024000093D008A
:201BC0000024F40000127A009C7A0008F8B504460078F24DC0074AD0E8680007800F0228A4
:201BE00007D0E8680007800F032809D1E868C00306D5286880033AD56068002873D036E0CA
:201C0000012062680004824203D129680143296011E0052301211B0489049A422A6802D1B7
:201C20000A432A60F1E782432A602A6802400092286888432860606800280CD0FFF7F4FAAD
:201C4000064604E0FFF7F0FA801B64287ED828688003F7D50BE0FFF7E7FA064604E0FFF730
:201C6000E3FA801B6428F1D828688003F7D42078800741D5E8681F270007800F3F020128EE
:201C800007D0E8680007800F032809D1E868C00306D42868400717D5E068012823D113E07A
:201CA000E068002817D029680922914301432960FFF7BAFA064604E0FFF7B6FA801B02282B
:201CC000C4D828684007F7D568682169B84309020843686010E02868400840002860FFF7CC
:201CE000A3FA064605E090E0FFF79EFA801B0228ACD828684007F7D42078C00676D5E86834
:201D0000A74E0007800F0BD0A06900285DD02868FF21013108432860FFF786FA074644E063
:201D20002868800502D5A06900286ED0206A69683140884212D901F059FD0028AED1686809
:201D4000216AB04308436860686800E0BBE00002217F000A0906084368600FE06968B14325
:201D6000014369606868217F0002000A090608436860206A01F03AFD00288FD1206A410BA8
:201D80000120C003491C8840E96809060A0F8549895CC840844908600020FFF729FB25E08A
:201DA000FFF742FAC01B02288AD828688005F7D56868216AB043084368606868217F0002D6
:201DC000000A09060843686010E02968FF20013081432960FFF728FA064604E0FFF724FA5D
:201DE000801B02286FD828688005F7D420786F4E000723D560690028306910D001210843CC
:201E00003061FFF711FA074605E0C5E0FFF70CFAC01B022857D830698007F7D50EE0400807
:201E200040003061FFF700FA074604E0FFF7FCF9C01B022847D830698007F7D420784007D7
:201E400062D5A86B0027C00005D4A86B012109070843A863012756480168C90511D4016892
:201E6000821511430160FFF7DFF9009005E0FFF7DBF90099401A642825D84D480068C005CB
:201E8000F5D5FF20A2680130824203D131690143316111E001218902002A07D005231B0232
:201EA0009A4203D132690A433261EFE7326982433261306988433061A06800280FD0FFF734
:201EC000B3F9009007E060E0FFF7AEF90099411A3848814259D830698005F5D50DE0FFF7CF
:201EE000A3F9009006E0FFF79FF90099411A314881424AD830698005F5D4002F04D0A96BF2
:201F0000012000078143A963606A002842D0E9680907890F03293FD0012636060228286874
:201F200005D0B0432860FFF77FF904462FE0B0432860FFF779F9074604E0FFF775F9C01B37
:201F4000022822D828688001F7D4E16AA06AEA680843216BFD231B049A4311430843E86000
:201F6000286830432860FFF75FF9044604E0FFF75BF9001B022808D828688001F7D509E025
:201F8000FFF752F9001B022801D90320F8BD28688001F5D40020F8BD0120F8BD0010024032
:201FA00000E000008C7A00088000002040100240007000408813000070470068890050308E
:201FC000081800687047006889005030081802607047704770B50446006881688025C9042F
:201FE00000290BDAC068C00508D52046FFF7F1FF2168C8682840FF388238C8602068816812
:2020000089040BD5C068800508D52046FFF7D4FF2068C168054A29408918C1600120044901
:202020004004486101202034607070BD7FFDFFFF0004014070B5040005D0254620356878E4
:20204000002802D006E0012070BD00202870204600F042F8022068702168CA20486221686A
:2020600053204862204601F00CFCFF210028206803D0416204206870E5E78268154B1A4032
:202080008260226890686368A669184323693343184390602268E068106120680269238978
:2020A0001B041A4302612068C26880239A43C2602068C26C92089200C264E269606902438C
:2020C0002068C36C1A43C2642068416201206870002070BDBFFF8FFF10B5006808498842C1
:2020E0000DD1084801690122920411430161002203210220FFF7DAFA0220FFF7CDFA10BDFB
:202100000028004040100240FEB506460446203630780B46012842D001203070022070702F
:2021200020681D46002720358068002A39D0400655D5187801F092FB287801F08FFB1978F3
:202140009878090408435978DA780902120411430843297809060843D9690843596908439F
:20216000054699695868084300902168CA204862216853204862FF205A6A0130802182423B
:202180004AD122689368834393602268D0680840FF388238D060FFF747F8019029E00220CA
:2021A000FEBD400600D4DF70187801F05FFB0204587801F05BFB00020243987801F056FB6A
:2021C0000243D87800040243287801F04FFB00060243D8690243586902431546C1E7DF701D
:2021E000AAE7FFF721F80199411A7D20C00081422AD82068C068C007F3D02068C5612168B7
:202200000098486420688168FF2201321143816020688168120130E02068826801235B02F9
:202220009A4382602068C2680A401D495118C160FEF7FAFF01900EE0FEF7F6FF0199411AA7
:202240007D20C000814206D92168FF204862032070703770FEBD2068C0688007ECD5206848
:202260000562216800988864206881680122520211438160206881681201114381600948C3
:202280000268012149040A43026082680A4382602168FF2048620120707037700020FEBDC8
:2022A0007FFDFFFF00040140F8B505460446203528780B46012815D0012028700220687016
:2022C0005878002A10D001F0C9FA987801F0C6FAD8789E780004064358781978000249034D
:2022E000084316E00220F8BDC10603D5EF2108400A305870D87801F0B9FA0604587801F00E
:20230000B5FA00020643987801F0B0FA06431878400306432168CA204862216853204862F0
:20232000204601F0AEFA0027002811D110480640206846602068C16880229143C1602068D1
:20234000806880060CD4204600F08CF8002807D02168FF204862042068702F700120F8BD93
:202360002168FF204862012068702F700020F8BD3FFFFF00F8B506460446203630780D46CD
:2023800001280ED00120307002207070206800278068002A07D040061AD5287801F05EFABD
:2023A00017E00220F8BD400600D4EF70287801F05DFA0204687801F059FA00020243A8785D
:2023C00001F054FA0243E8780004024300920BE0EF702978A878090408436978EA7809028D
:2023E00012041143084300902168CA204862216853204862204601F044FA00281FD11849C7
:2024000000980840216808602068816801229204914381602969E868084321688A68104311
:2024200088602068C16880229143C1602068806880060CD4204600F015F8002807D02168AB
:20244000FF2048620420707037700120F8BD2168FF2048620120707037700020F8BD000063
:202460007F7F7F0070B504460068C168A0229143C160FEF7D9FE7D260546F60006E0FEF79D
:20248000D3FE401BB04201D9032070BD2068C0688006F4D5002070BD70B5040006D025463E
:2024A0004035687C0026002802D005E0012070BD2E74204600F032F802206874206801685F
:2024C000402291430160A168606822690843E16811430843616901220843A16952021140EF
:2024E0000843E1690843216A0843A16A084321680860A0690421000C0840616A08432168BE
:2025000048602168E06A08612068C16992009143C161666501206874002070BD00B500686B
:202520000C4985B0884212D10B48416B821411434163E020009002200190002103200390BD
:2025400002910491052069460007FEF7ABFD05B000BD00000030014000100240FFB581B0C1
:20256000044600266846068027464037787C01287ED100293CD0002A3AD0387C012877D0DA
:2025800001203874222078746665A163A287E287A664E6642663A686E6860120A368C0037B
:2025A000834205D1206803680125AD03AB4303600125A06A6D03A84207D123681868A8430E
:2025C0001860206803682B4303606368D81FFD3802D1A06800280ED020680168490603D4D0
:2025E0000168402211430160E06800281DD032E0012005B0F0BD3E740498134600900A46E2
:20260000204600F03DF9F4E7002201212046049B01F0A6F9002834D12068C168A06B421C33
:20262000A2630170E08F401EE087E08F0128EBD814E0002201212046049B01F091F90028B5
:202640001FD12068C068A16B0880A06B801CA063E08F401EE087E08F0128EAD8A06AA8421A
:2026600005D120680168012212031143016000E05CE0002201212046049B01F071F90028BE
:2026800001D00320B5E7E0680028206818D0C068A16B0880A06B801CA063E08F401EE08730
:2026A000A06AA84217D1002201212046049B01F057F900280AD0606D022108436065E0E7EB
:2026C000C168A06B421CA2630170E6E72068C0686946088008886168C81FFD380CD10121CA
:2026E000A068C903884202D04911884204D12068026840218A43026001207874A06AA842EE
:2027000011D120688168C943C9060CD4616D0222114361650168A94301602068016829438C
:2027200001603E7464E73E74002062E7022060E7FFB5054604464035687C81B0012872D178
:2027400000293CD0002A3AD0287C01286BD00120287412206874002666652163A286E28638
:20276000E664A664A663A687E6870127A06A7F03B84207D120680168B9430160206801689D
:20278000394301600121A068C903884205D120680168012292031143016020680168490628
:2027A00003D40168402211430160E0680028606808D0002820D0E08E01281DD026E00120EF
:2027C00005B0F0BD002802D0E08E012808D1206B411C216321680078C860E08E401EE08666
:2027E000E08E002820D0002202212046049B01F0B7F8002815D1EAE7206B21680088C860C6
:20280000206B801C2063E08E401EE086E08E00280AD0002202212046049B01F0A1F8002870
:20282000EAD00320CCE729E0A06AB84205D12168086801221203104308600022022120468E
:20284000049B01F08DF82027002807D1012280212046049B01F084F8002803D0606D3843A3
:202860006065DEE7A068002803D12068C16880680090012068742E740020A1E702209FE7B2
:20288000F8B5044600276846078026464036707C012802D0707C22287ED100290CD0002A68
:2028A0000AD0002B08D0307C012875D001203074707C012802D003E00120F8BD3220707486
:2028C0006765A263A387E3872163A386E386A764E7640125A06A6D03A84207D120680168D4
:2028E000A9430160206801682943016020680168490603D401684022114301600121FF20F5
:20290000E268C90205308A42616866D1002904D081420CD1E08E012809D1206B21680088F7
:20292000C860206B801C2063E08E401EE086E08E002843D1A06AA84246D1206801680122CA
:202940001203114301603FE02068C068A16B0880A06B801CA063B0E0002202212046069BC4
:2029600000F0FEFF00287DD1206B21680088C860206B801C2063E08E401EE086E08E0028BE
:2029800008D1A06AA84205D1206801680122120311430160002200E0CCE001212046069BDF
:2029A00000F0DEFF00287FD12068C068A16B0880A06B801CA063E08F401EE087E08E00281A
:2029C000CAD1606800287BD1002201212046069B00F0C6FF002867D1B6E7002904D0814263
:2029E0000BD1E08E012808D1206B411C216321680078C860E08E401EE086E08E002845D118
:202A0000A06AA84205D1206801680122120311430160002201212046069B00F0A1FF00280B
:202A200042D12068C068A16B087046E0002202212046069B00F094FF002835D1206B411C44
:202A4000216321680078C860E08E401EE086E08E00280AD1A06AA84207D120680268012146
:202A6000090300E020E00A430260002201212046069B00F075FF002816D12068C268A06B40
:202A8000411CA1630270E08F401EE087E08E0028CCD16068002813D1002201212046069BDD
:202AA00000F05EFF002802D00320F8BD08E02068C168A06B421CA2630170E08F401EE0874B
:202AC000A06AA8420FD1002201212046069B00F047FF002802D0606D02210EE02068C06819
:202AE000694608800888012280212046069B00F037FF002804D0606D202108436065D3E74A
:202B000001207074A06AA84211D120688168C943C9060CD4616D0222114361650168A9434D
:202B2000016020680168294301603774C4E637740020BAE70220B8E70422044904280869E4
:202B400002D09043086170471043FBE700E000E0094910B5401E884201D9012010BD074C61
:202B600060610321081F00F019FD0020A06107202061002010BD0000FFFFFF0000E000E0D0
:202B800070B5040005D025462035687D002802D006E0012070BD00202875204600F00AF84F
:202BA00002206875211D206802F048FA01206875002070BD70470268D36801210B43D360D2
:202BC000006802680A43026000207047704770B50446006801690025C9438907002915DBCB
:202BE000C168C943890711D4E91E016101202075206880698007204602D0FFF7E7FF04E01C
:202C000000F078F8204600F076F8257520680169C943490717D4C168C943490713D404212C
:202C2000C943016102202075206880698005800F204602D0FFF7CAFF04E000F05BF8204666
:202C400000F059F8257520680169C943090716D4C168C943090712D40821C94301610420BB
:202C600020752068C0698007204602D0FFF7AEFF04E000F03FF8204600F03DF825752068F4
:202C80000169C943C90617D4C168C943C90613D41021C9430161082020752068C069800587
:202CA000800F204602D0FFF791FF04E000F022F8204600F020F8257520680169C943C90703
:202CC00008D1C168C943C90704D1891E0161204600F012F820680169C943490609D4C16885
:202CE000C943490605D44021C9430161204600F00CF870BD7047704710B5006801218907FD
:202D0000884201D1FEF75CFB10BD7047704770B5044600680168FF2221329143016020681F
:202D20008168490849008160206881680025490600290ADA8168402291438160606E002847
:202D400003D08563606EFDF717FF5A20055321680F20086220206034A072002070BD704702
:202D6000F8B502680446D06911680607360F07D1830605D58B0603D5204602F01BFBF8BD27
:202D800095682023002E65D0EE07F60FFF2721370F4037435ED0C70706D0CF0504D50127A8
:202DA0001762E26E3A43E266820708D5EA0706D0276802223A62E26E04273A43E266420780
:202DC00008D5EA0706D0256804222A62E26E02252A43E266020709D50A461A40324305D009
:202DE000236808221A62E36E1343E366E26E002AC5D0800604D5880602D5204602F0DAFAB3
:202E0000E06E000703D42068806840061CD5204602F0B8FA20688168490611D582684021E4
:202E20008A438260606E00280AD01D498163606EFDF7C8FE0028A2D0606E816B8847F8BD69
:202E40002046FFF78CFFF8BD2046FFF788FF0020E066F8BD2646C7026036002F0ADA6D028B
:202E600008D50120000510627372B3722046FFF74DFFF8BD050605D50D0603D5204602F04E
:202E8000E7FBF8BD4006FCD54806FAD52046146840218C431460737200F078F9F8BD0000E6
:202EA000ED52000870B5040005D025466035687A002802D006E0012070BD0020287220469D
:202EC00000F026F82420687220680168490849000160606A002802D0204602F071F92046EE
:202EE00002F0A8FA0128E7D0206841680922D20291434160206881682A22914381602068BF
:202F00000168012211430160204602F0BFF970BDF0B506460068294985B088424BD12848DD
:202F2000816B01225204114381630C20009002200190032003900024042705200294694616
:202F400004970007FEF7AEF81E481F4D81C51020802791C52C606C60AC60EC601A48143D8C
:202F6000FDF7BCFF002803D07A2118A002F0DEFB3566AE621348144D143040352860AC60D5
:202F8000EC606C61AC61EC612F6104202C6268602846FDF7A3FF002803D08B210BA002F06C
:202FA000C5FB7566002203211C20AE62FEF77EFB1C20FEF771FB05B0F0BD000000440040F3
:202FC0000010024044000240DC0400202E2E2F5372632F75736172742E630000F0B5034689
:202FE00060339C7A202C44D100290BD0002A09D0012584682D03AC4206D10669002E03D148
:20300000CE0701D00120F0BD1E7A012E31D001261E724165014640310A834A83FF27AC42F1
:2030200004D10269002A12D1134A0EE07F22002C08D001252D07AC420AD10469002C04D0C3
:203040003F2202E00469002C01D08A8300E08F830021C16622229A72197201688A683243D1
:203060008A6000680168FF222132114301600020F0BD0220F0BD0000FF01000038B5044699
:203080001848844222D120464030018B408B081A00900ED014490A78002A18D013496A465D
:2030A0000846803003F003F80021114A084603F043F82046FFF72BFE40220C492046FFF794
:2030C0008DFF2068016810221143016038BD01220A700649401E491C009008466A467F30AB
:2030E000E0E700006C04002078000020C4060020C56D0008F8B5054604466035687A2028BC
:203100003BD100290BD0002A09D00123A0681B03984206D12069002803D1C80701D001205B
:20312000F8BD287A012828D00120287220464030E164028242820026E66621206872216EDD
:203140000F48C862216E0F480863216E0E484863206E134686632768E16C3A462832206EF9
:20316000FDF740FF2168402008622E72206881688022114381600020F8BD0220F8BD000035
:203180004B5300087B5300080153000810B5044900200870034A014602F0CEFF10BD00008D
:2031A00004000020B13700087047FEE710B50248FEF764F910BD00007401002010B501686E
:2031C000CA69D243D20603D410220A62FFF756FF10BD00001CB51A48184901600021032207
:2031E0000164920781604260C163C1600162012241620261FF22C162C23282620163416359
:203200008161042281634261C161FDF7C5FB002803D055210BA002F089FA0E4800900120B1
:203220000003019069460648FDF76CFB002803D05E2104A002F07AFA1CBD000000240140E0
:20324000140100202E2E2F5372632F6164632E63000000000000044808B50848016B0122B6
:2032600011430163006B03211040009000220B20FEF71CFA0B20FEF70FFA08BD001002408F
:2032800000B585B0142206496846FCF7B3FF0021684603F0D9F80349086005B000BD0000B3
:2032A000787A00087C000020F0B5264887B0C26A04210A43C262C26A0A400592C16A01240F
:2032C0002143C162C16A21400591C16A02252943C162C06A1C4E284005273F07059000223F
:2032E00031463846FDF79AFF0194002400960294694638460394FDF7D5FEA803134E009040
:203300006946019602943846FDF7CCFE02941048104C0090694601962046FDF7C3FE20201A
:2033200000906946019602952046FDF7BBFE002203210720FEF7BAF90720FEF7ADF907B07F
:20334000F0BD0000001002401109000000001110101000000004005010B5174815490160DC
:20336000E121C9004160002181600161416181610122C161C2600162FDF7A6FF002803D09B
:203380004C210EA002F0D2F900210B48FDF752FF002803D0532109A002F0C8F90021064862
:2033A000FDF76DFF002803D05A2104A002F0BEF910BD0000005400408C0700202E2E2F53F8
:2033C00072632F6932632E630000000010B50C480A49016007225202826000214160016209
:2033E000084A416242618162FEF7B4F8002803D0482105A002F09AF910BD0000007C00409A
:2034000074010020FFFF00002E2E2F5372632F6C7074696D2E63000070B5314D90B02F4826
:20342000286000212846FEF7C8FD2E4EB04253D000247F206C60A8602C616C61AC61FF200D
:20344000EC61E8602846FEF7F5FD002803D04F2125A002F06BF9684604704470847003949B
:20346000012269461E480494FEF784FF002803D05B211DA002F05AF9012568460575457583
:203480008575C4752A4605A91548FEF70DFF002803D0652114A002F049F968460476447632
:2034A0008476079409940A940B940C9408A80D940576FF2001300F90012206A90848FEF72B
:2034C00023FE002803D0772107A002F02FF9324600210348FEF777FD10B070BD00280040D5
:2034E000F0000020F23200002E2E2F5372632F7274632E630000000010B50F480D49016009
:20350000FF210531416000218160C16001614161C161012201625202416282618162072100
:20352000C162FEF7B9FF002803D04F2103A002F0FDF810BD00300140140400202E2E2F5372
:2035400072632F7370692E630000000010B50D480B4901604B21C901416000218160C160C1
:2035600001618161C1610C22016242614162FFF799FC002803D0512103A002F0D7F810BDE5
:20358000004400406C0400202E2E2F5372632F75736172742E630000704700008307FF2213
:2035A000DB0E9A408907090E994000280BDA0007000F0838830808489B001818C3699343BD
:2035C0000B43C3617047830804489B001B181868904308431860704700ED00E000E400E0BF
:2035E00010B500F091FB10BD10B500F0BBFC10BD10B500F023FD10BD10B500F079FD10BDEA
:203600000248C16B7D20C00008470000107A000830B5002191B00D4A084602F08DFD40202E
:20362000109010AA69460A4802F021FD109800280AD000246D4604E0295D06A003F07CFD22
:20364000641C10988442F7D311B030BD59360008E80300202563000010B540200F4C90B01A
:20366000014660606846FCF7DEFD40210C48FCF7DAFD221D69460B4802F0F9FC6068002830
:2036800006D0C1B20848026B6846904710B010BD0021064A084602F04FFDF7E70400002013
:2036A000D802002044070020107A000801360008F8B507460B481D46406B14460E46804704
:2036C0006A4639460848009602F0F1FC074801218470C57041700021054A084602F02CFDD2
:2036E000F8BD0000107A0008E8030020040000201136000810B50648406B8047054903200F
:2037000048700021044A084602F016FD10BD0000107A0008040000205936000810B5064802
:20372000406B80470549022048700021044A084602F002FD10BD0000107A000804000020BE
:203740005936000810B50021034A084602F0F4FC024801F0EFFC10BD996D00080C00002042
:2037600010B50648406B80470549042048700021044A084602F0E0FC10BD0000107A0008B0
:20378000040000205936000810B50648406B80470549052048700021044A084602F0CCFC47
:2037A00010BD0000107A0008040000205936000838B50B4C2078002811D1402009490090C7
:2037C00008466A46803002F052FC0098002806D00121217082B203490348FFF78BFC38BD75
:2037E00004000020180300206C04002070B517490023CA681206120F18D18A6B154CD500B3
:20380000134A02D51268224009E08E6B01252D072E438E6312688E6B2240AE438E63A2425F
:2038200004D103218903884200D101230A48016849084900194301600068C007C00F98425A
:2038400001D0012070BD002070BD00000010024000700040001800000020024001090A224A
:2038600000075143000F4018C0B27047002102E00A38C0B2491C0A28FAD20907090E084391
:20388000704770B504460068C168490613D40021C943C160FDF7C8FC7D260546F60006E06B
:2038A000FDF7C2FC401BB04201D9032070BD2068C0684006F4D5002070BD000010B50248C4
:2038C000FEF788FB10BD0000F000002070B5092000F0C9FC0546062000F0C5FC040407203F
:2038E00000F0C1FC00020443082000F0BCFC0443200A0102184A611A514380315043090AC6
:2039000046180021092001F0D7FA3B2000F0ABFC4024204301463B2001F0CEFA3B2000F0DE
:20392000A2FC8006FAD40D4800F0B0FD3B2000F09AFC204301463B2001F0BEFA3B2000F0C9
:2039400092FC8006FAD42946092001F0B5FA304600F09CFD70BD0000093D000000A1BC334B
:20396000F8B51D4616460F460446FDF75DFC314626464036009000291ED043E0681C1BD05D
:20398000002D05D0FDF750FC0099401AA84213D920684168E0229143416020680268402121
:2039A0008A43026023E021680A6882430A6021680A6802430A601FE0206881683846884348
:2039C000DCD124E0681C1DD0002D06D0FDF72CFC01460098081AA84214D920684268E0219B
:2039E0008A434260206801684022914301600120A16A40038142D6D001207074002030742F
:203A00000320F8BD2068816838468843DAD00020F8BD704701494860704700001400002001
:203A20000120704710B50348406840688047801C10BD000014000020014800797047000071
:203A40005C060020F3B501460020684F85B000290BD001294FD10024786C2546072853D0D6
:203A6000082854D0092857D154E0F869FCF7A2FD064602910698FCF79DFD04460D4630207B
:203A800000F0F1FB4007800F02D00020584901E00020014600900191272000F0E4FB40071A
:203AA000400F398C401C4018FCF784FD4F4F2037BA78012A21D000224D4BFCF7BFFB019B84
:203AC000009AFCF7BBFB22462B46FCF7B7FB3A79012A15D000221346FCF7B0FB0322FCF731
:203AE0003FFD3246029BFCF7C3FC0022414BFCF757FC03F069F807B0F0BD00221346DCE7D9
:203B0000002201239B07E7E700243B4D04E000243A4D01E03A4D0024BF6C0120B840FCF7F1
:203B200035FD02460B4620462946FCF7A1FC02460B4600202E49FCF79BFC2C4E0446403661
:203B40000D46F089FCF736FD00222E4BFCF776FB22462B46FCF724FC03910290307B00288F
:203B600000D00220381A8000FCF724FD019100900698B900C000401AB17C09014018317C9E
:203B8000002900D01421401A1C30FCF713FD019B009AFCF76DFC02F02FFB717B091D484303
:203BA000FCF7F4FC002207460E461346FCF72EFD02D23846314601E0002001460022124B58
:203BC000FCF73CFB22462B46FCF7EAFB039B029AFCF734FB0022074BFCF7E2FB0B4A0C4BBE
:203BE000FCF72CFB02F088FB85E700005C0600200000F03F00408F408084FE4080840E4175
:203C000080841E4100001140000020402B8716D9CEF7EF3F00207047F8B51E4D1E4928601E
:203C20002846083001F048FA28461B49103001F043FA28461849183001F03EFA68680168F2
:203C40000120884700F066FBFFF740FE002000F095FC686881682846203088470F4E002487
:203C600060002718F05D00F051FCB8198178407801F022F9641CE4B2102CF1D3002000F067
:203C800045FC074900200871686840688047801CF8BD0000140000206141000830790008DB
:203CA0005C0600207047000010B50248FFF7B2FE10BD0000600000207047FFB581B01D46CA
:203CC00017460E460124019800F020FC304600F0DDFB052000F052FC0120FDF7AAF901F01F
:203CE000D5F9064606E0019800F0F2FAB84201DD002404E0304601F0DDF9A842F3D300F092
:203D000005FF204605B0F0BDF8B5002069460870904C2079012808D0022859D18E4801F052
:203D20002FFA607901287DD104E16079002818D001284DD14021122001F0BEF8122000F099
:203D400092FA694608700878824D80064035002869DA2021122001F0AFF8A87D00287BD058
:203D60008AE07C4D402620352879012838D13F2000F079FA694608700878800730D40B2162
:203D80003E2001F099F810213F2001F095F87248083001F0F5F9A87900281AD00D2000F014
:203DA00062FA304301460D2001F086F86A48103001F0C0F9684808380068002803D00069F9
:203DC000002800D08047002028746874A0876087F8BD6148103001F0D3F900202071E9E7A2
:203DE000618F5E4F00290AD1A08F002807D1A878002832D0322000F036FA6087618FA08F31
:203E0000091AC9B2C01900F05BFA608FA0875248083001F0B5F9A879002824D00D2000F005
:203E200022FA01E08AE032E0304301460D2001F043F84948103001F07DF947480838006887
:203E40000028C0D08668002EBDD01222AA56618F00234248B047B6E70CE03E4801213A309E
:203E600000F02EFACAE7002020713B48103001F087F9E2E7002020713748083001F080F9F9
:203E80003548083800680028A2D000695EE0192000F0E9F92F4E40B260363070010605D52B
:203EA000C043401C0006800E474201E00006870E1A2000F0D8F92A49A268002F09DA8A42B4
:203EC00003D901110818C01907E001110818C01907E08A4203D9011108189D3802E001117F
:203EE0000818A4386884132000F0BDF93071102000F0B9F901460D2000F0DEFF3179174844
:203F000000F0DEF9A87D002800D120711248083001F036F91048083800680028B4D08468E1
:203F2000002CB1D000232222F356AA5E31790B48A047F8BD0821122000F0BEFF00202071CA
:203F40000548083800680028F3D000680028F0D08047F8BD5C0600201C0000205C05002076
:203F600040DD4A1F70B5304C25462379E61F6A79698FA88FF93E2035012B11D0022B28D13D
:203F8000002A26D10A1A23469B8FE97F304618188A4243DD00F0BAFFA08FE97F40183BE09C
:203FA000002A17D0012A14D1204801F0E9F88021122000F081FF002020711C48103800689E
:203FC000002806D0C068002803D0804718A003F0B3F870BD002908D1002806D1A87800282D
:203FE0000FD0322000F03FF96087618FA08F0A1AA97F8A420BDD801900F062F9A08FA97F27
:20400000CCE7094801213A3000F05AF9EDE7D1B2801900F055F904E0A08770BDD1B200F0F4
:2040200075FF608FF8E700005C06002024000020727854696D654F75740A0D0070B5294D15
:20404000294C294608462A7940304979C07C012A04D0022A01D1002902D170BD002916D0E8
:204060000129FAD10128F8D10221122000F024FF20680028F1D040690028EED01C2000F0C5
:20408000F2F8216880064969800E884770BD154C012620342674607C0028F7D11248183007
:2040A00001F06EF86674112000F0DDF840084042A0741B2000F0D7F806021C2000F0D3F802
:2040C0000643300A0102094A711A514380315043090A401868630C2000F0C5F840092076B6
:2040E00070BD00005C06002014000020093D000010B51248407900281FD001281DD112205F
:2041000000F0B1F80E4CC0070BD00521122000F0D3FE2068002810D0816900290DD0012050
:204120000AE00421122000F0C7FE2068002804D08169002901D00020884710BD5C060020E3
:204140001400002005484079002806D103482030017C002901D10121017470475C06002043
:20416000F8B52E4D287901282BD0022828D100F0D1F8FFF7ABFB002000F000FA284E002436
:2041800060002718F05D00F0C1F9B8198178407800F092FE641CE4B2102CF1D3002000F061
:2041A000B5F91E484030007F00F016FA002028711C480068002803D04068002800D0804715
:2041C000F8BD6879002816D1144E0024203634747474AC876C870B213E2000F06DFE102192
:2041E0003F2000F069FEB07901280AD00D482C71183000F0C5FF0B4800680028E0D0C06834
:20420000DBE70D2000F02FF8402101430D2000F053FE0448183000F08DFFECE75C06002020
:20422000307900081400002070B50025012000F06DF9FF21112000F03FFE052000F09EF9AE
:2042400000240120FCF7F5FE2C2000F00CF8C007C00FA040641C0543E4B2202CF1D300F01F
:2042600055FC284670BD08B50122694600F004F86846007808BD0000F8B50D464006400E58
:2042800069460870052614463607002210213046FCF7C4FF0027FF433B46012269460748AB
:2042A000FEF746FA3B46224629460448FEF756F9012210213046FCF7B1FFF8BD1404002087
:2042C0000A4610B501460020FFF7D6FF10BD000010B5002804D0012808D00020C04310BD18
:2042E0001120FFF7C0FF4008404210BD074808498068884204D91B20FFF7B5FF9D3810BD8B
:204300001B20FFF7B0FFA43810BD00005C06002040DD4A1F10B50524240700220121204649
:20432000FCF77CFF0120FCF784FE012211462046FCF774FF0620FCF77CFE10BD73B5394C26
:20434000064661790020002902D0012966D128E00020A0876846334D017961872035A87867
:20436000002809D0322000F0A7FD68460279501E3F2806D8EA770AE0012101A800F0C6FDB1
:20438000F3E73146284802F03FF82020E877E97F304600F0BBFDA08FE97F4018A087A06AEE
:2043A0003CE02048BE254030407D012821D03320FFF759FF2840411C332000F07DFD1D21EE
:2043C0003B2000F079FD68460179164860300171222000F071FD00210E2000F06DFD00212A
:2043E0000D2000F069FD0120FFF73DFF40070AD00EE03320FFF737FF28400146332000F067
:204400005BFD1921DCE700F095FB0120FCF711FE68460179304600F079FDA06D00F09EFB0A
:204420007CBD00005C0600205C05002070B50121C90205242407CD10032809D00022204671
:20444000FCF7ECFE012229462046FCF7E7FE70BD01222046FCF7E2FE0022F4E770B50A49B1
:204460000A7882420ED0087001210524C9022407CD1000222046FCF7D1FE00222946204641
:20448000FCF7CCFE70BD00005C00002070B505461048114E856031462846FBF765FE044626
:2044A00030466043281A0002711040183146FBF75BFE210244182002010E062000F0FCFC46
:2044C0002004010E072000F0F7FCE1B2082000F0F3FC70BD5C060020093D000070B50D4698
:2044E000044600F013F8002C04D0012C0AD12946232005E004488078002803D129463220D7
:2045000000F0DAFC70BD00007C06002010B504460120FFF7A8FE0106174801D5012100E0FC
:2045200000214171C9B2A14224D04471012C0FD000F0ECFA0120FFF796FE4106490E012055
:2045400000F0BAFC0021402000F0B6FC30210EE000F0DCFA0120FFF786FE802101430120EC
:2045600000F0AAFC0021402000F0A6FC0021412000F0A2FC10BD00005C06002070B5154CAD
:20458000050015D06068016801208847606801690020884760684169284688470120FFF729
:2045A00062FEC108C9002943012000F085FC70BD0120FFF758FEC108C900012000F07CFC56
:2045C0006068016901208847606801680020884770BD00001400002010B504460120FFF712
:2045E00095FF0548002C047701D0342100E01221392000F061FC10BD9C06002070B5044656
:204600000920FFF730FE06464D20FFF72CFE0546F0200643F0092AD0112C02DD0720054352
:2046200002E0ED08ED002D1DE843400703D0022C0CDA02240DE0052C01DA052402E0142CA9
:2046400000DD142431090901641F05E0112C00DD112431090901A41E2007000F01430920A1
:2046600000F02AFC29464D2000F026FC70BD0020C043844201DA044602E00E2C00DD0E24D0
:2046800031090901641CE7E7F8B5754C064660790027002802D0012825D125E0704D402093
:2046A0002035AF79FFF7DFFD8107890F40200C3100F002FC4120FFF7D6FD3E2108400146E8
:2046C000C131412000F0F8FB3520FFF7CCFD8006800EA8771E210D2000F0EEFB002028745C
:2046E0006874A08760877DE05D4D4035687D012825D03320FFF7B7FDBE210840411C33207D
:2047000000F0DAFB1D213B2000F0D6FB606C09287ED23120FFF7A7FD4106490E312000F063
:20472000CBFB0021302000F0C7FB606C030001F028F80910171E252C333D3D3D4100332093
:20474000FFF791FD41210143332000F0B5FB1921D9E748212F2000F0AFFB4249A06821E05C
:2047600044212F2000F0A8FB3F49A0681AE044212F2000F0A1FB3D49A06813E044212F20F3
:2047800000F09AFB3A49A0680CE044212F2000F093FB3849A06805E044212F2000F08CFB52
:2047A0003549A0684018FFF771FE03E040212F2000F082FBE87CAF7D012833D01F21112089
:2047C00000F07AFB4020FFF74EFD8106890E402000F072FB00210F2000F06EFB00210D2001
:2047E00000F06AFBFF2101312448FBF71CFD01202071002E06D03146214800F06DFC204844
:2048000000F098FC6079002816D0002F23D000E001E0052020E03120FFF725FD80210143D7
:204820003120C5E71D21112000F046FB4020FFF71AFD33210140CAE70520FFF79FFE002F41
:2048400008D10F48E16A083000F046FC0C48083000F070FCF8BD0620FFF790FEF8BD000077
:204860005C060020821E0000B4280000043D00005E510000127A0000C6A200005C050020D5
:2048800024000020FFB587B017460C460546139EFFF73CFE11999848090A0691002D04D0D9
:2048A000012D7AD1022C7AD9FEE7C761054644611098A8619048203086701499C1701599A6
:2048C00001711899417119998171119828843846FBF770FE07460B4601913A46002087498C
:2048E000FBF7C6FD0322FBF73BFE049005911298FBF760FE059B049AFBF752FD0022804B23
:20490000FBF74EFDFBF764FEE8623A4600207D49019BFBF7ADFDFBF75BFE85B2290A022047
:2049200000F0CAFAE9B2032000F0C6FA2046FBF7D3FF0146122000F0BFFA1098FBF7CCFFA4
:204940000146132000F0B8FA2520069900F0B4FA1198C1B2262000F0AFFA002E01D0149912
:2049600000E0FF21322000F0A7FA3020FFF77BFC6F210840002E01D0002100E080210843D3
:20498000159909010143302000F096FA3120FFF76AFC4021014331209FE0A0E0FFE7564825
:2049A000E41D554D8764446440350A9868731198E8812E74149868741598A8741698E874C0
:2049C00017982875189868751998A8750C2F01D90C2702E0062F00D20627072C02D0082C99
:2049E00002D003E00B2F45D00C2F43D0002028731D20FFF738FC0A99200149000843304378
:204A0000C1B21D2000F058FA1E20FFF72CFC08210840390108431599890008431299890597
:204A2000890F0843C1B21E2000F046FA2620FFF71AFCF7210840297BC9000843C1B226208F
:204A400000F03AFA1298C1B21F2000F035FA2020069900F031FA1198C1B2212000F02CFA4A
:204A6000002E03D02220149900F026FAE87C012802D00DE00120BAE74420FFF7F4FB80213E
:204A80000143442000F018FA297D242000F014FA092C02D00321362010E017481A49806869
:204AA000884205D90221362000F006FA642104E00221362000F000FA7F213A2000F0FCF93A
:204AC000062F0ED03120FFF7CEFBC108C9003120C91C00F0F1F90A21372000F0EDF90BB0FE
:204AE000F0BD3120FFF7BFFBC108C9003120491D00F0E2F90C21EFE75C0600200000F03F40
:204B000000408F4080847E4140DD4A1F10B5074800F036FB0548083800F032FB0020FFF748
:204B20002DFD03490020087110BD0000240000205C06002010B5074800F022FB0548083825
:204B400000F01EFB0120FFF719FD03490020087110BD0000240000205C06002010B501469B
:204B6000254800F0B9FA254C6079002802D001282CD119E04020FFF776FB8107890F40207B
:204B8000103100F099F94120FFF76DFB3E210140412000F091F93520FFF765FB8106174887
:204BA000890E2030817711E014484030C07C012815D0F721112000F07FF94020FFF753FBBA
:204BC0008106890E4020403100F076F902202071094800F0AFFA0320FFF7D0FC10BDF52122
:204BE000112000F069F94020FFF73DFB33210840014640314020E7E71C0000205C06002064
:204C0000FFB581B01E460C460C9F0A9D0198FFF77DFC76484068C168204688473A0A0199FD
:204C200073480092002908D0012973D12246044640342270022E57D9FEE704730399466101
:204C4000C56101616A49078420310D9A8A700E9A0A71119A4A71129981620398FBF7AAFC52
:204C60000022644BFBF704FCFBF7B2FC84B2210A042000F021F9E1B2052000F01DF9284616
:204C8000FBF798FC0B46024600205B49FBF7F0FBFBF79EFC84B2210A022000F00DF9E1B2BC
:204CA000032000F009F92520009900F005F9F9B2262000F001F93020FFF7D5FA6F2108404B
:204CC0000D99002901D0002100E0802108430E9909010143302000F0EFF83120FFF7C3FA27
:204CE00040210143312071E0F61D466485640B996173E7810D9921740F99E174109A22756E
:204D00000E9AA274119A6275129A82650C2D02D90C2503E05CE0062D00D20625072E02D025
:204D2000082E02D003E00B2D06D00C2D04D000202073012902D00DE00120F9E74420FFF776
:204D400092FA80210143442000F0B6F8217D242000F0B2F81D20FFF786FA0B993001490093
:204D600008430D990843C1B21D2000F0A5F81E20FFF779FA0B210840290108430E998900FA
:204D80000843C1B21E2000F097F82620FFF76BFAF7210840217BC9000843C1B2262000F03E
:204DA0008BF82020009900F087F8F9B2212000F083F8062D0ED03120FFF755FAC108C90098
:204DC0003120C91C00F078F80A21372000F074F805B0F0BD3120FFF746FAC108C900312093
:204DE000491D00F069F80C21EFE70000140000205C06002080844E4080847E4130B50D46B6
:204E00007D211446C90089B04C43FFF73FFB00200790069003900590019004904B200521AE
:204E2000800100230291009008941A4629461846FFF7E6FE3120FFF716FABF21014031203F
:204E400000F03AF8F021402000F036F8A021412000F032F82146074800F03EF90649022017
:204E60000871044800F066F90320FFF787FB09B030BD00001C0000205C0600207047000068
:204E800010B50C4C6079002812D0012810D1FA21112000F011F84020FFF7E5F9810889007D
:204EA000402000F009F8032020710720FFF766FB10BD00005C06002013B5012201A900F09B
:204EC00001F81CBDF8B50D468021084369460870052614463607002210213046FCF79EF9D8
:204EE0000027FF433B46012269460748FDF720FC3B46224629460448FDF71AFC0122102195
:204F00003046FCF78BF9F8BD140400200A4610B501460020FFF7D6FF10BD10B501F0A2FE4D
:204F200010BD10B501F088FA10BD000030B5284899B001680324E402A143C21489180160CF
:204F4000FCF7B8FB23480169A143016106200090FF2001300290002410200994012504904D
:204F600003956846FCF732FE002800D0FEE70F2014901694179400211595189414A8FCF79D
:204F8000EFFC002800D0FEE7AA200D900820109080021290C0000E900320800413900DA899
:204FA000FCF72CFC002800D0FEE7FCF7ADFD7D21C900FBF7D9F8FDF7CBFD0420FDF7BCFDA5
:204FC00003210022081FFCF771FB19B030BD00000070004040100240104801688215114361
:204FE0000160C1680E4A1140C16001680D4A11400160816849084900816001680122920465
:2050000091430160C168FD2212049143C160002101610549C0038860704700000010024083
:205020000C40FF88F6FFF6FE00ED00E010B50248FDF7CDFD10BD00005407002070B5026843
:2050400001239B070F4C104D984203D0A04201D0A84203D17026B2434E683243984203D051
:20506000A04201D0A84204D103231B029A43CB681A4302608A68C26209688162012141617E
:2050800070BD0000000801400014014010B5084CEFF30580002802D002F0C0FA01E002F04C
:2050A000B7FA034948432146FBF75EF810BD0000E80300000020704738B50091044600233F
:2050C0007D211A46C90002A002F0C8FB606038BD54696D65720000007CB505467D20C00023
:2050E00048437D21C900FBF73FF8EFF305816C68002912D000210246009101AB0921204618
:2051000002F0EEFB0198002803D00120084900074860284600F034F87CBD0021C9430246C7
:20512000009100230421204602F0DAFBF1E7000000ED00E01CB50446EFF30580002811D039
:2051400002F06CFA02460020009001AB0621606802F0C6FB0198002803D0012007490007A5
:2051600048601CBD02F054FA02460020C043009000230121606802F0B3FB1CBD00ED00E020
:205180001CB54068EFF3058100290ED000210A46009101AB082102F0A3FB0198002803D02C
:2051A00001200649000748601CBD0021C943002300911A46032102F093FB1CBD00ED00E06C
:2051C00010B5818CC90707D001684A6801235B049A43836A1A434A60818C890707D5016805
:2051E0004A6801231B049A43C36A1A434A60818C490707D501684A6801239B049A43036B47
:205200001A434A60818C090707D501684A680123DB039A43436B1A434A60818CC90607D527
:205220000268916801231B039943836B19439160818C890607D501688A6801235B039A4380
:20524000C36B1A438A60818C490612D503685A6801210905046C8A4322435A60026C8A42A3
:2052600007D10268516803235B059943436C19435160818C090607D501684A680123DB04FF
:20528000806C9A4302434A6010BD0000F8B500260446C666FBF7C8FF054620680068124FEB
:2052A000000709D501212B46002249052046009700F001FA00280DD12068006840070BD501
:2052C00001212B46002289052046009700F0F3F9002801D00320F8BD202060346072A07229
:2052E00026720020F8BD0000FFFFFF0110B5806A0022014640314A834A82FDF730FD10BD33
:2053000070B5846A25466035687A0026212808D120688068000604D552200653204600F0E0
:2053200040F8A87A222808D120688068400604D55A200653204600F025F8E06E1021084351
:20534000E0662046FDF70BFD70BD10B501460968806A096889060DD4002252210A520168D6
:205360008A6880239A438A600068016840221143016010BDFDF70AFF10BD10B5806AFDF7AF
:2053800013FF10BD01680A68FF2321339A430A6001688A68520852008A60202160308172E1
:2053A000704701680A68C0239A430A60202160304172704770B50246403201466031938B21
:2053C0008D7A0C460168222D05D08869082210438861022070BD496A01268568360389B206
:2053E000B54202D10569002D0BD01940436D5D1C45651970518B491E0904090C518307D0A8
:2054000015E0456D19402980416D891C4165F1E701680A68FF2321339A430A6001688A681F
:20542000520852008A602021A172FDF727FE002070BD0000FEB50446016880682269E369F7
:2054400010436269102700261A4310430A683546754B1A4002430A60206841680322120300
:205460009143E26811434160704A2168A069914201D0226A10438A680B231B029A430243EB
:205480008A606B4A21686B4891420CD1C0688007800F06D001283DD0022839D0032820D1E8
:2054A0001EE001271DE0644A91420AD1C0680C2108402BD004282DD0082829D00C2810D16E
:2054C0000EE05A4A91420CD1C1680320800201401CD01015091A1DD0091A19D0814200D1BA
:2054E00008270220FCF7EEF80190504B514922684039D81300929A4235D1002F0CD0022F1E
:205500000DD0042F12D0082F1CD113E00027E8E70227E6E70427E4E7FCF7FCFA08E008685F
:20552000C00601D5454805E0454803E0FCF712FB002873D0626851005118814202D811034D
:20554000814201D2012569E0010E06025008002330185941FAF71EFE03210902394A411AB8
:20556000914259D9EEE7E26982422DD13B0000F008F90906080B24192424241F2400019871
:2055800012E0FCF7D7FA0FE008686168C00602D548082D4A01E02D4A48088018FAF7E4FDB7
:2055A00086B20BE0FCF7D6FA616840004A08F4E76168012248081204EFE70125310909013D
:2055C0003007400F084327E03B0000F0DAF809070A0D061D060606290600B3E7FCF79AFA4A
:2055E00014E0FCF7A7FA11E008686168C00602D54A08124801E012484A081018FAF7B4FD59
:2056000081B20098C16009E0FCF7A4FA61684A088018FAF7A9FD80B22168C8602846FEBDCE
:2056200061684A08E9E70000F369FFEF0048004000380140401002400044004000093D00D8
:205640000024F400FFFC0F0000127A000048E8016921095C212901D00220704702464032CE
:20566000518A002912D0012381681B03994202D10169002915D0C16C4B1CC364006809784F
:205680008162508A401E50820020704701680A6880239A430A600068016840221143016099
:2056A000F2E7C16C03680988C905C90D9962C16C891CC164E5E7FFB581B017460E460446A6
:2056C0000A9D1DE0681C1BD0002D05D0FBF7ACFD0499401AA84213D920680168FF22A13268
:2056E0009143016020688168490849008160202060346072A07200202072032005B0F0BD9A
:205700002068C1693046884304D00020B842D9D00020F3E70120F9E710B50348FDF720FBE5
:205720000148FDF74BFD10BD6C040020FEE7000037B514460846064B6A46214600F0EAF8D4
:2057400004466946002000F081FC20463EBD00004D6000082021020C01D010211046020AFA
:2057600001D010460839020901D01046091F820801D01046891E420801D0881E7047081A75
:20578000704730B47446641E2578641CAB4200D21D46635D5B00E31830BC184702E008C8E0
:2057A000121F08C1002AFAD170477047002001E001C1121F002AFBD170470000F0B51FB473
:2057C00084B007980699020D014314D04A484B491018484305140F9801280E981CD0281A8A
:2057E000401C0024464E4749009401910290002814DA474227E00F98012443A3012808D0F4
:20580000002104980F9A84600360C260416009B0F0BD0E98C143F4E74042E2E7074612E0A3
:20582000F80707D02246334601990098FAF7B8FD019100902246334610461946FAF7B0FD83
:2058400004460E467F10002FEAD10298019B0028009A0799069802DAFAF7A2FD01E0FAF7BD
:2058600007FE04460E460022284BFAF7CFFE03D80020C043014607E00022254B2046314697
:20588000FAF7DCFCFAF7A8FF102409E0002C0ADB0A220023FAF77EFC059B30321A55641ECC
:2058A00002460A43F2D11122641C059B121B1C190F9B012B03D0012308430ED10AE00843AF
:2058C00004D011200E9000200F9084E70E98151A6D1E0BE00E98824202DD00236D1C03E0D8
:2058E000824201DA00236D1E002BEED004980F998260C16030C08AE701FCFFFF104D000072
:20590000000024400000F03F300000000000F0430000E03FFFB597B00646002518E22528BF
:2059200077D100242746FD49049400E00443761C32780120203A90400842F7D130782A28F6
:205940000ED00222307801463039092916D804990A235943303940181443761C0490F1E751
:20596000189802C804911890002904DA0120400304434842049002200443761C30782E28A7
:2059800014D1042004437078761C2A2809D11898761C80C8189009E00A214F43303FC719EA
:2059A000761C3078014630390929F5D930786C2810D006DC4C281AD068280ED06A2817D1B9
:2059C00004E0742813D07A2812D110E00120400504430CE00121090501E0032109050C43C4
:2059E0007178814203D1012000052418761C761C3078119066280BD013DC58287DD009DC4E
:205A000000287BD04528F6D04628F4D047281AD1A5E118E0632835D0642870D0652812D10A
:205A20009DE170286CD008DC6728F1D069287BD06E280DD06F2806D1BAE073282ED0752853
:205A400071D0782859D01A9A199990476D1C7EE16002400F022809D003280DD0042818987F
:205A600001680DD00D60001D189070E11898EA1701680D604A60F6E7189801680D80F2E7D0
:205A80000D70F0E718986A4601781172001D18900020507202A80090012005E0189802C8F5
:205AA000189000200091C04361070DD5002101E00199491C0191B94212DA8142F8DB009A96
:205AC000515C0029F4D10BE0002101E00199491C01918142FADB019A0099895C0029F5D10D
:205AE000019904981A9B471A21463846199A00F097FA0199401945180BE04FE02CE113E0D7
:205B00004EE0009800990078491C00911A9A199990470198401E0190401CF2D121463846EF
:205B20001A9B199A10E137E00A200021009001916002410F022907D0189A01CA1892C217D4
:205B40009446032908D00AE01898C01DC108C90005C91891944607E000B2C2179446042994
:205B600002D140B2C1178C4600226146944506DA0A460021404291418C462D2102E0210547
:205B800004D52B216A461173012103E0E10701D02021F7E7029155E00A200AE0102008E0DB
:205BA000102000900021042004430191082703E008200021019100906002410F022907D0D6
:205BC000189A01CA189200229446032908D008E01898C01DC108C90005C91891944603E063
:205BE00080B2042900D1C0B200210291210729D51199702906D0009A1021019B4A401A43C2
:205C000005D00EE040216A461173012108E06146014306D030216A4611731199517302214B
:205C20000291009A0821019B4A401A430AD16146014301D1610705D530216A46117301210A
:205C40007F1E02911199582904D035A10E910DA90D910DE037A1F9E76146019B009AFAF7D9
:205C600099FA0E9B8C469B5C0D9A521E0D92137061460143F0D10D9805A9081A20300190E4
:205C8000600703D501200004844300E001270198874201DD381A00E00020019900904118BC
:205CA000029809180498401A0490E00306D421461A9B199A049800F0B3F94519002706E070
:205CC00003A81A9AC05D199990476D1C7F1C02988742F5DBE0030CD521461A9B199A049839
:205CE00000F09EF9451904E01A9A3020199990476D1C0099481E00900029F5DC08E00D98AF
:205D00000D990078491C0D911A9A199990476D1C0199481E01900029F1DC63E1092801009F
:205D2000303132333435363738396162636465660000000030313233343536373839414271
:205D4000434445460000000000F05AF94519761C3078002800D0E2E528461BB0F0BD60074A
:205D600000D406271898C01DC108C90048680A680831C30FDB071891190001D09CA108E03C
:205D8000210501D59BA104E0E10701D09AA100E09AA1430011985B08109165280CD006DC9D
:205DA000452809D046281DD0472841D141E0662818D067283CD13CE00021112F01DB112004
:205DC00000E0781C0191009008A911A8FFF7F6FC139905910021119A15927F1C1298019749
:205DE000009150E00120C00703900120019008A9009711A8FFF7E2FC139A149905920022CD
:205E0000119B009212981593059A0192002901D0104602E0791C40180190381A01D501984F
:205E200004E04042401E0090781C0190C01B029043E0012F00DA01270021112F01DD1120B7
:205E400000E038460191009008A911A8FFF7B6FC13990591119A0021129815920091019728
:205E600021070CD40599B94201DB019900E00191012904DD159A491E515C302906D0B842A2
:205E800001DA011D05DA0121029115E00199491EEDE7002805DC0099411800910199091A62
:205EA00003E0019A411C914200DD01910099401A401C02900120C0070390200706D40299CD
:205EC0000198814202DB0020C043029000206946C87707AF012103980337C907884224D08B
:205EE000022011902B201290039800280CDA404203902D20129007E00A210398FAF734F97A
:205F000030317F1E039039701199481E11900029F2DC03980028EFD1791E129808703078BB
:205F2000202108404530BF1E387006A8C01BC01D039010980078002800D0012001994118B9
:205F40000298C0170918039809180498401A401E0490E00306D421461A9B199A049800F0F3
:205F60005FF8451910980078002803D01A9A199990476D1CE00324D521461A9B199A049844
:205F800000F04EF845191CE00098002807DB00990598884203DD1598405C199901E0199961
:205FA00030201A9A904700986D1C401C00900298401E0290002804D11A9A2E2019999047E7
:205FC0006D1C0199481E01900029DDDC05E038781A9A7F1C199990476D1C0399481E03903A
:205FE0000029F4DC21461A9B199A0498ACE600002D0000002B000000200000000000000033
:20600000F8B5044600251E461746880404D405E039462020B0476D1C641EF9D52846F8BDA8
:20602000FFB50446002581B01E46C80301D5302700E02027880404D505E038460399B0472E
:206040006D1C641EF9D5284605B0F0BD0A68531C0B6010707047002907D0521E0160828041
:2060600000218160C160084670470E207047F7B50098164680680F460099C9681468081ACE
:206080000025844200D304463060002802D0002F02D008E00520FEBD0020FEBD79196D1CAF
:2060A000009800F00DF9A542F8D33460F4E7F7B5074680681646F9681468081AB98800258F
:2060C000081A401C844200D304463060002803D00198002801D007E00420FEBD0198415D45
:2060E00038466D1C00F0FEF8A542F7D300203460FEBD000070B50F4B05241D785E78AE4290
:2061000015D01D781C789E88B44201DA641C00E000241C705C88DE686C43A41904609B686D
:20612000E800C418A4880C80185800241060204670BD00004C000020F8B51C4C9446638806
:206140000D46994230D81A4A26786178A788B94201DA491C00E00021C9B2B14222D061788A
:206160006678BE4201DA761C00E000266670914218D0CE00A7686246BA5100280DD0002D7B
:206180000BD0E26859438B1801462A461846FAF731F8A0683018858002E00020F119888003
:2061A0000020F8BD0420F8BD0920F8BD4C000020FFFF00000EB504E068468188029A009857
:2061C000904702AA01A96846FFF794FF0028F3D00EBD000010B5CB0008339CB2054B9A6042
:2061E0001219DA6000225A701A7058809980104610BD00004C000020F8B54A002B4B520D78
:20620000D6182B4A0C460546142E2BDA002E12DA284BFAF713F800221346FAF7F7F940D240
:20622000002C03DA0124E40700253AE02046284337D0214C14E0214F0B46F7403B402B43EC
:2062400031D01C4BF9F7FAFF00221346FAF7DEF927D2002C03DD01200005F0400419BC4333
:2062600000251EE0332E1EDC33460027143BFF43DF40384217D00F4BFAF78AF800221346A7
:20628000FAF7C4F90DD2002C0ADD142E0CD03420811B012088404019A84200D2641C054687
:2062A000BD4321462846F8BD641CF9E701FCFFFF9C7500883CE4377E0000F03FFFFF0F004F
:2062C00010B50A460446002100F004F8A068401CA06010BD83685918838800681940405C5D
:2062E00010707047C26883881A4003689954C168491CC16070470000F8B54A002B4B520D4E
:20630000D6182B4A0C460546142E2BDA002E12DA284BF9F793FF00221346FAF777F940D239
:20632000002C02DB002425463BE060004008284337D0214C14E0214F0B46F7403B402B434E
:2063400031D01C4BF9F77AFF00221346FAF75EF927D2002C03DA01200005F0400419BC4335
:2063600000251EE0332E1EDC33460027143BFF43DF40384217D00F4BFAF70AF80022134626
:20638000FAF744F90DD2002C0ADA142E0CD03420811B012088404019A84200D2641C054609
:2063A000BD4321462846F8BD641CF9E701FCFFFF9C7500883CE4377E0000F0BFFFFF0F00CE
:2063C000FBF706F8FEF7B2FDFCF76EFFFCF744FFFDF7BCF8FDF720F8FCF7FCFEFDF78CF87A
:2063E000FCF7F4FFFCF7B8FF034800688047FCF747FF00F01CF8FEE7107A00080146002078
:20640000842900D0C81C704703E00B780370401C491C1346521E92B2002BF6D1704710B54F
:20642000002800D1012000F0A3FD002010BD10B500F024FE002010BD10B501F0D9F8012851
:2064400001D000F0ADFE10BD3EB5044608200D46205EFFF7D3FF02A901910090208A2B461D
:2064600082B22168606801F09BF8012801D000203EBD02983EBD0000F8B5134C0F46E668BA
:2064800005462068001D00F0A1FC681C07D1002F05D021680D48091D00F0D0FCF8BD206822
:2064A000751945602168B54204D2A06B091D00F0ADFCF8BD606B091D00F0A8FCA06A85427E
:2064C000F7D2A562F8BD0000B00000204C1A0020F8B5054600F0BEFC294CA068401CA06066
:2064E0002068284F002803D06069002827D02CE02560A068012828D1002614207043C01919
:2065000000F076FC761C072EF7D31E488C3000F06FFC1C48A03000F06BFC1A48B43000F04A
:2065200067FC1848C83000F063FC1648DC3000F05FFC14488C3060631430A06305E020680D
:20654000E96AC06A884200D82560606A401C6062E86A2169884200D9206114214843C01916
:20656000291D00F06BFC00F081FC6069002806D02068E96AC06A884201D200F0B9FCF8BD4E
:20658000B00000207019002010B500F063FC0E4C2068002815D10D4800F02AFC0B4814307C
:2065A00000F026FC0948E0601430206100220C210A2000F007FE2060002802D004A100F0F6
:2065C000A3FC00F053FC10BD84000020D8070020546D72510000000070B5114E114C18E010
:2065E00000F076FD3068002817D001F0E1F800F031FCF068C568281D00F0E8FBA068401EA7
:20660000A0606068401E606000F030FC284600F056F860680028E3D170BD01F0C9F8F8E76A
:20662000381A0020B000002010B5026C0C46002A0CD0C1688B18C36041688B4201D21946F6
:2066400001E00168C1602046F9F7D4FD10BDF8B5856B174604460026026C002A11D0002FC9
:2066600019D0E068F9F7C6FDE168206C091AE1602268914202D26168081AE060022F17D089
:2066800019E02068002816D1606801F02BF80646002060600FE0A068F9F7ACFD216CA0683D
:2066A0004018A0606168884205D32068A06002E0002D00D06D1E6D1CA5633046F8BD10B5A4
:2066C0000446006B00F0E0FB204600F0DDFB10BD0F480E49420705D0C01DC0080C4AC000B8
:2066E000821A891A0B4A0023411809C20839C908C900183A11604B600B600B1A0AC0936029
:206700000120C0075360D060704700003011000000080020A8000020044CFFF75DFF20689C
:206720000128FAD900F0E4FBF7E7000070190020FFB581B00C9C9000236B001F1818C6083F
:206740000A9DF600700701D072B6FEE723180A5C20331A750A5C002A02D0401C1028F5D306
:206760002046403000270090C770072D00D30625E562A764201D656400F045FB20461830ED
:2067800000F041FB24610720401B6462A061E764009807743046049A019900F005FA206084
:2067A0000B98002800D0046005B0F0BD30B5114900E011460A688242FBD34B685C18844211
:2067C00003D1406818184860084643681C18944209D1084C103C2468A24209D052689A1833
:2067E00042600A6812680260814200D0086030BD0460F9E7A800002070B5002441600B4D73
:206800000061914206D8D11A8269914206D2011D286907E09A4203D2994201D3012403E0E7
:20682000011DE86800F0F2FA204670BD8400002010B5044600F00EFBA06B002804D00024A4
:2068400000F014FB204610BD0124F9E730B587B0274D43E00498002840DB069C60690028DC
:2068600002D0201D00F0B2FA02A800F0A1F8024604980300FEF785FF0A06060632232F0634
:20688000063223320598A169034641182046FFF7B3FF002822D0616A20468847E069012888
:2068A0001CD1002000900598A169002342181946204601F015F8002810D172B6FEE70598A1
:2068C000A061002805D0811813462046FFF794FF04E072B6FEE7204600F0D6FA00231A463F
:2068E00004A9286800F08DFC0028B3D107B030BD84000020FEB50F46054600F0E9FB01A81E
:2069000000F056F804460198002802D000F050FFFEBD1E4E002F10D030690068002833D0BB
