:020000040800F2
:2000000018080020B51900089518000897180008000000000000000000000000000000005E
:200020000000000000000000000000009918000800000000000000009B1800089D1800088F
:20004000FB070008AB080008AF080008EB1400087B19000887190008B1190008D919000805
:2000600000000000DB190008DD190008DF190008E1190008E319000800000000E51900087A
:2000800000000000E71900080000000000000000E919000800000000EB190008ED19000834
:2000A000EF190008F1190008F3190008F5190008C1180008F71900080000000000000000FB
:2000C000F8B50400B34D2078C0074FD58027BF02E8680C210140082907D0E8680C21014000
:2000E0000C290AD1E868C00307D5286807403DD0606800283AD10120F2BD6068790888423F
:2001000001D1286809E0A021C9028842286806D17900014329602868790801430AE0AA495F
:2001200001402960286879080840009000982868A64901402960606800280BD000F0ECFA8A
:2001400006002868384011D100F0E6FA801B6528F7D396E100F0E0FA06002868384005D0C9
:2001600000F0DAFA801B6528F7D38AE12078800719D5AF4FE8680C210140042907D0E86841
:200180000C2101400C2935D1E868C00332D42868400702D5E0680128ADD168680740206960
:2001A000000238436860AF0D2078C00668D5E8680C2101407AD12868800502D5A06900287D
:2001C00099D0206A6968E02212020A40824235D200F05EFA00288ED16868AC490140206AD1
:2001E0000843686068680002000AE16909060143696034E0E068002810D0296809229143B6
:200200000843286000F088FA060028684007C4D400F082FA801B0328F7D332E12868012163
:200220008843286000F078FA060028684007BAD500F072FA801B0328F7D322E16968934A00
:200240000A401043686068680002000AE169090601436960206A00F01BFA0028BBD1012093
:20026000216A490B491C8840C0038949EA681206120F895CC84087490860002000F052FAD1
:200280002078000750D560690028286D3DD001210143296500F040FA0600286D800743D4B0
:2002A00000F03AFA801B0328F7D3EAE0A069002828681BD03843286000F02EFA0600286863
:2002C000800505D400F028FA801B0328F7D3D8E068686E490140206A08436860686800022F
:2002E000000AE169090601436960C9E76A490140296000F011FA060028688005C0D500F0C6
:200300000BFA801B0328F7D3BBE001218843286500F002FA0600286D800705D500F0FCF966
:20032000801B0328F7D3ACE02078400763D5002000903805A96B014004D1A96B0843A86309
:200340000120009055480068384011D15348006838435249086000F0DFF906004F4800683F
:20036000384005D100F0D8F9801B6528F6D388E0A168B9420AD0A24800290DD0A022D200B3
:20038000914209D1286D290D01432965286D07432F6508E000100240296D3F4A0A402A656E
:2003A000296D08402865974FA068002810D000F0B3F90600286D800516D400F0ADF9801B05
:2003C000B842F7D35DE000BFFFFFFEFFFFFFFBFF00F0A2F90600286D800505D500F09CF960
:2003E000801BB842F7D34CE00098002803D0A86B85490140A963606A002844D0E9680C222C
:200400000A400C2A00D176E68027BF047F490228286829D10140296000F07EF90600286882
:20042000384007D000F078F9801B0328F7D328E0FFE0FFFFE86893490140A06A0843E16A8A
:200440000143206B0843E860286879080143296000F062F906002868384014D100F05CF9D9
:20046000801B0328F7D30CE00140296000F054F906002868384006D000F04EF9801B032818
:20048000F7D30320F2BD0020F2BD0000FF1FFFFF3C1800080C000020FFFEFFFF00700040A2
:2004A000F2B582B004000127FF43012576480068284088420AD27448006838400143724801
:2004C0000160006828400299884274D16F4E2078800705D5F068F0218843A1680143F160B9
:2004E0002068284055D06068022802D13168890308E0032802D13168890103E0012831684F
:2005000002D1490702D456E0890554D5F168032291430843F06000F0FFF80090606802289F
:200520000CD1F0680C210140082932D000F0F4F80099401A33498842F3D328E003280CD1FA
:20054000F0680C2101400C2923D000F0E5F80099401A2C498842F3D319E001280CD1F06891
:200560000C210140042914D000F0D6F80099401A24498842F3D30AE0F0680C21014008D0C6
:2005800000F0CAF80099401A1E498842F4D30320FEBD02983C490968294088420DD23A48BC
:2005A000006807400298384337490860086805400298854201D00120FEBD2078400705D513
:2005C000F0684B490140E0680843F0602078000706D5F068474901402069C0000843F06084
:2005E00000F016F84449F2681206120F895CC84042490860002000F095F80020FEBD000085
:20060000FFFBFFFF89130000FFFFFFEFFFFFFFFEF0B51E4DE9683B4A9308102654080C2020
:200620000840042804D0082809D00C2809D01DE02868064001D01800F0BD1000F0BD200016
:20064000F0BD31488F023F0FC05D0902890F491CEF68FF0301D5604305E02C68264001D0EE
:20066000584300E0504300F071F8F0BD686801210004400F401C8140C803F0BD1F480068BD
:2006800070470000FFFF02FF0020024000100240F0B5002201211A4B1C68F025254018D1BB
:2006A000C02464011A4D0E07DF6A374002D02D68254008E0DF6A3E43DE622D682540DE6AB5
:2006C000144F3740DF62A54203D1E300984200D101220E4803680124A343134303600068A6
:2006E0000140914201D00120F0BD0020F0BD0000FFF8FFFFFFC7FFFF3C1800080C00002039
:200700000C1002400024F4004C1800080020024000700040FFFFFFEF01480068704700BFD2
:200720009414002010B5040007480068FA21890000F00CF800F089F8002221000020C04302
:2007400000F076F8002010BD0C0000200022030A8B420BD203098B4219D243088B422ED26D
:20076000411A00D20146524110467047FF2209023FD012068B4205D3121209028B4201D39D
:200780001212090203098B4219D300E0090AC3098B4201D3CB01C01A524183098B4201D39F
:2007A0008B01C01A524143098B4201D34B01C01A524103098B4201D30B01C01A5241C308A9
:2007C0008B4201D3CB00C01A524183088B4201D38B00C01A524143088B4201D34B00C01A0B
:2007E0005241884200D3401A5241CFD201461046704708B500F05AF808BDFEE710B5C200B7
:2008000018231340FF249C40E2438907090E9940002804D51F4B0007000F083800E01E4B9C
:2008200080088000181803681A401143016010BD80B5FFF7E3FF01BDBFF34F8F174818491E
:200840000860BFF34F8F00BFFDE710B5401E80214904884201D3012010BD124C606003211E
:200860000020C043FFF7CAFF0020A0600721216010BD0C490428086803D1042202430A6066
:200880007047042290430860704780B500F00CF801BD00001CED00E000E400E00400FA05F2
:2008A0000CED00E010E000E07047FEE77047FEE738B55F4B1A68002A1BD1002919D0B04A1C
:2008C000914216D2AF4A1478012C12D1AE4C0578A56200251570491E19609D800A00411C3C
:2008E000981D00F0E3FA2068802101432160012032BD002032BD38B5050000F005FB84B251
:2009000021002800FFF7D4FF0128F9D131BD80B59D48C169890607D50168890604D5406ABA
:20092000C0B200F03AF801BDC169C90607D50168C90604D51021016200F041F801BDC369D8
:2009400040223B491B0617D503681B0614D50B68002B09D08A88531C8B808A18927982629B
:200960000868401E086001BD016880239943016001680A43026001BDC3695B060CD503688B
:200980005B0609D50262026840239A4302600020086001207B49087001BDAA498A8883235A
:2009A000DB009A420ADA0A68002A07D18A88531C8B80891888710120A349086070470020B6
:2009C000A14908609F498A880A6088807047000038B500249D4B0D68002D0FD00078552833
:2009E00001D0752809D101201D78002D00D118705D68C82D01DB5C6010700C609868944958
:200A0000884213DB9C6093480168934A0A40802189058A4206D141685961006880F3088817
:200A20000846804703A0FFF766FFFEE731BD0000380C00200A0D5374617274204661696CAB
:200A40002100000070B504000D001600012028600FA0FFF750FF3D2213A1200000F026FA49
:200A600021A1200000F058FA22A1200000F054FA22A1200000F050FA2FA1200000F04CFAEE
:200A8000022030702000FFF736FF0020286070BD0D0A462D49434D2D30312D313830363057
:200AA00034310D0A000000000D2A2A2A2A2A2A2A2A2A2A2A2A2A2A2A2A2A2A2A2A2A2A2AE7
:200AC0002A2A2A2A2A2A2A2A2A2A2A2A2A2A2A2A2A2A2A2A2A2A2A2A2A2A2A2A2A2A2A2AD6
:200AE0002A2A0D0A00000000312E5570646174610D0A0000322E52756E0D0A002A2A2A2A62
:200B00002A2A2A2A2A2A2A2A2A2A2A2A2A2A2A2A2A2A2A2A2A2A2A2A2A2A2A2A2A2A2A2A95
:200B20002A2A2A2A2A2A2A2A2A2A2A2A2A2A2A2A2A2A2A2A2A0D0A0053656C6563743A0092
:200B400038B50C002168002918D000250078312802D032280CD010E0B2483E498160B249B7
:200B60000160B74941600320107000BF07A002E0157000BF09A0FFF7BEFE256031BD000076
:200B8000190400001000002000440040310D0A43686F73652046570D0A000000320D0A52DB
:200BA000756E6E696E672E2E2E0D0A0070B50023002824D01400080025006C1E2D0410D0C5
:200BC0001D0003781B026B40401C08255E001B0403D5AA4B73409BB200E0B3B26D1EEBD057
:200BE000F4E7885C000289184978401880B283420AD0002070BD1B18DBB2491C521E087847
:200C0000002AF8D18342F4D1012070BD9C49C86008680006FCD5704730B5010000220020D6
:200C20000A4B1C69002C00D41A611C698C4201D31A6130BD924C2568AD06F6D5A068C0B26D
:200C400030BD0000180800209014002058140020B80B0000002000080000FE2FF3B5894886
:200C600085440020039043270120009000200290192001900D20FFF7C9FF0A20FFF7C6FF91
:200C800068480068010002D0804700E015271024380001D0FFF7BAFFFA20C000FFF7BCFF0F
:200CA00000282DD4012806D0022810D0042811D0182819D024E08024432F01D1012103912A
:200CC00000276946087404A8451C002630E08024E400F1E70620FFF799FF0620FFF796FFBA
:200CE000029869498D44F0BDFA208000FFF794FF182805D10620FFF789FF0020C043F0E753
:200D0000641EC5D1432FC1D01820FFF77FFF1820FFF77CFF1820FFF779FF0120EEE7FA20AD
:200D20008000FFF779FF002861D428706D1C761C0398002801D0601C00E02000C01C864201
:200D4000EDDB04A8407804AA9278D343DBB298424DD10099884202D0491E884247D1220074
:200D600004A8C11C0398FFF721FF00283FD004A840780099884226D1FFAD6D6AAC4201DAF8
:200D8000250001E0012D18DB2A0004A8C11CFFA8006A00F08BF823484368180005D0AAB296
:200DA00020488168FFA8006A98471E48806840191C4988600298401902900098401CC0B213
:200DC00000901A2001900198401E019001280ADA1820FFF71BFF1820FFF718FF1820FFF768
:200DE00015FF02208AE70620FFF710FF4FE71520FAE780B52548016880229143016001688A
:200E000040229143016001681022914301600168202291430160010D1D48FFF71FFFFFF70E
:200E20000BFDFEE700000020AB1700081748016810220A430260016820220A430260704721
:200E40006917000880B5134A10785168002805D0022807D004D3032806D007E00E4907E03C
:200E60000E4905E00E4903E00E4901E00020107051600D49881D5368984701BD21100000EF
:200E80001C440040E4FBFFFF24040000004400405810002088140020D1090008450A0008AC
:200EA000410B0008F30D000818080020124207D08B0706D00B78491C0370401C521EF7D80D
:200EC0007047830706D00B78491C0370401C521EF9D1704770B4103A03D378C9103A78C04C
:200EE000FBD2530701D318C918C001D508C908C0D20704D30B880380891C801C002A01D5C8
:200F00000B78037070BC7047010000E0491C0A78002AFBD1081A7047020000E0521C137886
:200F2000002BFBD10B781370002B02D0521C491CF8E77047F2B51700344C207C012801D179
:200F40000220F2BD012020745A4D280000F026F80026010005D1666100980760280000F053
:200F60001DF82674F2BD5448016889070CD50168C90703D551498160514981605149C160DB
:200F80005149C16000207047012070474A4801680222FFE70A4302600020704770B5050032
:200FA000FFF7BAFB06004A4C2068C0070CD50020C0438542F8D0002D04D0FFF7ADFB801BCE
:200FC0008542F1D2032070BD02202168014000D020602068C00511D4206880050ED4206852
:200FE00040050BD42068000508D42068800405D42068800302D42068C00303D500F008F88B
:20100000012070BD002070BD000000007014002030B500222D4880235B002D490C681C40D1
:2010200004D042690224144344611A004B0D0C681C4006D0446901252543456114001A00E8
:2010400022430B0D0C681C4006D0446908252543456114001A002243CB0C0C681C4006D075
:20106000446904252543456114001A0022439B000C681C4006D044691025254345611400B4
:201080001A0022430B689B0306D5202344691C43446114002022224380235B020C681C4066
:2010A00006D0446940252543456110001A0002430A6030BD50C3000004200240EFCDAB890B
:2010C00005040302BFAE9D8C161514137014002018200240F8B50400514D2078800670D54A
:2010E0000020009080204005A96B014004D1A96B0843A863012000904A4E3068C0050FD43E
:201100003068A90D01433160FFF706FB07003068C00505D4FFF700FBC01B6528F7D336E03F
:2011200029686068C026B60232010A40310101408A4208D031000140B14204D129688903CD
:2011400001D50120F2BD296D314022D0304081421FD0207880061CD5286D33490140286DD8
:201160008022120302432A65286D304A02402A652965C8050DD5FFF7CFFA0700286D8005E7
:2011800007D4FFF7C9FAC01B29498842F6D30320F2BD606831000140B14206D12968254A05
:2011A0000A403101014011432960286D61680E4006432E650098002803D0A86B1E490140BF
:2011C000A9632078C00705D5E86C03218843A1680143E9642078800705D5E86C0C218843A8
:2011E000E1680143E9642078400705D5E86C1349014020690843E8642078000705D5E86C7E
:201200000F49014060690843E8642078000605D5E86C0C490140A0690843E8640020F2BD04
:201220000010024000700040FFFFFCFFFFFFF7FF89130000FFFFCFFFFFFFFFEFFFF3FFFF7B
:20124000FFCFFFFFFFFFF3FF38B501000020444A324C80231B02032913D1E16C8907890F73
:20126000C025AD020D433F496D1A1AD06D1E1BD06D1E1ED000F029F800F044F800F050F82D
:2012800032BD0C2920D1E16C0C250D40C02109032943354D491B04D0091F05D0091F08D05E
:2012A0000CE000F012F832BD216849070CD5100032BD216D890507D5180032BD00F005F8B4
:2012C00000F020F800F024F832BD10B5274A9368072001210C241C400DD0042C04D0082CF0
:2012E00004D00C2C04D006E01D4810BD204810BD00F01EF810BD1268520B1040401C8140AA
:20130000C80310BD1B4909681B4A0906090F0CE018490968194A490506E00000001002402D
:2013200014490968154A8904490F515CC840704700B510490868802252021040904201D1C7
:201340000B4800E006480A6809680D4B9202120F9A5C50430902890F491CFFF7F7F900BDE8
:201360000024F4000100030004000C000410024000127A000C1002403C180008D0190008B4
:201380004C180008F0B58FB08020800229490A6802430A600968084006900698042400949F
:2013A000022701970326029600250395049505946946A020C00500F047F808200090019709
:2013C00002960395049505946946A020C00500F03BF819480168FF2291430160A00617492E
:2013E0000860E12040020790089509950A950C200B900C950D95124C07A9200000F076F83B
:201400006068F904014361606068710501436160A068A10C0143A16060680A4901406160A8
:20142000A0682A218843A06020680121014321600FB0F0BD381002401CE400E000E100E088
:2014400000440040FFB7FFFFF0B500230CE02D0A2A006A436A436A43456A1601B61AB543AA
:2014600062432A4342625B1C0A681400DC402FD001259D401540F6D02A006A435400A61897
:20148000F443066826404F685743374307604E68012E01D0022E05D1866826408F6857436E
:2014A00037438760C66834400E6956432643C6604C68022CD7D14C69FF2DC8D86A436A4325
:2014C000056A1601B61AB54362432A430262CAE74B68012B01D0022B05D143689343C96832
:2014E0004A431A4342600120F0BDFEE770B504000E0000252068C0073ED4206821490140BD
:2015000070680843F168014330690843B1690143216060681C490140B06808436060A068AF
:201520001A49014070690843A0601448844201D1032003E0124884421ED10C20FFF784FE36
:20154000002819D03168002916D001254A08B369EE03B3420BD140008018FFF7F7F880B28D
:201560000B4901400007400F0143E16004E08018FFF7ECF880B2E060280070BD0038014065
:2015800000440040F369FFEFFFCFFFFFFFFCFFFFF0FF000010B500F059F800F011F800F0DA
:2015A00065F8FFF7EFFEFFF741FC254CFFF74AFC2068FA2189008842F8DB00202060F5E7C6
:2015C00070B59AB01F4801681F4A0A40C10C1143016002240C9401260F9610201090002510
:2015E00015950CA8FEF76CFD002800D0FEE70F200090019602950395049500216846FEF770
:201600004FFF002800D0FEE70594089505A8FFF761FD002800D0FEE7FFF730F8FA218900C9
:20162000FFF794F8FFF711F90420FFF722F9002200210020C043FFF7FBF81AB070BD0000AD
:201640005C14002000700040FFE7FFFF80B50648016840220A4302600020FFF763F800F008
:2016600013F8002002BD00000020024081B0012004490A6802430A6009680840009000987D
:2016800001B070472C10024080B50E48016801220A4302604168802252050A4342600022EB
:2016A00000210420C043FFF7C3F8002200210120C043FFF7BDF8002200210020C043FFF7C3
:2016C000B7F801BD34100240F2B50700174C207C012801D10220F2BD012020741448FFF797
:2016E0005DFC01001FD10021C943009A11607D68104E00E08035B968C9017A6889188D4253
:2017000011D2280000F01AF80948FFF747FC31680822914331603168074A0A403260010043
:20172000E8D000990D6000212174F2BD7014002050C3000004200240FFFDFFFF10B5002189
:20174000074A5161074A1368540D1C431460136808241C4314607F229043016010BD00006A
:20176000701400200420024070B582B00D0016000400009503E0241D0098001D009000984B
:20178000A91988420FD2FFF7EEFB226800990220FFF7D0FBFFF7FAFB2068009909688842B0
:2017A000E9D0002076BD012076BD10B586B000240194FFF7D8FBDC20000200900098810A9B
:2017C000800500D0491C029405480390049101A902A8FFF779FFFFF7D9FB06B010BD000035
:2017E000002000080F480168820D0A430260C1680D4A0A40C26001680C4A0A400260816883
:201800000122914381600168094A0A400260C168084A0A40C260002101618020000506492A
:2018200008607047001002400C40FF88F6FFF6FEFFFFFBFFFFFF02FF08ED00E000000000AF
:20184000000000000102030406070809030406080C1018203000000070B40121002213E06C
:201860000468001D0C4202D04D466D1E64192260241D1B1F042BFAD225009E0701D52280EA
:20188000AD1C0B4000D02A700368001D002BE7D170BC70477047FEE77047704780B500F04D
:2018A00013F8FEF7F2FF00200449820089180A68521C0A60401C0428F6DB01BD5C140020B6
:2018C00080B5FFF724F801BD02480168491C0160704700BF9414002030B401210268001DBF
:2018E000002A0FD00368C318446808300C4202D04D466D1E64191D6825601B1D241D121F46
:20190000ECD0F8E730BC704710B5074979441831064C7C44163404E0081D0A688918884727
:201920000100A142F8D110BD080000002800000029FFFFFF800C000018080020000000000B
:2019400099FFFFFF1400000054000000000000200000000000F00BF8002801D0FFF7D4FFB4
:201960000020C046C046FFF715FE00F002F80120704780B500F002F801BDFEE707463846E3
:2019800000F002F8FBE7FEE780B5C046C046024A11001820ABBEFBE726000200000000004D
:2019A000000000000020000880841E0001000000FEE700000148804701480047E517000853
:2019C000C5190008C046C046C046C046FFF7C2FF0000000001020304FEE7FEE7FEE7FEE7B4
:2019E000FEE7FEE7FEE7FEE7FEE7FEE7FEE7FEE7FEE7FEE7FEE7FEE700000000000000002B
:201A00000000000000000000000000000000000000000000000000000000000000000000C6
:201A20000000000000000000000000000000000000000000000000000000000000000000A6
:201A4000000000000000000000000000000000000000000000000000000000000000000086
:201A6000000000000000000000000000000000000000000000000000000000000000000066
:20200000881D0020D5200008D5650008BB53000800000000000000000000000000000000A6
:202020000000000000000000000000009191000800000000000000006D720008199F0008CF
:20204000E7200008E7200008FB780008E7200008E72000085B2F00086B2F00087B2F0008E3
:2020600000000000E7200008E7200008512F0008E7200008E720000800000000E72000088D
:2020800000000000E72000080000000000000000E720000800000000E7200008E720000804
:2020A000E7200008E7200008E7200008E7200008A7AB0008E720000800000000000000007B
:2020C0000348854600F08CFC0048004705C80008881D00200448804704480047FEE7FEE7D9
:2020E000FEE7FEE7FEE7FEE7AD9F0008C120000830B50B46014600202022012409E00D46CF
:20210000D5409D4205D31D469540491B2546954040191546521E002DF1DC30BD70B50024C3
:202120002546002801DA01244042002901DA01254942FFF7DDFFAC4200D04042002C00D0C7
:20214000494270BDF0B51FB40646002082B005464024019100901BE0019922460F46304618
:2021600000F03CFB049A059B801A994110D310461946224600F022FB361A8F410197224659
:2021800001200021009F00F019FB38184D4100902046641E0028DFDC019B00982946324606
:2021A00007B0F0BDF0B51FB486B000200090019002900698069980B204900798090C02047D
:2021C0000014114307900027089D099806913E463C4603900398A9B20204000C039004982C
:2021E0002D0C154348430021224600F0E7FAC719714110340E46402CECDB3846029A00F002
:20220000DDFA009A019B80180090594102980191103002904028CCDB00980BB0F0BD034699
:202220000B439B0703D009E008C9121F08C0042AFAD203E00B780370401C491C521EF9D259
:202240007047D2B201E00270401C491EFBD270470022F6E710B513460A4604461946FFF79D
:20226000F0FF204610BD421C0178401C0029FBD1801A704730B505460020034600E05B1CD3
:20228000934205D2EC5CC85C201A01D1002CF6D130BDF8B502464A40D40F42004B005208F1
:2022A0005B089A4202D20246084611464A0023D0C30D4A00DDB2120EAD1A202D35DA4902AA
:2022C0000126490AF6058A19002C00D0524220214F1B1146B9402A411018C20D9A4221D02C
:2022E000002C17D0012D08DCDA05801AD20F8019D207DBB200F09EFAF8BDDA05801A012386
:2023000040001B06C01880185A428018CA0F1043490007E04908C2071143DA05801A8019DC
:202320004008801800F07EFAF8BD61000122511A001BF7E70122D2075140AAE70122D2079E
:202340005040A6E7F0B507460846584087B0C00F049048000E46590040084908BC1A8841C1
:2023600005D2384631461E4617460B4602465800400810434CD0300D039040055900400D6D
:20238000490D0590401A0290402872DA18030121000B09050843019004980092002805D055
:2023A000019952420020884100920190029840210A1A0199009800F001FA05460C466B4659
:2023C00007CB00F01CFAC0197141039A0E0D0023D71756401A467A40164344D0049A002AEC
:2023E0002DD0029A012A039A15DC1205C01A914101263605001C7141D20F059ED2070093A8
:20240000019202962A46234600F05AFA07B0F0BD38463146FAE71605224A0F46B218C01ABA
:20242000B74101210905001C4F4100187F41114618187941E20F10436D19644113E0E20764
:202440006D0815436408C2071443039A01261205C01A91413605001C7141CE074008304303
:202460004908C01851412A46234600F01CFACDE7FFE7049801224000C117121A00238B4136
:2024800004983146C417381AA141EEE730B40124E407634030BC55E730B40124E4076140F1
:2024A00030BC4FE70000E0FFF0B51FB488B00B990998002448400999C00F490049080991D5
:2024C000C0070B990090490049080B9109990898A64608431CD00B990A98084318D009984C
:2024E00001244000420D4800410D099824050003000B204309900B980003000B20430B900F
:2025000050181C494018002201901446104605E0002001460DB0F0BD032801DA034600E04E
:2025200003239C46C11A0AAE0AE05F0008ADED5B4F00F75B7D430027AA187C41491C5B1ED5
:202540006145F2DD410004AB5A522104120C0A43240C401C0828DFDB0198029000997046EA
:2025600001910090059B049A0799069800F0A8F9D0E700000DFCFFFFF0B50C465C4085B0A6
:20258000E40FE40703944C000026640859009446490802460296224321D062460A431ED04B
:2025A0006200570D4A000E032303550D012402462C492405781B1B0B360B40182343264346
:2025C000614600901C46501AB44103D30098401C009002E0921800985B41002803DA0020C4
:2025E000014605B0F0BD0020012109050746864611E064461D46141BB54106D36546521BB5
:20260000B341744607430C43A646CD0740084908284392185B4105460D43EAD11046184362
:2026200013D06046194650407140084306D06046101AB34106D20122002306E00022012342
:20264000DB0702E00122D2435310009874460105381C6141029C039D0019694100F023F9C0
:20266000BFE70000FD03000070B54B005B0803430BD04B005C0D002633466542B341D417E7
:20268000AD1AA34102DB0020014670BD12053018514170BD10B500229623114600F0CAF857
:2026A00010BD00000EB5C217C10F5040CA0740180021054B0293019200910A460B4600F06D
:2026C000FFF803B000BD0000330400000EB505490291002100910A460B46019100F0F0F8FB
:2026E00003B000BD3304000070B5CD0F4A0009030123090B1B0519430B4BED070024520D5B
:202700009A4201DA002070BD074B34339A4203DC9A1A00F063F802E00449511888402C4373
:20272000F1D0404270BD0000FF030000CDFBFFFF4A0009030123090B1B051943094B10B53E
:20274000520D9A4201DA002010BD064B34339A4203DC9A1A00F042F810BD034951188840DB
:2027600010BD0000FF030000CDFBFFFFC20FD207400040080BD0C10D0723DB01C9184002C0
:202780000905400A1143C20840071143704700200146704710B5002904DB0124E4074042F4
:2027A0008C412146002B04DB1C460123DB075242A341994200D1904210BD000010B5202AA1
:2027C00004DB0146203A9140002010BD914020239C1A0346E3401943904010BD10B5202A7D
:2027E00004DB0846203AD040002110BD0B46D340D0402024A21A91400843194610BD10B5D3
:20280000202A06DBCB170846203A1041C1170B4306E00B461341D0402024A21A91400843D5
:20282000194610BD002904DA401C490001D140084000704770B40024050C05D11024000448
:2028400002D1002921D01124050E01D100020834050F01D10001241D850F01D18000A41C65
:20286000002801DB4000641C002908D020252E1B0D46F540A14000D00121294308430106EC
:202880001B1B000ADB1D02D5002070BC7047DB05181880180029F8DA401C4900F5D170BCEC
:2028A00040084000704710B5002B08DA0024401C614192185B411A4301D14008400010BD1B
:2028C000F0B51FB482B005460C0003D0084608F0A7F902E008F0A4F9203002460090214638
:2028E0002846FFF76BFF049B059A04460F4618431143084314D0184610431BD000984021BA
:202900000A1A18460599FFF769FF05460E46009A05990498FFF752FF084305D0012004E05A
:202920002046394607B0F0BD0020C11705430E432C43374300990E986305401A7905E40A67
:2029400000220C43FD0A0A3002D500200146E9E70105101969410C9C0D9D00196941FFF7D3
:20296000A2FFDFE7F8B50546480040080C46284304D06000184A400D904201DD2846F8BDF5
:2029800015493539884210DC88420BDB290D200308432903014305D0E00F1049C0074118B4
:2029A0000020F8BD00200146F8BD161A4020821B28462146FFF702FF07460091284621467A
:2029C0003246FFF70BFF3A46009BFFF76CFF3246FFF7F4FEF8BD0000330400000000F03F88
:2029E000064C0125064E05E0E36807CC2B430C3C98471034B442F7D3FFF766FB14EE00080E
:202A000034EE000870B58C180578401C6B075B0F01D10378401C2A1106D10278401C03E09A
:202A200006780E70401C491C5B1EF9D12B0705D40023521E0DD40B70491CFAE70378401C7F
:202A4000CB1A921C03E01D780D70491C5B1C521EF9D5A142D8D3002070BDF0B589B00746CE
:202A60000C461022002105A809F06AFF224605A905A808F038F96846007D8726000605AA29
:202A8000002810DA0020115C13185B784900DB0919431154401C0F28F5DB08A9C878400017
:202AA0007040C8700EE00020115C13185B784900DB0919431154401C0F28F5DB08A9C87873
:202AC0004000C870E11DF9314869102814D06846007D00061CD50020135C15186D785B006B
:202AE000ED092B431354401C0F28F5DB08ABD87840007040D8701AE000202118FF310131B8
:202B00004B78155C6B404B70401C1028F5DB26E00020135C15186D785B00ED092B431354EA
:202B2000401C0F28F5DB08ABD8784000D8708020E51D4B69FA355855002300E04355486929
:202B4000401C48611028F9D300202118FF3101314B78155C6B404B70401C1028F5DB002093
:202B600021180B46E031FF330A460133497C5B7859405174401C1028F2DB21461022F131F2
:202B800001A809F0C5FE2246394601A808F0ABF81022002105A809F0D3FE09B0F0BD10B5B0
:202BA0000446204610220021F13009F0C9FE0021FF2015300151F022204609F0C1FE10BD5D
:202BC00010B502460846102108F0B8F810BDF0B587B006460D461446F01DF9300690F11D45
:202BE0004069FA31059110390491002843D010210F1AA74200D327460599BAB240182946FE
:202C000009F086FE069806994069C019486110283AD3BC4238D0002031180A46E032FF3189
:202C20000131537C49784B405374401C1028F3DB04993246084608F056F8ED19E41B1AE076
:202C40000022B018E030417CAB5C59404174521C102AF6DB10226846049909F059FE3246AA
:202C60006946684608F03FF810226946049809F04FFE1035103C102CE2D8A2B2294605981E
:202C800009F046FE0698446107B0F0BDF7B5044601203D498022497A511ACDB23A4B802639
:202CA000197A5B7AA71EF31ADEB24A1CD2B2761E3B0007F0E4FF09060E19212C3C474F570B
:202CC0006700314BA94257D230481A724454002052E02D4BB1424FDA2C4D6C54501C01993C
:202CE0001872A954002047E0274BA94244D227481A72445400203FE0234BB1423CDA234DDA
:202D00006C54501C01991872A954002034E01E4BAD1EA94230DA1D4D6C54501C0199C0B267
:202D2000A954411C029A19722A54002024E0164BB14221DA154D6C54501C01991872A95472
:202D4000002019E0104BA94216D210481A724454002011E00C4BA9420ED20C481A72445405
:202D6000002009E0084BA94206D2084D6C54501C01991872A9540020002802D10249012209
:202D8000CA71FEBD0220FEBDE40100202E10002072B602480178491C0170704794020020CF
:202DA00004490878401EC0B20870002800D162B6704700009402002010B50AF0BFFA0AF00E
:202DC00085F810BD70B51A4E00241A4D18E000F0B7F9C1B2686831542A78002A03D1412927
:202DE00001D101222A702A78002A09D001290CD00D290FD00A290DD07F2814D0401C6860C5
:202E000002F0DEFA0128E2D070BD6C60062009F065F970BD0028F3D03454054809F0A2FE11
:202E20006C602C70ECE76C60042009F057F9E7E767050020C80000203EB50E4C6A46E17886
:202E40001170217D9170D070606B07F0DDFA0190E06B0290E07D6A4650706946207C05F0FE
:202E600057FE218CE06B4143081AA16D4018A0653EBD0000E401002030B504460020002283
:202E8000012507E02B469340A34301D1401CC0B2521CD2B28A42F5D330BDFFB585B00025DA
:202EA00000270026002001903BE0002401984000049006990498095A0120A040014226D090
:202EC00030190C21039048430799095800291ED00799411808200291085602110007011702
:202EE000059840B206F007F8002810D00298407A010108980818C068002802D07F1CFFB2C2
:202F000005E029460E9A6D1C0398EDB25054641CE4B2082CCDD30836F6B20198401CC0B217
:202F20000190082EC1D30F980770284609B0F0BD10B50648416B012292051143416300F0E3
:202F400015F900F023F900F019F910BD00100240704710B501F0EEFF10BD10B5012000F039
:202F600013FA022000F010FA10BD10B5042000F00BFA082000F008FA10BD10B5102000F0B1
:202F800003FA202000F000FA402000F0FDF9802000F0FAF9FF20013000F0F6F901204002AF
:202FA00000F0F2F90120800200F0EEF90120C00200F0EAF90120000300F0E6F901204003AF
:202FC00000F0E2F90120800300F0DEF90120C00300F0DAF910BD000001A00AF003FAFEE7CA
:202FE0004572726F725F48616E646C65720A0D0010B5084900234B6107494A684C152243E6
:203000004A604A68082422434A60C009C001036010BD0000100400200020024010B50020E4
:20302000204A9169CB05204904D54869022318434861901593699B0505D54B6901242343E6
:203040004B616302184393695B0505D54B69082423434B61E301184393691B0505D54B69F3
:20306000042423434B616302184393699B0405D54B69102423434B616302184393699B038D
:2030800004D54C6920231C434C6118439369DB0305D54B69402423434B61A102084390613B
:2030A00010BD0000002002401004002070B5044600F030FA0546184E0AE0601C08D0002C09
:2030C00004D000F027FA401BA04201D9032070BDB069C007F1D1B069800701D50220B06159
:2030E000B069C00511D4B06980050ED4B06940050BD4B069000508D4B069800405D4B069C7
:20310000800302D4B069C00303D5FFF787FF012070BD002070BD000000200240064980005A
:2031200008580649401803D0C84203D0002070470120704702207047DCDB0008702FFCFFF7
:2031400008B56946044807F06BFE002801D0002008BD6846007808BD80090020884201D149
:20316000C8B201E0401EC0B240B2704702484168012211434160704700580140024841682D
:2031800004221143416070470058014002484168022211434160704700580140F8B5044671
:2031A0002068016849084900016000F0B3F906460027254620350EE000F0ACF9811B7D2098
:2031C000C000814207D9E06B20210843E0632F7103206871F8BD20680068C007ECD12F710D
:2031E000012068710020F8BD70B50024024620325179022903D00421C16301243CE0016862
:203200000B680E25AB430B6001680B685B085B000B601A4B0168994201D1012121E0174BAA
:203220001433994201D110211BE0144B2833994201D1891515E0114B3C33994201D189145F
:203240000FE00E4B5033994202D10121090408E00A4B6433994202D10121090501E0012111
:203260000906064B083B59600121517100211171816B002900D08847204670BD08000240DA
:20328000F8B505460E46184F387C012807D0012038741648FFF70AFF002802D020E0022081
:2032A000F8BD0021C94331606C6813E02046FFF79FFE0E48FFF7FAFE0D494A6808239A4387
:2032C0004A604A684B159A434A60002801D0346006E08034A9686A68C9018918A142E5D896
:2032E00000213974F8BD00001004002050C300000020024003484168022211434160002075
:203300007047000000200240F8B50E4617460B4C207C012808D0012020740948FFF7C6FE82
:203320000025002802D006E00220F8BD656137600348FFF7BBFE2574F8BD000010040020D8
:2033400050C300000948416889070CD54168C90703D00749C1600749C160074901610749BF
:2033600001610020704701207047000000200240EFCDAB8905040302BFAE9D8C16151413F4
:2033800010B501F057FD10BD10B504494A69024202D04861FFF7F4FF10BD000000040140D7
:2033A000F0B5002293E001249440A4462340002B7ED04C68022C01D0122C0CD1D408A400C6
:2033C00027183D6A5407E40E0F26A640B5430E69A6402E433E624C68012C05D0022C03D082
:2033E000112C01D0122C11D1856854000326A640B543CE68A6402E43866044686546AC439E
:203400000D79ED06ED0F954025434560076854000325A540AF430E79B607B60FA6403E4323
:203420000660C668AE438D68A5403543C5604C68E4004BD5294D6C6B012634436C63950881
:20344000274CAD002D19AF689407240F0F26A640B74305263607B04201D1002614E0214E57
:20346000B04201D101260FE01F4EB04201D102260AE01E4EB04201D1032605E01C4EB04295
:2034800001D1052600E00626A6403E43AE60194D2C689C434E68F60300D51C432C606C6892
:2034A0009C434E68B60300D51C436C60AC6800E00CE09C434E68F60200D51C43AC60EC68BD
:2034C0009C434E68B60200D51C43EC60521C0B681C46D44000D066E7F0BD000000100240AC
:2034E000000001400004005000080050000C0050001C0050000401400069084201D001202D
:20350000704700207047002A01D0816170478162704700000148006870470000B4000020B3
:2035200002480168491C016070470000B400002010B506480168022211430160032000F01F
:2035400007F800F007F8002010BD0000002002400020704710B50A48816B02041143816316
:2035600000F030F800F026F80648026808210A43026002688A43026000F014F810BD000033
:203580000010024000200240C106C90E01208840014908607047000000E100E010B503F00E
:2035A0001BF810BD02480168021511430160704700700040024801684215114301607047CF
:2035C0000070004002480168102291430160704700700040F8B5014600205E4B0124E403F1
:2035E0005B4D5C4A4033082972D013DC012943D002295DD004290CD1D9680326B602314076
:20360000002975D0D714B94275D11268520772D52846F8BD102967D02029FAD11D69196947
:2036200003231B04194001263604B14203D1AE0501D52046F8BD01246404A14203D1AC0729
:2036400001D54548F8BD9942FCD111688903F9D5106803210905084001210905401A09D082
:20366000401A05D0884201D13C48F8BD3C48F8BD3C48F8BD3C48F8BDD9688907890F002909
:2036800002D0022903D007E000F008FAF8BD1268520701D52846F8BD012906D00329FAD109
:2036A00019698905F7D52046F8BD00F007FAF8BDD9680C263140002902D0082903D008E0A2
:2036C00000F0DCF9F8BD1268520702D52846F8BD1FE0042909D00C29F9D119698905F6D5C4
:2036E0002046F4E704E006E02CE000F0E7F9EEE700F0C4F9EBE701229202914202D100F042
:20370000DDF9E4E7B142E2D119698905DFD52046DDE7D96803231B031940002908D0012371
:203720005B03994207D11268520704D52846CEE700F0A4F9CBE7012212039142C7D100F0D7
:20374000BDF9C4E7916B4902C1D500F097F9BEE70024F400001002408890000020A10700BC
:2037600000093D0040420F0080841E00F8B5044620785A4D80067FD5002658484038806B17
:20378000C00006D455484038816B020411438163012653480168C90512D40168821511431D
:2037A0000160FFF7B7FE074606E0FFF7B3FEC01B642801D90320F8BD49480068C005F4D583
:2037C0004648403800680321090508406268114081420AD09003800F032806D13F48403826
:2037E0000068800301D50120F8BD2869032109040840002821D00A4082421ED020788006F5
:203800001BD5286988432A690121C9040A432A612A698A432A612861C0050ED5FFF77AFE78
:20382000074607E0FFF776FEC11B2E48814201D90320F8BD28698005F4D560688103890F60
:20384000032908D1254B403B196803221205914310400143196028690322616812041140F4
:2038600008432861012E07D11C484038826B01048A4300E000E082632078C00705D0E868A9
:20388000A168800880000843E8602078800705D5E8680C218843E1680843E8602078400788
:2038A00006D5E86803218902884321690843E8602078000706D5E8680321090388436169B7
:2038C0000843E8602078000606D5E868032189048843A1690843E8600020F8BD401002400C
:2038E0000070004088130000F8B504460E465B480068C007C00FB0420CD258480168490867
:203900004900314301600068C007C00FB04201D00120F8BD2078524F800705D5F868F021E7
:203920008843A1680843F8602078C00760D06068022808D003280BD001280ED0396889057B
:2039400010D40120F8BD396889030BD40120F8BD3968890106D40120F8BD3968490701D42A
:203960000120F8BDF968890889000143F960FFF7D1FD0546606802280CD0032818D0012840
:2039800024D031E0FFF7C6FD411B3648814201D90320F8BDF8680007800F0228F2D127E030
:2039A000FFF7B8FD411B2F48814201D90320F8BDF8680007800F0328F2D119E0FFF7AAFD9A
:2039C000411B2848814201D90320F8BDF8680007800F0128F2D10BE0FFF79CFD411B214885
:2039E000814201D90320F8BDF8680007800FF3D11A480168C907C90FB1420BD90168490894
:203A00004900314301600068C007C00FB04201D00120F8BD2078400706D5F86807210902A4
:203A20008843E1680843F8602078000707D5F8680721C90288432169C9000843F86000F050
:203A40003DF8F968084A0906090F515CC840074908600320FFF77CFD0020F8BD0020024021
:203A60000010024088130000E8D50008B00000200148006870470000B000002000B5FFF7E1
:203A8000F7FF0449C968044A4905490F515CC84000BD00000010024001D6000800B5FFF770
:203AA000E7FF0449C968044A8904490F515CC84000BD00000010024001D6000810B51C4AA1
:203AC000D1680C230846184004280BD0082810D00C2810D050680004410F491C0120C00358
:203AE000884010BD1068C00601D5124810BD124810BD124810BD8802114B000F185C090234
:203B0000890F491CD368DB0304D50C4A5043FEF7EFFA10BD1268D20604D5064A5043FEF71F
:203B2000E7FA10BD044A5043FEF7E2FA10BD00000010024000093D000024F40000127A001C
:203B4000F8D50008F8B504462078FF4EC00755D0F0680007800F022807D0F0680007800FEB
:203B600003280AD1F068C00307D53068800345D56068002842D10120F8BD01216068090443
:203B8000884203D130680843306015E0052301221B049204984206D130681043306030685B
:203BA0000843306008E0306888433060306808400090306890433060606800280FD0FFF71F
:203BC000A9FC0546E14F06E0FFF7A4FC401BB84201D90320F8BD30688003F5D50EE0FFF779
:203BE00099FC0546D94F06E0FFF794FC401BB84201D90320F8BD30688003F5D42078800747
:203C00004CD5F0681F270007800F3F02012807D0F0680007800F032811D1F068C0030ED416
:203C20003068400704D5E068012801D00120F8BD70682169B8430902084370602EE0E068DB
:203C4000002819D031680922914301433160FFF761FC054606E0FFF75DFC401B022801D9B4
:203C60000320F8BD30684007F5D570682169B84309020843706011E030684008400030609F
:203C8000FFF748FC054606E0FFF744FC401B022801D90320F8BD30684007F5D42078C00646
:203CA0007ED5F068AA4F0007800F0BD0A069002863D03068FF21013108433060FFF72AFCAA
:203CC00005464AE03068800502D5A06900280AD0206A71683940884214D903F0A7FD00281E
:203CE00003D00120F8BD0120F8BD7068216AB843084370607068217F0002000A09060843EE
:203D0000706011E07168B943014371607068217F0002000A090608437060206A03F086FD4A
:203D2000002801D00120F8BD206A410B491C0120C0038840F168874A0906090F515CC840C7
:203D4000854908600320FFF703FC29E0FFF7E2FB401B022801D90320F8BD30688005F5D51B
:203D60007068216AB843084370607068217F0002000A09060843706012E03168FF20013041
:203D800081433160FFF7C6FB054606E0FFF7C2FB401B022801D90320F8BD30688005F5D416
:203DA00020786E4D000727D56069002812D02869012108432861FFF7ADFB074606E0FFF78C
:203DC000A9FBC01B022801D90320F8BD28698007F5D511E02869400840002861FFF79AFB88
:203DE000074606E0FFF796FBC01B022801D90320F8BD28698007F5D42078400770D500202D
:203E00000090B06BC00006D4B06B012109070843B0630120009052480168C90512D40168E1
:203E2000821511430160FFF775FB074606E0FFF771FBC01B642801D90320F8BD484800682A
:203E4000C005F4D5FF20A1680130814203D12969014329611BE00122920200290AD00523A7
:203E60001B0299420DD12969114329612969014329610CE0296981432961286990432861E3
:203E800005E0296981432961286990432861A06800280FD0FFF73EFB074607E0FFF73AFBD3
:203EA000C11B2A48814201D90320F8BD28698005F4D50EE0FFF72EFB074607E0FFF72AFB04
:203EC000C11B2248814201D90320F8BD28698005F4D40098012803D1B16B00078143B163B9
:203EE000606A002857D0F1680907890F032954D001273F06022806D03068B8433060FFF7D2
:203F000009FB044644E03068B8433060FFF702FB054606E0FFF7FEFA401B022801D9032078
:203F2000F8BD30688001F5D4E16AA06AF2680843216BFD231B049A4311430843F0603068C1
:203F4000384330600EE00000001002408813000000E00000E8D50008B00000204010024074
:203F600000700040FFF7D6FA044606E0FFF7D2FA001B022801D90320F8BD30688001F5D5FF
:203F800009E0FFF7C7FA001B022801D90320F8BD30688001F5D40020F8BD0120F8BD30B518
:203FA000014620310A78012A15D001240C7002224A700368CA225A62036853225A6202683F
:203FC000936820252B4393600068FF2242624C700020087030BD022030BD10B506F04EFAC0
:203FE00010BDF8B5044625462035287801281BD001202870022068702268CA205062226826
:2040000053205062FF2201320027914221D1206881689143816020688168120191438160DC
:20402000FFF778FA06460FE00220F8BDFFF772FA811B7D20C000814206D92168FF204862B7
:20404000032068702F70F8BD2068C068C007EDD020E02068816801225202914381602068B8
:204060008168120191438160FFF754FA06460DE0FFF750FA811B7D20C000814206D92168AE
:20408000FF204862032068702F70F8BD2068C0688007EDD52168FF204862012068702F7025
:2040A0000020F8BD10B50B46006841680D480140080CD870CC04E40E5C708C06A40E9C7034
:2040C0000904490F1970002A0AD103F0E7FBD870587803F0E3FB5870987803F0DFFB987082
:2040E000002010BD3FFFFF0010B50B460168896A5960016809694904490C99600068016824
:204100000E4801408802800E18704C04640E5C704C06640E9C70090C40242140D970002ABD
:204120000AD103F0BBFB1870587803F0B7FB5870987803F0B3FB9870002010BD7F7F7F0013
:2041400070B50446002C05D0254620356878002802D006E0012070BD00202870204600F013
:2041600045F8022068702168CA204862216853204862204603F0A5FBFF21002805D02068A7
:20418000416204206870012070BD20688268164B1A408260206882686368A6691A432369EE
:2041A00033431A4382602268E06810612068026923891B041A4302612068C26880239A4357
:2041C000C2602068C26C92089200C264E269606902432068C36C1A43C264206841620120D6
:2041E0006870002070BD0000BFFF8FFF00B595B00420089000201190FF2001300A9008A83D
:20420000FFF7A0FC002801D0FEF7E6FE20200190C002029001A8FFF7A9FA002801D0FEF7E5
:20422000DBFE084801690122920411430161002211460220FFF7B2F90220FFF7A5F915B0C5
:2042400000BD000040100240FEB504460B46254620352878012810D00120287002206870A5
:204260001E4600272036002A09D020688068400625D5187803F012FB22E00220FEBD2068B3
:204280008068400600D4DF70187803F00FFB0204587803F00BFB00020243987803F006FB26
:2042A0000243D87800040243307803F0FFFA00060243D869024358690243164618E0DF7012
:2042C000D869002832D0307803F0E8FA19789878090408435978DA7809021204114308431A
:2042E000317809060843D969084359690843064699695868084300902168CA204862216892
:2043000053204862FF22586A01328023904235D120688168914381602068C1681940FF3987
:204320008239C160FFF7F6F8019012E0307803F0B5FACBE7FFF7EEF80199411A7D20C00010
:20434000814206D92168FF204862032068702F70FEBD2068C068C007ECD02068C6612168A9
:204360000098486420688168FF220132114381602068816812011143816032E020688168C3
:2043800001225202914381602068C1681D4A19408918C160FFF7BEF801900EE0FFF7BAF8EB
:2043A0000199411A7D20C000814206D92168FF204862032068702F70FEBD2068C06880072B
:2043C000ECD52068066221680098886420688168012252021143816020688168120111432A
:2043E000816009480268012149040A43026082680A4382602168FF204862012068702F7000
:204400000020FEBD7FFDFFFF00040140F8B504460B46254620352878012806D001202870A2
:2044200002206870002A02D008E00220F8BD5878C10603D5EF2108400A305870002A23D0E1
:20444000587803F02BFA987803F028FAD8789E780004064358781978000249030843064359
:204460002168CA204862216853204862204603F028FA0027002818D02168FF204862042051
:2044800068702F700120F8BDD87803F00FFA0604587803F00BFA00020643987803F006FA63
:2044A0000643187840030643DAE711480640206846602068C16880229143C1602068806851
:2044C00080060CD4204600F097F8002807D02168FF204862042068702F700120F8BD216846
:2044E000FF204862012068702F700020F8BD00003FFFFF00F8B504460D4626462036307895
:2045000001280ED001203070022070700027002A09D02068806840061CD5287803F0BEF9B6
:2045200019E00220F8BD20688068400600D4EF70287803F0BBF90204687803F0B7F90002F0
:204540000243A87803F0B2F90243E8780004024300920BE0EF702978A87809040843697894
:20456000EA78090212041143084300902168CA204862216853204862204603F0A2F90028AA
:2045800007D02168FF2048620420707037700120F8BD1849009808402168086020688168CE
:2045A0000122920491438160E9682869014320688268114381602068C16880229143C16078
:2045C0002068806880060CD4204600F015F8002807D02168FF204862042070703770012085
:2045E000F8BD2168FF2048620120707037700020F8BD00007F7F7F0070B505462868C16891
:20460000A0229143C160FEF785FF04467D26F60006E0FEF77FFF001BB04201D9032070BDF7
:204620002868C0688006F4D5002070BD70B50446002C06D025464035687C0026002802D0D1
:2046400005E0012070BD2E74204600F032F80220687420680168402291430160A1686068AE
:2046600022690843E16811430843616901220843A169520211400843E1690843216A0843DF
:20468000A16A084321680860A0690421000C0840616A0843216848602168E06A0861206846
:2046A000C16992009143C161666501206874002070BD7047F8B504460020009025464035F5
:2046C0006E7C012E04D06E7C222E01D00220F8BD00290CD0002A0AD0002B08D02E7C012E26
:2046E00007D001262E746E7C012E04D005E00120F8BD0220F8BD32266E7400206065A26377
:20470000A387E3872163A386E386A064E0640126A06A7603B04207D120680168B1430160ED
:20472000206801683143016020680168490603D401684022114301600122D202FF21E068BD
:204740000531570090427ED16068002804D088420CD1E08E012809D1206B21680088C8600B
:20476000206B801C2063E08E401EE086E08E00284DD1A06AB04203D120680168394301600B
:20478000002201212046069B04F09CFC002801D00320F8BD2068C068A16B0880A06B801C86
:2047A000A063E08F401EE087C3E0002202212046069B04F087FC002801D00320F8BD206B00
:2047C00021680088C860206B801C2063E08E401EE086E08E002806D1A06AB04203D12068FF
:2047E000016839430160002201212046069B04F069FC002801D00320F8BD2068C068A16B42
:204800000880A06B801CA063E08F401EE087E08E0028CAD16068002814D100220121204682
:20482000069B04F04FFC002802D00320F8BD0AE02068C068A16B0880A06B801CA063E08F7F
:20484000401EE08775E06068002804D088420BD1E08E012808D1206B411C216321680078F7
:20486000C860E08E401EE086E08E002848D1A06AB04203D12068016839430160002201214D
:204880002046069B04F01EFC002801D00320CDE72068C068A16B0870E08F401EE08748E0A3
:2048A000002202212046069B04F00CFC002801D00320BBE7206B411C216321680078C8605D
:2048C000E08E401EE086E08E002806D1A06AB04203D12068016839430160002201212046F1
:2048E000069B04F0EFFB002801D003209EE72068C168A06B421CA2630170E08F401EE087D4
:20490000E08E0028CCD16068002812D1002201212046069B04F0D6FB002801D0032085E7F9
:204920002068C168A06B421CA2630170E08F401EE087A06A0227B04211D100220121204602
:20494000069B04F0BFFB002804D0606D3843606503206BE72068C0680090694608880122E8
:2049600080212046069B04F0ADFB002805D0606D202108436065032058E701206874A06A6F
:20498000B04212D120688168C943C9060DD4616D394361650168B1430160206801683143E2
:2049A000016000202874012040E7002028743DE7704770B5044620680168FF222132914353
:2049C000016020688168490849008160206881680025490600290ADA816840229143816098
:2049E000606E002803D08563606EFEF7D7FB5A2005530F202168603408622020A072002077
:204A000070BD7047F8B504462368D869196805072D0F002D07D1820605D58A0603D52046F1
:204A200005F0BAFEF8BD9A682027002D69D0D507ED0FFF2621360E402E4362D0C60706D07D
:204A4000CE0504D501261E62E36E3343E366830708D5D30706D0266802233362E36E042619
:204A60003343E366430708D5D20706D0236804221A62E26E02231A43E266020709D50A4623
:204A80003A402A4305D0236808221A62E36E1343E366E26E002AC5D0800604D5880602D566
:204AA000204605F079FEE06E000703D420688068400620D5204605F053FE206881684906E1
:204AC00015D58168402291438160606E00280AD01B498163606EFEF787FB0028A2D0606E27
:204AE000816B8847F8BD2046FFF78BFFF8BD2046FFF787FFF8BD2046FFF783FF0020E066D0
:204B0000F8BDC5020CD552020AD501200005186220466030477287722046FFF749FFF8BD64
:204B2000020605D50A0603D5204605F0D7FFF8BD4006FCD54806FAD5204605F020FEF8BD63
:204B40004DA7000870B50446002C05D025466035687A002802D006E0012070BD002028721F
:204B6000204600F029F82420687220680168490849000160606A002802D0204605F04EFD4A
:204B8000204605F049FE012813D0206841680922D20291434160206881682A229143816050
:204BA00020680168012211430160204605F09CFD70BD012070BD000010B50448816B01229D
:204BC00052041143816308F0DBFB10BD0010024070B5034660339C7A202C01D0022070BDD7
:204BE00000290AD0002A08D0012584682D03AC4209D10669002E02D005E0012070BDCE072F
:204C000001D0012070BD1E7A012E0ED001261E724165014640310A834A83FF22AC4209D178
:204C20000469002C03D08A8310E0022070BD144A8A830BE07F25002C19D00122120794429B
:204C400004D10269002A19D03F228A830021C16622229A72197201688A6832438A6000684E
:204C60000168FF22213211430160002070BD0469002C01D08D83E9E78A83E7E78D83E5E754
:204C8000FF01000038B504461648844229D120464030018B408B081A0090002813D012487B
:204CA0000078FF280FD0114805F07EFC0F4805F049FC6A460C490E4806F0EEF800210D4A6E
:204CC000084606F031F92046FFF773FEFF22013205492046FFF77CFF2068016810221143A9
:204CE000016038BDA00D0020A00C00206C0800208009002005D3000830B5034660335C7A11
:204D0000202C01D0022030BD00290AD0002A08D0012584682D03AC4209D10469002C02D0ED
:204D200005E0012030BDCC0701D0012030BD1C7A012C10D0C164014640310A824A820021D5
:204D4000C16621225A72197200680168802211430160002030BD022030BD000010B506493A
:204D6000002008700021202000F080FD0021034A084606F0D9F810BDAC010020C571000872
:204D800070470000014600200A0A00D00820084A114201D004221043064A114201D0022262
:204DA0001043054A114201D00121084370470000F0F00000CCCC0000AAAA000038B50C46FE
:204DC0000B21090743181A491AD00D155B1B1FD05B1B25D0AB4207D1CB6A08252B43CB623B
:204DE000C96A2940009106E0CD6A80231D43CD62C96A1940009114601146FEF7D1FA38BD9A
:204E0000CB6A01252B43CB62C96A29400091F2E7CD6A02231D43CD62C96A19400091EAE7BD
:204E2000CD6A04231D43CD62C96A19400091E2E70010024010B5FFF7A5FF8100024840588B
:204E4000002800D0804710BDE805002010B5FEF753FB10BD70B50D4616461C462846FFF74A
:204E600091FF0B49002C0ED080000C50284601F02DFB0446002231462046FEF78FFB2046B3
:204E8000FEF782FB70BD002280000A5070BD0000E805002010B5D2B2FEF735FB10BD0020E2
:204EA0007047000003494A690869496A50404840704700004000F81F704700000F494B6A2E
:204EC0000A69D218120EC2714B6A0A69D218120C82710A8A8B8CD218120A42710A7C8B8CFE
:204EE000D21802714A69120EC2704A69120C82708A8A120A4270097D017070474000F81FA6
:204F000010B5094C607800280CD1094907488860FFF736FF00F08EF804F080FA00F0F2F927
:204F20000120607010BD0000D00100200020000800ED00E070B500F0CDF9044600F072F84E
:204F4000054600E000BF00F06DF8401BA042F9D370BD000070B506460C4600222146204828
:204F6000FFF7C2F86568002231461D48FFF79AF8002221461A48FFF7B7F86068A842F1D12A
:204F8000F07818494143C91C8A08800725D0164970783D25401E03466843401CC50F281866
:204FA00040105B00D9408907890F401A8018B178401E08180D49484361783C225143227826
:204FC000E1231B015A438918A27810180818084A61688002511A401870BD0649D8E7000076
:204FE00028060020B5050000A0AA990080510100FF0300005055440003207047014800687E
:20500000704700007406002000B587B002A901A8FFF7A0FF0249096807B0401A00BD0000E0
:205020007406002000B587B002A901A8FFF792FF07B000BD10B5064C2078002807D100F0FC
:2050400053F800F047F800F07DF80120207010BDD000002010B50C4C0021042000F006FCAF
:2050600021688868C0040ED5C868C0050BD5C86880221040FF388238C86004499002486178
:205080002046FEF7AAFF10BD280600200004014070B50446FFF7B8FF211A0D4D0220285E53
:2050A000C01C814204D90021042000F0DFFB03E00121042000F0DAFB00F0B0FB012802D1E0
:2050C0000220285E241A204600F048F870BD0000D000002010B5FF2101310248FEF781FF61
:2050E00010BD00002806002010B586B0134812490160002444601F2181601149C1600461BA
:205100008461C461FFF71CF86946CC70012048708870087000220948FFF778F90194029442
:2051200005940494002201A90448FFF7E3F90348FEF735FF06B010BD0028004028060020A7
:20514000FF03000010B5044C2046211D1830FFF701FF206010BD000074060020F0B587B093
:2051600004461422494902A8FDF759F847485038406E019000F096F801204549400388617F
:2051800044480399401AA105890D081886B2A20A68468079404B594202E0D218401C80B226
:2051A0008A42FAD269460D7AE121090102E0521A6D1CADB28A42FAD269464C7A02E03C3A7A
:2051C000641CA4B23C2AFAD26946897A89188FB20121890203E0721A96B27F1CBFB28E42F3
:2051E000F9D203E03C3FBFB2641CA4B23C2FF9D203E03C3CA4B26D1CADB23C2CF9D203E05A
:20520000183DADB2401C80B2182DF9D26946C979890730D069464A792049515C814202D29C
:20522000FCF766FF08461B498A1B18492C394A60052252068A618F704C700D700A4620320B
:2052400010706846C07AC8700020C8614861FF2201324A62C8600861084600222438FEF76A
:20526000F3FF02A901A8FFF775FE012008494003886207B0F0BD69464A790949515C814248
:20528000D1D2FCF735FF0846CDE700007806002000040050FF03000080AEFEFF6BDB0008D5
:2052A00077DB000810B506480068C16880221140FF398239C16051000148FEF792FE10BDFD
:2052C0002806002010B57D2105F0C1FC4906C009084310BD10B5410EC0017D220023FCF7B1
:2052E00031FF10BD01B582B00020C0430090012301AA02A90248FFF7DDF9684680880EBD05
:205300009006002010B5134C11482060124804F0E9FDE0610020A060FF21053161602061AD
:205320006061E060A062206201214902A16160620A48416B8214114341632046FFF776F960
:20534000002801D0FDF748FE00F00AF810BD00000030014090060020809698000010024034
:2053600010B586B0142101A8FCF772FF02200290039003200490002005900524240701AA3E
:2053800020212046FFF71AFD01AA40212046FFF715FD01AA80212046FFF710FD0121029175
:2053A000039101AA10212046FFF708FD012210212046FFF76FFD06B010BD00BFFDE70000DA
:2053C00010B5044806F0B5FF002801D0012010BD002010BD8009002010B503A1095C03A024
:2053E00008F000F810BD00004142430073776974636820746F20636C617373202563206433
:205400006F6E650A0D00000010B502A007F0EAFF10BD00004A4F494E45440A0D000000004F
:20542000FEB5824E7160F060354610358168A81C884707F08FF8F068C068804707F002FDD1
:205440007B49002007F07EFC3060A96F002900D1A867A86F0190042069460870684600F0B5
:2054600051FD724832300190052069460870684600F048FD6D4842300190062069460870FD
:20548000684600F03FFD6BA007F0ACFFA9786EA007F0A8FF0124281981786FA007F0A2FFB2
:2054A000641C082CF7DB6EA007F09CFFA97A6DA007F098FF01242819817A67A007F092FF18
:2054C000641C082CF7DB66A007F08CFFA97C69A007F088FF01242819817C6AA007F082FF2D
:2054E000641C102CF7DB69A007F07CFF68A007F079FFA97854A007F075FF0124281981784D
:2055000055A007F06FFF641C082CF7DB54A007F069FF64A0A96F07F065FF444F65A03037E2
:20552000B97807F05FFF012428192030817855A007F058FF641C102CF6DB49A007F052FF35
:20554000B97C60A007F04EFF012428192030817C4CA007F047FF641C102CF6DB40A007F092
:2055600041FF5D485B4901605C4941605C498160F0682E490068083108600222564800F0EB
:20558000CFF9554C02200C342070284E7036307F2071204600F0B6FC07202070707F207115
:2055A000204600F0AFFC00202070B07F2071204600F0A8FC6878012835D0002000F064FFFF
:2055C00016202070F07F207143480C3000F09AFC12202070154D9035286860603E480C30BD
:2055E00000F090FC13202070686860603A480C3000F088FC0A202070287C207236480C3000
:2056000000F080FC10202070A868606032480C3000F078FC11202070E86860602E480C30F1
:2056200000F070FCFEBD0120C8E70000D4000020FFFFFF014966204F54414120656E6162E7
:205640006C65640A0D0000004465764575693D2025303258000000002D2530325800000074
:205660000A0D00004170704575693D2025303258000000004170704B65793D20253032580D
:205680000000000020253032580000000A0A0D0049662041425020656E61626C65640A0D46
:2056A000000000004465764164643D2020253038580A0D004E776B534B65793D20253032B9
:2056C00058000000417070534B65793D202530325800000021650008F80600202D65000853
:2056E00085650008F0B585B027480026034605461A460778991C103D0A32123323486C6814
:20570000012F33D06F463E70019102920393E178397401A91EC91EC01C4C03201C34207057
:205720006660204600F0EEFB0420207028686060204600F0E7FB05202070284632306060E3
:20574000204600F0DFFB06202070284642306060204600F0D7FB012020702071204600F003
:20576000D1FBE8684069804705B0F0BD6D462E70019102920393E178297401A91EC91EC0C9
:20578000684600F013FDEFE7E4000020E806002070B586B004460E4606F074FB0025ED43C0
:2057A000002802D0284606B070BD207901A900F00FFE01460020002908D069460872049039
:2057C000888206F0EBFF6946887510E0002E15D00120694608726079087320798882206867
:2057E00004900820C87506F0D9FF6946887502A800F042FA00280ED02846D4E76946087208
:2058000060790873207988822068049006F0C6FF69468875EBE70020C5E70000EFF31081FD
:2058200072B607480268002A01D0002005E04068002801D0012000E0022081F31088704700
:205840008C02002010B5EFF3108472B6064B00295A6804D0012904D102435A6001E0824383
:205860005A6084F3108810BD8C02002010B5EFF3108472B6064B00291A6804D0012904D1B2
:2058800002431A6001E082431A6084F3108810BD8C020020884200DC08467047F8B51546EC
:2058A000089E069C079A07461A48447183711C0AC4711C0C04721B0E43728272130AC3728A
:2058C000130C0373120E4273CCB2C4731248FDF766F929461048FDF773F910220D490E48F7
:2058E000FDF775F9224639460B48FDF770F90A49C81FFD38FDF7B1F80848C2780178120688
:2059000011438278407812040002024311433160F8BD00005002002094130020901200208F
:20592000FEB505460E461746002D7DD0286800287BD068680028FBD0A8680028F8D03846FA
:2059400003F006FB002871D0784CE56526662774002120461A3001706174A16321760126DC
:205960006676E1746165A1650B206946087101A9384603F0DCFA0090002800D001202075A8
:2059800008206946087101A9207C03F0D0FA684D287005206946087101A9207C03F0C7FA20
:2059A00068700C206946087101A9207C03F0BFFAE8600D206946087101A9207C03F0B7FA42
:2059C00028610E206946087101A9207C03F0AFFA68610F206946087101A9207C03F0A7FA0C
:2059E000A86110206946087101A9207C03F09FFAE86113206946087101A9207C03F097FA06
:205A00002F462037787014206946087101A9207C03F08DFA686215206946087101A9207C49
:205A200003F085FA387202E079E07AE07BE01A206946087101A9207C03F079FA38731B2066
:205A40006946087101A9207C03F071FA78731C206946087101A9207C03F069FA28631D20C7
:205A60006946087101A9207C03F061FA68630021207C03F066FA3E700A21696006222A7229
:205A80002846383841600272E968C1602969016169694161A9698161E969C161203006700B
:205AA00003F0C4FA28462349383004F0B9FC7D212846C900383004F034FD28461E4968307B
:205AC00004F0AEFC28461D497C3004F0A9FC28461B49903004F0A4FC28461A49CC3004F028
:205AE0009FFC04F08BFC6063284617494C3001601649816016490161164941601649C160A1
:205B0000164D296888476869804707F09BF9A674A96D30468847E86A80470020FEBD032013
:205B2000FEBD0320FEBD0A20FEBD0000E401002068110020B166000861710008597000087F
:205B4000B97000081D6600081D6F000815690008456E00080D700008AD6E0008C8D4000868
:205B6000F8B506460C4617461D460F48FDF717F839460D48FDF724F8E2B231460A48FDF78B
:205B800026F80949C81FFD38FCF767FF0748C27801781206114382784078120400020243A3
:205BA00011432960F8BD00009413002090120020FFB585B004460F461E4607ADF0220021F7
:205BC0001C4806F0BDFE1B4A1021204605F0B6F81022002101A806F0B3FE01206946087125
:205BE00001AC06223946601C06F092FE02222946E01D06F08DFE0F4A314601A805F073F865
:205C00001022002101A806F09BFE02206946087106223946601C06F07BFE02222946E01D8D
:205C200006F076FE034A01A80E9905F05CF809B0F0BD0000A0120020F8B506460C46174634
:205C40001D46F02200210B4806F07AFE094A1021384605F073F8074A2946304605F043F825
:205C6000102C06D329463046024A1031103005F03AF8F8BDA0120020F0B589B00446022065
:205C8000059000270026002C04D04849886BC20705D102E0032009B0F0BDC00601D50120D7
:205CA000F9E70020049014220021414806F048FE3F48012141703D4A51732078002804D0FB
:205CC000012812D003282ED120E0012611736B46187CC006C00E403004902779A0680290CD
:205CE000A08901900E2565571DE00126E07B10736B46187CC006C00E803004902779A06834
:205D00000290A08901900E2565570CE0012611736B46187CE0231843049060680290208977
:205D200001900A25655701206946087721480890007B88771D4807A9007C03F0F8F8069013
:205D4000A84200D2284640B2002E20D0174D2979002910D1694608730898007B8873042293
:205D600003A9287C03F057F9002812D011496846007B20394870394604A8019B029A03F09C
:205D8000E3FF05900598002805D000206871059881E703207FE706482178017003480122A5
:205DA0001A30017811430170F1E70000E40100206012002050110020FEB504460025002C1D
:205DC00018D04E4926784C480F463837027C330004F055FF1E1215181B1E2124282B2E38C1
:205DE0003F52485C6164676A6D707379767C7F8285888B8E0320FEBD407C207179E0C0783A
:205E0000207176E00079207173E0C06C606070E0006D60606DE03A4860606AE0384810303C
:205E2000606066E0807C207163E0C07C207160E019206946087101A9104603F078F800902B
:205E4000606056E02D482038816C406CA16060604FE02A48203801467C31C06F4968A16057
:205E6000606046E017206946087101A9104603F05EF8009060603CE016206946087101A920
:205E8000104603F054F80090606032E01B482030007820712DE0C86860602AE00869606017
:205EA00027E04869606024E08869606021E0C86960601EE0787820711BE04878207118E000
:205EC0003878207115E00878207112E0806A60600FE0C06A60600CE0406A606009E0486817
:205EE000606006E0087A207103E0486B606000E002252846FEBD0000E401002030110020FD
:205F0000100E0020F0B587B007460024002F06D0A24E308FC00704D0012007B0F0BD0320FF
:205F2000FBE79F4D3A78284620300590407B06909A480021007C130004F0A1FE1E102124A5
:205F4000272A2D374248F54B8CADA1B8C1C4C7CACDD0E1F4F8F2F1F5F0EFEEF53879707481
:205F6000002804D0012805D0022803D103E08D48C06A804710E1717101F09EF80CE1387988
:205F8000F07009E13879307106E17868F06403E17868306500E17968002904D01022824836
:205FA00006F0B6FCF8E00324F6E07968002905D07D481022103006F0ABFCEDE00324EBE0F2
:205FC0003879B0747749896D8847E5E03879F074E2E0397A6A46117206995172062202A9B0
:205FE00003F019F8002833D06D48BA682038796882644164707C0228BCD1F0780028B9D01B
:20600000674F0821F037009705982A7A41566B68307C02F078FF707D3870686A7860059847
:20602000407B3874F07C78740120F874B8743A462C323946307C02F0B7FF002806D0B87C05
:20604000E96803F033F8F87CF073A5E00324A3E00324A1E0397A6A461172069951720622B3
:2060600002A902F0D8FF002807D04D48BB6820387A688021C2670B508EE003248CE07968B4
:20608000039101216A46117403A902F048FD002800D1032480E07A6803926A46117403A95A
:2060A00002F03DFD002877D1032475E03879411E0E2902D8059908706EE003246CE07868F0
:2060C000E86069E07868286166E07868686163E07868A86160E07868E8615DE039796A46A3
:2060E0001172052202A902F096FF002805D06846017A2B48383041704EE003244CE03979DF
:206100006A461172042202A902F085FF00280BD06846007A68703FE03AE033E02CE028E0A2
:2061200024E003E013E036E0032435E039796A461172082202A902F06EFF002805D068466F
:20614000017A17483830017026E0032424E039796A461172072202A902F05DFF002803D059
:206160006846007A287017E0032415E07868B06212E07868F0620FE0094978683831486004
:20618000686009E00649387938310872287203E07868686300E002242046BEE6E40100202E
:2061A00030110020C8D40008100E0020F0B587B0044602200690002C06D04B48008FC007D3
:2061C00004D0012007B0F0BD0320FBE70C220021464806F0B5FB454E01207070424D207823
:2061E00008271A35002806D0012851D002285BD003286CD161E03C4B188FC00601D50120F0
:20620000E0E76068002813D0A068002810D0E06800280DD0207C00280AD069460873324845
:206220001E2203A9007C02F0F6FE002802D00BE00320C7E71F20694608722B4802A9007C58
:2062400002F075FE0190207428783843287020783070254E60683064A0687064E068B064C2
:20626000207C707600203076059002F0DFFE307E401C049004A9307C01F0F7FF1C49487077
:2062800000231A46194605A803F05EFD06901EE02878384328702078307000221146022007
:2062A000FCF7F4FC069012E03070287838432870A08803F0CFFD069009E0307028783843FF
:2062C0002870227BA088A16803F0ECFD06900698002806D00448002141712878F72108402B
:2062E000287006986EE70000E40100207412002030110020FEB5089E099D0A9C0096019536
:20630000029400F001F8FEBDFFB581B007460D4600240126F02200212B4806F011FB2A4A57
:206320001021039804F00AFD28480A994171049981710499090AC1710499090C017204999E
:20634000090E41720B9981720B99090AC1720B99090C01730B99090E417319E01B48C673C1
:20636000761CB6B2184A1146203904F0BCFC00202118154B7A5C203B1B5C5A400C9B5A5415
:20638000401C80B21028F3D3103DADB21034E4B2102DE3D2002D14D00C48C6730A4A1146B0
:2063A000203904F0A0FC0020074A203A07E021187B5C165C73400C9E7354401C80B2A84224
:2063C000F5D305B0F0BD0000A012002060020020F3B589B00C462A48417803910078029043
:2063E000284E307A717A4018C5B2002C33D000216846017631794176306B0790204908A8A2
:2064000038394A780270097841701D4F183F397B817030463030009002AB03AA06A9307C22
:2064200001F016FF397B68468175017B417509210175F07C002802D00A206946087505A9C2
:20644000307C02F074FD0490C0B26070A84205D3401B207007E003200BB0F0BD2070002583
:2064600000203072707268460C2141562A46099804F09EFB002801D00020EDE70820EBE781
:2064800068110020E401002038B5044668460470044D0B226946287C02F0BDFD002800D090
:2064A0002C7538BDE401002010B502790168407906F082FC10BD10B50168CA69D243D20650
:2064C00003D410220A62FEF7DDFB10BDFF220132811A90421ED009DC08281FD01ADC0128DB
:2064E0001AD0022818D0042814D117E00F2000020A1A81420ED006DCFF3901390AD0FF393C
:20650000FF39023906E001200003101A02D001214903401A072070470520704706207047A3
:206520004178002900D10078704700001CB50446607800281BD105F0A5FC002801D005F0EE
:206540008FFC607B012812D1E078E02810D069464871207B0871A06800900848E1894180FA
:20656000217C01715038C0680169684688471CBD0349204605F08CFC1CBD0000240100204F
:20658000E806002010B50446207800280CD0012809D16078002806D105F074FC002802D009
:2065A000204605F065FC10BD6078002805D005A006F018FFFFF796F810BD0548C06840695C
:2065C000804710BD4A6F696E204661696C0D0A00D4000020704700008307FF22DB0E9A40CB
:2065E0008907090E994000280BDA0007000F0838830808489B001818C36993430B43C3619E
:206600007047830804489B001818036893430B430360704700ED00E000E400E010B50B48CF
:2066200003F0C2FF0A484179002905D001218173816B042291438163407C022805D10448B4
:2066400010221A3001781143017010BD34120020E40100200EB507A00068029002A80090AA
:20666000012069460871E020487100216846FFF78FF80EBD0100000010B505F0D5FC10BDA8
:2066800010B504484168012903D9491E02A006F0A9FE10BD7C01002052656376206C6F722D
:2066A00061206672616D653A2025640A0D000000FEB50026944803F077FF944F944C3878C3
:2066C000C1067DD5A16B4A0604D54022914349084900A1638C4A0107D4320025002901DB8A
:2066E000C10711D08849C0314B78022B02D05378022B09D1A36B5B085B00A3632572637B54
:206700004B710D718D600126617931437E4E503E002940D1010701D4C1073CD0010702D5B9
:206720001178002910D03178A27A914201D981072CD5800703D42572206B401C2063A57256
:20674000607800281AD01CE0217E91725278002A07D0627E91420BD3A06B40084000A063BF
:2067600019E0A562A572A06B40084000A06312E0EF210840387000F0F3FC0CE0A06A401C49
:20678000A062A06B40084000A06304E0EF210840387000F0E5FC3878800718D55A4AC032F2
:2067A0001079012803D0607B217B88420FD9A57365716078002802D1A06A401CA06200E022
:2067C0003DE0607B5071A06B40084000A063A07B002853D0208FC00650D4A573607B217BDC
:2067E000884236D2082834D8401C6073C0070ED0202168460171317B8171434E703E717890
:20680000417101A9207C02F092FB0090707003F011FA002814D03C480921C03041702572A1
:20682000A16B49084900A16365710571617B417135497039497881706078002805D01DE029
:206840003878EF210840387018E0A06A401CA06214E00121207C02F074FBA06B4008400082
:20686000A063257265712848C0300571617B41716078002802D1A06A401CA062A06B810776
:2068800002D502218843A063A06B00280ED07D21C9001D4803F045FE1B4803F053FE3878C6
:2068A000800730D5607C02281DD01EE03878C00708D0E06D01681448C03088473878400843
:2068C000400038703878000708D5E06D81680E48D43088473878F721084038703878EF2165
:2068E00008403870DBE700F0E7FB3878400704D4E06D41680448A83088473878FB21084048
:20690000FD2108403870FEBDA0110020FE010020E4010020FFB59BB004460D4600200F905E
:2069200000210B910A9000260027FD48089010300790002006900590FA4801711838C2816D
:206940001E9A0274F84AD27B4274C17081704171816001734173817441610170F348C06A7A
:206960008047F048683803F01FFE20781590691E1991291F40091891ED491A90179101280F
:206980001CD003287ED005287CD007287BD0E54801211838417000F0B9FDE34810221A3002
:2069A000017811430170E2480121503003F0B9FDDF48503003F0C6FD1FB0F0BDDA4FF878B2
:2069C000002806D0D74801211838417000F09EFDF2E71998D74E81B2731C601CBA6CFFF7E3
:2069E0002BF910A8007D307018980BAB81B23046BA6CFFF7B5F870192038027F417F090299
:206A00001143827F12040A43C07F00061043C54C0B99143488424BD1C148C14B103000905E
:206A2000FA8B711CB86CFFF7C3F83179707900020843B17909040143F964F179307A0002A1
:206A40000843717A09040143B07A000608433865F07A41064A0F17994A7001071798090F54
:206A60000172307BB24E0007000F203E3061002801D1012030617D213069C900484330612B
:206A8000401801E017E0C1E17061AA480D301290113D10A8057312A9387C01F0EFFB00209A
:206AA00060700120F870A24818304078707074E70720607071E7179810A9407B887199480C
:206AC000183800794871092008719748C17C002902D00A2110AA1171934811A9007C02F011
:206AE00026FA0146109028460D3800B2002800DA0020884206D98B4901201839487000F071
:206B000005FD59E76078A17809020143E0780004084322790521120602430E9282480E9A1C
:206B2000006D82421BD08048476A0CE03A680E98824207D101200690381D08901030079075
:206B40007E6A02E0BF6A002FF0D10698002808D174480B211838417000F0D8FC2CE7724839
:206B6000C66A481CC2B2605C14901690511CA25CC9B2615C090211430007000F08300D901A
:206B800060192038027F0A9B1A43437F1B021343827F12041A43C07F000610430A90881B23
:206BA00080B2099001220998D2030BA9904213D209983618012000901898029181B2019659
:206BC00020460E9B089AFEF769FE0B990A9888421CD10120059019E00998012200B230183E
:206BE00012048018049004980190189801220291009281B220460E9B089AFEF74FFE0B9964
:206C00000A98884202D101200590049E112010A90871454811A9007C02F089F91090099901
:206C2000884207D83F480A2118384170466100F06DFCC1E6059800287ED03A49002018394A
:206C40004870069A8A70169AD206D20F4A71886008734E6118314870334A1063507206985B
:206C6000012812D01A9805281FD00020134698710A46183A1070D86AB04223D1002821D056
:206C80000820507000F042FC96E6264A0220183A1070786AB04206D1002804D0082050706F
:206CA00000F034FC88E67E620EE01F48012282711C4B183B1A70C06AB04203D1002801D0CE
:206CC00001200F901848C6621648007801283CD01549002008720D98281A001F00285BDD03
:206CE0000D98411C205CCFB2E91B091FC9B20C910C491839C87000282ED01698000707D0C1
:206D00001E980821C3B2781EC2B2204600F01EFC0120084D009001960295E0190E9B0CE0E3
:206D2000100E002060120020E4010020C8D40008501100202F0F002062E0079A0C99FFF77D
:206D4000D9FA0F98002820D030E016988006C2D5394900200872BEE71698000702D001205D
:206D60000F9023E035480121029000910196E0190E9B089A0C99FFF7BDFA1E980021C3B236
:206D80002E480C9A00F0E2FB10E02D4885600C9901730121417309E01698000706D01E98A7
:206DA0000821C3B220460D9A00F0D0FB0F9800281AD1169880060AD5214901201831087153
:206DC000183988740846143803F0EEFB0CE01C490020183108711848417B007B814203D987
:206DE0001748143803F0E0FB134A02211A3210780843FB2108400F99890008431070CCE56A
:206E00000F480C21417000F081FBD5E5611C2A460A4805F07DFD0A480321017000214170B0
:206E20000649816019990173034802221A30017811430170B1E50000E40100202F0F00200C
:206E40004812002070B5164C607C022803D01548C06A804701E000F02FF9134A104DE07BFC
:206E600011461A3510261431002809D063790620002B00D05070487028783043287070BDA3
:206E800063790520002B00D050704870606D03F0BBFAA16E8842F2D328783043287070BD93
