:020000040800F2
:2000000018080020B51900089518000897180008000000000000000000000000000000005E
:200020000000000000000000000000009918000800000000000000009B1800089D1800088F
:20004000FB070008AB080008AF080008EB1400087B19000887190008B1190008D919000805
:2000600000000000DB190008DD190008DF190008E1190008E319000800000000E51900087A
:2000800000000000E71900080000000000000000E919000800000000EB190008ED19000834
:2000A000EF190008F1190008F3190008F5190008C1180008F71900080000000000000000FB
:2000C000F8B50400B34D2078C0074FD58027BF02E8680C210140082907D0E8680C21014000
:2000E0000C290AD1E868C00307D5286807403DD0606800283AD10120F2BD6068790888423F
:2001000001D1286809E0A021C9028842286806D17900014329602868790801430AE0AA495F
:2001200001402960286879080840009000982868A64901402960606800280BD000F0ECFA8A
:2001400006002868384011D100F0E6FA801B6528F7D396E100F0E0FA06002868384005D0C9
:2001600000F0DAFA801B6528F7D38AE12078800719D5AF4FE8680C210140042907D0E86841
:200180000C2101400C2935D1E868C00332D42868400702D5E0680128ADD168680740206960
:2001A000000238436860AF0D2078C00668D5E8680C2101407AD12868800502D5A06900287D
:2001C00099D0206A6968E02212020A40824235D200F05EFA00288ED16868AC490140206AD1
:2001E0000843686068680002000AE16909060143696034E0E068002810D0296809229143B6
:200200000843286000F088FA060028684007C4D400F082FA801B0328F7D332E12868012163
:200220008843286000F078FA060028684007BAD500F072FA801B0328F7D322E16968934A00
:200240000A401043686068680002000AE169090601436960206A00F01BFA0028BBD1012093
:20026000216A490B491C8840C0038949EA681206120F895CC84087490860002000F052FAD1
:200280002078000750D560690028286D3DD001210143296500F040FA0600286D800743D4B0
:2002A00000F03AFA801B0328F7D3EAE0A069002828681BD03843286000F02EFA0600286863
:2002C000800505D400F028FA801B0328F7D3D8E068686E490140206A08436860686800022F
:2002E000000AE169090601436960C9E76A490140296000F011FA060028688005C0D500F0C6
:200300000BFA801B0328F7D3BBE001218843286500F002FA0600286D800705D500F0FCF966
:20032000801B0328F7D3ACE02078400763D5002000903805A96B014004D1A96B0843A86309
:200340000120009055480068384011D15348006838435249086000F0DFF906004F4800683F
:20036000384005D100F0D8F9801B6528F6D388E0A168B9420AD0A24800290DD0A022D200B3
:20038000914209D1286D290D01432965286D07432F6508E000100240296D3F4A0A402A656E
:2003A000296D08402865974FA068002810D000F0B3F90600286D800516D400F0ADF9801B05
:2003C000B842F7D35DE000BFFFFFFEFFFFFFFBFF00F0A2F90600286D800505D500F09CF960
:2003E000801BB842F7D34CE00098002803D0A86B85490140A963606A002844D0E9680C222C
:200400000A400C2A00D176E68027BF047F490228286829D10140296000F07EF90600286882
:20042000384007D000F078F9801B0328F7D328E0FFE0FFFFE86893490140A06A0843E16A8A
:200440000143206B0843E860286879080143296000F062F906002868384014D100F05CF9D9
:20046000801B0328F7D30CE00140296000F054F906002868384006D000F04EF9801B032818
:20048000F7D30320F2BD0020F2BD0000FF1FFFFF3C1800080C000020FFFEFFFF00700040A2
:2004A000F2B582B004000127FF43012576480068284088420AD27448006838400143724801
:2004C0000160006828400299884274D16F4E2078800705D5F068F0218843A1680143F160B9
:2004E0002068284055D06068022802D13168890308E0032802D13168890103E0012831684F
:2005000002D1490702D456E0890554D5F168032291430843F06000F0FFF80090606802289F
:200520000CD1F0680C210140082932D000F0F4F80099401A33498842F3D328E003280CD1FA
:20054000F0680C2101400C2923D000F0E5F80099401A2C498842F3D319E001280CD1F06891
:200560000C210140042914D000F0D6F80099401A24498842F3D30AE0F0680C21014008D0C6
:2005800000F0CAF80099401A1E498842F4D30320FEBD02983C490968294088420DD23A48BC
:2005A000006807400298384337490860086805400298854201D00120FEBD2078400705D513
:2005C000F0684B490140E0680843F0602078000706D5F068474901402069C0000843F06084
:2005E00000F016F84449F2681206120F895CC84042490860002000F095F80020FEBD000085
:20060000FFFBFFFF89130000FFFFFFEFFFFFFFFEF0B51E4DE9683B4A9308102654080C2020
:200620000840042804D0082809D00C2809D01DE02868064001D01800F0BD1000F0BD200016
:20064000F0BD31488F023F0FC05D0902890F491CEF68FF0301D5604305E02C68264001D0EE
:20066000584300E0504300F071F8F0BD686801210004400F401C8140C803F0BD1F480068BD
:2006800070470000FFFF02FF0020024000100240F0B5002201211A4B1C68F025254018D1BB
:2006A000C02464011A4D0E07DF6A374002D02D68254008E0DF6A3E43DE622D682540DE6AB5
:2006C000144F3740DF62A54203D1E300984200D101220E4803680124A343134303600068A6
:2006E0000140914201D00120F0BD0020F0BD0000FFF8FFFFFFC7FFFF3C1800080C00002039
:200700000C1002400024F4004C1800080020024000700040FFFFFFEF01480068704700BFD2
:200720009414002010B5040007480068FA21890000F00CF800F089F8002221000020C04302
:2007400000F076F8002010BD0C0000200022030A8B420BD203098B4219D243088B422ED26D
:20076000411A00D20146524110467047FF2209023FD012068B4205D3121209028B4201D39D
:200780001212090203098B4219D300E0090AC3098B4201D3CB01C01A524183098B4201D39F
:2007A0008B01C01A524143098B4201D34B01C01A524103098B4201D30B01C01A5241C308A9
:2007C0008B4201D3CB00C01A524183088B4201D38B00C01A524143088B4201D34B00C01A0B
:2007E0005241884200D3401A5241CFD201461046704708B500F05AF808BDFEE710B5C200B7
:2008000018231340FF249C40E2438907090E9940002804D51F4B0007000F083800E01E4B9C
:2008200080088000181803681A401143016010BD80B5FFF7E3FF01BDBFF34F8F174818491E
:200840000860BFF34F8F00BFFDE710B5401E80214904884201D3012010BD124C606003211E
:200860000020C043FFF7CAFF0020A0600721216010BD0C490428086803D1042202430A6066
:200880007047042290430860704780B500F00CF801BD00001CED00E000E400E00400FA05F2
:2008A0000CED00E010E000E07047FEE77047FEE738B55F4B1A68002A1BD1002919D0B04A1C
:2008C000914216D2AF4A1478012C12D1AE4C0578A56200251570491E19609D800A00411C3C
:2008E000981D00F0E3FA2068802101432160012032BD002032BD38B5050000F005FB84B251
:2009000021002800FFF7D4FF0128F9D131BD80B59D48C169890607D50168890604D5406ABA
:20092000C0B200F03AF801BDC169C90607D50168C90604D51021016200F041F801BDC369D8
:2009400040223B491B0617D503681B0614D50B68002B09D08A88531C8B808A18927982629B
:200960000868401E086001BD016880239943016001680A43026001BDC3695B060CD503688B
:200980005B0609D50262026840239A4302600020086001207B49087001BDAA498A8883235A
:2009A000DB009A420ADA0A68002A07D18A88531C8B80891888710120A349086070470020B6
:2009C000A14908609F498A880A6088807047000038B500249D4B0D68002D0FD00078552833
:2009E00001D0752809D101201D78002D00D118705D68C82D01DB5C6010700C609868944958
:200A0000884213DB9C6093480168934A0A40802189058A4206D141685961006880F3088817
:200A20000846804703A0FFF766FFFEE731BD0000380C00200A0D5374617274204661696CAB
:200A40002100000070B504000D001600012028600FA0FFF750FF3D2213A1200000F026FA49
:200A600021A1200000F058FA22A1200000F054FA22A1200000F050FA2FA1200000F04CFAEE
:200A8000022030702000FFF736FF0020286070BD0D0A462D49434D2D30312D313830363057
:200AA00034310D0A000000000D2A2A2A2A2A2A2A2A2A2A2A2A2A2A2A2A2A2A2A2A2A2A2AE7
:200AC0002A2A2A2A2A2A2A2A2A2A2A2A2A2A2A2A2A2A2A2A2A2A2A2A2A2A2A2A2A2A2A2AD6
:200AE0002A2A0D0A00000000312E5570646174610D0A0000322E52756E0D0A002A2A2A2A62
:200B00002A2A2A2A2A2A2A2A2A2A2A2A2A2A2A2A2A2A2A2A2A2A2A2A2A2A2A2A2A2A2A2A95
:200B20002A2A2A2A2A2A2A2A2A2A2A2A2A2A2A2A2A2A2A2A2A0D0A0053656C6563743A0092
:200B400038B50C002168002918D000250078312802D032280CD010E0B2483E498160B249B7
:200B60000160B74941600320107000BF07A002E0157000BF09A0FFF7BEFE256031BD000076
:200B8000190400001000002000440040310D0A43686F73652046570D0A000000320D0A52DB
:200BA000756E6E696E672E2E2E0D0A0070B50023002824D01400080025006C1E2D0410D0C5
:200BC0001D0003781B026B40401C08255E001B0403D5AA4B73409BB200E0B3B26D1EEBD057
:200BE000F4E7885C000289184978401880B283420AD0002070BD1B18DBB2491C521E087847
:200C0000002AF8D18342F4D1012070BD9C49C86008680006FCD5704730B5010000220020D6
:200C20000A4B1C69002C00D41A611C698C4201D31A6130BD924C2568AD06F6D5A068C0B26D
:200C400030BD0000180800209014002058140020B80B0000002000080000FE2FF3B5894886
:200C600085440020039043270120009000200290192001900D20FFF7C9FF0A20FFF7C6FF91
:200C800068480068010002D0804700E015271024380001D0FFF7BAFFFA20C000FFF7BCFF0F
:200CA00000282DD4012806D0022810D0042811D0182819D024E08024432F01D1012103912A
:200CC00000276946087404A8451C002630E08024E400F1E70620FFF799FF0620FFF796FFBA
:200CE000029869498D44F0BDFA208000FFF794FF182805D10620FFF789FF0020C043F0E753
:200D0000641EC5D1432FC1D01820FFF77FFF1820FFF77CFF1820FFF779FF0120EEE7FA20AD
:200D20008000FFF779FF002861D428706D1C761C0398002801D0601C00E02000C01C864201
:200D4000EDDB04A8407804AA9278D343DBB298424DD10099884202D0491E884247D1220074
:200D600004A8C11C0398FFF721FF00283FD004A840780099884226D1FFAD6D6AAC4201DAF8
:200D8000250001E0012D18DB2A0004A8C11CFFA8006A00F08BF823484368180005D0AAB296
:200DA00020488168FFA8006A98471E48806840191C4988600298401902900098401CC0B213
:200DC00000901A2001900198401E019001280ADA1820FFF71BFF1820FFF718FF1820FFF768
:200DE00015FF02208AE70620FFF710FF4FE71520FAE780B52548016880229143016001688A
:200E000040229143016001681022914301600168202291430160010D1D48FFF71FFFFFF70E
:200E20000BFDFEE700000020AB1700081748016810220A430260016820220A430260704721
:200E40006917000880B5134A10785168002805D0022807D004D3032806D007E00E4907E03C
:200E60000E4905E00E4903E00E4901E00020107051600D49881D5368984701BD21100000EF
:200E80001C440040E4FBFFFF24040000004400405810002088140020D1090008450A0008AC
:200EA000410B0008F30D000818080020124207D08B0706D00B78491C0370401C521EF7D80D
:200EC0007047830706D00B78491C0370401C521EF9D1704770B4103A03D378C9103A78C04C
:200EE000FBD2530701D318C918C001D508C908C0D20704D30B880380891C801C002A01D5C8
:200F00000B78037070BC7047010000E0491C0A78002AFBD1081A7047020000E0521C137886
:200F2000002BFBD10B781370002B02D0521C491CF8E77047F2B51700344C207C012801D179
:200F40000220F2BD012020745A4D280000F026F80026010005D1666100980760280000F053
:200F60001DF82674F2BD5448016889070CD50168C90703D551498160514981605149C160DB
:200F80005149C16000207047012070474A4801680222FFE70A4302600020704770B5050032
:200FA000FFF7BAFB06004A4C2068C0070CD50020C0438542F8D0002D04D0FFF7ADFB801BCE
:200FC0008542F1D2032070BD02202168014000D020602068C00511D4206880050ED4206852
:200FE00040050BD42068000508D42068800405D42068800302D42068C00303D500F008F88B
:20100000012070BD002070BD000000007014002030B500222D4880235B002D490C681C40D1
:2010200004D042690224144344611A004B0D0C681C4006D0446901252543456114001A00E8
:2010400022430B0D0C681C4006D0446908252543456114001A002243CB0C0C681C4006D075
:20106000446904252543456114001A0022439B000C681C4006D044691025254345611400B4
:201080001A0022430B689B0306D5202344691C43446114002022224380235B020C681C4066
:2010A00006D0446940252543456110001A0002430A6030BD50C3000004200240EFCDAB890B
:2010C00005040302BFAE9D8C161514137014002018200240F8B50400514D2078800670D54A
:2010E0000020009080204005A96B014004D1A96B0843A863012000904A4E3068C0050FD43E
:201100003068A90D01433160FFF706FB07003068C00505D4FFF700FBC01B6528F7D336E03F
:2011200029686068C026B60232010A40310101408A4208D031000140B14204D129688903CD
:2011400001D50120F2BD296D314022D0304081421FD0207880061CD5286D33490140286DD8
:201160008022120302432A65286D304A02402A652965C8050DD5FFF7CFFA0700286D8005E7
:2011800007D4FFF7C9FAC01B29498842F6D30320F2BD606831000140B14206D12968254A05
:2011A0000A403101014011432960286D61680E4006432E650098002803D0A86B1E490140BF
:2011C000A9632078C00705D5E86C03218843A1680143E9642078800705D5E86C0C218843A8
:2011E000E1680143E9642078400705D5E86C1349014020690843E8642078000705D5E86C7E
:201200000F49014060690843E8642078000605D5E86C0C490140A0690843E8640020F2BD04
:201220000010024000700040FFFFFCFFFFFFF7FF89130000FFFFCFFFFFFFFFEFFFF3FFFF7B
:20124000FFCFFFFFFFFFF3FF38B501000020444A324C80231B02032913D1E16C8907890F73
:20126000C025AD020D433F496D1A1AD06D1E1BD06D1E1ED000F029F800F044F800F050F82D
:2012800032BD0C2920D1E16C0C250D40C02109032943354D491B04D0091F05D0091F08D05E
:2012A0000CE000F012F832BD216849070CD5100032BD216D890507D5180032BD00F005F8B4
:2012C00000F020F800F024F832BD10B5274A9368072001210C241C400DD0042C04D0082CF0
:2012E00004D00C2C04D006E01D4810BD204810BD00F01EF810BD1268520B1040401C8140AA
:20130000C80310BD1B4909681B4A0906090F0CE018490968194A490506E00000001002402D
:2013200014490968154A8904490F515CC840704700B510490868802252021040904201D1C7
:201340000B4800E006480A6809680D4B9202120F9A5C50430902890F491CFFF7F7F900BDE8
:201360000024F4000100030004000C000410024000127A000C1002403C180008D0190008B4
:201380004C180008F0B58FB08020800229490A6802430A600968084006900698042400949F
:2013A000022701970326029600250395049505946946A020C00500F047F808200090019709
:2013C00002960395049505946946A020C00500F03BF819480168FF2291430160A00617492E
:2013E0000860E12040020790089509950A950C200B900C950D95124C07A9200000F076F83B
:201400006068F904014361606068710501436160A068A10C0143A16060680A4901406160A8
:20142000A0682A218843A06020680121014321600FB0F0BD381002401CE400E000E100E088
:2014400000440040FFB7FFFFF0B500230CE02D0A2A006A436A436A43456A1601B61AB543AA
:2014600062432A4342625B1C0A681400DC402FD001259D401540F6D02A006A435400A61897
:20148000F443066826404F685743374307604E68012E01D0022E05D1866826408F6857436E
:2014A00037438760C66834400E6956432643C6604C68022CD7D14C69FF2DC8D86A436A4325
:2014C000056A1601B61AB54362432A430262CAE74B68012B01D0022B05D143689343C96832
:2014E0004A431A4342600120F0BDFEE770B504000E0000252068C0073ED4206821490140BD
:2015000070680843F168014330690843B1690143216060681C490140B06808436060A068AF
:201520001A49014070690843A0601448844201D1032003E0124884421ED10C20FFF784FE36
:20154000002819D03168002916D001254A08B369EE03B3420BD140008018FFF7F7F880B28D
:201560000B4901400007400F0143E16004E08018FFF7ECF880B2E060280070BD0038014065
:2015800000440040F369FFEFFFCFFFFFFFFCFFFFF0FF000010B500F059F800F011F800F0DA
:2015A00065F8FFF7EFFEFFF741FC254CFFF74AFC2068FA2189008842F8DB00202060F5E7C6
:2015C00070B59AB01F4801681F4A0A40C10C1143016002240C9401260F9610201090002510
:2015E00015950CA8FEF76CFD002800D0FEE70F200090019602950395049500216846FEF770
:201600004FFF002800D0FEE70594089505A8FFF761FD002800D0FEE7FFF730F8FA218900C9
:20162000FFF794F8FFF711F90420FFF722F9002200210020C043FFF7FBF81AB070BD0000AD
:201640005C14002000700040FFE7FFFF80B50648016840220A4302600020FFF763F800F008
:2016600013F8002002BD00000020024081B0012004490A6802430A6009680840009000987D
:2016800001B070472C10024080B50E48016801220A4302604168802252050A4342600022EB
:2016A00000210420C043FFF7C3F8002200210120C043FFF7BDF8002200210020C043FFF7C3
:2016C000B7F801BD34100240F2B50700174C207C012801D10220F2BD012020741448FFF797
:2016E0005DFC01001FD10021C943009A11607D68104E00E08035B968C9017A6889188D4253
:2017000011D2280000F01AF80948FFF747FC31680822914331603168074A0A403260010043
:20172000E8D000990D6000212174F2BD7014002050C3000004200240FFFDFFFF10B5002189
:20174000074A5161074A1368540D1C431460136808241C4314607F229043016010BD00006A
:20176000701400200420024070B582B00D0016000400009503E0241D0098001D009000984B
:20178000A91988420FD2FFF7EEFB226800990220FFF7D0FBFFF7FAFB2068009909688842B0
:2017A000E9D0002076BD012076BD10B586B000240194FFF7D8FBDC20000200900098810A9B
:2017C000800500D0491C029405480390049101A902A8FFF779FFFFF7D9FB06B010BD000035
:2017E000002000080F480168820D0A430260C1680D4A0A40C26001680C4A0A400260816883
:201800000122914381600168094A0A400260C168084A0A40C260002101618020000506492A
:2018200008607047001002400C40FF88F6FFF6FEFFFFFBFFFFFF02FF08ED00E000000000AF
:20184000000000000102030406070809030406080C1018203000000070B40121002213E06C
:201860000468001D0C4202D04D466D1E64192260241D1B1F042BFAD225009E0701D52280EA
:20188000AD1C0B4000D02A700368001D002BE7D170BC70477047FEE77047704780B500F04D
:2018A00013F8FEF7F2FF00200449820089180A68521C0A60401C0428F6DB01BD5C140020B6
:2018C00080B5FFF724F801BD02480168491C0160704700BF9414002030B401210268001DBF
:2018E000002A0FD00368C318446808300C4202D04D466D1E64191D6825601B1D241D121F46
:20190000ECD0F8E730BC704710B5074979441831064C7C44163404E0081D0A688918884727
:201920000100A142F8D110BD080000002800000029FFFFFF800C000018080020000000000B
:2019400099FFFFFF1400000054000000000000200000000000F00BF8002801D0FFF7D4FFB4
:201960000020C046C046FFF715FE00F002F80120704780B500F002F801BDFEE707463846E3
:2019800000F002F8FBE7FEE780B5C046C046024A11001820ABBEFBE726000200000000004D
:2019A000000000000020000880841E0001000000FEE700000148804701480047E517000853
:2019C000C5190008C046C046C046C046FFF7C2FF0000000001020304FEE7FEE7FEE7FEE7B4
:2019E000FEE7FEE7FEE7FEE7FEE7FEE7FEE7FEE7FEE7FEE7FEE7FEE700000000000000002B
:201A00000000000000000000000000000000000000000000000000000000000000000000C6
:201A20000000000000000000000000000000000000000000000000000000000000000000A6
:201A4000000000000000000000000000000000000000000000000000000000000000000086
:201A6000000000000000000000000000000000000000000000000000000000000000000066
:20200000001E0020D5200008056400085D520008000000000000000000000000000000005D
:20202000000000000000000000000000CF87000800000000000000002D70000889A000086C
:20204000E7200008E720000873760008E7200008E72000081B2F00082B2F00083B2F00082D
:2020600000000000E7200008E7200008112F0008E7200008E720000800000000E7200008CD
:2020800000000000E72000080000000000000000E720000800000000E7200008E720000804
:2020A000E7200008E7200008E7200008E7200008C1AD0008E720000800000000000000005F
:2020C0000348854600F0AAFC004800473DC90008001E00200448804704480047FEE7FEE709
:2020E000FEE7FEE7FEE7FEE731A10008C120000830B50B46014600202022012409E00D4649
:20210000D5409D4205D31D469540491B2546954040191546521E002DF1DC30BD70B50024C3
:202120002546002801DA01244042002901DA01254942FFF7DDFFAC4200D04042002C00D0C7
:20214000494270BDF0B51FB40646002082B005464024019100901BE0019922460F46304618
:2021600000F046FB049A059B801A994110D310461946224600F02CFB361A8F410197224645
:2021800001200021009F00F023FB38184D4100902046641E0028DFDC019B009829463246FC
:2021A00007B0F0BDF0B51FB486B000200090019002900698069980B204900798090C02047D
:2021C0000014114307900027089D099806913E463C4603900398A9B20204000C039004982C
:2021E0002D0C154348430021224600F0F1FAC719714110340E46402CECDB3846029A00F0F8
:20220000E7FA009A019B80180090594102980191103002904028CCDB00980BB0F0BD03468F
:202220000B439B0703D009E008C9121F08C0042AFAD203E00B780370401C491C521EF9D259
:202240007047D2B201E00270401C491EFBD270470022F6E710B513460A4604461946FFF79D
:20226000F0FF204610BD421C0178401C0029FBD1801A704730B505460020034600E05B1CD3
:20228000934205D2EC5CC85C201A01D1002CF6D130BD0321001D401E037812021A43491E48
:2022A000F9D510467047F8B502464A40D40F42004B0052085B089A4202D2024608461146FA
:2022C0004A0023D0C30D4A00DDB2120EAD1A202D35DA49020126490AF6058A19002C00D076
:2022E000524220214F1B1146B9402A411018C20D9A4221D0002C17D0012D08DCDA05801A82
:20230000D20F8019D207DBB200F09EFAF8BDDA05801A012340001B06C01880185A428018FE
:20232000CA0F1043490007E04908C2071143DA05801A80194008801800F07EFAF8BD610063
:202340000122511A001BF7E70122D2075140AAE70122D2075040A6E7F0B5074608465840E7
:2023600087B0C00F049048000E46590040084908BC1A884105D2384631461E4617460B46B8
:2023800002465800400810434CD0300D039040055900400D490D0590401A0290402872DAA0
:2023A00018030121000B09050843019004980092002805D001995242002088410092019086
:2023C000029840210A1A0199009800F001FA05460C466B4607CB00F01CFAC0197141039A73
:2023E0000E0D0023D71756401A467A40164344D0049A002A2DD0029A012A039A15DC120563
:20240000C01A914101263605001C7141D20F059ED2070093019202962A46234600F05AFAA8
:2024200007B0F0BD38463146FAE71605224A0F46B218C01AB74101210905001C4F410018F6
:202440007F41114618187941E20F10436D19644113E0E2076D0815436408C2071443039A3A
:2024600001261205C01A91413605001C7141CE07400830434908C01851412A46234600F055
:202480001CFACDE7FFE7049801224000C117121A00238B4104983146C417381AA141EEE7A3
:2024A00030B40124E407634030BC55E730B40124E407614030BC4FE70000E0FFF0B51FB44F
:2024C00088B00B990998002448400999C00F490049080991C0070B990090490049080B91FD
:2024E00009990898A64608431CD00B990A98084318D0099801244000420D4800410D099872
:2025000024050003000B204309900B980003000B20430B9050181C494018002201901446A7
:20252000104605E0002001460DB0F0BD032801DA034600E003239C46C11A0AAE0AE05F007C
:2025400008ADED5B4F00F75B7D430027AA187C41491C5B1E6145F2DD410004AB5A52210463
:20256000120C0A43240C401C0828DFDB019802900099704601910090059B049A0799069862
:2025800000F0A8F9D0E700000DFCFFFFF0B50C465C4085B0E40FE40703944C0000266408D1
:2025A00059009446490802460296224321D062460A431ED06200570D4A000E032303550DD5
:2025C000012402462C492405781B1B0B360B401823432643614600901C46501AB44103D301
:2025E0000098401C009002E0921800985B41002803DA0020014605B0F0BD00200121090579
:202600000746864611E064461D46141BB54106D36546521BB341744607430C43A646CD0786
:2026200040084908284392185B4105460D43EAD11046184313D060461946504071400843D5
:2026400006D06046101AB34106D20122002306E000220123DB0702E00122D243531000989F
:2026600074460105381C6141029C039D0019694100F023F9BFE70000FD03000070B54B0081
:202680005B0803430BD04B005C0D002633466542B341D417AD1AA34102DB0020014670BDC1
:2026A00012053018514170BD10B500229623114600F0CAF810BD00000EB5C217C10F50408A
:2026C000CA0740180021054B0293019200910A460B4600F0FFF803B000BD00003304000078
:2026E0000EB505490291002100910A460B46019100F0F0F803B000BD3304000070B5CD0FD1
:202700004A0009030123090B1B0519430B4BED070024520D9A4201DA002070BD074B343325
:202720009A4203DC9A1A00F063F802E00449511888402C43F1D0404270BD0000FF0300009E
:20274000CDFBFFFF4A0009030123090B1B051943094B10B5520D9A4201DA002010BD064B3C
:2027600034339A4203DC9A1A00F042F810BD03495118884010BD0000FF030000CDFBFFFF7A
:20278000C20FD207400040080BD0C10D0723DB01C91840020905400A1143C2084007114324
:2027A000704700200146704710B5002904DB0124E40740428C412146002B04DB1C46012321
:2027C000DB075242A341994200D1904210BD000010B5202A04DB0146203A9140002010BD07
:2027E000914020239C1A0346E3401943904010BD10B5202A04DB0846203AD040002110BD16
:202800000B46D340D0402024A21A91400843194610BD10B5202A06DBCB170846203A104131
:20282000C1170B4306E00B461341D0402024A21A91400843194610BD002904DA401C4900E3
:2028400001D140084000704770B40024050C05D11024000402D1002921D01124050E01D1F9
:2028600000020834050F01D10001241D850F01D18000A41C002801DB4000641C002908D087
:2028800020252E1B0D46F540A14000D001212943084301061B1B000ADB1D02D5002070BC36
:2028A0007047DB05181880180029F8DA401C4900F5D170BC40084000704710B5002B08DA16
:2028C0000024401C614192185B411A4301D14008400010BDF0B51FB482B005460C0003D038
:2028E000084608F0ADFA02E008F0AAFA20300246009021462846FFF76BFF049B059A044688
:202900000F4618431143084314D0184610431BD0009840210A1A18460599FFF769FF054626
:202920000E46009A05990498FFF752FF084305D0012004E02046394607B0F0BD0020C117C2
:2029400005430E432C43374300990E986305401A7905E40A00220C43FD0A0A3002D50020DF
:202960000146E9E70105101969410C9C0D9D00196941FFF7A2FFDFE7F8B50546480040086D
:202980000C46284304D06000184A400D904201DD2846F8BD15493539884210DC88420BDB92
:2029A000290D200308432903014305D0E00F1049C00741180020F8BD00200146F8BD161AA5
:2029C0004020821B28462146FFF702FF07460091284621463246FFF70BFF3A46009BFFF7F2
:2029E0006CFF3246FFF7F4FEF8BD0000330400000000F03F10B5002904DB0124E407404292
:202A00008C412146002B04DB1C460123DB075242A3418B4200D1824210BD0000064C0125F1
:202A2000064E05E0E36807CC2B430C3C98471034B442F7D3FFF748FBC8F00008E8F00008CD
:202A400070B58C180578401C6B075B0F01D10378401C2A1106D10278401C03E006780E7088
:202A6000401C491C5B1EF9D12B0705D40023521E0DD40B70491CFAE70378401CCB1A921CA8
:202A800003E01D780D70491C5B1C521EF9D5A142D8D3002070BDF0B589B00C46074610229D
:202AA0000021684609F0FAFF69462246084608F012FA6846007887260106684600290FDA52
:202AC00000214318425C5B785200DB091A434254491C0F29F5DBC17B0246490071400DE008
:202AE00000214318425C5B785200DB091A434254491C0F29F5DBC17B02464900D173E21D43
:202B0000F9325169102912D0017809061BD500214518435C6D785B00ED092B434354491C80
:202B20000F29F5DBC17B03464900714019E000216218FF3201325378455C491C6B405370D7
:202B40001029F5DB26E000214518435C6D785B00ED092B434354491C0F29F5DBC17B03461C
:202B60004900D973E11D55698023FA316B54002500E05D5453695B1C5361102BF9D30021B2
:202B80006218FF3201325378455C491C6B4053701029F5DB002162181046FF32E0300132AA
:202BA000437C5278491C534043741029F3DB21461022F13104A809F059FF2246394604A88B
:202BC00008F089F910220021684609F067FF09B0F0BD10B5044610220021F13009F05EFFDC
:202BE000FF20002115300151F022204609F056FF10BD0B4610B502461021184608F096F9F7
:202C000010BDF0B50446FF308BB00F4601300890E11D4069FA3100911039154607910028A9
:202C200043D010210E1AAE4200D316460099B2B24018394609F01AFF0898089940698019A0
:202C4000486110283AD3B54238D0002162181046FF32E0300132437C5278491C53404374EA
:202C60001029F3DB07992246084608F034F9BF19AD1B1AE000202118E0314A7C3B5C401C15
:202C80005A404A741028F6DB102202A8079909F0EDFE02A92246084608F01DF9102202A927
:202CA000079809F0E3FE103D1037102DE2D8AAB23946009809F0DAFE089845610BB0F0BD1E
:202CC000F7B523498022497A214B511ACDB2197A5B7A8026F31A0A46DEB2871E491C0124F7
:202CE000C9B2761E3B0008F0DAF809060C060C120C06062B3000164BAA4224D2154CA05476
:202D000003E0134BB24215DB1DE019720DE0104EAD1EAA4217DA0F4B985401985854491C23
:202D2000C8B202991954401C3072002408480121C17108E0074CA05401986054491CE4E79F
:202D4000034BAA42F6D32046FEBD0220FEBD000058010020EA0F002010B50AF0CDFB0AF05F
:202D6000A5F910BD70B5194E0025194C16E000F0D1F9C1B2606831542278002A06D001299E
:202D800011D00D2914D00A2912D003E0412905D1012121707F2814D0401C606002F060FA5A
:202DA0000128E4D070BD0620656009F063FA70BD0028F3D03554054809F086FF6560257002
:202DC000ECE70420656009F055FAE7E723050020380000203EB50D4C6946E2780A70227D13
:202DE0008A70C870606B07F09DFC0190E06B0290E07D69464870207C05F04AF9218CE06B48
:202E00004143081AA16D4018A0653EBD58010020FFB5002085B00090054606460190002448
:202E2000770007980121C05BA14008422FD028190C2203905043089A1258002A27D0059AB4
:202E4000002A01D1890722D008994118082002910856021100070117069840B205F027FB08
:202E6000002814D00298407A01010E980818C068002804D00198401CC0B2019007E0009A8D
:202E80000F99039888540098401CC0B20090641CE4B2102CC5D31035761CEDB2F6B2102DD8
:202EA000BDD3109901980870009809B0F0BD000030B587B014216846FFF7CAF9032001905E
:202EC0000020029003204003104C0090E06A01210843E062E06A08400590052069460007F3
:202EE00000F04AFAE06A40084000E062606B0125AD052843606300F023F900F031F900F0A3
:202F000027F9606BA843606307B030BD00100240704710B501F02CFF10BD10B5012000F0E7
:202F20001FFA022000F01CFA10BD10B5042000F017FA082000F014FA10BD10B5102000F0C1
:202F40000FFA202000F00CFA402000F009FA802000F006FAFF20013000F002FA01204002B0
:202F600000F0FEF90120800200F0FAF90120C00200F0F6F90120000300F0F2F901204003BF
:202F800000F0EEF90120800300F0EAF90120C00300F0E6F910BDFEE710B5084900224A619B
:202FA00007494B684C1523434B604B68082423434B60C009C001026010BD0000CC03002004
:202FC0000020024010B5214A00219069C305204804D54169022319434161911593699B052D
:202FE00005D543690124234343616302194393695B0505D54369082423434361E301194303
:2030000093691B0505D543690424234343616302194393699B0405D54369102423434361BC
:203020006302194393699B0304D5446920231C43446119439369DB0305D5436940242343E2
:203040004361A0020143916110BD000000200240CC03002070B5054600F050FA0646184C7C
:203060000AE0681C08D0002D04D000F047FA801BA84201D9032070BDA069C007F1D1A0698E
:20308000800701D50220A061A069C00511D4A06980050ED4A06940050BD4A069000508D476
:2030A000A069800405D4A069800302D4A069C00303D5FFF787FF012070BD002070BD00008D
:2030C000002002400649800009580648091803D0C14203D0002070470120704702207047BE
:2030E00008DE0008702FFCFF10B5094A0021CB00D458844207D89B189B68834203D9C80054
:203100008018007910BD491CC9B21529EFD3FEE750D7000808B56946044807F085FF002882
:2031200001D0002008BD6846007808BD3C090020884201D1C8B201E0401EC0B240B2704719
:20314000024841684908490041607047005801400248416804229143416070470058014013
:2031600002484168022291434160704700580140F8B504460068016849084900016000F0C0
:20318000BDF900272546064620350EE000F0B6F9811B7D20C000814207D9E06B2021084346
:2031A000E0632F7103206871F8BD20680068C007ECD12F71012068710020F8BD70B500244F
:2031C000024620325179022903D00421C16301243CE001680B680E25AB430B6001680B68BF
:2031E0005B085B000B601A4B0168994201D1012121E0174B1433994201D110211BE0144B27
:203200002833994201D1891515E0114B3C33994201D189140FE00E4B5033994202D1012163
:20322000090408E00A4B6433994202D10121090501E001210906064B083B5960012151718C
:2032400000211171816B002900D08847204670BD08000240F8B51A4E0546307C0F460128B0
:2032600007D0012030741748FFF7F4FE010002D021E00220F8BD0020C04338606C6814E03D
:203280002046FFF789FE0F48FFF7E4FE01460E48426808239A434260426843159A434260AA
:2032A000002901D03C6006E08034A8686A68C0018018A042E4D8002030740846F8BD00003E
:2032C000CC03002050C3000000200240034841680222114341600020704700000020024044
:2032E000F8B50C4C1646207C0F46012808D0012020740948FFF7AEFE0025002802D006E0CE
:203300000220F8BD65613E600348FFF7A3FE2574F8BD0000CC03002050C300000948416846
:2033200089070CD54168C90703D00749C1600749C160074901610749016100207047012092
:203340007047000000200240EFCDAB8905040302BFAE9D8C1615141310B501F08FFC10BD60
:2033600010B504494A69024202D04861FFF7F4FF10BD000000040140F8B500230124A2E057
:2033800027469F403A4070D04D68022D01D0122D14D1DD08AD002D1800952D6A5E07AC46F4
:2033A000F50E0F26AE46AE406546B543AC460E697546AE4065462E43009D2E624D68012D12
:2033C00005D0022D03D0112D01D0122D16D185680326AC465D00AE46AE406546B543AC4605
:2033E000CE687546AE4065462E43866046680D79BE43ED06ED0F9D403543456006685F0001
:203400000325BD40AE46AE430D79B446AE07B60FBE4065462E430660C6687546AE438D6859
:20342000BD403543C5604D68ED004BD5294D6E6B26436E639E08284DB6007519AC46AD6841
:203440009E07360F0F27B740BD4305273F07B84201D1002715E0214FB84201D1012710E0A7
:203460001F4FB84202D102270BE02BE01D4FB84201D1032705E01C4FB84201D1052700E068
:203480000627B7402F436546AF60184D2E684F689643FF0300D516432E606E684F6896432D
:2034A000BF0300D516436E60AE684F689643FF0200D51643AE60EE684F689643BF0200D5EF
:2034C0001643EE605B1C0A681546DD4000D057E7F8BD00000010024000000140000400503A
:2034E00000080050000C0050001C005000040140002A01D081617047816270470148006888
:20350000704700002400002002480168491C0160704700002400002010B50648016802229C
:2035200011430160032000F007F800F007F8002010BD0000002002400020704710B508489A
:20354000816B02041143816300F036F800F02CF80448016808221143016000F01DF810BDA9
:203560000010024000200240C106C90E01208840014908607047000080E100E0C106C90EC8
:2035800001208840014908607047000000E100E010B502F039FF10BD02480168021511433E
:2035A000016070470070004002480168421511430160704700700040024801681022914364
:2035C0000160704700700040094B1A689208920002431A600748026904239A430261012917
:2035E00003D040BF20BF20BF704730BF704700000070004000ED00E00A4B1A68920892005E
:2036000002431A6008480369042213430361012906D040BF20BF20BF01699143016170473B
:2036200030BFF9E70070004000ED00E0F8B54749034601240020E403434D444A4031082BCA
:2036400070D00EDC012B3DD0022B55D0042B19D1CB680326B602334059D0CF14BB4243D0F9
:2036600058E0102B6BD0202B0CD10B690969032501272D043F0429407E00B94203D1990576
:203680002CE02046F8BDB14203D19907FAD53048F8BDA942FCD111688903F9D51168032079
:2036A0000005014001200005091A09D0091A05D0814201D12748F8BD2748F8BD2748F8BDA9
:2036C0002748F8BDCB689B079B0F0AD0022B0BD0012B0ED0032BF4D1096989050029D0DB94
:2036E000F8BD00F0B5F9F8BD11684907FBD52846F8BD00F0BDF9F8BDCB680C26334006D0FD
:20370000082BF1D0042BF4D00C2BE5D0F8BD00F08FF9F8BD012292029342EAD0B342DBD00E
:20372000F8BDFFE7C96803231B031940EFD0012464036310A142D7D09942DAD0F0E7916B80
:203740004902E4D4ECE700000024F400001002408890000020A1070000093D0040420F0072
:2037600080841E00F8B504460078544D800672D5524E0027403EB06BC00004D4B06BA90589
:203780000843B06301274E480168C90511D40168821511430160FFF7B1FE009005E0FFF72C
:2037A000ADFE0099401A642837D845480068C005F5D532680321090560680A40014091425A
:2037C00008D08103890F032904D13168890301D50120F8BD2A69032109040A4022D00840DB
:2037E00090421FD0207880061CD528692A6988430121C9040A432A612A698A432A612861CF
:20380000C0050FD5FFF77AFE009008E0FFF776FE0099411A2B48814201D90320F8BD286942
:203820008005F3D561688803800F032805D132680005824301400A43326028690322616854
:203840001204114008432861002F04D0B16B012000078143B1632078C00705D0E868A16881
:20386000800880000843E8602078800705D5E8680C218843E1680843E8602078400706D5D6
:20388000E86803218902884321690843E8602078000706D5E8680321090388436169084367
:2038A000E8602078000606D5E868032189048843A1690843E8600020F8BD00004010024077
:2038C0000070004088130000F8B5054653480E460068C007C00FB0420AD250480168490898
:2038E0004900314301600068C007C00FB0426FD128784B4C800705D5E068F0218843A968AD
:203900000843E0602878C00752D06868022817D0032818D02168012818D08905002957DA1D
:20392000E168890889000143E160FFF7E7FD69680746022912D003291CD0012926D033E04F
:2039400021688903EAE721688901E7E74907E5E7FFF7D4FDC11B3348814223D8E068000759
:20396000800F0228F4D123E0FFF7C8FDC11B2D48814217D8E0680007800F0328F4D117E043
:20398000FFF7BCFDC11B274881420BD8E0680007800F0128F4D10BE0FFF7B0FDC11B2148E8
:2039A000814201D90320F8BDE0680007800FF3D11A480168C907C90FB1420BD901684908EC
:2039C0004900314301600068C007C00FB04201D00120F8BD2878400706D5E06807210902F5
:2039E0008843E9680843E0602878000707D5E0680721C90288432969C9000843E06000F0C1
:203A000037F8E168084A0906090F515CC840074908600320FFF790FD0020F8BD002002406B
:203A2000001002408813000000D8000820000020044805490068C968044A4905490F515CA5
:203A4000C8407047200000200010024019D80008044805490068C968044A8904490F515C09
:203A6000C8407047200000200010024019D8000810B5184AD1680C20084004280BD00828F1
:203A800010D00C2810D050680004410F0120C003491C884010BD1068C00601D50E4810BD11
:203AA0000E4810BD0E4810BD88020E4B000F185C0902D368890F491CDB0301D5084A05E02C
:203AC0001268D20601D5044A00E0044A5043FEF70FFB10BD0010024000093D000024F40033
:203AE00000127A0010D80008F8B504460078F34DC0074CD0E8680007800F022807D0E86881
:203B00000007800F032809D1E868C00306D5286880033CD56068002875D038E001206268C0
:203B20000004824203D129680143296011E0052301211B0489049A422A6802D10A432A608C
:203B4000F1E782432A602A6802400092286888432860606800280DD0FFF7D0FC0646D84FF3
:203B600004E0FFF7CBFC801BB8427DD828688003F7D50CE0FFF7C2FC0646D14F04E0FFF7F5
:203B8000BDFC801BB842F0D828688003F7D42078800741D5E8681F270007800F3F02012866
:203BA00007D0E8680007800F032809D1E868C00306D42868400717D5E068012823D113E03B
:203BC000E068002817D029680922914301432960FFF794FC064604E0FFF790FC801B022834
:203BE000C3D828684007F7D568682169B84309020843686010E02868400840002860FFF78E
:203C00007DFC064605E090E0FFF778FC801B0228ABD828684007F7D42078C00676D5E8683D
:203C2000A84E0007800F0BD0A06900285DD02868FF21013108432860FFF760FC074644E047
:203C40002868800502D5A06900286ED0206A69683140884212D903F0A5FC0028AED168687D
:203C6000216AB043084300E0BDE068606868217F0002000A0906084368600FE06968B143E4
:203C8000014369606868217F0002000A090608436860206A03F086FC00288FD1206A410B1C
:203CA0000120C003491C8840E968874A0906090F515CC840854908600320FFF73DFC25E068
:203CC000FFF71CFCC01B02288AD828688005F7D56868216AB043084368606868217F0002BB
:203CE000000A09060843686010E02968FF20013081432960FFF702FC064604E0FFF7FEFB67
:203D0000801B02286FD828688005F7D42078704E000723D560690028306910D0012108438B
:203D20003061FFF7EBFB074605E0C5E0FFF7E6FBC01B022857D830698007F7D50EE0400812
:203D400040003061FFF7DAFB074604E0FFF7D6FBC01B022847D830698007F7D420784007E1
:203D600062D5A86B0027C00005D4A86B012109070843A863012757480168C90511D4016852
:203D8000821511430160FFF7B9FB009005E0FFF7B5FB0099401A642825D84E480068C005D3
:203DA000F5D5FF20A2680130824203D131690143316111E001218902002A07D005231B02F3
:203DC0009A4203D132690A433261EFE7326982433261306988433061A06800280FD0FFF7F5
:203DE0008DFB009007E060E0FFF788FB0099411A3348814259D830698005F5D50DE0FFF7DD
:203E00007DFB009006E0FFF779FB0099411A2C4881424AD830698005F5D4002F04D0A96BFF
:203E2000012000078143A963606A002842D0E9680907890F03293FD0012636060228286835
:203E400005D0B0432860FFF759FB04462FE0B0432860FFF753FB074604E0FFF74FFBC01B64
:203E6000022822D828688001F7D4E16AA06AEA680843216BFD231B049A4311430843E860C1
:203E8000286830432860FFF739FB044604E0FFF735FB001B022808D828688001F7D509E02E
:203EA000FFF72CFB001B022801D90320F8BD28688001F5D40020F8BD0120F8BD0010024017
:203EC0008813000000E0000000D8000820000020401002400070004030B5014620310A7806
:203EE000012A15D001220A7002234B700468CA23636204685323636203689C6820252C434D
:203F00009C600068FF2343624A700020087030BD022030BD10B506F027FC10BDF8B5054685
:203F200004462035287801281DD001202870022068702268CA205062226853205062FF2085
:203F400001300026FF2781421CD121688A6882438A60206881680122120391438160FFF7B6
:203F6000CDFA009009E00220F8BDFFF7C7FA0099411A7D20C00081421BD82068C068C007F5
:203F8000F3D020E020688168012252029143816020688168120191438160FFF7AFFA009059
:203FA0000DE0FFF7ABFA0099411A7D20C000814205D920684762032068702E70F8BD206880
:203FC000C0688007EDD520684762012068702E700020F8BD10B500680B464068C021C943C0
:203FE00001400002000ECC04D870E40E5C708C06A40E0904490F9C701970002A0AD103F064
:2040000009FBD870587803F005FB5870987803F001FB9870002010BD30B50B460168896A43
:204020005960016809694904490C9960006804680F482146014088024D04800E18706D0E12
:2040400049065D70490E99706102490E40242140D970002A0AD103F0DDFA1870587803F002
:20406000D9FA5870987803F0D5FA9870002030BD7F7F7F0070B5040005D0254620356878A3
:20408000002802D006E0012070BD00202870204600F042F8022068702168CA20486221680A
:2040A00053204862204603F0C8FAFF210028206803D0416204206870E5E78268154B1A4016
:2040C0008260226890686368A669184323693343184390602268E068106120680269238918
:2040E0001B041A4302612068C26880239A43C2602068C26C92089200C264E269606902432C
:204100002068C36C1A43C2642068416201206870002070BDBFFF8FFF00B595B004200090FA
:2041200000200990FF20013002906846FFF7DCFC002801D0FEF72FFF20200D90C0020E900F
:204140000DA8FFF70FFB002801D0FEF724FF084801690122920411430161002211460220D5
:20416000FFF716FA0220FFF709FA15B000BD000040100240FEB506460446203630780B4672
:20418000012842D0012030700220707020681D46002720358068002A39D0400655D518789F
:2041A00003F038FA287803F035FA19789878090408435978DA78090212041143084329789B
:2041C00009060843D969084359690843054699695868084300902168CA20486221685320EA
:2041E0004862FF205A6A0130802182424AD122689368834393602268D0680840FF38823848
:20420000D060FFF77BF9019029E00220FEBD400600D4DF70187803F005FA0204587803F0D9
:2042200001FA00020243987803F0FCF90243D87800040243287803F0F5F900060243D86959
:204240000243586902431546C1E7DF70AAE7FFF755F90199411A7D20C00081422AD820684D
:20426000C068C007F3D02068C56121680098486420688168FF2201321143816020688168A6
:20428000120130E02068826801235B029A4382602068C2680A401D495118C160FFF72EF940
:2042A00001900EE0FFF72AF90199411A7D20C000814206D92168FF20486203207070377076
:2042C000FEBD2068C0688007ECD52068056221680098886420688168012252021143816012
:2042E0002068816812011143816009480268012149040A43026082680A4382602168FF206B
:2043000048620120707037700020FEBD7FFDFFFF00040140F8B505460446203528780B4629
:20432000012815D001202870022068705878002A10D003F06FF9987803F06CF9D8789E78B9
:20434000000406435878197800024903084316E00220F8BDC10603D5EF2108400A30587050
:20436000D87803F05FF90604587803F05BF900020643987803F056F906431878400306437F
:204380002168CA204862216853204862204603F054F90027002811D11048064020684660B7
:2043A0002068C16880229143C1602068806880060CD4204600F08CF8002807D02168FF205E
:2043C0004862042068702F700120F8BD2168FF204862012068702F700020F8BD3FFFFF00C6
:2043E000F8B506460446203630780D4601280ED00120307002207070206800278068002A9E
:2044000007D040061AD5287803F004F917E00220F8BD400600D4EF70287803F003F9020424
:20442000687803F0FFF800020243A87803F0FAF80243E8780004024300920BE0EF702978FB
:20444000A878090408436978EA78090212041143084300902168CA2048622168532048628E
:20446000204603F0EAF800281FD118490098084021680860206881680122920491438160D8
:204480002969E868084321688A68104388602068C16880229143C1602068806880060CD41B
:2044A000204600F015F8002807D02168FF2048620420707037700120F8BD2168FF20486275
:2044C0000120707037700020F8BD00007F7F7F0070B504460068C168A0229143C160FFF735
:2044E0000DF87D260546F60006E0FFF707F8401BB04201D9032070BD2068C0688006F4D582
:20450000002070BD70B5040006D025464035687C0026002802D005E0012070BD2E74204630
:2045200000F032F80220687420680168402291430160A168606822690843E168114308434C
:20454000616901220843A169520211400843E1690843216A0843A16A084321680860A0696E
:204560000421000C0840616A0843216848602168E06A08612068C16992009143C16166653A
:2045800001206874002070BD7047F8B5044600276846078026464036707C012802D0707C12
:2045A00022287ED100290CD0002A0AD0002B08D0307C012875D001203074707C012802D090
:2045C00003E00120F8BD322070746765A263A387E3872163A386E386A764E7640125A06AEB
:2045E0006D03A84207D120680168A9430160206801682943016020680168490603D401680D
:204600004022114301600121FF20E268C90205308A42616866D1002904D081420CD1E08E21
:20462000012809D1206B21680088C860206B801C2063E08E401EE086E08E002843D1A06A23
:20464000A84246D12068016801221203114301603FE02068C068A16B0880A06B801CA0636E
:20466000B0E0002202212046069B04F057F800287DD1206B21680088C860206B801C206337
:20468000E08E401EE086E08E002808D1A06AA84205D12068016801221203114301600022AF
:2046A00000E0CCE001212046069B04F037F800287FD12068C068A16B0880A06B801CA063BC
:2046C000E08F401EE087E08E0028CAD1606800287BD1002201212046069B04F01FF80028BB
:2046E00067D1B6E7002904D081420BD1E08E012808D1206B411C216321680078C860E08ED6
:20470000401EE086E08E002845D1A06AA84205D1206801680122120311430160002201213D
:204720002046069B03F0FAFF002842D12068C068A16B087046E0002202212046069B03F0B2
:20474000EDFF002835D1206B411C216321680078C860E08E401EE086E08E00280AD1A06AFD
:20476000A84207D1206802680121090300E020E00A430260002201212046069B03F0CEFFBD
:20478000002816D12068C268A06B411CA1630270E08F401EE087E08E0028CCD16068002823
:2047A00013D1002201212046069B03F0B7FF002802D00320F8BD08E02068C168A06B421C4D
:2047C000A2630170E08F401EE087A06AA8420FD1002201212046069B03F0A0FF002802D084
:2047E000606D02210EE02068C068694608800888012280212046069B03F090FF002804D01B
:20480000606D202108436065D3E701207074A06AA84211D120688168C943C9060CD4616DEB
:204820000222114361650168A943016020680168294301603774C4E637740020BAE70220E3
:20484000B8E7704770B5044600680168FF22213291430160206881684908490081602068A5
:2048600081680025490600290ADA8168402291438160606E002803D08563606EFEF778FCE6
:204880005A20055321680F20086220206034A072002070BD70470000F8B502680446D069A0
:2048A00011680607360F07D1830605D58B0603D5204606F0D4F8F8BD95682023002E65D009
:2048C000EE07F60FFF2721370F4037435ED0C70706D0CF0504D501271762E26E3A43E26662
:2048E000820708D5EA0706D0276802223A62E26E04273A43E266420708D5EA0706D0256882
:2049000004222A62E26E02252A43E266020709D50A461A40324305D0236808221A62E36E5C
:204920001343E366E26E002AC5D0800604D5880602D5204606F093F8E06E000703D420686A
:20494000806840061CD5204606F07AF820688168490611D5826840218A438260606E0028D4
:204960000AD01D498163606EFEF728FC0028A2D0606E816B8847F8BD2046FFF78BFFF8BDB9
:204980002046FFF787FF0020E066F8BD2646C7026036002F0ADA6D0208D501200005106258
:2049A0007372B3722046FFF74CFFF8BD050605D50D0603D5204606F09FF9F8BD4006FCD501
:2049C0004806FAD52046146840218C431460737200F0FCF8F8BD00002DAA000870B50400AE
:2049E00005D025466035687A002802D006E0012070BD00202872204600F026F82420687286
:204A000020680168490849000160606A002802D0204605F075FF204606F060F80128E7D083
:204A2000206841680922D20291434160206881682A22914381602068016801221143016096
:204A4000204605F0C3FF70BD10B50448816B012252041143816308F0ADFD10BD001002409D
:204A6000F0B5034660339C7A202C44D100290BD0002A09D0012584682D03AC4206D10669C1
:204A8000002E03D1CE0701D00120F0BD1E7A012E31D001261E724165014640310A834A8369
:204AA000FF27AC4204D10269002A12D1134A0EE07F22002C08D001252D07AC420AD1046915
:204AC000002C04D03F2202E00469002C01D08A8300E08F830021C16622229A72197201689E
:204AE0008A6832438A6000680168FF222132114301600020F0BD0220F0BD0000FF010000CF
:204B000038B504461648844228D120464030018B408B081A009013D012480078FF280FD0A7
:204B2000114805F0BDFE104805F082FE6A460D490E4806F0B0FA00210D4A084606F0F0FAFD
:204B40002046FFF77FFEFF22013206492046FFF787FF2068016810221143016038BD00002A
:204B60005C0D00205C0C0020280800203C090020C1D4000830B5034660335C7A202C23D1FB
:204B800000290BD0002A09D0012584682D03AC4206D10469002C03D1CC0701D0012030BDE8
:204BA0001C7A012C10D0C164014640310A824A820021C16621225A721972006801688022C8
:204BC00011430160002030BD022030BD10B50649002008700146202000F0E6FD0021034A90
:204BE000084606F09DFA10BD20010020916F0008014600200A0A00D00820084A114201D0DB
:204C000004221043064A114201D002221043054A114201D00121084370470000F0F00000B9
:204C2000CCCC0000AAAA000038B50B231B07C518114B0FD01C152D1B18D02D1B19D0A542BA
:204C4000DD6A05D108242543DD62DB6A234007E08024F8E7DC6A01252C43DC62DB6A2B4089
:204C6000009311601146FEF787FB38BDDD6A0224E9E7DD6A0424E6E70010024010B5FFF7E7
:204C8000B7FF810002484058002800D0804710BDA405002070B51C4615460E460846FFF72C
:204CA000A7FF0A49002C0DD080000C50304601F039FB044600222946FEF76AFC2046FEF7EA
:204CC0005DFC70BD002280000A5070BDA405002010B5D2B2FEF70CFC10BD00207047000072
:204CE00003494A690869496A50404840704700004000F81F704700000F494B6A0A69D2184A
:204D0000120EC2714B6A0A69D218120C82710A8A8B8CD218120A42710A7C8B8CD2180271BF
:204D20004A69120EC2704A69120C82708A8A120A4270097D017070474000F81F10B5084CAB
:204D4000607800280BD108490648886007480068804700F0DBF900F08FF80120607010BD79
:204D6000440100200020000800ED00E040E1000870B5410EC0017D220023FDF7E3F905469E
:204D800000F072F8044600E000BF00F06DF8001BA842F9D370BD000070B505460C46002299
:204DA0002048FFF739F9002229461E486668FFF711F9002221461B48FFF72EF96068B042DB
:204DC000F1D1E878184A01465043C01C8308880726D0164968783D220646504302463C3A4E
:204DE0007000801EC1408807D10F8918800F4910081AC018A978401E08180D493C224843D4
:204E00006178E123514322781B015A438918A27810180818074A61688002511A401870BD3F
:204E20000549D7E7E4050020B5050000A0AA990080510100FF030000505544000320704729
:204E400001480068704700003006002000B587B0694605A8FFF7A0FF0249096807B0401AEA
:204E600000BD00003006002000B587B0694605A8FFF792FF07B000BD10B5084C2078002803
:204E80000AD100F04BF8FF2101310548FFF746F800F074F80120207010BD000040000020F7
:204EA000E405002010B50C4C0021042000F07CFC21688868C0040ED5C868C0050BD5C868FA
:204EC00080221040FF388238C8600449900248612046FFF71FF810BDE405002000040140B1
:204EE00070B50446FFF7B2FF211A0B4D0220285EC01C814201D9002100E00121042000F0B1
:204F000053FC00F029FC012802D10220285E241A204600F03FF870BD4000002010B514490F
:204F2000144886B0002412C01F210160846004611149446141600838FFF79CF86946CC75A5
:204F40000120487588750875002205A90948FFF7E1F9009401940494002269460548039492
:204F6000FFF73EFA0348FEF7B7FF06B010BD000000280040E4050020FF03000010B5044C02
:204F80002046211D1830FFF707FF206010BD000030060020F0B587B0044614223F4901A8F9
:204FA000FDF73DF93D485038406E009000F07EF83B4802993B4A401AA105890D081887B284
:204FC000A10A68468078534202E08918401C80B29942FAD26A461579E122120102E0891A5A
:204FE0006D1CADB29142FAD26A46547902E0641CA4B23C393C29FAD2927951188EB2012179
:20500000890203E07A1A761C97B2B6B28F42F9D203E03C3E641CB6B2A4B23C2EF9D203E0FC
:205020003C3C6D1CA4B2ADB23C2CF9D203E0183D401CADB280B2182DF9D26946C9788907D2
:2050400069464A7827D01849491E515C814202D2FDF74EF808461249CA1B10492C394A60AC
:20506000052252068A618E704C700A460D70203210706846C079C8700020C861FF2248613B
:205080000132C8604A620861024608462438FFF771F807B0F0BD04490C31D5E7340600204B
:2050A000FF03000080AEFEFF84DD000810B506480168C86880221040FF388238C860510052
:2050C0000148FEF72BFF10BDE405002010B57D2105F0CDFE4906C009084310BD10B5410E2B
:2050E000C0017D220023FDF72DF810BD01B582B00020C0430090012301AA02A90248FFF7F2
:2051000044FA684680880EBD4C06002010B51C481A4901601C4A1B4B0021126803E05208CD
:20512000491C072901D29A42F9D84A078B07D20FDB0F52011B011A43C90700D008210A43CA
:20514000C2610021816001614161FF22C160053281624260012201625202826141620B4875
:20516000416B8214114341630548FFF7CBF9002801D0FDF710FF00F044F810BD0030014088
:205180004C06002080969800200000200010024070B586B014216846FDF75AF80526012588
:2051A000022436076A468021304601950294FFF73BFD002280213046FFF78AFD6A464021A4
:2051C00030460294FFF730FD002240213046FFF77FFD6A46202130460294FFF725FD0022FE
:2051E00020213046FFF774FD6A46102130460295FFF71AFD012210213046FFF769FD06B0BA
:2052000070BD10B586B014216846FDF721F802200190029003200390002005242407049073
:205220006A4620212046FFF7FFFC6A4640212046FFF7FAFC6A4680212046FFF7F5FC012103
:20524000019102916A4610212046FFF7EDFC012210212046FFF73CFD06B010BD00BFFDE7F4
:2052600010B5034807F002F9002800D0012010BD3C0900207047000010B502A008F0DEF9F4
:2052800010BD00004A4F494E45440A0D00000000FEB5814EB1603061344614348168A01CE6
:2052A000884707F0F1F93069C068804707F0BEFE7A49002007F0F2FD7060A16F002901D060
:2052C000084600E0A0670190042069460870684600F070FD72A008F0B1F9A17875A008F0D8
:2052E000ADF901256019817876A008F0A7F96D1C082DF7DB75A008F0A1F9A17A74A008F064
:205300009DF901256019817A6EA008F097F96D1C082DF7DB6DA008F091F9A17C70A008F083
:205320008DF901256019817C71A008F087F96D1C102DF7DB70A008F081F970A008F07EF929
:20534000A1785CA008F07AF90125601981785DA008F074F96D1C082DF7DB5CA008F06EF9E8
:205360006BA0A16F08F06AF94B4F6DA03437B97808F064F901256019203081785CA008F043
:205380005DF96D1C102DF6DB50A008F057F9B97C67A008F053F9012560192030817C54A088
:2053A00008F04CF96D1C102DF6DB48A008F046F964486349016064494160644981603069CC
:2053C000354900680C31086000225E4800F03EFA5C4D314E02200C3528707436307F28713D
:2053E000284600F0E7FC07202870707F2871284600F0E0FC00202870B07F2871284600F00D
:20540000D9FC6078012800D0002000F069FF16202870F07F28714B480C3000F0CBFC1E4CA8
:205420001220287094342068686046480C3000F0C1FC132028706068686042480C3000F002
:20544000B9FC0A202870207C28723E480C3000F0B1FC10202870A06868603A480C3000F0FA
:20546000A9FC11202870E068686036480C3000F0A1FC0520287020465E38686031480C3031
:2054800000F098FC0620287020464E3868602D480C3000F08FFCFEBD44000020FFFFFF01CD
:2054A0004966204F54414120656E61626C65640A0D0000004465764575693D202530325878
:2054C000000000002D253032580000000A0D00004170704575693D20253032580000000029
:2054E0004170704B65793D20253032580000000020253032580000000A0A0D0049662041F6
:20550000425020656E61626C65640A0D000000004465764164643D2020253038580A0D0056
:205520004E776B534B65793D2025303258000000417070534B65793D2025303258000000AA
:2055400055630008B406002059630008B1630008F0B5294C85B02078002802D0002005B01B
:20556000F0BD25480025143001460778821C0A31214B1230012F9B686F463D7001920291A0
:2055800003901E4ED87838742CD001AF0FCF0FC603200C3630703046756000F00BFC042046
:2055A000307060687060304600F004FC05203070114836307060304600F0FCFB06203070D6
:2055C0000D4846307060304600F0F4FB012030703071304600F0EEFB25702069406980479C
:2055E0000120BCE701A80FC80FC601202070384600F016FDF4E7000044000020A406002057
:2056000070B586B00E46044606F018FD0025ED43002822D1207904A900F006FE0246002173
:205620001548002A04D06A461170029191811FE0002E15D0012269460A7062790A712279EA
:205640008A812168029108226946CA73007B8873684600F09DFA002800D0284606B070BD19
:205660006A461170617911712179918121680291007B9073ECE700009800002010B50B48B4
:205680000168002904D000F014F800F036F810BD4068002804D000F013F800F02FF810BD3A
:2056A00000F006F800F028F810BD000004020020704710B501210020FDF786FF10BD0000F5
:2056C00010B5EFF3108472B6FFF762FD08484068804707F033FF0748016804221143016097
:2056E00084F3108801210846FDF786FF10BD000040E10008007000407047704710B5EFF3F7
:20570000108472B61248016801221143016001684907FCD5016801221206114301600168E6
:205720008901FCD5C16803221143C160C1680907890F0329FAD107F0DFFE07F03BFFFFF788
:2057400060FD04480068804784F3108810BD00000010024040E10008EFF3108172B6074830
:205760000268002A01D0002005E04068002801D0012000E0022081F3108870470402002012
:2057800010B5EFF3108272B6064B00295C6803D0012903D1044300E084435C6082F31088E2
:2057A00010BD00000402002010B5EFF3108272B6064B00291C6803D0012903D1044300E09F
:2057C00084431C6082F3108810BD000004020020F8B5174605460A461948069C089E079998
:2057E000447183711C0AC4711C0C04721B0E437281720B0AC3720B0C0373090E4173D4B20E
:20580000C4731048FDF7E5F939460E48FDF7F1F910220B490B48FDF7F4F922462946094892
:20582000FDF7EFF90749C81FFD38FDF734F9064C601CFCF72EFD2178000208433060F8BDE8
:20584000C4010020501300204C120020F8B50E46050017467ED028680028FBD06868002836
:20586000F8D0A8680028F5D0104602F04FFE002871D0764C00212666E565224627741A325D
:2058800011706174A163217601266676E1746165A1650B216A4611703846694602F025FE54
:2058A000002800D0012020750821684601706946207C02F01AFE664D05212870684601700D
:2058C0006946207C02F011FE68700C21684601706946207C02F009FEE8600D21684601707F
:2058E0006946207C02F001FE28610E21684601706946207C02F0F9FD68610F21684601704A
:205900006946207C02F0F1FDA8611021684601706946207C02F0E9FDE86113216846017044
:205920006946207C02F0E1FD2F46203778701421684601706946207C02F0D7FD6862152133
:20594000684601706946207C02F0CFFD38721A21684601E076E077E001706946207C02F050
:20596000C4FD38731B21684601706946207C02F0BCFD78731C21684601706946207C02F0E6
:20598000B4FD28631D21684601706946207C02F0ACFD68630021207C02F0B1FD3E700A2286
:2059A00006216A6028462972383842600172E968C1602969016169694161A9698161E96948
:2059C000C1612030067002F013FE28462149383004F0B4FE7D212846C900383004F016FFB0
:2059E00028461D49683004F0A9FE28461B497C3004F0A4FE28461A49903004F09FFE2846FC
:205A00001849CC3004F09AFE04F086FE6063284615494C300160154981601549016115495C
:205A200041601549154DC160A9688847E869804707F0FCFAA674296E30468847686B80476F
:205A40000020F8BD0320F8BD0A20F8BD5801002024110020E9640008216F0008116E000878
:205A6000716E00084D640008D96C00083D670008116C0008C56D0008716C000840E10008C0
:205A8000F8B504461D4617460E460D48FDF7A1F839460B48FDF7ADF8F2B221460848FDF75F
:205AA000B0F80749C81FFD38FCF7F5FF054C601CFCF7EFFB2178000208432860F8BD00001E
:205AC000501300204C120020FFB585B00F46044607ADF02200211D480E9E06F0DFFF1B4A0C
:205AE0001021204605F022FA10220021684606F0D5FF012168460170062239466C46401C3D
:205B000006F0B4FF02222946E01D06F0AFFF0F4A6846089905F0DFF910220021684606F03C
:205B2000BDFF02216846017006223946601C06F09DFF02222946E01D06F098FF034A3146D1
:205B4000684605F0C8F909B0F0BD00005C120020F8B517460E4605461C46F02200210B485C
:205B600006F09CFF094A1021384605F0DFF9074A2146284605F0AFF9102E06D32146284616
:205B8000024A1031103005F0A6F9F8BD5C120020F0B5044687B00220049000200646019088
:205BA000002C78D04248816BCA0701D1C80602D5012007B0F0BD0020694608720146142268
:205BC0003C4806F06BFF3B4801214170384841732278002A04D0012A0AD0032A26D118E09E
:205BE00001736B461A7A0126D206D20E403207E0E27B02736B461A7A0126D206D20E80320C
:205C00001A7222790192A26800920E25A78965570CE001736B461A7AE0231A436B461A72CD
:205C20006268012600920A252789655701216A46117521490691097B91751D4805A9007CD4
:205C400002F053FCA84200D3054668B2002E1FD0174D2979002910D16946087306980422C6
:205C6000007B887303A9287C02F0B7FC002812D011496846007B203948703B4602A8009A56
:205C8000019904F04DF90490002806D00020687104988EE7FFE703208BE7064821780170C1
:205CA000034801221A30017811430170F0E70000580100201C1200200C110020F8B5002541
:205CC0000446002818D03949277837480E463836027C3B0005F0E3F81E121417191B1E20B2
:205CE00023252729303B394246484A4C4E50525654585A5C5E6062640320F8BD407C00E062
:205D0000C07820714DE00079FBE7C06C00E0006D606046E02648FBE725481030F8E7807CFB
:205D2000EFE7C07CEDE7192012E020492039486C896CA160606034E01C49203908467C305A
:205D4000C96F40686160A0602BE0172000E0162069460870104602F0C8FBD9E713482030AD
:205D60000078CEE7C868D3E70869D1E74869CFE78869CDE7C869CBE77078C2E74878C0E7FC
:205D80003078BEE70878BCE7806AC1E7C06ABFE7406ABDE74868BBE7087AB2E7486BB7E725
:205DA00002252846F8BD000058010020EC100020CC0D0020F0B5002489B00746002806D0BE
:205DC000934D288FC00704D0012009B0F0BD0320FBE7914E3A78304620300290407B0390CE
:205DE0008B488C49007C130005F059F81E102124272A2D333C41F744819894A4ABAEB1B43B
:205E0000B7BAC9E5D6FAFDF7F4F3F2F738796874002804D0012804D0022802D102E0486BB7
:205E20008047F3E00020687101F022F8EEE03879E870EBE038792871E8E07868E864E5E01F
:205E400078682865E2E07968002972D01022734805E079680029F8D070481022103006F003
:205E600005FED3E03879A874096E8847CEE03879E874CBE0397A6A46117103995171062288
:205E800001A902F0AAFB002853D06348BA682038796882644164687C022827D1E878002857
:205EA00024D05D4F0298F037009708214156327A7368287C02F003FB687D3870706A7860D0
:205EC00002983A46407B3874E87C78740120F874B8742C323946287C02F047FB00287DD00E
:205EE000B87CF16802F00EFCF87CE8738EE0397A6A46117103995171062201A902F06DFB6D
:205F000000286BD04448BB6820387A688021C2670B507BE079680691012102E079680691C1
:205F200000216A46117706A902F0B9F8002855D06CE053E03879411E0E294FD80299087069
:205F400064E07868F06061E0786830615EE0786870615BE07868B06158E07868F06155E062
:205F60003A7969460A71052201A902F036FB002834D06846017928483830417046E039799B
:205F80006A461171042201A902F027FB002825D068460079707039E03A7969460A710822A7
:205FA00001A902F01AFB002818D0684601791A48383001702AE039796A461171072201A9FC
:205FC00002F00BFB002809D06846007930701DE018E011E00AE006E002E016E0032415E057
:205FE0007868A86212E07868E8620FE00A48796838304160716009E00748397938300172DA
:20600000317203E07868706300E002242046DCE65801002040E10008EC100020CC0D002062
:20602000F0B50446022085B00090002C36D04748008FC00718D10C220021454806F02EFD8D
:20604000434E01207070414D207808271A35002806D001285DD0022866D0032850D16BE0BF
:206060003A48018FC90602D5012005B0F0BD6168002913D0A168002910D0E16800290DD0AF
:20608000217C00290AD06A46117330481E2203A9007C02F0A2FA002802D00AE00320E4E7EC
:2060A0001F2168460174294804A9007C02F01DFA2074287869463843287020783070234E3B
:2060C00060683064A0687064E068B064207C707600203076087102F08BFA307E6946401C3B
:2060E000088102A9307C01F0ADFF1A49002348701A46194601A803F013FF0090002806D0EA
:206100001249002048712878F721084028700098ABE7287800223843287020783070114625
:206120000220FCF7CDFDE8E73070287838432870A08803F061FFE0E73070287838432870C9
:20614000227BA088A16803F081FFD6E75801002030120020EC100020FEB508AF70CF6F46EC
:2061600070C700F001F8FEBDFFB50D46002681B01F460124F0223146294806F08FFC284A6F
:206180001021039804F0D2FE26480A9941718771390AC171390C0172390E41720B998172F6
:2061A0000B991F4F090AC1720B99090C01730B99090E4173203F18E01A48194AC473641C18
:2061C0001146A4B2203904F086FE00203118019A3B5C525C401C5A400C9B80B25A54102843
:2061E000F4D3103D1036ADB2F6B2102DE4D2002D13D00B4A0B481146C473203904F06BFE4F
:20620000002008E0019A3118525C3B5C5A400C9B401C5A5480B2A842F4D305B0F0BD0000BD
:206220005C120020D4010020F3B52B4887B00E46427869460A710078284C0876207A617A72
:206240004018C5B2002E32D000216846017221794172206B2049039038394A7868460274D2
:206260001D4F09784174183F397B817420463030009006AB01AA02A9207C01F0D4FE397B0C
:20628000684681750179417509210175E07C002802D00A206946087505A9207C02F025F984
:2062A000C0B27070A84205D3401B307006E0032009B0F0BD3070002525726572684604215A
:2062C00041562A46079804F07FFD002801D00020EEE70820ECE700002411002058010020F1
:2062E00038B504466846054D04700B226946287C02F073F9002800D02C7538BD580100200E
:2063000010B502790168407906F04AFE10BD10B50168CA69D243D20603D410220A62FEF758
:20632000EFFB10BDFF220132811A90420CD009DC08280DD008DC012808D0022806D0042806
:2063400002D105E00F221202072070470520704706207047704700001CB5044640780028F7
:206360001BD105F06BFE002801D005F055FE607B012812D1E078E02810D069464871207B68
:206380000871A06800900848E1894180217C0171543800690169684688471CBD03492046FB
:2063A00005F052FE1CBD000098000020A406002070B50446007800280CD0012809D1607877
:2063C000002806D105F03AFE002802D0204605F02BFE70BD60780025064C002804D006A0F5
:2063E00007F02CF9257070BD257020694069804770BD0000440000204A6F696E20466169E0
:206400006C0D0A00704700008307FF22DB0E9A408907090E994000280BDA0007000F0838F1
:20642000830808489B001818C36993430B43C3617047830804489B001B1818689043084348
:206440001860704700ED00E000E400E010B50B4804F026FA0A484179002905D00121817330
:20646000816B042291438163407C022805D1044810221A3001781143017010BDF0110020A2
:20648000580100200EB507A00068029002A80090012168460171E02141710021FFF7B0F831
:2064A0000EBD00000100000010B505F091FE10BD10B504F0FDF805488168012903D904A06C
:2064C000491E07F0BBF803F05DFE10BDF000002052656376206C6F7261206672616D653ABD
:2064E0002025640A0D000000F8B500278D4804F0D7F98D4D8D4C2878C1067DD5A16B4A06A7
:2065000004D54022914349084900A16385490207D4310026002A01DBC20711D0814AC0325F
:206520005378022B02D04B78022B09D1A36B5B085B00A3632672637B537116710127966016
:2065400062793A43774F503F002A34D1020702D4C10703D12FE00A78002A06D03978A27A86
:2065600091420ED9810712D420E0227E8A724978002903D0617E8A4213D217E0A662A672F3
:206580000FE0800703D42672206B401C2063A6726078002802D1A06A401CA06264A007F05E
:2065A0004DF8A06B40084000A06304E0EF210840287000F0B5FC287880071BD55948C030E3
:2065C0000079012803D0607B217B884212D9A67366716078002802D1A06A401CA06254A0FB
:2065E00007F02CF84F48617BC0304171A06B40084000A063A07B00E03AE000283FD0208FDA
:20660000C0063CD4A673607B217B88424ED208284CD8401C6073C0070DD0202168460170A3
:20662000397B404F8170703F797841706946207C01F05BFF787003F0EDFB002814D03948EF
:206640000921C03041702672A16B49084900A16366710671617B417132497039497881707B
:206660006078002805D007E02878EF210840287005E0A06A401CA0622DA006F0DFFFA06BD5
:20668000810702D502218843A06300281ED07D21C900244804F0BAF8224804F0C9F828785C
:2066A00080073ED5607C02282DD02EE00121207C01F025FFA06B40084000A06319482672CD
:2066C0006671C0300671617B4171C9E72878C00708D0E06D01681348C03088472878400847
:2066E000400028702878000708D5E06D81680D48D43088472878F721084028702878EF2198
:2067000008402870CBE700F0B3FB2878400704D4E06D41680348A83088472878F9210840A0
:206720002870F8BD5C110020720100205801002053656E64204F4B0D0A000000FFB5064618
:20674000002097B00C4611900146099005460C90FE48079010300E90002013901290FC48B4
:2067600001711838C2811A9A0274FA4AD27B4274C17081704171816001734173817441612F
:206780000170F548406B8047F148683804F088F83078694608704109601E0290201FEF4FE6
:2067A0001491109001291CD003297DD005297BD007297AD039460120F831487000F078FD2C
:2067C000E44810221A30017811430170E3480121503004F01BF8E148503004F029F81BB076
:2067E000F0BDDC48C178002903D0D949012018394EE1D8480299DA4D826C89B26B1C701CB2
:20680000FFF7A6F9684600782870109809AB81B2D048826C2846FFF733F928192038417FA7
:20682000027F09021143827FC07F12040A43000609991043884249D1C448C64E1030009006
:20684000C24BF28B691CB06CFFF73EF96879297900020843A97909040143F164287AE97944
:2068600000020843697A09040143A87A000608433065E87A4106490F00077970000F3872E5
:20688000287BB84D0007000F286101D1012028617D21C9004843286140186861B0480D3064
:2068A00004906846113C01E015E096E1047504A9307C01F0D0FBA649002014314870012041
:2068C000F070A64818304078687079E7A04807211430417074E7797B684681739C489D4F6C
:2068E000183801796846417309210173F87C002802D00A206946087303A9387C01F0F5FDC9
:2069000021460D3909B2002900DA0021814200D96BE7B178707809020143F0788D4A00045A
:2069200008433179090601430691126D05209142884917D04D6A0CE02A6806998A4207D1D1
:2069400001211391291D079110310E916F6A0AE0AD6A002DF0D10B217D481838417000F009
:20696000A7FC3CE7CF6A315C6A461170401C0B91335C401C305C02020807000F08300A90F7
:2069800030191A432038017F0C9B1943437F1B020B43817FC07F09041943000608430C90B4
:2069A000D01B81B20122D20309A80D91914212D27F180197029001211098009181B23046F6
:2069C000069B079AFEF704FF09990C9888421AD10120129017E009B20122791812048918A2
:2069E00015910191029010980122009281B23046069B079AFEF7ECFE09990C98884202D1C3
:206A00000120159F1290112069460873514803A9007C01F06AFD0D99884205D84C480A217F
:206A20001838417047619AE71298002877D04848002118384170139A82700B9A444BD206B6
:206A4000D20F42718160017347614248597001634172139800280CD018460221183801704A
:206A6000696AB94203D1002901D0082176E76F621FE0149805280DD036483549002282715D
:206A800018390A70C06AB84211D100280FD00820487064E72F482E4A01218171183A11701D
:206AA000C06AB84203D1002801D0012011902948C76227480078012802D10B98800602D5A6
:206AC0002449002008720A98201A001F002852DD0A9D0A986D1C611B091F305CC9B20F9140
:206AE0001B491839C87000280B9819D0000707D01A980821C3B2681EC2B2304600F0F6FB76
:206B000001200090164C019702947019069B0E9A0F99FFF721FB1198002825D04FE05AE079
:206B2000000702D00120119049E00D4801210290019700917019069B079A0F99FFF70CFBEF
:206B40001A980021C3B206480F9A1CE0CC0D00201C1200205801002040E100080C110020D4
:206B6000EB0E0020EC100020264884600F990173012141730CE00B98000706D01A98082155
:206B8000C3B230460A9A00F0B1FB1198002816D10B98800606D51B49012018310871183976
:206BA000887408E017490020183108711648417B007B814203D91348143803F071FE124917
:206BC00002221A3108781043FB221040119A920010430870F4E50C21BEE6711C22460B480C
:206BE00005F044FF074803210170002141700749816002990173044802211A3002780A43E7
:206C00000270DDE50412002058010020EB0E002070B5144C607C022803D01348406B80474D
:206C200001E000F025F911480E4DE27B01461A35102614316379002A05D00622002B00D045
:206C400042704A700AE00522002B00D042704A70606D03F067FDA16E884202D3287830436B
:206C6000287070BD5801002040E100081C12002070B5164C607C022803D01548406B804730
:206C800001E000F0F5F81348104DE27B01461A35102614316379002A08D00422002B00D011
:206CA00042704A70607C02280BD170BD0322002B00D042704A70606D03F034FDA16E884203
:206CC000F3D328783043287070BD00005801002040E100081C120020FEB503F01DFD364CE4
:206CE0000646607C022803D03448406B804701E000F0BEF8304DA0781A35002700282AD0CD
:206D00002F48616E03F082FD2D4803F091FD607C02280ED02A48A16E143003F077FD284845
:206D2000143003F085FD607C022802D06079002820D012206946087202A9207C01F0D5FB6E
:206D4000A16E41181E48503003F060FD1C48503003F06EFD0EE01A4804217C304770143037
:206D600041702878002801D101202870C0B21021084328702878000704D511489030007878
:206D8000002815D0E775607DA07569460870E07848700196207C01F0FCFB6665607900287A
:206DA00005D107487C304770A07A401CA072FEBD0120E075E7E700005801002040E1000822
:206DC000A011002010B50B48407C022803D00A48406B804701E000F04BF80849022048700E
:206DE00014314870034810221A3001781143017010BD00005801002040E100081C120020D4
:206E000010B506F041FC00211020FEF7CDFC10BD70B5144803F044FD134C0021114DE173B7
:206E2000607D283528702846BC384278EA70407B2874E07C6874A974E974607C022802D128
:206E40000A48806B8047074A207C68321146403901F08BFB0348B438C168A87C01F052FC9D
:206E600070BD0000A01100205801002040E1000870B5144803F014FD124D134C2835607DF5
:206E80002E462870F03E706A68602846D038407B2874E07C68740120E874617C022900D0BC
