:020000040800F2
:2000000018080020B51900089518000897180008000000000000000000000000000000005E
:200020000000000000000000000000009918000800000000000000009B1800089D1800088F
:20004000FB070008AB080008AF080008EB1400087B19000887190008B1190008D919000805
:2000600000000000DB190008DD190008DF190008E1190008E319000800000000E51900087A
:2000800000000000E71900080000000000000000E919000800000000EB190008ED19000834
:2000A000EF190008F1190008F3190008F5190008C1180008F71900080000000000000000FB
:2000C000F8B50400B34D2078C0074FD58027BF02E8680C210140082907D0E8680C21014000
:2000E0000C290AD1E868C00307D5286807403DD0606800283AD10120F2BD6068790888423F
:2001000001D1286809E0A021C9028842286806D17900014329602868790801430AE0AA495F
:2001200001402960286879080840009000982868A64901402960606800280BD000F0ECFA8A
:2001400006002868384011D100F0E6FA801B6528F7D396E100F0E0FA06002868384005D0C9
:2001600000F0DAFA801B6528F7D38AE12078800719D5AF4FE8680C210140042907D0E86841
:200180000C2101400C2935D1E868C00332D42868400702D5E0680128ADD168680740206960
:2001A000000238436860AF0D2078C00668D5E8680C2101407AD12868800502D5A06900287D
:2001C00099D0206A6968E02212020A40824235D200F05EFA00288ED16868AC490140206AD1
:2001E0000843686068680002000AE16909060143696034E0E068002810D0296809229143B6
:200200000843286000F088FA060028684007C4D400F082FA801B0328F7D332E12868012163
:200220008843286000F078FA060028684007BAD500F072FA801B0328F7D322E16968934A00
:200240000A401043686068680002000AE169090601436960206A00F01BFA0028BBD1012093
:20026000216A490B491C8840C0038949EA681206120F895CC84087490860002000F052FAD1
:200280002078000750D560690028286D3DD001210143296500F040FA0600286D800743D4B0
:2002A00000F03AFA801B0328F7D3EAE0A069002828681BD03843286000F02EFA0600286863
:2002C000800505D400F028FA801B0328F7D3D8E068686E490140206A08436860686800022F
:2002E000000AE169090601436960C9E76A490140296000F011FA060028688005C0D500F0C6
:200300000BFA801B0328F7D3BBE001218843286500F002FA0600286D800705D500F0FCF966
:20032000801B0328F7D3ACE02078400763D5002000903805A96B014004D1A96B0843A86309
:200340000120009055480068384011D15348006838435249086000F0DFF906004F4800683F
:20036000384005D100F0D8F9801B6528F6D388E0A168B9420AD0A24800290DD0A022D200B3
:20038000914209D1286D290D01432965286D07432F6508E000100240296D3F4A0A402A656E
:2003A000296D08402865974FA068002810D000F0B3F90600286D800516D400F0ADF9801B05
:2003C000B842F7D35DE000BFFFFFFEFFFFFFFBFF00F0A2F90600286D800505D500F09CF960
:2003E000801BB842F7D34CE00098002803D0A86B85490140A963606A002844D0E9680C222C
:200400000A400C2A00D176E68027BF047F490228286829D10140296000F07EF90600286882
:20042000384007D000F078F9801B0328F7D328E0FFE0FFFFE86893490140A06A0843E16A8A
:200440000143206B0843E860286879080143296000F062F906002868384014D100F05CF9D9
:20046000801B0328F7D30CE00140296000F054F906002868384006D000F04EF9801B032818
:20048000F7D30320F2BD0020F2BD0000FF1FFFFF3C1800080C000020FFFEFFFF00700040A2
:2004A000F2B582B004000127FF43012576480068284088420AD27448006838400143724801
:2004C0000160006828400299884274D16F4E2078800705D5F068F0218843A1680143F160B9
:2004E0002068284055D06068022802D13168890308E0032802D13168890103E0012831684F
:2005000002D1490702D456E0890554D5F168032291430843F06000F0FFF80090606802289F
:200520000CD1F0680C210140082932D000F0F4F80099401A33498842F3D328E003280CD1FA
:20054000F0680C2101400C2923D000F0E5F80099401A2C498842F3D319E001280CD1F06891
:200560000C210140042914D000F0D6F80099401A24498842F3D30AE0F0680C21014008D0C6
:2005800000F0CAF80099401A1E498842F4D30320FEBD02983C490968294088420DD23A48BC
:2005A000006807400298384337490860086805400298854201D00120FEBD2078400705D513
:2005C000F0684B490140E0680843F0602078000706D5F068474901402069C0000843F06084
:2005E00000F016F84449F2681206120F895CC84042490860002000F095F80020FEBD000085
:20060000FFFBFFFF89130000FFFFFFEFFFFFFFFEF0B51E4DE9683B4A9308102654080C2020
:200620000840042804D0082809D00C2809D01DE02868064001D01800F0BD1000F0BD200016
:20064000F0BD31488F023F0FC05D0902890F491CEF68FF0301D5604305E02C68264001D0EE
:20066000584300E0504300F071F8F0BD686801210004400F401C8140C803F0BD1F480068BD
:2006800070470000FFFF02FF0020024000100240F0B5002201211A4B1C68F025254018D1BB
:2006A000C02464011A4D0E07DF6A374002D02D68254008E0DF6A3E43DE622D682540DE6AB5
:2006C000144F3740DF62A54203D1E300984200D101220E4803680124A343134303600068A6
:2006E0000140914201D00120F0BD0020F0BD0000FFF8FFFFFFC7FFFF3C1800080C00002039
:200700000C1002400024F4004C1800080020024000700040FFFFFFEF01480068704700BFD2
:200720009414002010B5040007480068FA21890000F00CF800F089F8002221000020C04302
:2007400000F076F8002010BD0C0000200022030A8B420BD203098B4219D243088B422ED26D
:20076000411A00D20146524110467047FF2209023FD012068B4205D3121209028B4201D39D
:200780001212090203098B4219D300E0090AC3098B4201D3CB01C01A524183098B4201D39F
:2007A0008B01C01A524143098B4201D34B01C01A524103098B4201D30B01C01A5241C308A9
:2007C0008B4201D3CB00C01A524183088B4201D38B00C01A524143088B4201D34B00C01A0B
:2007E0005241884200D3401A5241CFD201461046704708B500F05AF808BDFEE710B5C200B7
:2008000018231340FF249C40E2438907090E9940002804D51F4B0007000F083800E01E4B9C
:2008200080088000181803681A401143016010BD80B5FFF7E3FF01BDBFF34F8F174818491E
:200840000860BFF34F8F00BFFDE710B5401E80214904884201D3012010BD124C606003211E
:200860000020C043FFF7CAFF0020A0600721216010BD0C490428086803D1042202430A6066
:200880007047042290430860704780B500F00CF801BD00001CED00E000E400E00400FA05F2
:2008A0000CED00E010E000E07047FEE77047FEE738B55F4B1A68002A1BD1002919D0B04A1C
:2008C000914216D2AF4A1478012C12D1AE4C0578A56200251570491E19609D800A00411C3C
:2008E000981D00F0E3FA2068802101432160012032BD002032BD38B5050000F005FB84B251
:2009000021002800FFF7D4FF0128F9D131BD80B59D48C169890607D50168890604D5406ABA
:20092000C0B200F03AF801BDC169C90607D50168C90604D51021016200F041F801BDC369D8
:2009400040223B491B0617D503681B0614D50B68002B09D08A88531C8B808A18927982629B
:200960000868401E086001BD016880239943016001680A43026001BDC3695B060CD503688B
:200980005B0609D50262026840239A4302600020086001207B49087001BDAA498A8883235A
:2009A000DB009A420ADA0A68002A07D18A88531C8B80891888710120A349086070470020B6
:2009C000A14908609F498A880A6088807047000038B500249D4B0D68002D0FD00078552833
:2009E00001D0752809D101201D78002D00D118705D68C82D01DB5C6010700C609868944958
:200A0000884213DB9C6093480168934A0A40802189058A4206D141685961006880F3088817
:200A20000846804703A0FFF766FFFEE731BD0000380C00200A0D5374617274204661696CAB
:200A40002100000070B504000D001600012028600FA0FFF750FF3D2213A1200000F026FA49
:200A600021A1200000F058FA22A1200000F054FA22A1200000F050FA2FA1200000F04CFAEE
:200A8000022030702000FFF736FF0020286070BD0D0A462D49434D2D30312D313830363057
:200AA00034310D0A000000000D2A2A2A2A2A2A2A2A2A2A2A2A2A2A2A2A2A2A2A2A2A2A2AE7
:200AC0002A2A2A2A2A2A2A2A2A2A2A2A2A2A2A2A2A2A2A2A2A2A2A2A2A2A2A2A2A2A2A2AD6
:200AE0002A2A0D0A00000000312E5570646174610D0A0000322E52756E0D0A002A2A2A2A62
:200B00002A2A2A2A2A2A2A2A2A2A2A2A2A2A2A2A2A2A2A2A2A2A2A2A2A2A2A2A2A2A2A2A95
:200B20002A2A2A2A2A2A2A2A2A2A2A2A2A2A2A2A2A2A2A2A2A0D0A0053656C6563743A0092
:200B400038B50C002168002918D000250078312802D032280CD010E0B2483E498160B249B7
:200B60000160B74941600320107000BF07A002E0157000BF09A0FFF7BEFE256031BD000076
:200B8000190400001000002000440040310D0A43686F73652046570D0A000000320D0A52DB
:200BA000756E6E696E672E2E2E0D0A0070B50023002824D01400080025006C1E2D0410D0C5
:200BC0001D0003781B026B40401C08255E001B0403D5AA4B73409BB200E0B3B26D1EEBD057
:200BE000F4E7885C000289184978401880B283420AD0002070BD1B18DBB2491C521E087847
:200C0000002AF8D18342F4D1012070BD9C49C86008680006FCD5704730B5010000220020D6
:200C20000A4B1C69002C00D41A611C698C4201D31A6130BD924C2568AD06F6D5A068C0B26D
:200C400030BD0000180800209014002058140020B80B0000002000080000FE2FF3B5894886
:200C600085440020039043270120009000200290192001900D20FFF7C9FF0A20FFF7C6FF91
:200C800068480068010002D0804700E015271024380001D0FFF7BAFFFA20C000FFF7BCFF0F
:200CA00000282DD4012806D0022810D0042811D0182819D024E08024432F01D1012103912A
:200CC00000276946087404A8451C002630E08024E400F1E70620FFF799FF0620FFF796FFBA
:200CE000029869498D44F0BDFA208000FFF794FF182805D10620FFF789FF0020C043F0E753
:200D0000641EC5D1432FC1D01820FFF77FFF1820FFF77CFF1820FFF779FF0120EEE7FA20AD
:200D20008000FFF779FF002861D428706D1C761C0398002801D0601C00E02000C01C864201
:200D4000EDDB04A8407804AA9278D343DBB298424DD10099884202D0491E884247D1220074
:200D600004A8C11C0398FFF721FF00283FD004A840780099884226D1FFAD6D6AAC4201DAF8
:200D8000250001E0012D18DB2A0004A8C11CFFA8006A00F08BF823484368180005D0AAB296
:200DA00020488168FFA8006A98471E48806840191C4988600298401902900098401CC0B213
:200DC00000901A2001900198401E019001280ADA1820FFF71BFF1820FFF718FF1820FFF768
:200DE00015FF02208AE70620FFF710FF4FE71520FAE780B52548016880229143016001688A
:200E000040229143016001681022914301600168202291430160010D1D48FFF71FFFFFF70E
:200E20000BFDFEE700000020AB1700081748016810220A430260016820220A430260704721
:200E40006917000880B5134A10785168002805D0022807D004D3032806D007E00E4907E03C
:200E60000E4905E00E4903E00E4901E00020107051600D49881D5368984701BD21100000EF
:200E80001C440040E4FBFFFF24040000004400405810002088140020D1090008450A0008AC
:200EA000410B0008F30D000818080020124207D08B0706D00B78491C0370401C521EF7D80D
:200EC0007047830706D00B78491C0370401C521EF9D1704770B4103A03D378C9103A78C04C
:200EE000FBD2530701D318C918C001D508C908C0D20704D30B880380891C801C002A01D5C8
:200F00000B78037070BC7047010000E0491C0A78002AFBD1081A7047020000E0521C137886
:200F2000002BFBD10B781370002B02D0521C491CF8E77047F2B51700344C207C012801D179
:200F40000220F2BD012020745A4D280000F026F80026010005D1666100980760280000F053
:200F60001DF82674F2BD5448016889070CD50168C90703D551498160514981605149C160DB
:200F80005149C16000207047012070474A4801680222FFE70A4302600020704770B5050032
:200FA000FFF7BAFB06004A4C2068C0070CD50020C0438542F8D0002D04D0FFF7ADFB801BCE
:200FC0008542F1D2032070BD02202168014000D020602068C00511D4206880050ED4206852
:200FE00040050BD42068000508D42068800405D42068800302D42068C00303D500F008F88B
:20100000012070BD002070BD000000007014002030B500222D4880235B002D490C681C40D1
:2010200004D042690224144344611A004B0D0C681C4006D0446901252543456114001A00E8
:2010400022430B0D0C681C4006D0446908252543456114001A002243CB0C0C681C4006D075
:20106000446904252543456114001A0022439B000C681C4006D044691025254345611400B4
:201080001A0022430B689B0306D5202344691C43446114002022224380235B020C681C4066
:2010A00006D0446940252543456110001A0002430A6030BD50C3000004200240EFCDAB890B
:2010C00005040302BFAE9D8C161514137014002018200240F8B50400514D2078800670D54A
:2010E0000020009080204005A96B014004D1A96B0843A863012000904A4E3068C0050FD43E
:201100003068A90D01433160FFF706FB07003068C00505D4FFF700FBC01B6528F7D336E03F
:2011200029686068C026B60232010A40310101408A4208D031000140B14204D129688903CD
:2011400001D50120F2BD296D314022D0304081421FD0207880061CD5286D33490140286DD8
:201160008022120302432A65286D304A02402A652965C8050DD5FFF7CFFA0700286D8005E7
:2011800007D4FFF7C9FAC01B29498842F6D30320F2BD606831000140B14206D12968254A05
:2011A0000A403101014011432960286D61680E4006432E650098002803D0A86B1E490140BF
:2011C000A9632078C00705D5E86C03218843A1680143E9642078800705D5E86C0C218843A8
:2011E000E1680143E9642078400705D5E86C1349014020690843E8642078000705D5E86C7E
:201200000F49014060690843E8642078000605D5E86C0C490140A0690843E8640020F2BD04
:201220000010024000700040FFFFFCFFFFFFF7FF89130000FFFFCFFFFFFFFFEFFFF3FFFF7B
:20124000FFCFFFFFFFFFF3FF38B501000020444A324C80231B02032913D1E16C8907890F73
:20126000C025AD020D433F496D1A1AD06D1E1BD06D1E1ED000F029F800F044F800F050F82D
:2012800032BD0C2920D1E16C0C250D40C02109032943354D491B04D0091F05D0091F08D05E
:2012A0000CE000F012F832BD216849070CD5100032BD216D890507D5180032BD00F005F8B4
:2012C00000F020F800F024F832BD10B5274A9368072001210C241C400DD0042C04D0082CF0
:2012E00004D00C2C04D006E01D4810BD204810BD00F01EF810BD1268520B1040401C8140AA
:20130000C80310BD1B4909681B4A0906090F0CE018490968194A490506E00000001002402D
:2013200014490968154A8904490F515CC840704700B510490868802252021040904201D1C7
:201340000B4800E006480A6809680D4B9202120F9A5C50430902890F491CFFF7F7F900BDE8
:201360000024F4000100030004000C000410024000127A000C1002403C180008D0190008B4
:201380004C180008F0B58FB08020800229490A6802430A600968084006900698042400949F
:2013A000022701970326029600250395049505946946A020C00500F047F808200090019709
:2013C00002960395049505946946A020C00500F03BF819480168FF2291430160A00617492E
:2013E0000860E12040020790089509950A950C200B900C950D95124C07A9200000F076F83B
:201400006068F904014361606068710501436160A068A10C0143A16060680A4901406160A8
:20142000A0682A218843A06020680121014321600FB0F0BD381002401CE400E000E100E088
:2014400000440040FFB7FFFFF0B500230CE02D0A2A006A436A436A43456A1601B61AB543AA
:2014600062432A4342625B1C0A681400DC402FD001259D401540F6D02A006A435400A61897
:20148000F443066826404F685743374307604E68012E01D0022E05D1866826408F6857436E
:2014A00037438760C66834400E6956432643C6604C68022CD7D14C69FF2DC8D86A436A4325
:2014C000056A1601B61AB54362432A430262CAE74B68012B01D0022B05D143689343C96832
:2014E0004A431A4342600120F0BDFEE770B504000E0000252068C0073ED4206821490140BD
:2015000070680843F168014330690843B1690143216060681C490140B06808436060A068AF
:201520001A49014070690843A0601448844201D1032003E0124884421ED10C20FFF784FE36
:20154000002819D03168002916D001254A08B369EE03B3420BD140008018FFF7F7F880B28D
:201560000B4901400007400F0143E16004E08018FFF7ECF880B2E060280070BD0038014065
:2015800000440040F369FFEFFFCFFFFFFFFCFFFFF0FF000010B500F059F800F011F800F0DA
:2015A00065F8FFF7EFFEFFF741FC254CFFF74AFC2068FA2189008842F8DB00202060F5E7C6
:2015C00070B59AB01F4801681F4A0A40C10C1143016002240C9401260F9610201090002510
:2015E00015950CA8FEF76CFD002800D0FEE70F200090019602950395049500216846FEF770
:201600004FFF002800D0FEE70594089505A8FFF761FD002800D0FEE7FFF730F8FA218900C9
:20162000FFF794F8FFF711F90420FFF722F9002200210020C043FFF7FBF81AB070BD0000AD
:201640005C14002000700040FFE7FFFF80B50648016840220A4302600020FFF763F800F008
:2016600013F8002002BD00000020024081B0012004490A6802430A6009680840009000987D
:2016800001B070472C10024080B50E48016801220A4302604168802252050A4342600022EB
:2016A00000210420C043FFF7C3F8002200210120C043FFF7BDF8002200210020C043FFF7C3
:2016C000B7F801BD34100240F2B50700174C207C012801D10220F2BD012020741448FFF797
:2016E0005DFC01001FD10021C943009A11607D68104E00E08035B968C9017A6889188D4253
:2017000011D2280000F01AF80948FFF747FC31680822914331603168074A0A403260010043
:20172000E8D000990D6000212174F2BD7014002050C3000004200240FFFDFFFF10B5002189
:20174000074A5161074A1368540D1C431460136808241C4314607F229043016010BD00006A
:20176000701400200420024070B582B00D0016000400009503E0241D0098001D009000984B
:20178000A91988420FD2FFF7EEFB226800990220FFF7D0FBFFF7FAFB2068009909688842B0
:2017A000E9D0002076BD012076BD10B586B000240194FFF7D8FBDC20000200900098810A9B
:2017C000800500D0491C029405480390049101A902A8FFF779FFFFF7D9FB06B010BD000035
:2017E000002000080F480168820D0A430260C1680D4A0A40C26001680C4A0A400260816883
:201800000122914381600168094A0A400260C168084A0A40C260002101618020000506492A
:2018200008607047001002400C40FF88F6FFF6FEFFFFFBFFFFFF02FF08ED00E000000000AF
:20184000000000000102030406070809030406080C1018203000000070B40121002213E06C
:201860000468001D0C4202D04D466D1E64192260241D1B1F042BFAD225009E0701D52280EA
:20188000AD1C0B4000D02A700368001D002BE7D170BC70477047FEE77047704780B500F04D
:2018A00013F8FEF7F2FF00200449820089180A68521C0A60401C0428F6DB01BD5C140020B6
:2018C00080B5FFF724F801BD02480168491C0160704700BF9414002030B401210268001DBF
:2018E000002A0FD00368C318446808300C4202D04D466D1E64191D6825601B1D241D121F46
:20190000ECD0F8E730BC704710B5074979441831064C7C44163404E0081D0A688918884727
:201920000100A142F8D110BD080000002800000029FFFFFF800C000018080020000000000B
:2019400099FFFFFF1400000054000000000000200000000000F00BF8002801D0FFF7D4FFB4
:201960000020C046C046FFF715FE00F002F80120704780B500F002F801BDFEE707463846E3
:2019800000F002F8FBE7FEE780B5C046C046024A11001820ABBEFBE726000200000000004D
:2019A000000000000020000880841E0001000000FEE700000148804701480047E517000853
:2019C000C5190008C046C046C046C046FFF7C2FF0000000001020304FEE7FEE7FEE7FEE7B4
:2019E000FEE7FEE7FEE7FEE7FEE7FEE7FEE7FEE7FEE7FEE7FEE7FEE700000000000000002B
:201A00000000000000000000000000000000000000000000000000000000000000000000C6
:201A20000000000000000000000000000000000000000000000000000000000000000000A6
:201A4000000000000000000000000000000000000000000000000000000000000000000086
:201A6000000000000000000000000000000000000000000000000000000000000000000066
:20200000401D0020D5200008896300080952000800000000000000000000000000000000EF
:20202000000000000000000000000000C38400080000000000000000A96F00089D9D0008EF
:20204000E7200008E7200008E3750008E7200008E7200008132F0008232F0008332F0008D6
:2020600000000000E7200008E7200008092F0008E7200008E720000800000000E7200008D5
:2020800000000000E72000080000000000000000E720000800000000E7200008E720000804
:2020A000E7200008E7200008E7200008E7200008E3AA0008E7200008000000000000000040
:2020C0000348854600F0AAFC0048004709C60008401D00200448804704480047FEE7FEE701
:2020E000FEE7FEE7FEE7FEE7459E0008C120000830B50B46014600202022012409E00D4638
:20210000D5409D4205D31D469540491B2546954040191546521E002DF1DC30BD70B50024C3
:202120002546002801DA01244042002901DA01254942FFF7DDFFAC4200D04042002C00D0C7
:20214000494270BDF0B51FB40646002082B005464024019100901BE0019922460F46304618
:2021600000F046FB049A059B801A994110D310461946224600F02CFB361A8F410197224645
:2021800001200021009F00F023FB38184D4100902046641E0028DFDC019B009829463246FC
:2021A00007B0F0BDF0B51FB486B000200090019002900698069980B204900798090C02047D
:2021C0000014114307900027089D099806913E463C4603900398A9B20204000C039004982C
:2021E0002D0C154348430021224600F0F1FAC719714110340E46402CECDB3846029A00F0F8
:20220000E7FA009A019B80180090594102980191103002904028CCDB00980BB0F0BD03468F
:202220000B439B0703D009E008C9121F08C0042AFAD203E00B780370401C491C521EF9D259
:202240007047D2B201E00270401C491EFBD270470022F6E710B513460A4604461946FFF79D
:20226000F0FF204610BD421C0178401C0029FBD1801A704730B505460020034600E05B1CD3
:20228000934205D2EC5CC85C201A01D1002CF6D130BD0321001D401E037812021A43491E48
:2022A000F9D510467047F8B502464A40D40F42004B0052085B089A4202D2024608461146FA
:2022C0004A0023D0C30D4A00DDB2120EAD1A202D35DA49020126490AF6058A19002C00D076
:2022E000524220214F1B1146B9402A411018C20D9A4221D0002C17D0012D08DCDA05801A82
:20230000D20F8019D207DBB200F09EFAF8BDDA05801A012340001B06C01880185A428018FE
:20232000CA0F1043490007E04908C2071143DA05801A80194008801800F07EFAF8BD610063
:202340000122511A001BF7E70122D2075140AAE70122D2075040A6E7F0B5074608465840E7
:2023600087B0C00F049048000E46590040084908BC1A884105D2384631461E4617460B46B8
:2023800002465800400810434CD0300D039040055900400D490D0590401A0290402872DAA0
:2023A00018030121000B09050843019004980092002805D001995242002088410092019086
:2023C000029840210A1A0199009800F001FA05460C466B4607CB00F01CFAC0197141039A73
:2023E0000E0D0023D71756401A467A40164344D0049A002A2DD0029A012A039A15DC120563
:20240000C01A914101263605001C7141D20F059ED2070093019202962A46234600F05AFAA8
:2024200007B0F0BD38463146FAE71605224A0F46B218C01AB74101210905001C4F410018F6
:202440007F41114618187941E20F10436D19644113E0E2076D0815436408C2071443039A3A
:2024600001261205C01A91413605001C7141CE07400830434908C01851412A46234600F055
:202480001CFACDE7FFE7049801224000C117121A00238B4104983146C417381AA141EEE7A3
:2024A00030B40124E407634030BC55E730B40124E407614030BC4FE70000E0FFF0B51FB44F
:2024C00088B00B990998002448400999C00F490049080991C0070B990090490049080B91FD
:2024E00009990898A64608431CD00B990A98084318D0099801244000420D4800410D099872
:2025000024050003000B204309900B980003000B20430B9050181C494018002201901446A7
:20252000104605E0002001460DB0F0BD032801DA034600E003239C46C11A0AAE0AE05F007C
:2025400008ADED5B4F00F75B7D430027AA187C41491C5B1E6145F2DD410004AB5A52210463
:20256000120C0A43240C401C0828DFDB019802900099704601910090059B049A0799069862
:2025800000F0A8F9D0E700000DFCFFFFF0B50C465C4085B0E40FE40703944C0000266408D1
:2025A00059009446490802460296224321D062460A431ED06200570D4A000E032303550DD5
:2025C000012402462C492405781B1B0B360B401823432643614600901C46501AB44103D301
:2025E0000098401C009002E0921800985B41002803DA0020014605B0F0BD00200121090579
:202600000746864611E064461D46141BB54106D36546521BB341744607430C43A646CD0786
:2026200040084908284392185B4105460D43EAD11046184313D060461946504071400843D5
:2026400006D06046101AB34106D20122002306E000220123DB0702E00122D243531000989F
:2026600074460105381C6141029C039D0019694100F023F9BFE70000FD03000070B54B0081
:202680005B0803430BD04B005C0D002633466542B341D417AD1AA34102DB0020014670BDC1
:2026A00012053018514170BD10B500229623114600F0CAF810BD00000EB5C217C10F50408A
:2026C000CA0740180021054B0293019200910A460B4600F0FFF803B000BD00003304000078
:2026E0000EB505490291002100910A460B46019100F0F0F803B000BD3304000070B5CD0FD1
:202700004A0009030123090B1B0519430B4BED070024520D9A4201DA002070BD074B343325
:202720009A4203DC9A1A00F063F802E00449511888402C43F1D0404270BD0000FF0300009E
:20274000CDFBFFFF4A0009030123090B1B051943094B10B5520D9A4201DA002010BD064B3C
:2027600034339A4203DC9A1A00F042F810BD03495118884010BD0000FF030000CDFBFFFF7A
:20278000C20FD207400040080BD0C10D0723DB01C91840020905400A1143C2084007114324
:2027A000704700200146704710B5002904DB0124E40740428C412146002B04DB1C46012321
:2027C000DB075242A341994200D1904210BD000010B5202A04DB0146203A9140002010BD07
:2027E000914020239C1A0346E3401943904010BD10B5202A04DB0846203AD040002110BD16
:202800000B46D340D0402024A21A91400843194610BD10B5202A06DBCB170846203A104131
:20282000C1170B4306E00B461341D0402024A21A91400843194610BD002904DA401C4900E3
:2028400001D140084000704770B40024050C05D11024000402D1002921D01124050E01D1F9
:2028600000020834050F01D10001241D850F01D18000A41C002801DB4000641C002908D087
:2028800020252E1B0D46F540A14000D001212943084301061B1B000ADB1D02D5002070BC36
:2028A0007047DB05181880180029F8DA401C4900F5D170BC40084000704710B5002B08DA16
:2028C0000024401C614192185B411A4301D14008400010BDF0B51FB482B005460C0003D038
:2028E000084608F025F902E008F022F920300246009021462846FFF76BFF049B059A04469A
:202900000F4618431143084314D0184610431BD0009840210A1A18460599FFF769FF054626
:202920000E46009A05990498FFF752FF084305D0012004E02046394607B0F0BD0020C117C2
:2029400005430E432C43374300990E986305401A7905E40A00220C43FD0A0A3002D50020DF
:202960000146E9E70105101969410C9C0D9D00196941FFF7A2FFDFE7F8B50546480040086D
:202980000C46284304D06000184A400D904201DD2846F8BD15493539884210DC88420BDB92
:2029A000290D200308432903014305D0E00F1049C00741180020F8BD00200146F8BD161AA5
:2029C0004020821B28462146FFF702FF07460091284621463246FFF70BFF3A46009BFFF7F2
:2029E0006CFF3246FFF7F4FEF8BD0000330400000000F03F10B5002904DB0124E407404292
:202A00008C412146002B04DB1C460123DB075242A3418B4200D1824210BD0000064C0125F1
:202A2000064E05E0E36807CC2B430C3C98471034B442F7D3FFF748FB44ED000864ED0008DB
:202A400070B58C180578401C6B075B0F01D10378401C2A1106D10278401C03E006780E7088
:202A6000401C491C5B1EF9D12B0705D40023521E0DD40B70491CFAE70378401CCB1A921CA8
:202A800003E01D780D70491C5B1C521EF9D5A142D8D3002070BDF0B589B00C46074610229D
:202AA0000021684609F060FE69462246084608F08AF868460078872600066A4600280FDA77
:202AC00000201318115C5B784900DB0919431154401C0F28F5DBD07B1146400070400DE09B
:202AE00000201318115C5B784900DB0919431154401C0F28F5DBD07B11464000C873E11DDF
:202B0000F9314869102812D0107800061BD500201518135C6D785B00ED092B431354401C1F
:202B20000F28F5DBD07B13464000704019E000202118FF3101314B78155C401C6B404B7050
:202B40001028F5DB26E000201518135C6D785B00ED092B431354401C0F28F5DBD07B134699
:202B60004000D873E51D4B698020FA355855002300E043554869401C48611028F9D3002023
:202B80002118FF3101314B78155C401C6B404B701028F5DB002023181A46FF33E032013369
:202BA000517C5B78401C594051741028F3DB21461022F13104A809F0BFFD2246394604A806
:202BC00008F001F810220021684609F0CDFD09B0F0BD10B5044610220021F13009F0C4FD9D
:202BE000FF20002115300151F022204609F0BCFD10BD0B4610B502461021184608F00CF81E
:202C000010BDF0B50646FF3087B00D4601300590F11D4069FA31069110391446049100289E
:202C200043D010210F1AA74200D317460699BAB24018294609F080FD059805994069C01909
:202C4000486110283AD3BC4238D0002031180A46FF31E0320131537C4978401C4B40537415
:202C60001028F3DB04993246084607F0ACFFED19E41B1AE00022B018E030417CAB5C521C1E
:202C800059404174102AF6DB10226846049909F053FD69463246084607F095FF1022694634
:202CA000049809F049FD103C1035102CE2D8A2B22946069809F040FD0598446107B0F0BD75
:202CC000F7B523498022497A214B511ACDB2197A5B7A80260446F31ADEB2A71E4A1C0120E0
:202CE000D2B2761E3B0007F052FF0928242824152428282C3000002015490122CA71FEBD1C
:202D00001448445404E01348445401998154521C1A72F0E70E4BAD1EA942F0DA0D4D6C54B5
:202D20000198A854521CD0B202992954401C1872E1E7074BB142E6DBFEBD054BA942DFD39A
:202D4000FEBD034BA942DED3FEBD0220FEBD00005C010020EA0F002010B50AF027FA0AF0C6
:202D600009F810BD70B5194E0024194D16E000F0BBF9C1B2686831542A78002A06D0012941
:202D800011D00D2914D00A2912D003E0412905D1012129707F2814D0401C686002F036FA74
:202DA0000128E4D070BD06206C6009F0CDF870BD0028F3D03454054809F0E8FD6C602C7026
:202DC000ECE704206C6009F0BFF8E7E723050020380000203EB50E4C6A46E1781170217D9D
:202DE0009170D070606B07F02DFB0190E06B0290E07D6A4650706946207C04F0F2FF218C90
:202E0000E06B4143081AA16D4018A0653EBD00005C010020FFB5002685B037463546304661
:202E200000960024400003900699095A0120A040014225D028190C2102904843079909583E
:202E400000291DD007994118082001910856021100070117059840B205F0ACF900280FD0E9
:202E60000198407A010108980818C068002802D07F1CFFB204E00E9902988855761CF6B293
:202E8000641CE4B2082C01D20398CDE700980835401CEDB2C0B20090082DC2D30F9807700C
:202EA000304609B0F0BD000030B587B014216846FFF7CEF9032001900020029003204003AE
:202EC000104C0090E06A01210843E062E06A0840059005206946000700F02EFAE06A400861
:202EE0004000E062606B0125AD052843606300F009F900F017F900F00DF9606BA84360631E
:202F000007B030BD00100240704710B501F00CFF10BD10B5012000F003FA022000F000FA97
:202F200010BD10B5042000F0FBF9082000F0F8F910BD10B5102000F0F3F9202000F0F0F937
:202F4000402000F0EDF9802000F0EAF9FF20013000F0E6F90120400200F0E2F901208002D8
:202F600000F0DEF90120C00200F0DAF90120000300F0D6F90120400300F0D2F9012080033E
:202F800000F0CEF90120C00300F0CAF910BDFEE710B5084900234B6107494A684C15224384
:202FA0004A604A68082422434A60C009C001036010BD0000CC0300200020024010B5214A3F
:202FC00000209169CB05204904D54869022318434861901593699B0505D54B690124234391
:202FE0004B616302184393695B0505D54B69082423434B61E301184393691B0505D54B6954
:20300000042423434B616302184393699B0405D54B69102423434B616302184393699B03ED
:2030200004D54C6920231C434C6118439369DB0305D54B69402423434B61A102084390619B
:2030400010BD000000200240CC03002070B5044600F022FA0546184E0AE0601C08D0002CBC
:2030600004D000F019FA401BA04201D9032070BDB069C007F1D1B069800701D50220B061C7
:20308000B069C00511D4B06980050ED4B06940050BD4B069000508D4B069800405D4B06927
:2030A000800302D4B069C00303D5FFF787FF012070BD002070BD00000020024010B5094B71
:2030C0000021CA009C58844207D8D2189268824203D9C800C018007910BD491CC9B21529E4
:2030E000EFD3FEE700D4000808B56946044807F00BFE002801D0002008BD6846007808BDCC
:203100003C0900200248416849084900416070470058014002484168042291434160704787
:203120000058014002484168022291434160704700580140F8B504460068016849084900B8
:20314000016000F0A9F900272546064620350EE000F0A2F9811B7D20C000814207D9E06BE9
:2031600020210843E0632F7103206871F8BD20680068C007ECD12F71012068710020F8BD4C
:2031800070B50024024620325179022903D00421C16301243CE001680B680E25AB430B6092
:2031A00001680B685B085B000B601A4B0168994201D1012121E0174B1433994201D11021E5
:2031C0001BE0144B2833994201D1891515E0114B3C33994201D189140FE00E4B503399423F
:2031E00002D10121090408E00A4B6433994202D10121090501E001210906064B083B5960BC
:203200000121517100211171816B002900D08847204670BD08000240F8B5194F0546387C82
:203220000E46012807D0012038741648FFF70EFF002802D020E00220F8BD0021C94331607D
:203240006C6813E02046FFF7A3FE0E48FFF7FEFE0D494A6808239A434A604A684B159A43B9
:203260004A60002801D0346006E08034A9686A68C9018918A142E5D800213974F8BD00000C
:20328000CC03002050C3000000200240034841680222114341600020704700000020024084
:2032A000F8B50C4C1646207C0F46012808D0012020740948FFF7CAFE0025002802D006E0F2
:2032C0000220F8BD65613E600348FFF7BFFE2574F8BD0000CC03002050C30000094841686B
:2032E00089070CD54168C90703D00749C1600749C1600749016107490161002070470120D3
:203300007047000000200240EFCDAB8905040302BFAE9D8C1615141310B501F08BFC10BDA4
:2033200010B504494A69024202D04861FFF7F4FF10BD000000040140F0B5002292E00124B0
:203340009440A44623407DD04C68022C01D0122C0CD1D408A40027183D6A5407E40E0F2649
:20336000A640B5430E69A6402E433E624C68012C05D0022C03D0112C01D0122C11D185682F
:2033800054000326A640B543CE68A6402E43866044686546AC430D79ED06ED0F9540254367
:2033A0004560076854000325A5400E79AF43B607B60FA6403E430660C668AE438D68A540D7
:2033C0003543C5604C68E4004BD5294D6C6B012634436C639508274CAD002F19BD68940719
:2033E000240F0F26A640B54305263607B04201D1002614E0204EB04201D101260FE01F4E8C
:20340000B04201D102260AE01D4EB04201D1032605E01C4EB04201D1052600E00626A6404E
:203420002E43BE60184D2C684E689C43F60300D51C432C606C684E689C43B60300D51C4360
:203440006C6000E00DE0AC684E689C43F60200D51C43AC60EC684E689C43B60200D51C431D
:20346000EC60521C0B681C46D44000D067E7F0BD001002400000014000040050000800509F
:20348000000C0050001C005000040140002A01D08161704781627047014800687047000089
:2034A0002400002002480168491C0160704700002400002010B506480168022211430160FF
:2034C000032000F007F800F007F8002010BD0000002002400020704710B50848816B0204BE
:2034E0001143816300F036F800F02CF80448016808221143016000F01DF810BD00100240AA
:2035000000200240C106C90E01208840014908607047000080E100E0C106C90E0120884091
:20352000014908607047000000E100E010B502F02DFF10BD0248016802151143016070477B
:203540000070004002480168421511430160704700700040024801681022914301607047C4
:2035600000700040094B1A689208920002431A600748026904239A430261012903D040BFBD
:2035800020BF20BF704730BF704700000070004000ED00E00A4B1A689208920002431A60D1
:2035A0000848026904231A430261012906D040BF20BF20BF016999430161704730BFF9E77E
:2035C0000070004000ED00E0F8B54B4B014601240020E403474D484A4033082973D011DCBE
:2035E000012941D0022958D004291BD1D9680326B60231405CD0D714B9425CD1126852077F
:2036000046D458E0102970D020290BD11D69196903231B04012619403604B14203D1AE0539
:2036200001D52046F8BD01246404A14203D1AC0701D53248F8BD9942FCD111688903F9D522
:20364000106803210905084001210905401A09D0401A05D0884201D12948F8BD2948F8BDFE
:203660002948F8BD2948F8BDD9688907890F09D002290AD001290DD00329F4D119698905AF
:20368000CFD4F8BD00F0C2F9F8BD11684907FBD52846F8BD00F0CAF9F8BDD9680C2631406A
:2036A00006D00829F1D00429F4D00C29E6D0F8BD00F09CF9F8BD012292029142EAD0B14240
:2036C000DCD0F8BDFFE7D96803231B031940EFD001235B03994202D112685207D8D4012234
:2036E00012039142D6D0ECE7FFE7916B4902DFD4E7E700000024F400001002408890000039
:2037000020A1070000093D0040420F0080841E00F8B504460078584D80067AD5564800263B
:203720004038806BC00006D453484038816B020411438163012651480168C90510D401680B
:20374000821511430160FFF7A7FE074604E0FFF7A3FEC01B64283AD848480068C005F6D5B9
:203760004548403800680321090562680840114081420AD09003800F032806D13E48403888
:203780000068800301D50120F8BD286903210904084021D00A4082421ED0207880061BD58D
:2037A00028692A6988430121C9040A432A612A698A432A612861C0050ED5FFF76DFE074689
:2037C00007E0FFF769FEC11B2D48814201D90320F8BD28698005F4D560688103890F0329F0
:2037E00008D1254B403B196803221205914310400143196028690322616812041140084336
:203800002861002E05D01C484038826B01048A4382632078C00705D0E868A1688008800007
:203820000843E8602078800705D5E8680C218843E1680843E8602078400706D5E8680321AA
:203840008902884321690843E8602078000706D5E86803210903884361690843E86020783B
:20386000000606D5E868032189048843A1690843E8600020F8BD00004010024000700040E7
:2038800088130000F8B5044653480E460068C007C00FB0420AD250480168490849003143CC
:2038A00001600068C007C00FB0426FD120784B4F800705D5F868F0218843A1680843F860FC
:2038C0002078C00752D06068022817D0032818D03968012818D08905002957DAF9688908EF
:2038E00089000143F960FFF7D7FD05466068022812D003281CD0012826D033E03968890343
:20390000EAE739688901E7E74907E5E7FFF7C4FD411B3348814223D8F8680007800F022855
:20392000F4D123E0FFF7B8FD411B2D48814217D8F8680007800F0328F4D117E0FFF7ACFD15
:20394000411B274881420BD8F8680007800F0128F4D10BE0FFF7A0FD411B2148814201D932
:203960000320F8BDF8680007800FF3D11A480168C907C90FB1420BD90168490849003143F4
:2039800001600068C007C00FB04201D00120F8BD2078400706D5F868072109028843E168CE
:2039A0000843F8602078000707D5F8680721C90288432169C9000843F86000F037F8F96855
:2039C000084A0906090F515CC840074908600320FFF780FD0020F8BD0020024000100240E2
:2039E00088130000B0D4000820000020044805490068C968044A4905490F515CC8407047CD
:203A00002000002000100240C9D40008044805490068C968044A8904490F515CC84070479D
:203A20002000002000100240C9D4000810B5194AD1680C230846184004280BD0082810D002
:203A40000C2810D050680004410F0120C003491C884010BD1068C00601D50F4810BD0F48D9
:203A600010BD0F4810BD88020E4B000F185C0902D368890F491CDB0301D5094A05E0126846
:203A8000D20601D5044A00E0044A5043FEF730FB10BD00000010024000093D000024F400CC
:203AA00000127A00C0D40008F8B504460078F34EC0074BD0F0680007800F022807D0F06805
:203AC0000007800F032809D1F068C00306D5306880033BD56068002874D037E001216068F5
:203AE0000904884202D13068084310E0052301221B0492049842306802D110433060F2E748
:203B000088433060306808400090306890433060606800280DD0FFF7BFFC0546D84F04E00B
:203B2000FFF7BAFC401BB8427ED830688003F7D50CE0FFF7B1FC0546D14F04E0FFF7ACFCCB
:203B4000401BB842F0D830688003F7D42078800741D5F0681F270007800F3F02012807D0B8
:203B6000F0680007800F032809D1F068C00306D43068400717D5E068012823D113E0E068F2
:203B8000002817D031680922914301433160FFF783FC054604E0FFF77FFC401B0228C3D874
:203BA00030684007F7D570682169B84309020843706010E03068400840003060FFF76CFCD9
:203BC000054605E099E0FFF767FC401B0228ABD830684007F7D42078C00676D5F068A94F38
:203BE0000007800F0BD0A06900285DD03068FF21013108433060FFF74FFC054644E03068E9
:203C0000800502D5A069002877D0206A71683940884212D903F07EFC0028AED17068216AC8
:203C2000B8430843706000E0BDE07068217F0002000A0906084370600FE07168B94301433B
:203C400071607068217F0002000A090608437060206A03F05FFC00288FD1206A410B01208E
:203C6000C003491C8840F168874A0906090F515CC840864908600320FFF72CFC25E0FFF7DB
:203C80000BFC401B02288AD830688005F7D57068216AB843084370607068217F0002000A50
:203CA00009060843706010E03168FF20013081433160FFF7F1FB054604E0FFF7EDFB401B62
:203CC000022870D830688005F7D42078704D000723D560690028286910D0012108432861DE
:203CE000FFF7DAFB074604E0FFF7D6FBC01B022859D828698007F7D50FE0BCE040084000D4
:203D00002861FFF7C9FB074604E0FFF7C5FBC01B022848D828698007F7D42078400762D55B
:203D200000200090B06BC00006D4B06B012109070843B0630120009056480168C90510D409
:203D40000168821511430160FFF7A6FB074604E0FFF7A2FBC01B642825D84E480068C0052C
:203D6000F6D5FF20A1680130814203D129690143296111E001229202002907D005231B023B
:203D8000994203D1296911432961EFE7296981432961286990432861A06800280ED0FFF75D
:203DA0007BFB074606E05FE0FFF776FBC11B3448814259D828698005F6D50CE0FFF76CFB3E
:203DC000074605E0FFF768FBC11B2D4881424BD828698005F6D40098002804D0B16B012070
:203DE00000078143B163606A002842D0F1680907890F03293FD001273F060228306805D0A0
:203E0000B8433060FFF748FB04462FE0B8433060FFF742FB054604E0FFF73EFB401B0228E4
:203E200022D830688001F7D4E16AA06AF2680843216BFD231B049A4311430843F06030687B
:203E400038433060FFF728FB044604E0FFF724FB001B022808D830688001F7D509E0FFF712
:203E60001BFB001B022801D90320F8BD30688001F5D40020F8BD0120F8BD00000010024056
:203E80008813000000E00000B0D4000820000020401002400070004030B5014620310A789A
:203EA000012A15D001240C7002224A700368CA225A62036853225A620268936820252B43AC
:203EC00093600068FF2242624C700020087030BD022030BD10B506F0D7FA10BDF8B5054621
:203EE00004462035287801281BD001202870022068702268CA205062226853205062FF22C6
:203F00000132002720689142816818D19143816020688168120191438160FFF7BDFA064633
:203F200008E00220F8BDFFF7B7FA811B7D20C000814218D82068C068C007F4D01EE0012213
:203F400052029143816020688168120191438160FFF7A2FA06460DE0FFF79EFA811B7D208D
:203F6000C000814206D92168FF204862032068702F70F8BD2068C0688007EDD52168FF209D
:203F80004862012068702F700020F8BD10B500680B464068C021C94301400002000ECC04D6
:203FA000D870E40E5C708C06A40E0904490F9C701970002A0AD103F0E5FAD870587803F0DB
:203FC000E1FA5870987803F0DDFA9870002010BD30B50B460168896A5960016809694904FC
:203FE000490C9960006804680F482146014088024D04800E18706D0E49065D70490E9970B8
:204000006102490E40242140D970002A0AD103F0B9FA1870587803F0B5FA5870987803F068
:20402000B1FA9870002030BD7F7F7F0070B5040005D0254620356878002802D006E00120A4
:2040400070BD00202870204600F042F8022068702168CA204862216853204862204603F0D5
:20406000A4FAFF210028206803D0416204206870E5E78268154B1A408260206882686368D1
:20408000A6691A43236933431A4382602268E06810612068026923891B041A43026120682A
:2040A000C26880239A43C2602068C26C92089200C264E269606902432068C36C1A43C26499
:2040C0002068416201206870002070BDBFFF8FFF00B595B00420009000200990FF2001306C
:2040E00002906846FFF7E0FC002801D0FEF74FFF20200D90C0020E900DA8FFF709FB00285E
:2041000001D0FEF744FF084801690122920411430161002211460220FFF708FA0220FFF7C2
:20412000FBF915B000BD000040100240FEB505460446203528780B46012842D001202870F5
:204140000220687020681E46002720368068002A39D0400655D5187803F014FA307803F045
:2041600011FA19789878090408435978DA780902120411430843317809060843D9690843C8
:2041800059690843064699695868084301902168CA204862216853204862FF22586A01324F
:2041A000802390422068816848D1914381602068C1681940FF398239C160FFF76DF9009041
:2041C00029E00220FEBD400600D4DF70187803F0E1F90204587803F0DDF90002024398783D
:2041E00003F0D8F90243D87800040243307803F0D1F900060243D869024358690243164685
:20420000C1E7DF70AAE7FFF747F90099411A7D20C000814228D82068C068C007F3D020680A
:20422000C66121680198486420688168FF220132114381602068816812012EE00122520286
:20424000914381602068C1681D4A19408918C160FFF722F900900EE0FFF71EF90099411AE6
:204260007D20C000814206D92168FF204862032068702F70FEBD2068C0688007ECD5206818
:20428000066221680198886420688168012252021143816020688168120111438160094881
:2042A000016801225204114301608168114381602168FF204862012068702F700020FEBD84
:2042C0007FFDFFFF00040140F8B505460446203528780B46012822D00120287002206870C9
:2042E0005878002A1DD003F04DF9987803F04AF9D8789E78000406435878197800024903F6
:20430000084306432168CA204862216853204862204603F04AF9002700282AD117E0022047
:20432000F8BDC10603D5EF2108400A305870D87803F030F90604587803F02CF90002064326
:20434000987803F027F9064318784003D9E711480640206846602068C16880229143C16049
:204360002068806880060CD4204600F08DF8002807D02168FF204862042068702F7001207F
:20438000F8BD2168FF204862012068702F700020F8BD00003FFFFF00F8B5064604462036D3
:2043A00030780D4601280ED00120307002207070206800278068002A07D040061AD52878CB
:2043C00003F0E0F817E00220F8BD400600D4EF70287803F0DFF80204687803F0DBF80002B3
:2043E0000243A87803F0D6F80243E8780004024300920BE0EF702978A878090408436978D3
:20440000EA78090212041143084300902168CA204862216853204862204603F0C6F80028E8
:204420001FD118490098084021680860206881680122920491438160E968286901432068CD
:204440008268114381602068C16880229143C1602068806880060CD4204600F015F8002894
:2044600007D02168FF2048620420707037700120F8BD2168FF204862012070703770002078
:20448000F8BD00007F7F7F0070B505460068C168A0229143C160FEF7FFFF7D260446F6005C
:2044A00006E0FEF7F9FF001BB04201D9032070BD2868C0688006F4D5002070BD70B5040075
:2044C00006D025464035687C0026002802D005E0012070BD2E74204600F032F802206874CF
:2044E00020680168402291430160A168606822690843E16811430843616901220843A16963
:20450000520211400843E1690843216A0843A16A084321680860A0690421000C0840616AAC
:204520000843216848602168E06A08612068C16992009143C161666501206874002070BD74
:204540007047F8B5044600206D462880254640356E7C012E02D06E7C222E7ED100290CD0D9
:20456000002A0AD0002B08D02E7C012E75D001262E746E7C012E02D003E00120F8BD322651
:204580006E7400206065A263A387E3872163A386E386A064E0640126A06A7603B04207D1E9
:2045A00020680168B1430160206801683143016020680168490603D4016840221143016058
:2045C0000122D202FF21E068053157009042606862D1002804D088420CD1E08E012809D10E
:2045E000206B21680088C860206B801C2063E08E401EE086E08E00283FD1A06AB04242D166
:2046000020680168394301603DE02068C068A16B0880A06B801CA063A9E00022022120468D
:20462000069B03F0FDFE00287DD1206B21680088C860206B801C2063E08E401EE086E08E67
:20464000002806D1A06AB04203D1206801683943016000220121204600E0C6E0069B03F0F9
:20466000DFFE00287BD12068C068A16B0880A06B801CA063E08F401EE087E08E0028CCD194
:204680006068002876D1002201212046069B03F0C7FE002863D1B8E7002804D088420BD143
:2046A000E08E012808D1206B411C216321680078C860E08E401EE086E08E002841D1A06A11
:2046C000B04203D12068016839430160002201212046069B03F0A4FE002840D12068C0687D
:2046E000A16B087043E0002202212046069B03F097FE002833D1206B411C216321680078A6
:20470000C860E08E401EE086E08E002806D1A06AB04203D1206801683943016000220121F0
:204720002046069B00E01AE003F07AFE002816D12068C168A06B421CA2630170E08F401EC1
:20474000E087E08E0028CED16068002812D1002201212046069B03F063FE002801D003202F
:20476000F8BD2068C168A06B421CA2630170E08F401EE087A06A0227B0420FD10022012177
:204780002046069B03F04CFE002802D0606D38430FE02068C0686946088008880122802169
:2047A0002046069B03F03CFE002804D0606D202108436065D3E701206874A06AB04211D116
:2047C00020688168C943C9060CD4616D394361650168B143016020680168314301600020F9
:2047E0002874CAE600202874F8BD0220F8BD704770B5044600680168FF2221329143016085
:2048000020688168490849008160206881680025490600290ADA8168402291438160606EEC
:20482000002803D08563606EFEF784FC5A20055321680F20086220206034A072002070BD2B
:2048400070470000F8B502680446D069116805072D0F07D1830605D58B0603D5204605F047
:2048600090FFF8BD93682026002D65D0DD07ED0FFF2721370F402F435ED0C70706D0CF058C
:2048800004D501271762E26E3A43E266820708D5DA0706D0276802223A62E26E04273A4325
:2048A000E266420708D5DA0706D0236804221A62E26E02231A43E266020709D50A463240E3
:2048C0002A4305D0236808221A62E36E1343E366E26E002AC5D0800604D5880602D520463C
:2048E00005F04FFFE06E000703D42068806840061CD5204605F036FF20688168490611D56C
:20490000826840218A438260606E00280AD01D498163606EFEF734FC0028A2D0606E816B3C
:204920008847F8BD2046FFF78BFFF8BD2046FFF787FF0020E066F8BD2546C7026035002F63
:204940000ADA5B0208D50120000510626E72AE722046FFF74CFFF8BD030605D50B0603D579
:20496000204606F05BF8F8BD4006FCD54806FAD51368204640218B4313606E7200F0FCF858
:20498000F8BD000051A7000870B5040005D025466035687A002802D006E0012070BD002034
:2049A0002872204600F026F82420687220680168490849000160606A002802D0204605F0C0
:2049C00031FE204605F01CFF0128E7D0206841680922D20291434160206881682A2291431C
:2049E000816020680168012211430160204605F07FFE70BD10B50448816B0122520411433E
:204A0000816308F02FFC10BD0010024070B5034660339C7A202C44D100290BD0002A09D0F1
:204A2000012584682D03AC4206D10669002E03D1CE0701D0012070BD1E7A012E31D001261B
:204A40001E724165014640310A834A83FF22AC4204D10469002C12D1134A10E07F25002C91
:204A600008D00122120794420AD10269002A04D03F2204E00469002C01D08D8300E08A835C
:204A80000021C16622229A72197201688A6832438A6000680168FF2221321143016000201F
:204AA00070BD022070BD0000FF01000038B504461648844228D120464030018B408B081AD7
:204AC000009013D012480078FF280FD0114805F079FD104805F03CFD6A460D490E4806F0EF
:204AE0004AF900210D4A084606F088F92046FFF77FFEFF22013206492046FFF787FF206850
:204B0000016810221143016038BD00005C0D00205C0C0020280800203C09002075D100083C
:204B200030B5034660335C7A202C23D100290BD0002A09D0012584682D03AC4206D1046923
:204B4000002C03D1CC0701D0012030BD1C7A012C10D0C164014640310A824A820021C16683
:204B600021225A72197200680168802211430160002030BD022030BD10B5064900200870AB
:204B80000146202000F0E0FD0021034A084606F035F910BD200100200D6F000801460020E8
:204BA0000A0A00D00820084A114201D004221043064A114201D002221043054A114201D09C
:204BC0000121084370470000F0F00000CCCC0000AAAA000038B50B231B07C418144B10D08D
:204BE0001D15641B14D0641B1BD0AC4206D1DC6A08252C43DC62DB6A2B400CE0DD6A80244A
:204C000011E0DC6A01252C43DC62DB6A2B4002E0DD6A022407E0009311601146FEF78CFBCD
:204C200038BDDD6A04242543DD62DB6A2340F2E70010024010B5FFF7B1FF810002484058C8
:204C4000002800D0804710BDA405002070B51C4615460E460846FFF7A1FF0A49002C0DD089
:204C600080000C50304601F01FFB044600222946FEF75CFC2046FEF74FFC70BD002280003A
:204C80000A5070BDA405002010B5D2B2FEF7FEFB10BD00207047000003494A690869496AC6
:204CA00050404840704700004000F81F704700000F494B6A0A69D218120EC2714B6A0A6932
:204CC000D218120C82710A8A8B8CD218120A42710A7C8B8CD21802714A69120EC2704A69C3
:204CE000120C82708A8A120A4270097D017070474000F81F10B5084C607800280BD1084977
:204D00000648886007480068804700F0D5F900F089F80120607010BD480100200020000861
:204D200000ED00E0BCDD000870B500F0ADF9044600F070F8054600E000BF00F06BF8401B10
:204D4000A042F9D370BD000070B506460C4600221F48FFF73DF9002231461D486568FFF73F
:204D600015F9002221461A48FFF732F96068A842F1D1F07817494143C91C8B08800724D066
:204D8000154A71783D2048434900891ECA4091073C38C20F1018890F4010401AC018B178A1
:204DA000401E08180D493C2248436178E123514322781B015A438918A27810180818084A1D
:204DC00061688002511A401870BD064AD9E70000E4050020B5050000A0AA99008051010010
:204DE000FF030000505544000320704701480068704700003006002000B587B0694605A8E8
:204E0000FFF7A2FF0249096807B0401A00BD00003006002000B587B0694605A8FFF794FF4A
:204E200007B000BD10B5084C207800280AD100F04BF8FF2101310548FFF750F800F074F8DE
:204E40000120207010BD000040000020E405002010B50C4C0021042000F076FC216888682E
:204E6000C0040ED5C868C0050BD5C86880221040FF388238C8600449900248612046FFF797
:204E800029F810BDE40500200004014070B50446FFF7B2FF211A0B4D0220285EC01C8142E6
:204EA00001D9002100E00121042000F04DFC00F023FC012802D10220285E241A204600F051
:204EC0003FF870BD4000002010B51449144886B0002412C01F21016084600461114944617B
:204EE00041600838FFF7A2F86946CC750120487588750875002205A90948FFF7E5F9009470
:204F0000019404940022694605480394FFF744FA0348FEF7C1FF06B010BD00000028004090
:204F2000E4050020FF03000010B5044C2046211D1830FFF709FF206010BD000030060020C4
:204F4000F0B587B0044614223F4901A8FDF767F93D485038406E009000F07EF83B480299A1
:204F60003B4B401AA105890D081886B2A20A68468078594202E0D218401C80B28A42FAD2DE
:204F800069460C79E121090102E0521A641CA4B28A42FAD269464D7902E06D1CADB23C3A60
:204FA0003C2AFAD2897989188FB20121890203E0721A7F1C96B2BFB28E42F9D203E03C3F72
:204FC0006D1CBFB2ADB23C2FF9D203E03C3D641CADB2A4B23C2DF9D203E0183C401CA4B294
:204FE00080B2182CF9D26946C978890769464A7827D01849491E515C814202D2FDF778F818
:20500000084612498A1B10492C394A60052252068A618F704D700A460C7020321070684668
:20502000C079C8700020C861FF2248610132C8604A620861024608462438FFF777F807B06E
:20504000F0BD04490C31D5E734060020FF03000080AEFEFF34DA000810B506480068C1681C
:2050600080221140FF398239C16051000148FEF735FF10BDE405002010B57D2105F06FFDCC
:205080004906C009084310BD10B5410EC0017D220023FDF757F810BD01B582B00020C0432E
:2050A0000090012301AA02A90248FFF74AFA684680880EBD4C06002010B51C4A1A48106072
:2050C0001C491B4B0020096803E04908401C072801D29942F9D841078307C90FDB0F490158
:2050E0001B011943C00700D008200143D1610020906010615061FF21D060053190625160A8
:20510000012110624902916150620B48416B8214114341630548FFF7D1F9002801D0FDF785
:2051200036FF00F044F810BD003001404C06002080969800200000200010024070B586B0C3
:2051400014216846FDF784F805260125022436076A468021304601950294FFF73BFD002205
:2051600080213046FFF790FD6A46402130460294FFF730FD002240213046FFF785FD6A4634
:20518000202130460294FFF725FD002220213046FFF77AFD6A46102130460295FFF71AFD69
:2051A000012210213046FFF76FFD06B070BD10B586B014216846FDF74BF802200190029086
:2051C0000320039000200524240704906A4620212046FFF7FFFC6A4640212046FFF7FAFC66
:2051E0006A4680212046FFF7F5FC0121019102916A4610212046FFF7EDFC012210212046EA
:20520000FFF742FD06B010BD00BFFDE710B5034806F096FF002800D0012010BD3C0900204D
:205220007047000010B502A008F060F810BD00004A4F494E45440A0D00000000FEB5814EE1
:20524000B1603061354614358168A81C884707F083F83069C068804707F04CFD7A4900204F
:2052600007F07EFC7060A96F002901D0084600E0A8670190042069460870684600F05AFDCD
:2052800072A008F033F8A97875A008F02FF801242819817876A008F029F8641C082CF7DB70
:2052A00075A008F023F8A97A74A008F01FF801242819817A6EA008F019F8641C082CF7DB82
:2052C0006DA008F013F8A97C70A008F00FF801242819817C71A008F009F8641C102CF7DB8F
:2052E00070A008F003F870A008F000F8A9785CA007F0FCFF0124281981785DA007F0F6FF54
:20530000641C082CF7DB5CA007F0F0FF6BA0A96F07F0ECFF4B4F6DA03437B97807F0E6FF01
:2053200001242819203081785CA007F0DFFF641C102CF6DB50A007F0D9FFB97C67A007F06E
:20534000D5FF012428192030817C54A007F0CEFF641C102CF6DB48A007F0C8FF6448634983
:20536000016064494160644981603069354900680C31086002225E4800F038FA5C4C314EB9
:2053800002200C3420707436307F2071204600F0D1FC07202070707F2071204600F0CAFCBB
:2053A00000202070B07F2071204600F0C3FC6878012800D0002000F055FF16202070F07FF6
:2053C00020714B480C3000F0B5FC1E4D1220207094352868606046480C3000F0ABFC1320F2
:2053E00020706868606042480C3000F0A3FC0A202070287C20723E480C3000F09BFC1020CF
:205400002070A86860603A480C3000F093FC11202070E868606036480C3000F08BFC0520C8
:20542000207028465E38606031480C3000F082FC0620207028464E3860602D480C3000F0EA
:2054400079FCFEBD44000020FFFFFF014966204F54414120656E61626C65640A0D000000C4
:205460004465764575693D2025303258000000002D253032580000000A0D00004170704525
:2054800075693D2025303258000000004170704B65793D20253032580000000020253032C5
:2054A000580000000A0A0D0049662041425020656E61626C65640A0D00000000446576416F
:2054C00064643D2020253038580A0D004E776B534B65793D2025303258000000417070532F
:2054E0004B65793D2025303258000000DB620008B4060020DD62000835630008F0B5284D27
:2055000085B02878002802D0002005B0F0BD244800261430014604780A468F1C0A32204BFF
:205520001231012C9B686C462670019702920391D978217401A91EC91A481EC02AD0194CDA
:2055400003201C3420702046666000F0F3FB0420207068686060204600F0ECFB0520207008
:205560000F4836306060204600F0E4FB062020700B4846306060204600F0DCFB012020705C
:205580002071204600F0D6FB2E702869406980470120BAE701202870684600F001FDF7E7BF
:2055A00044000020A406002070B586B00E46044606F0AAFB0025ED43002821D1207904A974
:2055C00000F0F6FD024600211348002A04D06A461170029191810CE0002E14D001216A4680
:2055E00011706179117121799181216802910821D173007B9073104600F08CFA002800D057
:20560000284606B070BD6A461170617911712179918121680291ECE79800002010B50B4841
:205620000168002904D000F014F800F036F810BD4068002804D000F013F800F02FF810BD9A
:2056400000F006F800F028F810BD000004020020704710B501210020FDF784FF10BD000057
:2056600010B5EFF3108472B6FFF768FD08484068804707F0BDFD074908680422104308605B
:2056800084F3108801210846FDF784FF10BD0000BCDD0008007000407047704710B5EFF3E1
:2056A000108472B61248016801221143016001684907FCD501680122120611430160016847
:2056C0008901FCD5C16803221143C160C1680907890F0329FAD107F069FD07F0C3FDFFF7DA
:2056E00066FD04480068804784F3108810BD000000100240BCDD0008EFF3108172B6074813
:205700000268002A01D0002005E04068002801D0012000E0022081F3108870470402002072
:2057200010B5EFF3108472B6064B00295A6803D0012903D1024300E082435A6084F3108846
:2057400010BD00000402002010B5EFF3108472B6064B00291A6803D0012903D1024300E001
:2057600082431A6084F3108810BD000004020020F8B5174605460A461948069C089E0799FA
:20578000447183711C0AC4711C0C04721B0E437281720B0AC3720B0C0373090E4173D4B26E
:2057A000C4731048FDF715FA39460E48FDF721FA10220B490B48FDF724FA22462946094860
:2057C000FDF71FFA0749C81FFD38FDF764F9064C601CFCF75EFD2178000208433060F8BDB8
:2057E000C8010020501300204C120020F8B50E46050017467ED028680028FBD06868002893
:20580000F8D0A8680028F5D0104602F001FD002871D06F4C00212666E565204627741A3017
:2058200001706174A163217601266676E1746165A1650B2069460870384602F0D9FC0028A4
:2058400000D001202075082069460870207C02F0CFFC604D6946287005200870207C02F0FB
:20586000C7FC68700C2069460870207C02F0C0FCE8600D2069460870207C02F0B9FC286188
:205880000E2069460870207C02F0B2FC68610F2069460870207C02F0ABFCA861102069463B
:2058A0000870207C02F0A4FCE861132069460870207C02F09DFC2F462037787014206946E1
:2058C0000870207C02F094FC6862152069460870207C02F08DFC38721A2069460870207C4E
:2058E00002F086FC38731B2069460870207C02F07FFC01E067E068E078731C206946087060
:20590000207C02F075FC28631D2069460870207C02F06EFC68630021207C02F072FC3E700B
:205920000A210622696028462A72383841600272E968C1602969016169694161A9698161EE
:20594000E969C1612030067002F0D4FC28462249383004F083FD7D212846C900383004F065
:20596000E5FD28461D49683004F078FD28461C497C3004F073FD28461A49903004F06EFD9D
:2059800028461949CC3004F069FD04F055FD6063284616494C30016015498160154901612F
:2059A000154941601549164DC160A9688847E869804707F09FF9A674296E30468847686BB6
:2059C00080470020F8BD0320F8BD0A20F8BD00005C010020241100206D640008A16E0008B2
:2059E0009D6D0008FD6D0008D1630008656C0008C16600089D6B0008516D0008FD6B000899
:205A0000BCDD0008F8B506461D4617460C460D48FDF7DFF839460B48FDF7EBF8E2B2314606
:205A20000848FDF7EEF80749C81FFD38FDF733F8054C601CFCF72DFC21780002084328605A
:205A4000F8BD0000501300204C120020FFB585B00F46044607ADF02200211D480E9E06F01A
:205A600083FE1B4A1021204605F0D6F810220021684606F079FE0120694608700622394689
:205A80006C46684406F058FE02222946E01D06F053FE0F4A6846089905F095F81022002108
:205AA000684606F061FE02206946087006223946601C06F041FE02222946E01D06F03CFE82
:205AC000034A3146684605F07EF809B0F0BD00005C120020F8B517460C4606461D46F022D8
:205AE00000210B4806F040FE094A1021384605F093F8074A2946304605F065F8102C06D3DF
:205B000029463046024A1031103005F05CF8F8BD5C120020F0B5044687B00220049000204B
:205B200006460190002C78D04249886BC20701D1C00602D5012007B0F0BD00206946087290
:205B4000014614223C4806F00FFE3B480121394A417051732078002804D001280AD00328E2
:205B600026D118E011736B46187A0126C006C00E403007E0E07B10736B46187A0126C0064F
:205B8000C00E8030187220790190A06800900E25A78965570CE011736B46187AE02318430B
:205BA0006B4618726068012600900A252789655701206946087521480690007B88751D4867
:205BC00005A9007C02F014FBA84200D3054668B2002E1FD0174D2979002910D16946087321
:205BE00006980422007B887303A9287C02F077FB002812D011496846007B203948703B4698
:205C000002A8009A019904F017F80490002806D00020687104988EE7FFE703208BE706483E
:205C200021780170034801221A30017811430170F0E700005C0100201C1200200C11002085
:205C4000F8B500250446002818D03849267836480F463837027C330004F099FF1E1214171F
:205C6000191B1E20232527292E3937404446484A4C4E50545256585A5C5E60620320F8BD34
:205C8000407C00E0C07820714BE00079FBE7C06C00E0006D606044E02548FBE724481030C1
:205CA000F8E7807CEFE7C07CEDE7192010E01F492039486C896C05E01C48203801467C31FB
:205CC000C06F4968A16060602BE0172000E0162069460870104602F08BFADBE7134820306A
:205CE0000078D0E7C868D5E70869D3E74869D1E78869CFE7C869CDE77878C4E74878C2E765
:205D00003878C0E70878BEE7806AC3E7C06AC1E7406ABFE74868BDE7087AB4E7486BB9E78D
:205D200002252846F8BD00005C010020EC100020CC0D0020F0B5002485B00746002806D03E
:205D4000934E308FC00704D0012005B0F0BD0320FBE7914D3A78284620300490407B009053
:205D60008B488C49007C130004F011FF1E102124272A2D333C41F744819894A4ABAEB1B4FD
:205D8000B7BAC9E5D6FAFDF7F4F3F2F738797074002804D0012804D0022802D102E0486B30
:205DA0008047F3E00020707101F028F8EEE03879F070EBE038793071E8E07868F064E5E07A
:205DC00078683065E2E07968002972D01022734805E079680029F8D070481022103006F07C
:205DE000ABFCD3E03879B074096E8847CEE03879F074CBE0397A6A46117100995171062258
:205E000001A902F06CFA002853D06348BA682038796882644164707C022827D1F078002806
:205E200024D05D4F0498F0370097082141562A7A6B68307C02F0C6F9707D3870686A786095
:205E400004983A46407B3874F07C78740120F874B8742C323946307C02F009FA00287DD0BB
:205E6000B87CE96802F0D0FAF87CF0738EE0397A6A46117100995171062201A902F02FFA6F
:205E800000286BD04448BB6820387A688021C2670B507BE079680291012102E0796802914A
:205EA00000216A46117302A901F0A2FF002855D06CE053E03879411E0E294FD80499087001
:205EC00064E07868E86061E0786828615EE0786868615BE07868A86158E07868E86155E00B
:205EE00039796A461171052201A902F0F8F9002834D06846017928483830417046E0397955
:205F00006A461171042201A902F0E9F9002825D068460079687039E039796A461171082268
:205F200001A902F0DCF9002818D0684601791A48383001702AE039796A461171072201A9BC
:205F400002F0CDF9002809D06846007928701DE018E011E00AE006E002E016E0032415E01F
:205F60007868B06212E07868F0620FE00A49786838314860686009E0074938793831087243
:205F8000287203E07868686300E002242046DCE65C010020BCDD0008EC100020CC0D002078
:205FA000F0B50446022085B00090002C36D04748008FC00718D10C220021454806F0D4FB6A
:205FC000434E01207070414D207808271A35002806D001285DD0022866D0032850D16BE040
:205FE0003A4B188FC00602D5012005B0F0BD6068002813D0A068002810D0E06800280DD025
:20600000207C00280AD06946087330481E2203A9007C02F064F9002802D00AE00320E4E7B7
:206020001F2069460874294804A9007C02F0E0F82074287869463843287020783070234EF3
:2060400060683064A0687064E068B064207C707600203076087102F04DF9307E6946401CFA
:20606000088102A9307C01F0CFFA1A49002348701A46194601A803F0DFFD0090002806D083
:206080001249002048712878F721084028700098ABE72878002238432870207830701146A6
:2060A0000220FCF70DFEE8E73070287838432870A08803F02DFEE0E730702878384328703E
:2060C000227BA088A16803F04BFED6E75C01002030120020EC100020FEB508AF70CF6F46A0
:2060E00070C700F001F8FEBDFFB50D460746002481B00126F02221462B4806F035FB2A4A6F
:206100001021039804F088FD28480A994171049981710499090AC1710499090C0172049942
:20612000090E41720B9981720B99090AC1720B99090C01730B99090E417319E01B481A4AB8
:20614000C673761C1146B6B2203904F03CFD0020154B2118203B1B5C7A5C401C5A400C9B31
:2061600080B25A541028F3D3103D1034ADB2E4B2102DE3D2002D14D00B4A0C481146C6737F
:20618000203904F020FD084A0020203A07E021187B5C165C73400C9E401C735480B2A842C4
:2061A000F5D305B0F0BD00005C120020D8010020F3B52A4887B00D4641786A461171007827
:2061C000274E1076307A717A4018C4B2002D31D00021117231795172306B2049039038391A
:2061E0004A78684602741D4F09784174183F397B817430463030009006AB01AA02A9307CFE
:2062000001F0F3F9397B684681750179417509210175F07C002802D00A206946087505A90F
:20622000307C01F0E5FFC0B26870A04205D3001B287006E0032009B0F0BD28700024347255
:2062400074726846042141562246079804F04EFC002801D00020EEE70820ECE7241100206B
:206260005C01002038B504466846054D04700B226946287C02F033F8002800D02C7538BDCB
:206280005C01002010B502790168407906F0ECFC10BD10B50168CA69D243D20603D410221D
:2062A0000A62FEF703FC10BDFF220132811A90420DD009DC08280ED009DC012809D002280F
:2062C00007D0042803D106E00F200002814207207047052070470620704770471CB50446A4
:2062E000407800281BD105F00FFD002801D005F0F9FC607B012812D1E078E02810D0694618
:206300004871207B0871A06800900848E1894180217C0171543800690169684688471CBDD9
:206320000349204605F0F6FC1CBD000098000020A406002070B50446007800280CD0012855
:2063400009D16078002806D105F0DEFC002802D0204605F0CFFC70BD60780025064C0028F9
:2063600004D006A006F0C2FF257070BD257020694069804770BD0000440000204A6F696E7B
:20638000204661696C0D0A00704700008307FF22DB0E9A408907090E994000280BDA000791
:2063A000000F0838830808489B001818C36993430B43C3617047830804489B0018180368B0
:2063C00093430B430360704700ED00E000E400E010B50B4804F0F6F80A484179002905D0EA
:2063E00001218173816B042291438163407C022805D1044810221A3001781143017010BD2E
:20640000F01100205C0100200EB507A00068029002A80090012069460871E020487100211D
:206420006846FFF7C1F80EBD0100000010B505F037FD10BD10B503F0CBFF05488168012996
:2064400003D904A0491E06F051FF03F025FD10BDF000002052656376206C6F7261206672C7
:20646000616D653A2025640A0D000000F8B500268D4804F0A7F88D4F8D4C3878C1067DD536
:20648000A16B4A0604D54022914349084900A163854A0107D4320025002901DBC10711D043
:2064A0008149C0314B78022B02D05378022B09D1A36B5B085B00A3632572637B4B710D710C
:2064C00001268D6061793143774E503E002934D1010702D4C10703D12FE01178002906D0C8
:2064E0003178A27A91420ED9810712D420E0217E91725278002A03D0627E914213D217E0B7
:20650000A562A5720FE0800703D42572206B401C2063A5726078002802D1A06A401CA062BD
:2065200064A006F0E3FEA06B40084000A06304E0EF210840387000F0B3FC387880071BD540
:206540005948C0300079012803D0607B217B884212D9A57365716078002802D1A06A401CE2
:20656000A06254A006F0C2FE4F48617BC0304171A06B40084000A063A07B00E03AE0002887
:206580003FD0208FC0063CD4A573607B217B88424ED208284CD8401C6073C0070DD0202186
:2065A00068460170317B404E8170703E717841706946207C01F01CFE707003F0B9FA002845
:2065C00014D039480921C03041702572A16B49084900A16365710571617B4171324970394C
:2065E000497881706078002805D007E03978EF200140397005E0A06A401CA0622DA006F073
:2066000075FEA06B810702D502218843A06300281ED07D21C900244803F088FF224803F0EC
:2066200097FF387880073ED5607C02282DD02EE00121207C01F0E5FDA06B40084000A06342
:20664000194825726571C0300571617B4171C9E73878C00708D0E06D01681348C0308847A9
:2066600038784008400038703878000708D5E06D81680D48D43088473878F7210840387090
:206680003878EF2108403870CBE700F0B7FB3878400704D4E06D41680348A830884738788F
:2066A000F92108403870F8BD5C110020760100205C01002053656E64204F4B0D0A0000001F
:2066C000FFB50446002095B00D4601460D900A90064607460990FE480E9010300890002078
:2066E00006901190FB4801711838C281189A0274F94AD27B4274C170817041718160017384
:206700004173817441610170F448406B8047F148683803F057FF207869460870691E029114
:20672000291F40091091EE491390019101281BD003287DD005287BD007287AD00120F831F4
:20674000487000F075FDE44810221A30017811430170E3480121503003F0E8FEE0485030EB
:2067600003F0F6FE19B0F0BDDB4FF878002804D0D8490120183948705FE10298D94E81B2A7
:20678000731C601CBA6CFFF7A5F968460078307010980AAB81B23046BA6CFFF733F9701997
:2067A0002038417F027F09021143827FC07F12040A43C84C00060A9910431434884248D103
:2067C000C348C34B10300090FA8B711CB86CFFF73DF97079317900020843B1790904014313
:2067E000F964317AF07909020143707A00040843B17A090601433965F07A41064A0F0199E0
:206800004A7001070198090F0172307BB64E0007000F306101D1012030617D21C9004843C6
:20682000306140187061AF480D300490684601E012E098E1113D057504A9387C00F0EDFED8
:20684000002060700120F870A54818304078707079E70720607076E7487B694688739D48EC
:206860009D4A18380079487309200873D07C002801D00A200873984803A9007C01F0B8FC72
:20688000014628460D3800B2002800DA0020884200D96DE7A078617800020843E1788E4AC4
:2068A000090401432079000608430790126D05219042894815D0476A0CE03A680798824237
:2068C00007D101200690381D0E90103008907E6A08E0BF6A002FF0D10698002802D10B21B0
:2068E0003EE1C66A605C08AA10730C90491C625C491C615C0007000F08300F900902601906
:2069000011432038027F099B1A43437F1B021343827FC07F12041A43000610430990881BCC
:2069200080B20122D2030AA90B90904212D2361801200196009002911098079B81B220461D
:206940000E9AFEF715FF0A99099888421AD10120119017E000B20122301812048018129067
:206960000190029110980122009281B22046079B0E9AFEF7FDFE0A990998884202D10120C1
:20698000129E1190112069460873534803A9007C01F02EFC01460B98814205D84D480A2123
:2069A00018384170466148E0119800287AD04949002018394870069A8A700C9AD206D20F38
:2069C0004A71886008734E611831434A487010635072069800280DD00A460220183A107040
:2069E000786AB04204D1002802D00820507024E07E621DE0139805280BD0374B354A002057
:206A00009871183A1070D86AB0420FD10028ECD10CE031482F4B01228271183B1A70C06AA6
:206A2000B04203D1002801D001200D902A48C66228480078012803D005E000F0F9FB91E61B
:206A40000C98800602D52449002008720F98281A001F002853DD0F9F0F987F1CE91B091FB2
:206A6000205CC9B206911B491839C87000280C9819D0000707D018980821C3B2781EC2B2B0
:206A8000204600F0F3FB174D0120019602950090E019079B089A0699FFF71EFB0D980028B7
:206AA00026D050E05BE0000702D001200D904AE00C480121029001960091E019079B0E9A41
:206AC0000699FFF709FB18980021C3B205480DE0CC0D00201C1200205C010020BCDD000838
:206AE0000C110020EB0E0020EC100020069A0EE02748856006990173012141730CE00C98C9
:206B0000000706D018980821C3B220460F9A00F0ADFB0D98002816D10C98800606D51C4985
:206B20000120183108711839887408E018490020183108711748417B007B814203D9144869
:206B4000143803F03FFD134A02211A3210780843FB2108400D99890008431070F3E50C21B8
:206B60000B48417069E7611C2A460B4805F0E4FD0748032101700021417007498160029929
:206B80000173044802221A30017811430170DAE5041200205C010020EB0E002070B5144C79
:206BA000607C022803D01348406B804701E000F025F9114A0E4DE07B11461A35102614310E
:206BC0006379002805D00620002B00D0507048700AE00520002B00D050704870606D03F001
:206BE00031FCA16E884202D328783043287070BD5C010020BCDD00081C12002070B5164CEF
:206C0000607C022803D01548406B804701E000F0F5F81349104DE07B0A461A3510261432DF
:206C20006379002808D00420002B00D048705070607C02280BD170BD0320002B00D04870FC
:206C40005070606D03F0FEFBA16E8842F3D328783043287070BD00005C010020BCDD000826
:206C60001C120020FEB503F0E7FB364C0546607C022803D03448406B804701E000F0BEF823
:206C8000304FA0781A37002600282AD02F48616E03F04CFC2D4803F05BFC607C02280ED0A0
:206CA0002A48A16E143003F041FC2848143003F04FFC607C022802D06079002820D01220F2
:206CC0006946087202A9207C01F092FAA16E41181E48503003F02AFC1C48503003F038FC55
:206CE0000EE01A4804217C304670143041703878002801D101203870C0B2102108433870BF
:206D00003878000704D5114890300078002815D0E675607DA07569460870E078487001952B
:206D2000207C01F0B8FA65656079002805D107487C304670A07A401CA072FEBD0120E07509
:206D4000E7E700005C010020BCDD0008A011002010B50B48407C022803D00A48406B8047E1
:206D600001E000F04BF808490220487014314870034810221A3001781143017010BD000005
:206D80005C010020BCDD00081C12002010B506F0D3FA00211020FEF7D7FC10BD70B5144898
:206DA00003F010FC134D0021114CE973687D283420702046BC384278E270407B2074E87CB0
:206DC0006074A174E174687C022802D10A48806B8047074A287C68321146403901F047FAFF
:206DE0000348B438C168A07C01F00EFB70BD0000A01100205C010020BCDD000870B5144880
:206E000003F0E0FB124C134D2834687D26462070F03E706A60602046D038407B2074E87CC0
:206E200060740120E074697C022900D00020084AA074543211462C39287C01F018FA002892
:206E400005D0A07CF16801F0DFFAE07CE87370BDB41100205C01002010B503F0B9FA074C1A
:206E60006168002905D006A006F040FA6068401C6060042108A003F05FF910BDF00000209C
:206E800053656E64206C6F7261206672616D653A2025640A0D000000544553540000000035
