:020000040800F2
:1000000018080020B519000895180008971800086E
:1000100000000000000000000000000000000000E0
:100020000000000000000000000000009918000817
:1000300000000000000000009B1800089D18000848
:10004000FB070008AB080008AF080008EB14000825
:100050007B19000887190008B1190008D919000890
:1000600000000000DB190008DD190008DF19000896
:10007000E1190008E319000800000000E519000874
:1000800000000000E7190008000000000000000068
:10009000E919000800000000EB190008ED1900083C
:1000A000EF190008F1190008F3190008F519000804
:1000B000C1180008F7190008000000000000000047
:1000C000F8B50400B34D2078C0074FD58027BF0294
:1000D000E8680C210140082907D0E8680C2101409C
:1000E0000C290AD1E868C00307D5286807403DD02D
:1000F000606800283AD10120F2BD60687908884222
:1001000001D1286809E0A021C9028842286806D1E7
:100110007900014329602868790801430AE0AA4967
:1001200001402960286879080840009000982868F4
:10013000A64901402960606800280BD000F0ECFA65
:1001400006002868384011D100F0E6FA801B6528C7
:10015000F7D396E100F0E0FA06002868384005D0B1
:1001600000F0DAFA801B6528F7D38AE1207880074F
:1001700019D5AF4FE8680C210140042907D0E86881
:100180000C2101400C2935D1E868C00332D428681D
:10019000400702D5E0680128ADD1686807402069B2
:1001A000000238436860AF0D2078C00668D5E86863
:1001B0000C2101407AD12868800502D5A069002869
:1001C00099D0206A6968E02212020A40824235D240
:1001D00000F05EFA00288ED16868AC490140206AC0
:1001E0000843686068680002000AE1690906014383
:1001F000696034E0E068002810D029680922914342
:100200000843286000F088FA060028684007C4D434
:1002100000F082FA801B0328F7D332E1286801211D
:100220008843286000F078FA060028684007BAD5AD
:1002300000F072FA801B0328F7D322E16968934A21
:100240000A401043686068680002000AE169090614
:1002500001436960206A00F01BFA0028BBD101202D
:10026000216A490B491C8840C0038949EA68120683
:10027000120F895CC84087490860002000F052FADC
:100280002078000750D560690028286D3DD00121F5
:100290000143296500F040FA0600286D800743D429
:1002A00000F03AFA801B0328F7D3EAE0A06900289F
:1002B00028681BD03843286000F02EFA0600286812
:1002C000800505D400F028FA801B0328F7D3D8E076
:1002D00068686E490140206A0843686068680002E7
:1002E000000AE169090601436960C9E76A490140FA
:1002F000296000F011FA060028688005C0D500F0DA
:100300000BFA801B0328F7D3BBE001218843286543
:1003100000F002FA0600286D800705D500F0FCF910
:10032000801B0328F7D3ACE02078400763D500207A
:1003300000903805A96B014004D1A96B0843A8635C
:100340000120009055480068384011D1534800689A
:1003500038435249086000F0DFF906004F48006852
:10036000384005D100F0D8F9801B6528F6D388E025
:10037000A168B9420AD0A24800290DD0A022D2001B
:10038000914209D1286D290D01432965286D074344
:100390002F6508E000100240296D3F4A0A402A6597
:1003A000296D08402865974FA068002810D000F0FC
:1003B000B3F90600286D800516D400F0ADF9801B56
:1003C000B842F7D35DE000BFFFFFFEFFFFFFFBFF7A
:1003D00000F0A2F90600286D800505D500F09CF913
:1003E000801BB842F7D34CE00098002803D0A86BDC
:1003F00085490140A963606A002844D0E9680C225D
:100400000A400C2A00D176E68027BF047F490228E3
:10041000286829D10140296000F07EF9060028688B
:10042000384007D000F078F9801B0328F7D328E084
:10043000FFE0FFFFE86893490140A06A0843E16AD2
:100440000143206B0843E86028687908014329606C
:1004500000F062F906002868384014D100F05CF919
:10046000801B0328F7D30CE00140296000F054F909
:1004700006002868384006D000F04EF9801B03289B
:10048000F7D30320F2BD0020F2BD0000FF1FFFFFE5
:100490003C1800080C000020FFFEFFFF0070004029
:1004A000F2B582B004000127FF43012576480068B9
:1004B000284088420AD27448006838400143724894
:1004C0000160006828400299884274D16F4E2078FC
:1004D000800705D5F068F0218843A1680143F160E9
:1004E0002068284055D06068022802D1316889030D
:1004F00008E0032802D13168890103E0012831684E
:1005000002D1490702D456E0890554D5F168032287
:1005100091430843F06000F0FFF800906068022803
:100520000CD1F0680C210140082932D000F0F4F819
:100530000099401A33498842F3D328E003280CD1AC
:10054000F0680C2101400C2923D000F0E5F8009957
:10055000401A2C498842F3D319E001280CD1F068E5
:100560000C210140042914D000F0D6F80099401A5B
:1005700024498842F3D30AE0F0680C21014008D0F6
:1005800000F0CAF80099401A1E498842F4D30320AB
:10059000FEBD02983C490968294088420DD23A487C
:1005A00000680740029838433749086008680540EA
:1005B0000298854201D00120FEBD2078400705D574
:1005C000F0684B490140E0680843F060207800077C
:1005D00006D5F068474901402069C0000843F06033
:1005E00000F016F84449F2681206120F895CC84000
:1005F00042490860002000F095F80020FEBD000090
:10060000FFFBFFFF89130000FFFFFFEFFFFFFFFE6F
:10061000F0B51E4DE9683B4A9308102654080C209B
:100620000840042804D0082809D00C2809D01DE06F
:100630002868064001D01800F0BD1000F0BD200071
:10064000F0BD31488F023F0FC05D0902890F491C80
:10065000EF68FF0301D5604305E02C68264001D018
:10066000584300E0504300F071F8F0BD6868012184
:100670000004400F401C8140C803F0BD1F480068C3
:1006800070470000FFFF02FF002002400010024000
:10069000F0B5002201211A4B1C68F025254018D125
:1006A000C02464011A4D0E07DF6A374002D02D685E
:1006B000254008E0DF6A3E43DE622D682540DE6AA1
:1006C000144F3740DF62A54203D1E300984200D1C6
:1006D00001220E4803680124A3431343036000680A
:1006E0000140914201D00120F0BD0020F0BD00008A
:1006F000FFF8FFFFFFC7FFFF3C1800080C000020B9
:100700000C1002400024F4004C18000800200240A5
:1007100000700040FFFFFFEF01480068704700BF16
:100720009414002010B5040007480068FA218900DD
:1007300000F00CF800F089F8002221000020C043EE
:1007400000F076F8002010BD0C0000200022030A03
:100750008B420BD203098B4219D243088B422ED213
:10076000411A00D20146524110467047FF22090249
:100770003FD012068B4205D3121209028B4201D3DD
:100780001212090203098B4219D300E0090AC309B6
:100790008B4201D3CB01C01A524183098B4201D352
:1007A0008B01C01A524143098B4201D34B01C01A3D
:1007B000524103098B4201D30B01C01A5241C308B5
:1007C0008B4201D3CB00C01A524183088B4201D324
:1007D0008B00C01A524143088B4201D34B00C01A10
:1007E0005241884200D3401A5241CFD201461046AE
:1007F000704708B500F05AF808BDFEE710B5C20012
:1008000018231340FF249C40E2438907090E9940B6
:10081000002804D51F4B0007000F083800E01E4BCE
:1008200080088000181803681A401143016010BD49
:1008300080B5FFF7E3FF01BDBFF34F8F174818499D
:100840000860BFF34F8F00BFFDE710B5401E802149
:100850004904884201D3012010BD124C606003217D
:100860000020C043FFF7CAFF0020A06007212160DD
:1008700010BD0C490428086803D1042202430A6011
:100880007047042290430860704780B500F00CF870
:1008900001BD00001CED00E000E400E00400FA05EA
:1008A0000CED00E010E000E07047FEE77047FEE767
:1008B00038B55F4B1A68002A1BD1002919D0B04AFD
:1008C000914216D2AF4A1478012C12D1AE4C057861
:1008D000A56200251570491E19609D800A00411C03
:1008E000981D00F0E3FA2068802101432160012077
:1008F00032BD002032BD38B5050000F005FB84B2E2
:1009000021002800FFF7D4FF0128F9D131BD80B5BF
:100910009D48C169890607D50168890604D5406AE2
:10092000C0B200F03AF801BDC169C90607D5016837
:10093000C90604D51021016200F041F801BDC36968
:1009400040223B491B0617D503681B0614D50B68CC
:10095000002B09D08A88531C8B808A189279826276
:100960000868401E086001BD01688023994301604A
:1009700001680A43026001BDC3695B060CD50368C8
:100980005B0609D50262026840239A430260002098
:10099000086001207B49087001BDAA498A88832329
:1009A000DB009A420ADA0A68002A07D18A88531CB7
:1009B0008B80891888710120A34908607047002046
:1009C000A14908609F498A880A60888070470000B2
:1009D00038B500249D4B0D68002D0FD000785528A8
:1009E00001D0752809D101201D78002D00D1187083
:1009F0005D68C82D01DB5C6010700C6098689449DC
:100A0000884213DB9C6093480168934A0A40802126
:100A100089058A4206D141685961006880F30888D7
:100A20000846804703A0FFF766FFFEE731BD0000E0
:100A3000380C00200A0D5374617274204661696C91
:100A40002100000070B504000D0016000120286090
:100A50000FA0FFF750FF3D2213A1200000F026FA5F
:100A600021A1200000F058FA22A1200000F054FA41
:100A700022A1200000F050FA2FA1200000F04CFA33
:100A8000022030702000FFF736FF0020286070BD84
:100A90000D0A462D49434D2D30312D313830363039
:100AA00034310D0A000000000D2A2A2A2A2A2A2A97
:100AB0002A2A2A2A2A2A2A2A2A2A2A2A2A2A2A2A96
:100AC0002A2A2A2A2A2A2A2A2A2A2A2A2A2A2A2A86
:100AD0002A2A2A2A2A2A2A2A2A2A2A2A2A2A2A2A76
:100AE0002A2A0D0A00000000312E557064617461DD
:100AF0000D0A0000322E52756E0D0A002A2A2A2A8B
:100B00002A2A2A2A2A2A2A2A2A2A2A2A2A2A2A2A45
:100B10002A2A2A2A2A2A2A2A2A2A2A2A2A2A2A2A35
:100B20002A2A2A2A2A2A2A2A2A2A2A2A2A2A2A2A25
:100B30002A2A2A2A2A0D0A0053656C6563743A0032
:100B400038B50C002168002918D00025007831281C
:100B500002D032280CD010E0B2483E498160B24940
:100B60000160B74941600320107000BF07A002E098
:100B7000157000BF09A0FFF7BEFE256031BD000063
:100B8000190400001000002000440040310D0A4309
:100B9000686F73652046570D0A000000320D0A5237
:100BA000756E6E696E672E2E2E0D0A0070B50023CD
:100BB000002824D01400080025006C1E2D0410D03D
:100BC0001D0003781B026B40401C08255E001B04BF
:100BD00003D5AA4B73409BB200E0B3B26D1EEBD0BD
:100BE000F4E7885C000289184978401880B2834293
:100BF0000AD0002070BD1B18DBB2491C521E0878B9
:100C0000002AF8D18342F4D1012070BD9C49C8600C
:100C100008680006FCD5704730B5010000220020AE
:100C20000A4B1C69002C00D41A611C698C4201D348
:100C30001A6130BD924C2568AD06F6D5A068C0B2E9
:100C400030BD000018080020901400205814002027
:100C5000B80B0000002000080000FE2FF3B5894803
:100C6000854400200390432701200090002002903B
:100C7000192001900D20FFF7C9FF0A20FFF7C6FFDA
:100C800068480068010002D0804700E01527102462
:100C9000380001D0FFF7BAFFFA20C000FFF7BCFF11
:100CA00000282DD4012806D0022810D0042811D005
:100CB000182819D024E08024432F01D10121039169
:100CC00000276946087404A8451C002630E08024EB
:100CD000E400F1E70620FFF799FF0620FFF796FFF3
:100CE000029869498D44F0BDFA208000FFF794FF17
:100CF000182805D10620FFF789FF0020C043F0E740
:100D0000641EC5D1432FC1D01820FFF77FFF1820E4
:100D1000FFF77CFF1820FFF779FF0120EEE7FA20AC
:100D20008000FFF779FF002861D428706D1C761CC5
:100D30000398002801D0601C00E02000C01C8642FF
:100D4000EDDB04A8407804AA9278D343DBB2984242
:100D50004DD10099884202D0491E884247D12200D5
:100D600004A8C11C0398FFF721FF00283FD004A866
:100D700040780099884226D1FFAD6D6AAC4201DA15
:100D8000250001E0012D18DB2A0004A8C11CFFA8E2
:100D9000006A00F08BF823484368180005D0AAB217
:100DA00020488168FFA8006A98471E48806840195B
:100DB0001C4988600298401902900098401CC0B2FB
:100DC00000901A2001900198401E019001280ADA33
:100DD0001820FFF71BFF1820FFF718FF1820FFF758
:100DE00015FF02208AE70620FFF710FF4FE71520C6
:100DF000FAE780B5254801688022914301600168C7
:100E00004022914301600168102291430160016812
:100E1000202291430160010D1D48FFF71FFFFFF7DE
:100E20000BFDFEE700000020AB1700081748016823
:100E300010220A430260016820220A4302607047C0
:100E40006917000880B5134A10785168002805D04A
:100E5000022807D004D3032806D007E00E4907E094
:100E60000E4905E00E4903E00E4901E00020107034
:100E700051600D49881D5368984701BD211000003D
:100E80001C440040E4FBFFFF240400000044004039
:100E90005810002088140020D1090008450A0008D5
:100EA000410B0008F30D000818080020124207D07B
:100EB0008B0706D00B78491C0370401C521EF7D8D4
:100EC0007047830706D00B78491C0370401C521EE4
:100ED000F9D1704770B4103A03D378C9103A78C08A
:100EE000FBD2530701D318C918C001D508C908C0DF
:100EF000D20704D30B880380891C801C002A01D5EB
:100F00000B78037070BC7047010000E0491C0A7840
:100F1000002AFBD1081A7047020000E0521C137827
:100F2000002BFBD10B781370002B02D0521C491CF4
:100F3000F8E77047F2B51700344C207C012801D146
:100F40000220F2BD012020745A4D280000F026F83E
:100F50000026010005D1666100980760280000F0B6
:100F60001DF82674F2BD5448016889070CD5016844
:100F7000C90703D551498160514981605149C16018
:100F80005149C16000207047012070474A480168FC
:100F90000222FFE70A4302600020704770B5050097
:100FA000FFF7BAFB06004A4C2068C0070CD50020AA
:100FB000C0438542F8D0002D04D0FFF7ADFB801B65
:100FC0008542F1D2032070BD02202168014000D08B
:100FD00020602068C00511D4206880050ED42068E8
:100FE00040050BD42068000508D42068800405D48F
:100FF0002068800302D42068C00303D500F008F8FD
:10100000012070BD002070BD0000000070140020A1
:1010100030B500222D4880235B002D490C681C4010
:1010200004D042690224144344611A004B0D0C6839
:101030001C4006D0446901252543456114001A006F
:1010400022430B0D0C681C4006D04469082525433B
:10105000456114001A002243CB0C0C681C4006D0DA
:10106000446904252543456114001A0022439B006E
:101070000C681C4006D044691025254345611400C6
:101080001A0022430B689B0306D5202344691C43A6
:10109000446114002022224380235B020C681C4020
:1010A00006D0446940252543456110001A000243DB
:1010B0000A6030BD50C3000004200240EFCDAB8970
:1010C00005040302BFAE9D8C161514137014002086
:1010D00018200240F8B50400514D2078800670D5E4
:1010E0000020009080204005A96B014004D1A96B2D
:1010F0000843A863012000904A4E3068C0050FD411
:101100003068A90D01433160FFF706FB0700306826
:10111000C00505D4FFF700FBC01B6528F7D336E0F8
:1011200029686068C026B60232010A4031010140D8
:101130008A4208D031000140B14204D129688903B4
:1011400001D50120F2BD296D314022D030408142CD
:101150001FD0207880061CD5286D33490140286DAA
:101160008022120302432A65286D304A02402A6514
:101170002965C8050DD5FFF7CFFA0700286D800552
:1011800007D4FFF7C9FAC01B29498842F6D30320C8
:10119000F2BD606831000140B14206D12968254A9C
:1011A0000A403101014011432960286D61680E40F9
:1011B00006432E650098002803D0A86B1E49014005
:1011C000A9632078C00705D5E86C03218843A1688E
:1011D0000143E9642078800705D5E86C0C21884339
:1011E000E1680143E9642078400705D5E86C1349BC
:1011F000014020690843E8642078000705D5E86CC1
:101200000F49014060690843E8642078000605D56D
:10121000E86C0C490140A0690843E8640020F2BD75
:101220000010024000700040FFFFFCFFFFFFF7FFCF
:1012300089130000FFFFCFFFFFFFFFEFFFF3FFFF6A
:10124000FFCFFFFFFFFFF3FF38B501000020444A46
:10125000324C80231B02032913D1E16C8907890FCB
:10126000C025AD020D433F496D1A1AD06D1E1BD02B
:101270006D1E1ED000F029F800F044F800F050F880
:1012800032BD0C2920D1E16C0C250D40C021090391
:101290002943354D491B04D0091F05D0091F08D02B
:1012A0000CE000F012F832BD216849070CD510009F
:1012B00032BD216D890507D5180032BD00F005F853
:1012C00000F020F800F024F832BD10B5274A9368EA
:1012D000072001210C241C400DD0042C04D0082C24
:1012E00004D00C2C04D006E01D4810BD204810BDD1
:1012F00000F01EF810BD1268520B1040401C8140D7
:10130000C80310BD1B4909681B4A0906090F0CE0F8
:1013100018490968194A490506E000000010024012
:1013200014490968154A8904490F515CC84070473F
:1013300000B510490868802252021040904201D145
:101340000B4800E006480A6809680D4B9202120F2C
:101350009A5C50430902890F491CFFF7F7F900BD59
:101360000024F4000100030004000C0004100240FB
:1013700000127A000C1002403C180008D019000836
:101380004C180008F0B58FB08020800229490A6807
:1013900002430A60096808400690069804240094F5
:1013A00002270197032602960025039504950594CC
:1013B0006946A020C00500F047F80820009001977A
:1013C00002960395049505946946A020C00500F097
:1013D0003BF819480168FF2291430160A0061749B4
:1013E0000860E12040020790089509950A950C20B5
:1013F0000B900C950D95124C07A9200000F076F883
:101400006068F904014361606068710501436160CF
:10141000A068A10C0143A16060680A4901406160B5
:10142000A0682A218843A06020680121014321602F
:101430000FB0F0BD381002401CE400E000E100E015
:1014400000440040FFB7FFFFF0B500230CE02D0A79
:101450002A006A436A436A43456A1601B61AB543CD
:1014600062432A4342625B1C0A681400DC402FD0AE
:1014700001259D401540F6D02A006A435400A61865
:10148000F443066826404F685743374307604E6869
:10149000012E01D0022E05D1866826408F68574361
:1014A00037438760C66834400E6956432643C6609A
:1014B0004C68022CD7D14C69FF2DC8D86A436A43C7
:1014C000056A1601B61AB54362432A430262CAE7A7
:1014D0004B68012B01D0022B05D143689343C968A7
:1014E0004A431A4342600120F0BDFEE770B5040094
:1014F0000E0000252068C0073ED420682149014025
:1015000070680843F168014330690843B1690143D9
:10151000216060681C490140B06808436060A068B1
:101520001A49014070690843A0601448844201D1FF
:10153000032003E0124884421ED10C20FFF784FEF2
:10154000002819D03168002916D001254A08B3694E
:10155000EE03B3420BD140008018FFF7F7F880B2DA
:101560000B4901400007400F0143E16004E080188F
:10157000FFF7ECF880B2E060280070BD0038014051
:1015800000440040F369FFEFFFCFFFFFFFFCFFFFC8
:10159000F0FF000010B500F059F800F011F800F06D
:1015A00065F8FFF7EFFEFFF741FC254CFFF74AFC1B
:1015B0002068FA2189008842F8DB00202060F5E7E6
:1015C00070B59AB01F4801681F4A0A40C10C114308
:1015D000016002240C9401260F9610201090002523
:1015E00015950CA8FEF76CFD002800D0FEE70F2033
:1015F0000090019602950395049500216846FEF738
:101600004FFF002800D0FEE70594089505A8FFF7D6
:1016100061FD002800D0FEE7FFF730F8FA218900CD
:10162000FFF794F8FFF711F90420FFF722F90022E1
:1016300000210020C043FFF7FBF81AB070BD000086
:101640005C14002000700040FFE7FFFF80B50648F3
:10165000016840220A4302600020FFF763F800F0AF
:1016600013F8002002BD00000020024081B00120DC
:1016700004490A6802430A6009680840009000981B
:1016800001B070472C10024080B50E48016801225D
:101690000A4302604168802252050A4342600022E8
:1016A00000210420C043FFF7C3F8002200210120DD
:1016B000C043FFF7BDF8002200210020C043FFF720
:1016C000B7F801BD34100240F2B50700174C207C7A
:1016D000012801D10220F2BD012020741448FFF737
:1016E0005DFC01001FD10021C943009A11607D6893
:1016F000104E00E08035B968C9017A6889188D42BA
:1017000011D2280000F01AF80948FFF747FC3168A9
:101710000822914331603168074A0A403260010073
:10172000E8D000990D6000212174F2BD70140020F2
:1017300050C3000004200240FFFDFFFF10B5002150
:10174000074A5161074A1368540D1C43146013681B
:1017500008241C4314607F229043016010BD0000E8
:10176000701400200420024070B582B00D001600F5
:101770000400009503E0241D0098001D00900098CF
:10178000A91988420FD2FFF7EEFB226800990220C8
:10179000FFF7D0FBFFF7FAFB206800990968884241
:1017A000E9D0002076BD012076BD10B586B00024BA
:1017B0000194FFF7D8FBDC20000200900098810A1A
:1017C000800500D0491C029405480390049101A9AA
:1017D00002A8FFF779FFFFF7D9FB06B010BD0000A4
:1017E000002000080F480168820D0A430260C168AA
:1017F0000D4A0A40C26001680C4A0A4002608168D2
:101800000122914381600168094A0A400260C1686F
:10181000084A0A40C2600021016180200005064993
:1018200008607047001002400C40FF88F6FFF6FE8B
:10183000FFFFFBFFFFFF02FF08ED00E000000000DC
:10184000000000000102030406070809030406085B
:101850000C1018203000000070B40121002213E0A9
:101860000468001D0C4202D04D466D1E64192260B2
:10187000241D1B1F042BFAD225009E0701D52280B0
:10188000AD1C0B4000D02A700368001D002BE7D16F
:1018900070BC70477047FEE77047704780B500F036
:1018A00013F8FEF7F2FF00200449820089180A6845
:1018B000521C0A60401C0428F6DB01BD5C140020A9
:1018C00080B5FFF724F801BD02480168491C01609A
:1018D000704700BF9414002030B401210268001D3D
:1018E000002A0FD00368C318446808300C4202D0A5
:1018F0004D466D1E64191D6825601B1D241D121F99
:10190000ECD0F8E730BC704710B50749794418317E
:10191000064C7C44163404E0081D0A688918884780
:101920000100A142F8D110BD08000000280000000D
:1019300029FFFFFF800C00001808002000000000B5
:1019400099FFFFFF14000000540000000000002079
:101950000000000000F00BF8002801D0FFF7D4FFD2
:101960000020C046C046FFF715FE00F002F8012037
:10197000704780B500F002F801BDFEE70746384623
:1019800000F002F8FBE7FEE780B5C046C046024A19
:1019900011001820ABBEFBE726000200000000008B
:1019A000000000000020000880841E0001000000EC
:1019B000FEE700000148804701480047E51700089E
:1019C000C5190008C046C046C046C046FFF7C2FF62
:1019D0000000000001020304FEE7FEE7FEE7FEE769
:1019E000FEE7FEE7FEE7FEE7FEE7FEE7FEE7FEE7CF
:0819F000FEE7FEE7FEE7FEE75B
:04000005080019C511
:00000001FF
